{
	"Optimized.sol": {
		"investre": {
			"abi": [
				{
					"inputs": [
						{
							"internalType": "address",
							"name": "_usdc",
							"type": "address"
						},
						{
							"internalType": "address",
							"name": "owner",
							"type": "address"
						}
					],
					"stateMutability": "nonpayable",
					"type": "constructor"
				},
				{
					"inputs": [],
					"name": "EnforcedPause",
					"type": "error"
				},
				{
					"inputs": [],
					"name": "ExpectedPause",
					"type": "error"
				},
				{
					"inputs": [
						{
							"internalType": "address",
							"name": "owner",
							"type": "address"
						}
					],
					"name": "OwnableInvalidOwner",
					"type": "error"
				},
				{
					"inputs": [
						{
							"internalType": "address",
							"name": "account",
							"type": "address"
						}
					],
					"name": "OwnableUnauthorizedAccount",
					"type": "error"
				},
				{
					"inputs": [],
					"name": "ReentrancyGuardReentrantCall",
					"type": "error"
				},
				{
					"anonymous": false,
					"inputs": [
						{
							"indexed": true,
							"internalType": "address",
							"name": "user",
							"type": "address"
						},
						{
							"indexed": false,
							"internalType": "uint256",
							"name": "usdcAmount",
							"type": "uint256"
						},
						{
							"indexed": true,
							"internalType": "address",
							"name": "router",
							"type": "address"
						}
					],
					"name": "AutoBuyApproved",
					"type": "event"
				},
				{
					"anonymous": false,
					"inputs": [
						{
							"indexed": true,
							"internalType": "address",
							"name": "previousOwner",
							"type": "address"
						},
						{
							"indexed": true,
							"internalType": "address",
							"name": "newOwner",
							"type": "address"
						}
					],
					"name": "OwnershipTransferred",
					"type": "event"
				},
				{
					"anonymous": false,
					"inputs": [
						{
							"indexed": false,
							"internalType": "address",
							"name": "account",
							"type": "address"
						}
					],
					"name": "Paused",
					"type": "event"
				},
				{
					"anonymous": false,
					"inputs": [
						{
							"indexed": false,
							"internalType": "address",
							"name": "account",
							"type": "address"
						}
					],
					"name": "Unpaused",
					"type": "event"
				},
				{
					"inputs": [],
					"name": "KYBERSWAP_ID",
					"outputs": [
						{
							"internalType": "uint8",
							"name": "",
							"type": "uint8"
						}
					],
					"stateMutability": "view",
					"type": "function"
				},
				{
					"inputs": [],
					"name": "KYBERSWAP_ROUTER",
					"outputs": [
						{
							"internalType": "address",
							"name": "",
							"type": "address"
						}
					],
					"stateMutability": "view",
					"type": "function"
				},
				{
					"inputs": [
						{
							"internalType": "address",
							"name": "user",
							"type": "address"
						},
						{
							"internalType": "uint256",
							"name": "usdcAmount",
							"type": "uint256"
						}
					],
					"name": "approveAutoBuy",
					"outputs": [],
					"stateMutability": "nonpayable",
					"type": "function"
				},
				{
					"inputs": [
						{
							"internalType": "address[]",
							"name": "users",
							"type": "address[]"
						},
						{
							"internalType": "uint256[]",
							"name": "usdcAmounts",
							"type": "uint256[]"
						}
					],
					"name": "batchAutoBuy",
					"outputs": [],
					"stateMutability": "nonpayable",
					"type": "function"
				},
				{
					"inputs": [],
					"name": "getKyberSwapRouter",
					"outputs": [
						{
							"internalType": "address",
							"name": "",
							"type": "address"
						}
					],
					"stateMutability": "pure",
					"type": "function"
				},
				{
					"inputs": [
						{
							"internalType": "uint8",
							"name": "routerId",
							"type": "uint8"
						}
					],
					"name": "getRouterAddress",
					"outputs": [
						{
							"internalType": "address",
							"name": "",
							"type": "address"
						}
					],
					"stateMutability": "pure",
					"type": "function"
				},
				{
					"inputs": [],
					"name": "owner",
					"outputs": [
						{
							"internalType": "address",
							"name": "",
							"type": "address"
						}
					],
					"stateMutability": "view",
					"type": "function"
				},
				{
					"inputs": [],
					"name": "pause",
					"outputs": [],
					"stateMutability": "nonpayable",
					"type": "function"
				},
				{
					"inputs": [],
					"name": "paused",
					"outputs": [
						{
							"internalType": "bool",
							"name": "",
							"type": "bool"
						}
					],
					"stateMutability": "view",
					"type": "function"
				},
				{
					"inputs": [],
					"name": "renounceOwnership",
					"outputs": [],
					"stateMutability": "nonpayable",
					"type": "function"
				},
				{
					"inputs": [
						{
							"internalType": "address",
							"name": "user",
							"type": "address"
						},
						{
							"internalType": "uint256",
							"name": "usdcAmount",
							"type": "uint256"
						}
					],
					"name": "singleAutoBuy",
					"outputs": [],
					"stateMutability": "nonpayable",
					"type": "function"
				},
				{
					"inputs": [
						{
							"internalType": "address",
							"name": "newOwner",
							"type": "address"
						}
					],
					"name": "transferOwnership",
					"outputs": [],
					"stateMutability": "nonpayable",
					"type": "function"
				},
				{
					"inputs": [],
					"name": "unpause",
					"outputs": [],
					"stateMutability": "nonpayable",
					"type": "function"
				},
				{
					"inputs": [],
					"name": "usdc",
					"outputs": [
						{
							"internalType": "contract IERC20",
							"name": "",
							"type": "address"
						}
					],
					"stateMutability": "view",
					"type": "function"
				}
			],
			"devdoc": {
				"details": "Ultra-lightweight auto-buy contract optimized for <15k gas per transaction  Design Philosophy: - Hard-coded trusted routers for maximum gas efficiency - Users approve routers directly to pull USDC - Backend handles validation, tracking, and swap execution - Standard USDC approval for simple UX - Minimal gas footprint for microtransactions",
				"errors": {
					"EnforcedPause()": [
						{
							"details": "The operation failed because the contract is paused."
						}
					],
					"ExpectedPause()": [
						{
							"details": "The operation failed because the contract is not paused."
						}
					],
					"OwnableInvalidOwner(address)": [
						{
							"details": "The owner is not a valid owner account. (eg. `address(0)`)"
						}
					],
					"OwnableUnauthorizedAccount(address)": [
						{
							"details": "The caller account is not authorized to perform an operation."
						}
					],
					"ReentrancyGuardReentrantCall()": [
						{
							"details": "Unauthorized reentrant call."
						}
					]
				},
				"events": {
					"Paused(address)": {
						"details": "Emitted when the pause is triggered by `account`."
					},
					"Unpaused(address)": {
						"details": "Emitted when the pause is lifted by `account`."
					}
				},
				"kind": "dev",
				"methods": {
					"approveAutoBuy(address,uint256)": {
						"details": "Ultra-light auto-buy approval function (hard-coded routers)",
						"params": {
							"usdcAmount": "Amount of USDC to approve",
							"user": "User's wallet address"
						}
					},
					"batchAutoBuy(address[],uint256[])": {
						"details": "Batch auto-buy approval for multiple users (KyberSwap only)      Can also be used for a single user by passing arrays of length 1.",
						"params": {
							"usdcAmounts": "Array of USDC amounts",
							"users": "Array of user addresses"
						}
					},
					"getKyberSwapRouter()": {
						"details": "Get KyberSwap router address",
						"returns": {
							"_0": "KyberSwap router address"
						}
					},
					"getRouterAddress(uint8)": {
						"details": "Get router address by ID",
						"params": {
							"routerId": "Router ID (0=OpenOcean, 1=KyberSwap)"
						},
						"returns": {
							"_0": "Router contract address"
						}
					},
					"owner()": {
						"details": "Returns the address of the current owner."
					},
					"pause()": {
						"details": "Emergency pause"
					},
					"paused()": {
						"details": "Returns true if the contract is paused, and false otherwise."
					},
					"renounceOwnership()": {
						"details": "Leaves the contract without owner. It will not be possible to call `onlyOwner` functions. Can only be called by the current owner. NOTE: Renouncing ownership will leave the contract without an owner, thereby disabling any functionality that is only available to the owner."
					},
					"singleAutoBuy(address,uint256)": {
						"details": "Approve auto-buy for a single user (KyberSwap only)",
						"params": {
							"usdcAmount": "Amount of USDC to approve",
							"user": "User's wallet address"
						}
					},
					"transferOwnership(address)": {
						"details": "Transfers ownership of the contract to a new account (`newOwner`). Can only be called by the current owner."
					},
					"unpause()": {
						"details": "Unpause"
					}
				},
				"title": "investreAutoBuy",
				"version": 1
			},
			"evm": {
				"assembly": "    /* \"Optimized.sol\":685:4127  contract investre is Ownable, Pausable, ReentrancyGuard {... */\n  mstore(0x40, 0xa0)\n    /* \"Optimized.sol\":1305:1399  constructor(address _usdc, address owner) Ownable(owner) {... */\n  callvalue\n  dup1\n  iszero\n  tag_1\n  jumpi\n  revert(0x00, 0x00)\ntag_1:\n  pop\n  mload(0x40)\n  sub(codesize, bytecodeSize)\n  dup1\n  bytecodeSize\n  dup4\n  codecopy\n  dup2\n  dup2\n  add\n  0x40\n  mstore\n  dup2\n  add\n  swap1\n  tag_2\n  swap2\n  swap1\n  tag_3\n  jump\t// in\ntag_2:\n    /* \"Optimized.sol\":1355:1360  owner */\n  dup1\n    /* \"@openzeppelin/contracts/access/Ownable.sol\":1297:1298  0 */\n  0x00\n    /* \"@openzeppelin/contracts/access/Ownable.sol\":1273:1299  initialOwner == address(0) */\n  0xffffffffffffffffffffffffffffffffffffffff\n  and\n    /* \"@openzeppelin/contracts/access/Ownable.sol\":1273:1285  initialOwner */\n  dup2\n    /* \"@openzeppelin/contracts/access/Ownable.sol\":1273:1299  initialOwner == address(0) */\n  0xffffffffffffffffffffffffffffffffffffffff\n  and\n  sub\n    /* \"@openzeppelin/contracts/access/Ownable.sol\":1269:1364  if (initialOwner == address(0)) {... */\n  tag_8\n  jumpi\n    /* \"@openzeppelin/contracts/access/Ownable.sol\":1350:1351  0 */\n  0x00\n    /* \"@openzeppelin/contracts/access/Ownable.sol\":1322:1353  OwnableInvalidOwner(address(0)) */\n  mload(0x40)\n  0x1e4fbdf700000000000000000000000000000000000000000000000000000000\n  dup2\n  mstore\n  0x04\n  add\n  tag_9\n  swap2\n  swap1\n  tag_10\n  jump\t// in\ntag_9:\n  mload(0x40)\n  dup1\n  swap2\n  sub\n  swap1\n  revert\n    /* \"@openzeppelin/contracts/access/Ownable.sol\":1269:1364  if (initialOwner == address(0)) {... */\ntag_8:\n    /* \"@openzeppelin/contracts/access/Ownable.sol\":1373:1405  _transferOwnership(initialOwner) */\n  tag_11\n    /* \"@openzeppelin/contracts/access/Ownable.sol\":1392:1404  initialOwner */\n  dup2\n    /* \"@openzeppelin/contracts/access/Ownable.sol\":1373:1391  _transferOwnership */\n  shl(0x20, tag_12)\n    /* \"@openzeppelin/contracts/access/Ownable.sol\":1373:1405  _transferOwnership(initialOwner) */\n  0x20\n  shr\n  jump\t// in\ntag_11:\n    /* \"@openzeppelin/contracts/access/Ownable.sol\":1225:1412  constructor(address initialOwner) {... */\n  pop\n    /* \"@openzeppelin/contracts/utils/ReentrancyGuard.sol\":1857:1858  1 */\n  0x01\n    /* \"@openzeppelin/contracts/utils/ReentrancyGuard.sol\":2061:2068  _status */\n  dup1\n    /* \"@openzeppelin/contracts/utils/ReentrancyGuard.sol\":2061:2082  _status = NOT_ENTERED */\n  dup2\n  swap1\n  sstore\n  pop\n    /* \"Optimized.sol\":1386:1391  _usdc */\n  dup2\n    /* \"Optimized.sol\":1372:1392  usdc = IERC20(_usdc) */\n  0xffffffffffffffffffffffffffffffffffffffff\n  and\n  0x80\n  dup2\n  0xffffffffffffffffffffffffffffffffffffffff\n  and\n  dup2\n  mstore\n  pop\n  pop\n    /* \"Optimized.sol\":1305:1399  constructor(address _usdc, address owner) Ownable(owner) {... */\n  pop\n  pop\n    /* \"Optimized.sol\":685:4127  contract investre is Ownable, Pausable, ReentrancyGuard {... */\n  jump(tag_15)\n    /* \"@openzeppelin/contracts/access/Ownable.sol\":2912:3099  function _transferOwnership(address newOwner) internal virtual {... */\ntag_12:\n    /* \"@openzeppelin/contracts/access/Ownable.sol\":2985:3001  address oldOwner */\n  0x00\n    /* \"@openzeppelin/contracts/access/Ownable.sol\":3004:3010  _owner */\n  0x00\n  0x00\n  swap1\n  sload\n  swap1\n  0x0100\n  exp\n  swap1\n  div\n  0xffffffffffffffffffffffffffffffffffffffff\n  and\n    /* \"@openzeppelin/contracts/access/Ownable.sol\":2985:3010  address oldOwner = _owner */\n  swap1\n  pop\n    /* \"@openzeppelin/contracts/access/Ownable.sol\":3029:3037  newOwner */\n  dup2\n    /* \"@openzeppelin/contracts/access/Ownable.sol\":3020:3026  _owner */\n  0x00\n  0x00\n    /* \"@openzeppelin/contracts/access/Ownable.sol\":3020:3037  _owner = newOwner */\n  0x0100\n  exp\n  dup2\n  sload\n  dup2\n  0xffffffffffffffffffffffffffffffffffffffff\n  mul\n  not\n  and\n  swap1\n  dup4\n  0xffffffffffffffffffffffffffffffffffffffff\n  and\n  mul\n  or\n  swap1\n  sstore\n  pop\n    /* \"@openzeppelin/contracts/access/Ownable.sol\":3083:3091  newOwner */\n  dup2\n    /* \"@openzeppelin/contracts/access/Ownable.sol\":3052:3092  OwnershipTransferred(oldOwner, newOwner) */\n  0xffffffffffffffffffffffffffffffffffffffff\n  and\n    /* \"@openzeppelin/contracts/access/Ownable.sol\":3073:3081  oldOwner */\n  dup2\n    /* \"@openzeppelin/contracts/access/Ownable.sol\":3052:3092  OwnershipTransferred(oldOwner, newOwner) */\n  0xffffffffffffffffffffffffffffffffffffffff\n  and\n  0x8be0079c531659141344cd1fd0a4f28419497f9722a3daafe3b4186f6b6457e0\n  mload(0x40)\n  mload(0x40)\n  dup1\n  swap2\n  sub\n  swap1\n  log3\n    /* \"@openzeppelin/contracts/access/Ownable.sol\":2975:3099  {... */\n  pop\n    /* \"@openzeppelin/contracts/access/Ownable.sol\":2912:3099  function _transferOwnership(address newOwner) internal virtual {... */\n  pop\n  jump\t// out\n    /* \"#utility.yul\":88:205   */\ntag_18:\n    /* \"#utility.yul\":197:198   */\n  0x00\n    /* \"#utility.yul\":194:195   */\n  0x00\n    /* \"#utility.yul\":187:199   */\n  revert\n    /* \"#utility.yul\":334:460   */\ntag_20:\n    /* \"#utility.yul\":371:378   */\n  0x00\n    /* \"#utility.yul\":411:453   */\n  0xffffffffffffffffffffffffffffffffffffffff\n    /* \"#utility.yul\":404:409   */\n  dup3\n    /* \"#utility.yul\":400:454   */\n  and\n    /* \"#utility.yul\":389:454   */\n  swap1\n  pop\n    /* \"#utility.yul\":334:460   */\n  swap2\n  swap1\n  pop\n  jump\t// out\n    /* \"#utility.yul\":466:562   */\ntag_21:\n    /* \"#utility.yul\":503:510   */\n  0x00\n    /* \"#utility.yul\":532:556   */\n  tag_31\n    /* \"#utility.yul\":550:555   */\n  dup3\n    /* \"#utility.yul\":532:556   */\n  tag_20\n  jump\t// in\ntag_31:\n    /* \"#utility.yul\":521:556   */\n  swap1\n  pop\n    /* \"#utility.yul\":466:562   */\n  swap2\n  swap1\n  pop\n  jump\t// out\n    /* \"#utility.yul\":568:690   */\ntag_22:\n    /* \"#utility.yul\":641:665   */\n  tag_33\n    /* \"#utility.yul\":659:664   */\n  dup2\n    /* \"#utility.yul\":641:665   */\n  tag_21\n  jump\t// in\ntag_33:\n    /* \"#utility.yul\":634:639   */\n  dup2\n    /* \"#utility.yul\":631:666   */\n  eq\n    /* \"#utility.yul\":621:684   */\n  tag_34\n  jumpi\n    /* \"#utility.yul\":680:681   */\n  0x00\n    /* \"#utility.yul\":677:678   */\n  0x00\n    /* \"#utility.yul\":670:682   */\n  revert\n    /* \"#utility.yul\":621:684   */\ntag_34:\n    /* \"#utility.yul\":568:690   */\n  pop\n  jump\t// out\n    /* \"#utility.yul\":696:839   */\ntag_23:\n    /* \"#utility.yul\":753:758   */\n  0x00\n    /* \"#utility.yul\":784:790   */\n  dup2\n    /* \"#utility.yul\":778:791   */\n  mload\n    /* \"#utility.yul\":769:791   */\n  swap1\n  pop\n    /* \"#utility.yul\":800:833   */\n  tag_36\n    /* \"#utility.yul\":827:832   */\n  dup2\n    /* \"#utility.yul\":800:833   */\n  tag_22\n  jump\t// in\ntag_36:\n    /* \"#utility.yul\":696:839   */\n  swap3\n  swap2\n  pop\n  pop\n  jump\t// out\n    /* \"#utility.yul\":845:1352   */\ntag_3:\n    /* \"#utility.yul\":924:930   */\n  0x00\n    /* \"#utility.yul\":932:938   */\n  0x00\n    /* \"#utility.yul\":981:983   */\n  0x40\n    /* \"#utility.yul\":969:978   */\n  dup4\n    /* \"#utility.yul\":960:967   */\n  dup6\n    /* \"#utility.yul\":956:979   */\n  sub\n    /* \"#utility.yul\":952:984   */\n  slt\n    /* \"#utility.yul\":949:1068   */\n  iszero\n  tag_38\n  jumpi\n    /* \"#utility.yul\":987:1066   */\n  tag_39\n  tag_18\n  jump\t// in\ntag_39:\n    /* \"#utility.yul\":949:1068   */\ntag_38:\n    /* \"#utility.yul\":1107:1108   */\n  0x00\n    /* \"#utility.yul\":1132:1196   */\n  tag_40\n    /* \"#utility.yul\":1188:1195   */\n  dup6\n    /* \"#utility.yul\":1179:1185   */\n  dup3\n    /* \"#utility.yul\":1168:1177   */\n  dup7\n    /* \"#utility.yul\":1164:1186   */\n  add\n    /* \"#utility.yul\":1132:1196   */\n  tag_23\n  jump\t// in\ntag_40:\n    /* \"#utility.yul\":1122:1196   */\n  swap3\n  pop\n    /* \"#utility.yul\":1078:1206   */\n  pop\n    /* \"#utility.yul\":1245:1247   */\n  0x20\n    /* \"#utility.yul\":1271:1335   */\n  tag_41\n    /* \"#utility.yul\":1327:1334   */\n  dup6\n    /* \"#utility.yul\":1318:1324   */\n  dup3\n    /* \"#utility.yul\":1307:1316   */\n  dup7\n    /* \"#utility.yul\":1303:1325   */\n  add\n    /* \"#utility.yul\":1271:1335   */\n  tag_23\n  jump\t// in\ntag_41:\n    /* \"#utility.yul\":1261:1335   */\n  swap2\n  pop\n    /* \"#utility.yul\":1216:1345   */\n  pop\n    /* \"#utility.yul\":845:1352   */\n  swap3\n  pop\n  swap3\n  swap1\n  pop\n  jump\t// out\n    /* \"#utility.yul\":1358:1476   */\ntag_24:\n    /* \"#utility.yul\":1445:1469   */\n  tag_43\n    /* \"#utility.yul\":1463:1468   */\n  dup2\n    /* \"#utility.yul\":1445:1469   */\n  tag_21\n  jump\t// in\ntag_43:\n    /* \"#utility.yul\":1440:1443   */\n  dup3\n    /* \"#utility.yul\":1433:1470   */\n  mstore\n    /* \"#utility.yul\":1358:1476   */\n  pop\n  pop\n  jump\t// out\n    /* \"#utility.yul\":1482:1704   */\ntag_10:\n    /* \"#utility.yul\":1575:1579   */\n  0x00\n    /* \"#utility.yul\":1613:1615   */\n  0x20\n    /* \"#utility.yul\":1602:1611   */\n  dup3\n    /* \"#utility.yul\":1598:1616   */\n  add\n    /* \"#utility.yul\":1590:1616   */\n  swap1\n  pop\n    /* \"#utility.yul\":1626:1697   */\n  tag_45\n    /* \"#utility.yul\":1694:1695   */\n  0x00\n    /* \"#utility.yul\":1683:1692   */\n  dup4\n    /* \"#utility.yul\":1679:1696   */\n  add\n    /* \"#utility.yul\":1670:1676   */\n  dup5\n    /* \"#utility.yul\":1626:1697   */\n  tag_24\n  jump\t// in\ntag_45:\n    /* \"#utility.yul\":1482:1704   */\n  swap3\n  swap2\n  pop\n  pop\n  jump\t// out\n    /* \"Optimized.sol\":685:4127  contract investre is Ownable, Pausable, ReentrancyGuard {... */\ntag_15:\n  mload(0x80)\n  codecopy(0x00, dataOffset(sub_0), dataSize(sub_0))\n  0x00\n  assignImmutable(\"0x92d0077c1e5b3b21289711fe01d9a6df2f8384bad8f4115869b44ae61cfe56d9\")\n  return(0x00, dataSize(sub_0))\nstop\n\nsub_0: assembly {\n        /* \"Optimized.sol\":685:4127  contract investre is Ownable, Pausable, ReentrancyGuard {... */\n      mstore(0x40, 0x80)\n      callvalue\n      dup1\n      iszero\n      tag_1\n      jumpi\n      revert(0x00, 0x00)\n    tag_1:\n      pop\n      jumpi(tag_2, lt(calldatasize, 0x04))\n      shr(0xe0, calldataload(0x00))\n      dup1\n      0x5c975abb\n      gt\n      tag_17\n      jumpi\n      dup1\n      0x8456cb59\n      gt\n      tag_18\n      jumpi\n      dup1\n      0x8456cb59\n      eq\n      tag_13\n      jumpi\n      dup1\n      0x8da5cb5b\n      eq\n      tag_14\n      jumpi\n      dup1\n      0xcac73ed7\n      eq\n      tag_15\n      jumpi\n      dup1\n      0xf2fde38b\n      eq\n      tag_16\n      jumpi\n      jump(tag_2)\n    tag_18:\n      dup1\n      0x5c975abb\n      eq\n      tag_10\n      jumpi\n      dup1\n      0x70a48572\n      eq\n      tag_11\n      jumpi\n      dup1\n      0x715018a6\n      eq\n      tag_12\n      jumpi\n      jump(tag_2)\n    tag_17:\n      dup1\n      0x3f4ba83a\n      gt\n      tag_19\n      jumpi\n      dup1\n      0x3f4ba83a\n      eq\n      tag_6\n      jumpi\n      dup1\n      0x4236c2e0\n      eq\n      tag_7\n      jumpi\n      dup1\n      0x48fcdc7b\n      eq\n      tag_8\n      jumpi\n      dup1\n      0x57df19e6\n      eq\n      tag_9\n      jumpi\n      jump(tag_2)\n    tag_19:\n      dup1\n      0x20e3319b\n      eq\n      tag_3\n      jumpi\n      dup1\n      0x38b8266d\n      eq\n      tag_4\n      jumpi\n      dup1\n      0x3e413bee\n      eq\n      tag_5\n      jumpi\n    tag_2:\n      revert(0x00, 0x00)\n        /* \"Optimized.sol\":2084:2404  function approveAutoBuy(... */\n    tag_3:\n      tag_20\n      0x04\n      dup1\n      calldatasize\n      sub\n      dup2\n      add\n      swap1\n      tag_21\n      swap2\n      swap1\n      tag_22\n      jump\t// in\n    tag_21:\n      tag_23\n      jump\t// in\n    tag_20:\n      stop\n        /* \"Optimized.sol\":2668:3213  function batchAutoBuy(... */\n    tag_4:\n      tag_24\n      0x04\n      dup1\n      calldatasize\n      sub\n      dup2\n      add\n      swap1\n      tag_25\n      swap2\n      swap1\n      tag_26\n      jump\t// in\n    tag_25:\n      tag_27\n      jump\t// in\n    tag_24:\n      stop\n        /* \"Optimized.sol\":751:779  IERC20 public immutable usdc */\n    tag_5:\n      tag_28\n      tag_29\n      jump\t// in\n    tag_28:\n      mload(0x40)\n      tag_30\n      swap2\n      swap1\n      tag_31\n      jump\t// in\n    tag_30:\n      mload(0x40)\n      dup1\n      swap2\n      sub\n      swap1\n      return\n        /* \"Optimized.sol\":3366:3431  function unpause() external onlyOwner {... */\n    tag_6:\n      tag_32\n      tag_33\n      jump\t// in\n    tag_32:\n      stop\n        /* \"Optimized.sol\":1575:1896  function singleAutoBuy(... */\n    tag_7:\n      tag_34\n      0x04\n      dup1\n      calldatasize\n      sub\n      dup2\n      add\n      swap1\n      tag_35\n      swap2\n      swap1\n      tag_22\n      jump\t// in\n    tag_35:\n      tag_36\n      jump\t// in\n    tag_34:\n      stop\n        /* \"Optimized.sol\":1123:1161  uint8 public constant KYBERSWAP_ID = 0 */\n    tag_8:\n      tag_37\n      tag_38\n      jump\t// in\n    tag_37:\n      mload(0x40)\n      tag_39\n      swap2\n      swap1\n      tag_40\n      jump\t// in\n    tag_39:\n      mload(0x40)\n      dup1\n      swap2\n      sub\n      swap1\n      return\n        /* \"Optimized.sol\":4023:4125  function getKyberSwapRouter() external pure returns (address) {... */\n    tag_9:\n      tag_41\n      tag_42\n      jump\t// in\n    tag_41:\n      mload(0x40)\n      tag_43\n      swap2\n      swap1\n      tag_44\n      jump\t// in\n    tag_43:\n      mload(0x40)\n      dup1\n      swap2\n      sub\n      swap1\n      return\n        /* \"@openzeppelin/contracts/utils/Pausable.sol\":1726:1810  function paused() public view virtual returns (bool) {... */\n    tag_10:\n      tag_45\n      tag_46\n      jump\t// in\n    tag_45:\n      mload(0x40)\n      tag_47\n      swap2\n      swap1\n      tag_48\n      jump\t// in\n    tag_47:\n      mload(0x40)\n      dup1\n      swap2\n      sub\n      swap1\n      return\n        /* \"Optimized.sol\":933:1018  address public constant KYBERSWAP_ROUTER = 0x6131B5fae19EA4f9D964eAc0408E4408b66337b5 */\n    tag_11:\n      tag_49\n      tag_50\n      jump\t// in\n    tag_49:\n      mload(0x40)\n      tag_51\n      swap2\n      swap1\n      tag_44\n      jump\t// in\n    tag_51:\n      mload(0x40)\n      dup1\n      swap2\n      sub\n      swap1\n      return\n        /* \"@openzeppelin/contracts/access/Ownable.sol\":2293:2394  function renounceOwnership() public virtual onlyOwner {... */\n    tag_12:\n      tag_52\n      tag_53\n      jump\t// in\n    tag_52:\n      stop\n        /* \"Optimized.sol\":3263:3324  function pause() external onlyOwner {... */\n    tag_13:\n      tag_54\n      tag_55\n      jump\t// in\n    tag_54:\n      stop\n        /* \"@openzeppelin/contracts/access/Ownable.sol\":1638:1723  function owner() public view virtual returns (address) {... */\n    tag_14:\n      tag_56\n      tag_57\n      jump\t// in\n    tag_56:\n      mload(0x40)\n      tag_58\n      swap2\n      swap1\n      tag_44\n      jump\t// in\n    tag_58:\n      mload(0x40)\n      dup1\n      swap2\n      sub\n      swap1\n      return\n        /* \"Optimized.sol\":3589:3821  function getRouterAddress(uint8 routerId) external pure returns (address) {... */\n    tag_15:\n      tag_59\n      0x04\n      dup1\n      calldatasize\n      sub\n      dup2\n      add\n      swap1\n      tag_60\n      swap2\n      swap1\n      tag_61\n      jump\t// in\n    tag_60:\n      tag_62\n      jump\t// in\n    tag_59:\n      mload(0x40)\n      tag_63\n      swap2\n      swap1\n      tag_44\n      jump\t// in\n    tag_63:\n      mload(0x40)\n      dup1\n      swap2\n      sub\n      swap1\n      return\n        /* \"@openzeppelin/contracts/access/Ownable.sol\":2543:2758  function transferOwnership(address newOwner) public virtual onlyOwner {... */\n    tag_16:\n      tag_64\n      0x04\n      dup1\n      calldatasize\n      sub\n      dup2\n      add\n      swap1\n      tag_65\n      swap2\n      swap1\n      tag_66\n      jump\t// in\n    tag_65:\n      tag_67\n      jump\t// in\n    tag_64:\n      stop\n        /* \"Optimized.sol\":2084:2404  function approveAutoBuy(... */\n    tag_23:\n        /* \"@openzeppelin/contracts/access/Ownable.sol\":1531:1544  _checkOwner() */\n      tag_69\n        /* \"@openzeppelin/contracts/access/Ownable.sol\":1531:1542  _checkOwner */\n      tag_70\n        /* \"@openzeppelin/contracts/access/Ownable.sol\":1531:1544  _checkOwner() */\n      jump\t// in\n    tag_69:\n        /* \"@openzeppelin/contracts/utils/Pausable.sol\":1350:1369  _requireNotPaused() */\n      tag_72\n        /* \"@openzeppelin/contracts/utils/Pausable.sol\":1350:1367  _requireNotPaused */\n      tag_73\n        /* \"@openzeppelin/contracts/utils/Pausable.sol\":1350:1369  _requireNotPaused() */\n      jump\t// in\n    tag_72:\n        /* \"@openzeppelin/contracts/utils/ReentrancyGuard.sol\":2500:2521  _nonReentrantBefore() */\n      tag_75\n        /* \"@openzeppelin/contracts/utils/ReentrancyGuard.sol\":2500:2519  _nonReentrantBefore */\n      tag_76\n        /* \"@openzeppelin/contracts/utils/ReentrancyGuard.sol\":2500:2521  _nonReentrantBefore() */\n      jump\t// in\n    tag_75:\n        /* \"Optimized.sol\":2278:2288  usdcAmount */\n      dup1\n        /* \"Optimized.sol\":2236:2240  usdc */\n      immutable(\"0x92d0077c1e5b3b21289711fe01d9a6df2f8384bad8f4115869b44ae61cfe56d9\")\n        /* \"Optimized.sol\":2236:2250  usdc.allowance */\n      0xffffffffffffffffffffffffffffffffffffffff\n      and\n      0xdd62ed3e\n        /* \"Optimized.sol\":2251:2255  user */\n      dup5\n        /* \"Optimized.sol\":976:1018  0x6131B5fae19EA4f9D964eAc0408E4408b66337b5 */\n      0x6131b5fae19ea4f9d964eac0408e4408b66337b5\n        /* \"Optimized.sol\":2236:2274  usdc.allowance(user, KYBERSWAP_ROUTER) */\n      mload(0x40)\n      dup4\n      0xffffffff\n      and\n      0xe0\n      shl\n      dup2\n      mstore\n      0x04\n      add\n      tag_78\n      swap3\n      swap2\n      swap1\n      tag_79\n      jump\t// in\n    tag_78:\n      0x20\n      mload(0x40)\n      dup1\n      dup4\n      sub\n      dup2\n      dup7\n      gas\n      staticcall\n      iszero\n      dup1\n      iszero\n      tag_81\n      jumpi\n      returndatacopy(0x00, 0x00, returndatasize)\n      revert(0x00, returndatasize)\n    tag_81:\n      pop\n      pop\n      pop\n      pop\n      mload(0x40)\n      returndatasize\n      not(0x1f)\n      0x1f\n      dup3\n      add\n      and\n      dup3\n      add\n      dup1\n      0x40\n      mstore\n      pop\n      dup2\n      add\n      swap1\n      tag_82\n      swap2\n      swap1\n      tag_83\n      jump\t// in\n    tag_82:\n        /* \"Optimized.sol\":2236:2288  usdc.allowance(user, KYBERSWAP_ROUTER) >= usdcAmount */\n      lt\n      iszero\n        /* \"Optimized.sol\":2228:2331  require(usdc.allowance(user, KYBERSWAP_ROUTER) >= usdcAmount, \"Insufficient USDC allowance for router\") */\n      tag_84\n      jumpi\n      mload(0x40)\n      0x08c379a000000000000000000000000000000000000000000000000000000000\n      dup2\n      mstore\n      0x04\n      add\n      tag_85\n      swap1\n      tag_86\n      jump\t// in\n    tag_85:\n      mload(0x40)\n      dup1\n      swap2\n      sub\n      swap1\n      revert\n    tag_84:\n        /* \"Optimized.sol\":976:1018  0x6131B5fae19EA4f9D964eAc0408E4408b66337b5 */\n      0x6131b5fae19ea4f9d964eac0408e4408b66337b5\n        /* \"Optimized.sol\":2346:2397  AutoBuyApproved(user, usdcAmount, KYBERSWAP_ROUTER) */\n      0xffffffffffffffffffffffffffffffffffffffff\n      and\n        /* \"Optimized.sol\":2362:2366  user */\n      dup3\n        /* \"Optimized.sol\":2346:2397  AutoBuyApproved(user, usdcAmount, KYBERSWAP_ROUTER) */\n      0xffffffffffffffffffffffffffffffffffffffff\n      and\n      0xeab9cd112c05d2451f24acf7702297c9705b2115923d562c663c5272a60fe76f\n        /* \"Optimized.sol\":2368:2378  usdcAmount */\n      dup4\n        /* \"Optimized.sol\":2346:2397  AutoBuyApproved(user, usdcAmount, KYBERSWAP_ROUTER) */\n      mload(0x40)\n      tag_87\n      swap2\n      swap1\n      tag_88\n      jump\t// in\n    tag_87:\n      mload(0x40)\n      dup1\n      swap2\n      sub\n      swap1\n      log3\n        /* \"@openzeppelin/contracts/utils/ReentrancyGuard.sol\":2542:2562  _nonReentrantAfter() */\n      tag_89\n        /* \"@openzeppelin/contracts/utils/ReentrancyGuard.sol\":2542:2560  _nonReentrantAfter */\n      tag_90\n        /* \"@openzeppelin/contracts/utils/ReentrancyGuard.sol\":2542:2562  _nonReentrantAfter() */\n      jump\t// in\n    tag_89:\n        /* \"Optimized.sol\":2084:2404  function approveAutoBuy(... */\n      pop\n      pop\n      jump\t// out\n        /* \"Optimized.sol\":2668:3213  function batchAutoBuy(... */\n    tag_27:\n        /* \"@openzeppelin/contracts/access/Ownable.sol\":1531:1544  _checkOwner() */\n      tag_92\n        /* \"@openzeppelin/contracts/access/Ownable.sol\":1531:1542  _checkOwner */\n      tag_70\n        /* \"@openzeppelin/contracts/access/Ownable.sol\":1531:1544  _checkOwner() */\n      jump\t// in\n    tag_92:\n        /* \"@openzeppelin/contracts/utils/Pausable.sol\":1350:1369  _requireNotPaused() */\n      tag_94\n        /* \"@openzeppelin/contracts/utils/Pausable.sol\":1350:1367  _requireNotPaused */\n      tag_73\n        /* \"@openzeppelin/contracts/utils/Pausable.sol\":1350:1369  _requireNotPaused() */\n      jump\t// in\n    tag_94:\n        /* \"@openzeppelin/contracts/utils/ReentrancyGuard.sol\":2500:2521  _nonReentrantBefore() */\n      tag_96\n        /* \"@openzeppelin/contracts/utils/ReentrancyGuard.sol\":2500:2519  _nonReentrantBefore */\n      tag_76\n        /* \"@openzeppelin/contracts/utils/ReentrancyGuard.sol\":2500:2521  _nonReentrantBefore() */\n      jump\t// in\n    tag_96:\n        /* \"Optimized.sol\":2850:2861  usdcAmounts */\n      dup2\n      dup2\n        /* \"Optimized.sol\":2850:2868  usdcAmounts.length */\n      swap1\n      pop\n        /* \"Optimized.sol\":2834:2839  users */\n      dup5\n      dup5\n        /* \"Optimized.sol\":2834:2846  users.length */\n      swap1\n      pop\n        /* \"Optimized.sol\":2834:2868  users.length == usdcAmounts.length */\n      eq\n        /* \"Optimized.sol\":2834:2891  users.length == usdcAmounts.length && users.length <= 100 */\n      dup1\n      iszero\n      tag_98\n      jumpi\n      pop\n        /* \"Optimized.sol\":2888:2891  100 */\n      0x64\n        /* \"Optimized.sol\":2872:2877  users */\n      dup5\n      dup5\n        /* \"Optimized.sol\":2872:2884  users.length */\n      swap1\n      pop\n        /* \"Optimized.sol\":2872:2891  users.length <= 100 */\n      gt\n      iszero\n        /* \"Optimized.sol\":2834:2891  users.length == usdcAmounts.length && users.length <= 100 */\n    tag_98:\n        /* \"Optimized.sol\":2826:2930  require(users.length == usdcAmounts.length && users.length <= 100, \"Array length mismatch or too large\") */\n      tag_99\n      jumpi\n      mload(0x40)\n      0x08c379a000000000000000000000000000000000000000000000000000000000\n      dup2\n      mstore\n      0x04\n      add\n      tag_100\n      swap1\n      tag_101\n      jump\t// in\n    tag_100:\n      mload(0x40)\n      dup1\n      swap2\n      sub\n      swap1\n      revert\n    tag_99:\n        /* \"Optimized.sol\":2945:2954  uint256 i */\n      0x00\n        /* \"Optimized.sol\":2957:2958  0 */\n      0x00\n        /* \"Optimized.sol\":2945:2958  uint256 i = 0 */\n      swap1\n      pop\n        /* \"Optimized.sol\":2940:3207  for (uint256 i = 0; i < users.length; i++) {... */\n    tag_102:\n        /* \"Optimized.sol\":2964:2969  users */\n      dup5\n      dup5\n        /* \"Optimized.sol\":2964:2976  users.length */\n      swap1\n      pop\n        /* \"Optimized.sol\":2960:2961  i */\n      dup2\n        /* \"Optimized.sol\":2960:2976  i < users.length */\n      lt\n        /* \"Optimized.sol\":2940:3207  for (uint256 i = 0; i < users.length; i++) {... */\n      iszero\n      tag_103\n      jumpi\n        /* \"Optimized.sol\":3051:3062  usdcAmounts */\n      dup3\n      dup3\n        /* \"Optimized.sol\":3063:3064  i */\n      dup3\n        /* \"Optimized.sol\":3051:3065  usdcAmounts[i] */\n      dup2\n      dup2\n      lt\n      tag_105\n      jumpi\n      tag_106\n      tag_107\n      jump\t// in\n    tag_106:\n    tag_105:\n      swap1\n      pop\n      0x20\n      mul\n      add\n      calldataload\n        /* \"Optimized.sol\":3005:3009  usdc */\n      immutable(\"0x92d0077c1e5b3b21289711fe01d9a6df2f8384bad8f4115869b44ae61cfe56d9\")\n        /* \"Optimized.sol\":3005:3019  usdc.allowance */\n      0xffffffffffffffffffffffffffffffffffffffff\n      and\n      0xdd62ed3e\n        /* \"Optimized.sol\":3020:3025  users */\n      dup8\n      dup8\n        /* \"Optimized.sol\":3026:3027  i */\n      dup6\n        /* \"Optimized.sol\":3020:3028  users[i] */\n      dup2\n      dup2\n      lt\n      tag_108\n      jumpi\n      tag_109\n      tag_107\n      jump\t// in\n    tag_109:\n    tag_108:\n      swap1\n      pop\n      0x20\n      mul\n      add\n      0x20\n      dup2\n      add\n      swap1\n      tag_110\n      swap2\n      swap1\n      tag_66\n      jump\t// in\n    tag_110:\n        /* \"Optimized.sol\":976:1018  0x6131B5fae19EA4f9D964eAc0408E4408b66337b5 */\n      0x6131b5fae19ea4f9d964eac0408e4408b66337b5\n        /* \"Optimized.sol\":3005:3047  usdc.allowance(users[i], KYBERSWAP_ROUTER) */\n      mload(0x40)\n      dup4\n      0xffffffff\n      and\n      0xe0\n      shl\n      dup2\n      mstore\n      0x04\n      add\n      tag_111\n      swap3\n      swap2\n      swap1\n      tag_79\n      jump\t// in\n    tag_111:\n      0x20\n      mload(0x40)\n      dup1\n      dup4\n      sub\n      dup2\n      dup7\n      gas\n      staticcall\n      iszero\n      dup1\n      iszero\n      tag_113\n      jumpi\n      returndatacopy(0x00, 0x00, returndatasize)\n      revert(0x00, returndatasize)\n    tag_113:\n      pop\n      pop\n      pop\n      pop\n      mload(0x40)\n      returndatasize\n      not(0x1f)\n      0x1f\n      dup3\n      add\n      and\n      dup3\n      add\n      dup1\n      0x40\n      mstore\n      pop\n      dup2\n      add\n      swap1\n      tag_114\n      swap2\n      swap1\n      tag_83\n      jump\t// in\n    tag_114:\n        /* \"Optimized.sol\":3005:3065  usdc.allowance(users[i], KYBERSWAP_ROUTER) >= usdcAmounts[i] */\n      lt\n      iszero\n        /* \"Optimized.sol\":2997:3118  require(usdc.allowance(users[i], KYBERSWAP_ROUTER) >= usdcAmounts[i], \"Insufficient USDC allowance for KyberSwap router\") */\n      tag_115\n      jumpi\n      mload(0x40)\n      0x08c379a000000000000000000000000000000000000000000000000000000000\n      dup2\n      mstore\n      0x04\n      add\n      tag_116\n      swap1\n      tag_117\n      jump\t// in\n    tag_116:\n      mload(0x40)\n      dup1\n      swap2\n      sub\n      swap1\n      revert\n    tag_115:\n        /* \"Optimized.sol\":976:1018  0x6131B5fae19EA4f9D964eAc0408E4408b66337b5 */\n      0x6131b5fae19ea4f9d964eac0408e4408b66337b5\n        /* \"Optimized.sol\":3137:3196  AutoBuyApproved(users[i], usdcAmounts[i], KYBERSWAP_ROUTER) */\n      0xffffffffffffffffffffffffffffffffffffffff\n      and\n        /* \"Optimized.sol\":3153:3158  users */\n      dup6\n      dup6\n        /* \"Optimized.sol\":3159:3160  i */\n      dup4\n        /* \"Optimized.sol\":3153:3161  users[i] */\n      dup2\n      dup2\n      lt\n      tag_118\n      jumpi\n      tag_119\n      tag_107\n      jump\t// in\n    tag_119:\n    tag_118:\n      swap1\n      pop\n      0x20\n      mul\n      add\n      0x20\n      dup2\n      add\n      swap1\n      tag_120\n      swap2\n      swap1\n      tag_66\n      jump\t// in\n    tag_120:\n        /* \"Optimized.sol\":3137:3196  AutoBuyApproved(users[i], usdcAmounts[i], KYBERSWAP_ROUTER) */\n      0xffffffffffffffffffffffffffffffffffffffff\n      and\n      0xeab9cd112c05d2451f24acf7702297c9705b2115923d562c663c5272a60fe76f\n        /* \"Optimized.sol\":3163:3174  usdcAmounts */\n      dup6\n      dup6\n        /* \"Optimized.sol\":3175:3176  i */\n      dup6\n        /* \"Optimized.sol\":3163:3177  usdcAmounts[i] */\n      dup2\n      dup2\n      lt\n      tag_121\n      jumpi\n      tag_122\n      tag_107\n      jump\t// in\n    tag_122:\n    tag_121:\n      swap1\n      pop\n      0x20\n      mul\n      add\n      calldataload\n        /* \"Optimized.sol\":3137:3196  AutoBuyApproved(users[i], usdcAmounts[i], KYBERSWAP_ROUTER) */\n      mload(0x40)\n      tag_123\n      swap2\n      swap1\n      tag_88\n      jump\t// in\n    tag_123:\n      mload(0x40)\n      dup1\n      swap2\n      sub\n      swap1\n      log3\n        /* \"Optimized.sol\":2978:2981  i++ */\n      dup1\n      dup1\n      0x01\n      add\n      swap2\n      pop\n      pop\n        /* \"Optimized.sol\":2940:3207  for (uint256 i = 0; i < users.length; i++) {... */\n      jump(tag_102)\n    tag_103:\n      pop\n        /* \"@openzeppelin/contracts/utils/ReentrancyGuard.sol\":2542:2562  _nonReentrantAfter() */\n      tag_124\n        /* \"@openzeppelin/contracts/utils/ReentrancyGuard.sol\":2542:2560  _nonReentrantAfter */\n      tag_90\n        /* \"@openzeppelin/contracts/utils/ReentrancyGuard.sol\":2542:2562  _nonReentrantAfter() */\n      jump\t// in\n    tag_124:\n        /* \"Optimized.sol\":2668:3213  function batchAutoBuy(... */\n      pop\n      pop\n      pop\n      pop\n      jump\t// out\n        /* \"Optimized.sol\":751:779  IERC20 public immutable usdc */\n    tag_29:\n      immutable(\"0x92d0077c1e5b3b21289711fe01d9a6df2f8384bad8f4115869b44ae61cfe56d9\")\n      dup2\n      jump\t// out\n        /* \"Optimized.sol\":3366:3431  function unpause() external onlyOwner {... */\n    tag_33:\n        /* \"@openzeppelin/contracts/access/Ownable.sol\":1531:1544  _checkOwner() */\n      tag_126\n        /* \"@openzeppelin/contracts/access/Ownable.sol\":1531:1542  _checkOwner */\n      tag_70\n        /* \"@openzeppelin/contracts/access/Ownable.sol\":1531:1544  _checkOwner() */\n      jump\t// in\n    tag_126:\n        /* \"Optimized.sol\":3414:3424  _unpause() */\n      tag_128\n        /* \"Optimized.sol\":3414:3422  _unpause */\n      tag_129\n        /* \"Optimized.sol\":3414:3424  _unpause() */\n      jump\t// in\n    tag_128:\n        /* \"Optimized.sol\":3366:3431  function unpause() external onlyOwner {... */\n      jump\t// out\n        /* \"Optimized.sol\":1575:1896  function singleAutoBuy(... */\n    tag_36:\n        /* \"@openzeppelin/contracts/access/Ownable.sol\":1531:1544  _checkOwner() */\n      tag_131\n        /* \"@openzeppelin/contracts/access/Ownable.sol\":1531:1542  _checkOwner */\n      tag_70\n        /* \"@openzeppelin/contracts/access/Ownable.sol\":1531:1544  _checkOwner() */\n      jump\t// in\n    tag_131:\n        /* \"@openzeppelin/contracts/utils/Pausable.sol\":1350:1369  _requireNotPaused() */\n      tag_133\n        /* \"@openzeppelin/contracts/utils/Pausable.sol\":1350:1367  _requireNotPaused */\n      tag_73\n        /* \"@openzeppelin/contracts/utils/Pausable.sol\":1350:1369  _requireNotPaused() */\n      jump\t// in\n    tag_133:\n        /* \"@openzeppelin/contracts/utils/ReentrancyGuard.sol\":2500:2521  _nonReentrantBefore() */\n      tag_135\n        /* \"@openzeppelin/contracts/utils/ReentrancyGuard.sol\":2500:2519  _nonReentrantBefore */\n      tag_76\n        /* \"@openzeppelin/contracts/utils/ReentrancyGuard.sol\":2500:2521  _nonReentrantBefore() */\n      jump\t// in\n    tag_135:\n        /* \"Optimized.sol\":1760:1770  usdcAmount */\n      dup1\n        /* \"Optimized.sol\":1718:1722  usdc */\n      immutable(\"0x92d0077c1e5b3b21289711fe01d9a6df2f8384bad8f4115869b44ae61cfe56d9\")\n        /* \"Optimized.sol\":1718:1732  usdc.allowance */\n      0xffffffffffffffffffffffffffffffffffffffff\n      and\n      0xdd62ed3e\n        /* \"Optimized.sol\":1733:1737  user */\n      dup5\n        /* \"Optimized.sol\":976:1018  0x6131B5fae19EA4f9D964eAc0408E4408b66337b5 */\n      0x6131b5fae19ea4f9d964eac0408e4408b66337b5\n        /* \"Optimized.sol\":1718:1756  usdc.allowance(user, KYBERSWAP_ROUTER) */\n      mload(0x40)\n      dup4\n      0xffffffff\n      and\n      0xe0\n      shl\n      dup2\n      mstore\n      0x04\n      add\n      tag_137\n      swap3\n      swap2\n      swap1\n      tag_79\n      jump\t// in\n    tag_137:\n      0x20\n      mload(0x40)\n      dup1\n      dup4\n      sub\n      dup2\n      dup7\n      gas\n      staticcall\n      iszero\n      dup1\n      iszero\n      tag_139\n      jumpi\n      returndatacopy(0x00, 0x00, returndatasize)\n      revert(0x00, returndatasize)\n    tag_139:\n      pop\n      pop\n      pop\n      pop\n      mload(0x40)\n      returndatasize\n      not(0x1f)\n      0x1f\n      dup3\n      add\n      and\n      dup3\n      add\n      dup1\n      0x40\n      mstore\n      pop\n      dup2\n      add\n      swap1\n      tag_140\n      swap2\n      swap1\n      tag_83\n      jump\t// in\n    tag_140:\n        /* \"Optimized.sol\":1718:1770  usdc.allowance(user, KYBERSWAP_ROUTER) >= usdcAmount */\n      lt\n      iszero\n        /* \"Optimized.sol\":1710:1823  require(usdc.allowance(user, KYBERSWAP_ROUTER) >= usdcAmount, \"Insufficient USDC allowance for KyberSwap router\") */\n      tag_141\n      jumpi\n      mload(0x40)\n      0x08c379a000000000000000000000000000000000000000000000000000000000\n      dup2\n      mstore\n      0x04\n      add\n      tag_142\n      swap1\n      tag_117\n      jump\t// in\n    tag_142:\n      mload(0x40)\n      dup1\n      swap2\n      sub\n      swap1\n      revert\n    tag_141:\n        /* \"Optimized.sol\":976:1018  0x6131B5fae19EA4f9D964eAc0408E4408b66337b5 */\n      0x6131b5fae19ea4f9d964eac0408e4408b66337b5\n        /* \"Optimized.sol\":1838:1889  AutoBuyApproved(user, usdcAmount, KYBERSWAP_ROUTER) */\n      0xffffffffffffffffffffffffffffffffffffffff\n      and\n        /* \"Optimized.sol\":1854:1858  user */\n      dup3\n        /* \"Optimized.sol\":1838:1889  AutoBuyApproved(user, usdcAmount, KYBERSWAP_ROUTER) */\n      0xffffffffffffffffffffffffffffffffffffffff\n      and\n      0xeab9cd112c05d2451f24acf7702297c9705b2115923d562c663c5272a60fe76f\n        /* \"Optimized.sol\":1860:1870  usdcAmount */\n      dup4\n        /* \"Optimized.sol\":1838:1889  AutoBuyApproved(user, usdcAmount, KYBERSWAP_ROUTER) */\n      mload(0x40)\n      tag_143\n      swap2\n      swap1\n      tag_88\n      jump\t// in\n    tag_143:\n      mload(0x40)\n      dup1\n      swap2\n      sub\n      swap1\n      log3\n        /* \"@openzeppelin/contracts/utils/ReentrancyGuard.sol\":2542:2562  _nonReentrantAfter() */\n      tag_144\n        /* \"@openzeppelin/contracts/utils/ReentrancyGuard.sol\":2542:2560  _nonReentrantAfter */\n      tag_90\n        /* \"@openzeppelin/contracts/utils/ReentrancyGuard.sol\":2542:2562  _nonReentrantAfter() */\n      jump\t// in\n    tag_144:\n        /* \"Optimized.sol\":1575:1896  function singleAutoBuy(... */\n      pop\n      pop\n      jump\t// out\n        /* \"Optimized.sol\":1123:1161  uint8 public constant KYBERSWAP_ID = 0 */\n    tag_38:\n        /* \"Optimized.sol\":1160:1161  0 */\n      0x00\n        /* \"Optimized.sol\":1123:1161  uint8 public constant KYBERSWAP_ID = 0 */\n      dup2\n      jump\t// out\n        /* \"Optimized.sol\":4023:4125  function getKyberSwapRouter() external pure returns (address) {... */\n    tag_42:\n        /* \"Optimized.sol\":4076:4083  address */\n      0x00\n        /* \"Optimized.sol\":976:1018  0x6131B5fae19EA4f9D964eAc0408E4408b66337b5 */\n      0x6131b5fae19ea4f9d964eac0408e4408b66337b5\n        /* \"Optimized.sol\":4095:4118  return KYBERSWAP_ROUTER */\n      swap1\n      pop\n        /* \"Optimized.sol\":4023:4125  function getKyberSwapRouter() external pure returns (address) {... */\n      swap1\n      jump\t// out\n        /* \"@openzeppelin/contracts/utils/Pausable.sol\":1726:1810  function paused() public view virtual returns (bool) {... */\n    tag_46:\n        /* \"@openzeppelin/contracts/utils/Pausable.sol\":1773:1777  bool */\n      0x00\n        /* \"@openzeppelin/contracts/utils/Pausable.sol\":1796:1803  _paused */\n      0x00\n      0x14\n      swap1\n      sload\n      swap1\n      0x0100\n      exp\n      swap1\n      div\n      0xff\n      and\n        /* \"@openzeppelin/contracts/utils/Pausable.sol\":1789:1803  return _paused */\n      swap1\n      pop\n        /* \"@openzeppelin/contracts/utils/Pausable.sol\":1726:1810  function paused() public view virtual returns (bool) {... */\n      swap1\n      jump\t// out\n        /* \"Optimized.sol\":933:1018  address public constant KYBERSWAP_ROUTER = 0x6131B5fae19EA4f9D964eAc0408E4408b66337b5 */\n    tag_50:\n        /* \"Optimized.sol\":976:1018  0x6131B5fae19EA4f9D964eAc0408E4408b66337b5 */\n      0x6131b5fae19ea4f9d964eac0408e4408b66337b5\n        /* \"Optimized.sol\":933:1018  address public constant KYBERSWAP_ROUTER = 0x6131B5fae19EA4f9D964eAc0408E4408b66337b5 */\n      dup2\n      jump\t// out\n        /* \"@openzeppelin/contracts/access/Ownable.sol\":2293:2394  function renounceOwnership() public virtual onlyOwner {... */\n    tag_53:\n        /* \"@openzeppelin/contracts/access/Ownable.sol\":1531:1544  _checkOwner() */\n      tag_148\n        /* \"@openzeppelin/contracts/access/Ownable.sol\":1531:1542  _checkOwner */\n      tag_70\n        /* \"@openzeppelin/contracts/access/Ownable.sol\":1531:1544  _checkOwner() */\n      jump\t// in\n    tag_148:\n        /* \"@openzeppelin/contracts/access/Ownable.sol\":2357:2387  _transferOwnership(address(0)) */\n      tag_150\n        /* \"@openzeppelin/contracts/access/Ownable.sol\":2384:2385  0 */\n      0x00\n        /* \"@openzeppelin/contracts/access/Ownable.sol\":2357:2375  _transferOwnership */\n      tag_151\n        /* \"@openzeppelin/contracts/access/Ownable.sol\":2357:2387  _transferOwnership(address(0)) */\n      jump\t// in\n    tag_150:\n        /* \"@openzeppelin/contracts/access/Ownable.sol\":2293:2394  function renounceOwnership() public virtual onlyOwner {... */\n      jump\t// out\n        /* \"Optimized.sol\":3263:3324  function pause() external onlyOwner {... */\n    tag_55:\n        /* \"@openzeppelin/contracts/access/Ownable.sol\":1531:1544  _checkOwner() */\n      tag_153\n        /* \"@openzeppelin/contracts/access/Ownable.sol\":1531:1542  _checkOwner */\n      tag_70\n        /* \"@openzeppelin/contracts/access/Ownable.sol\":1531:1544  _checkOwner() */\n      jump\t// in\n    tag_153:\n        /* \"Optimized.sol\":3309:3317  _pause() */\n      tag_155\n        /* \"Optimized.sol\":3309:3315  _pause */\n      tag_156\n        /* \"Optimized.sol\":3309:3317  _pause() */\n      jump\t// in\n    tag_155:\n        /* \"Optimized.sol\":3263:3324  function pause() external onlyOwner {... */\n      jump\t// out\n        /* \"@openzeppelin/contracts/access/Ownable.sol\":1638:1723  function owner() public view virtual returns (address) {... */\n    tag_57:\n        /* \"@openzeppelin/contracts/access/Ownable.sol\":1684:1691  address */\n      0x00\n        /* \"@openzeppelin/contracts/access/Ownable.sol\":1710:1716  _owner */\n      0x00\n      0x00\n      swap1\n      sload\n      swap1\n      0x0100\n      exp\n      swap1\n      div\n      0xffffffffffffffffffffffffffffffffffffffff\n      and\n        /* \"@openzeppelin/contracts/access/Ownable.sol\":1703:1716  return _owner */\n      swap1\n      pop\n        /* \"@openzeppelin/contracts/access/Ownable.sol\":1638:1723  function owner() public view virtual returns (address) {... */\n      swap1\n      jump\t// out\n        /* \"Optimized.sol\":3589:3821  function getRouterAddress(uint8 routerId) external pure returns (address) {... */\n    tag_62:\n        /* \"Optimized.sol\":3654:3661  address */\n      0x00\n        /* \"Optimized.sol\":1160:1161  0 */\n      0x00\n        /* \"Optimized.sol\":3683:3707  routerId == KYBERSWAP_ID */\n      0xff\n      and\n        /* \"Optimized.sol\":3683:3691  routerId */\n      dup3\n        /* \"Optimized.sol\":3683:3707  routerId == KYBERSWAP_ID */\n      0xff\n      and\n      sub\n        /* \"Optimized.sol\":3679:3815  if (routerId == KYBERSWAP_ID) {... */\n      tag_159\n      jumpi\n        /* \"Optimized.sol\":976:1018  0x6131B5fae19EA4f9D964eAc0408E4408b66337b5 */\n      0x6131b5fae19ea4f9d964eac0408e4408b66337b5\n        /* \"Optimized.sol\":3723:3746  return KYBERSWAP_ROUTER */\n      swap1\n      pop\n      jump(tag_158)\n        /* \"Optimized.sol\":3679:3815  if (routerId == KYBERSWAP_ID) {... */\n    tag_159:\n        /* \"Optimized.sol\":3777:3804  revert(\"Invalid router ID\") */\n      mload(0x40)\n      0x08c379a000000000000000000000000000000000000000000000000000000000\n      dup2\n      mstore\n      0x04\n      add\n      tag_161\n      swap1\n      tag_162\n      jump\t// in\n    tag_161:\n      mload(0x40)\n      dup1\n      swap2\n      sub\n      swap1\n      revert\n        /* \"Optimized.sol\":3589:3821  function getRouterAddress(uint8 routerId) external pure returns (address) {... */\n    tag_158:\n      swap2\n      swap1\n      pop\n      jump\t// out\n        /* \"@openzeppelin/contracts/access/Ownable.sol\":2543:2758  function transferOwnership(address newOwner) public virtual onlyOwner {... */\n    tag_67:\n        /* \"@openzeppelin/contracts/access/Ownable.sol\":1531:1544  _checkOwner() */\n      tag_164\n        /* \"@openzeppelin/contracts/access/Ownable.sol\":1531:1542  _checkOwner */\n      tag_70\n        /* \"@openzeppelin/contracts/access/Ownable.sol\":1531:1544  _checkOwner() */\n      jump\t// in\n    tag_164:\n        /* \"@openzeppelin/contracts/access/Ownable.sol\":2647:2648  0 */\n      0x00\n        /* \"@openzeppelin/contracts/access/Ownable.sol\":2627:2649  newOwner == address(0) */\n      0xffffffffffffffffffffffffffffffffffffffff\n      and\n        /* \"@openzeppelin/contracts/access/Ownable.sol\":2627:2635  newOwner */\n      dup2\n        /* \"@openzeppelin/contracts/access/Ownable.sol\":2627:2649  newOwner == address(0) */\n      0xffffffffffffffffffffffffffffffffffffffff\n      and\n      sub\n        /* \"@openzeppelin/contracts/access/Ownable.sol\":2623:2714  if (newOwner == address(0)) {... */\n      tag_166\n      jumpi\n        /* \"@openzeppelin/contracts/access/Ownable.sol\":2700:2701  0 */\n      0x00\n        /* \"@openzeppelin/contracts/access/Ownable.sol\":2672:2703  OwnableInvalidOwner(address(0)) */\n      mload(0x40)\n      0x1e4fbdf700000000000000000000000000000000000000000000000000000000\n      dup2\n      mstore\n      0x04\n      add\n      tag_167\n      swap2\n      swap1\n      tag_44\n      jump\t// in\n    tag_167:\n      mload(0x40)\n      dup1\n      swap2\n      sub\n      swap1\n      revert\n        /* \"@openzeppelin/contracts/access/Ownable.sol\":2623:2714  if (newOwner == address(0)) {... */\n    tag_166:\n        /* \"@openzeppelin/contracts/access/Ownable.sol\":2723:2751  _transferOwnership(newOwner) */\n      tag_168\n        /* \"@openzeppelin/contracts/access/Ownable.sol\":2742:2750  newOwner */\n      dup2\n        /* \"@openzeppelin/contracts/access/Ownable.sol\":2723:2741  _transferOwnership */\n      tag_151\n        /* \"@openzeppelin/contracts/access/Ownable.sol\":2723:2751  _transferOwnership(newOwner) */\n      jump\t// in\n    tag_168:\n        /* \"@openzeppelin/contracts/access/Ownable.sol\":2543:2758  function transferOwnership(address newOwner) public virtual onlyOwner {... */\n      pop\n      jump\t// out\n        /* \"@openzeppelin/contracts/access/Ownable.sol\":1796:1958  function _checkOwner() internal view virtual {... */\n    tag_70:\n        /* \"@openzeppelin/contracts/access/Ownable.sol\":1866:1878  _msgSender() */\n      tag_170\n        /* \"@openzeppelin/contracts/access/Ownable.sol\":1866:1876  _msgSender */\n      tag_171\n        /* \"@openzeppelin/contracts/access/Ownable.sol\":1866:1878  _msgSender() */\n      jump\t// in\n    tag_170:\n        /* \"@openzeppelin/contracts/access/Ownable.sol\":1855:1878  owner() != _msgSender() */\n      0xffffffffffffffffffffffffffffffffffffffff\n      and\n        /* \"@openzeppelin/contracts/access/Ownable.sol\":1855:1862  owner() */\n      tag_172\n        /* \"@openzeppelin/contracts/access/Ownable.sol\":1855:1860  owner */\n      tag_57\n        /* \"@openzeppelin/contracts/access/Ownable.sol\":1855:1862  owner() */\n      jump\t// in\n    tag_172:\n        /* \"@openzeppelin/contracts/access/Ownable.sol\":1855:1878  owner() != _msgSender() */\n      0xffffffffffffffffffffffffffffffffffffffff\n      and\n      eq\n        /* \"@openzeppelin/contracts/access/Ownable.sol\":1851:1952  if (owner() != _msgSender()) {... */\n      tag_173\n      jumpi\n        /* \"@openzeppelin/contracts/access/Ownable.sol\":1928:1940  _msgSender() */\n      tag_174\n        /* \"@openzeppelin/contracts/access/Ownable.sol\":1928:1938  _msgSender */\n      tag_171\n        /* \"@openzeppelin/contracts/access/Ownable.sol\":1928:1940  _msgSender() */\n      jump\t// in\n    tag_174:\n        /* \"@openzeppelin/contracts/access/Ownable.sol\":1901:1941  OwnableUnauthorizedAccount(_msgSender()) */\n      mload(0x40)\n      0x118cdaa700000000000000000000000000000000000000000000000000000000\n      dup2\n      mstore\n      0x04\n      add\n      tag_175\n      swap2\n      swap1\n      tag_44\n      jump\t// in\n    tag_175:\n      mload(0x40)\n      dup1\n      swap2\n      sub\n      swap1\n      revert\n        /* \"@openzeppelin/contracts/access/Ownable.sol\":1851:1952  if (owner() != _msgSender()) {... */\n    tag_173:\n        /* \"@openzeppelin/contracts/access/Ownable.sol\":1796:1958  function _checkOwner() internal view virtual {... */\n      jump\t// out\n        /* \"@openzeppelin/contracts/utils/Pausable.sol\":1878:2006  function _requireNotPaused() internal view virtual {... */\n    tag_73:\n        /* \"@openzeppelin/contracts/utils/Pausable.sol\":1943:1951  paused() */\n      tag_177\n        /* \"@openzeppelin/contracts/utils/Pausable.sol\":1943:1949  paused */\n      tag_46\n        /* \"@openzeppelin/contracts/utils/Pausable.sol\":1943:1951  paused() */\n      jump\t// in\n    tag_177:\n        /* \"@openzeppelin/contracts/utils/Pausable.sol\":1939:2000  if (paused()) {... */\n      iszero\n      tag_178\n      jumpi\n        /* \"@openzeppelin/contracts/utils/Pausable.sol\":1974:1989  EnforcedPause() */\n      mload(0x40)\n      0xd93c066500000000000000000000000000000000000000000000000000000000\n      dup2\n      mstore\n      0x04\n      add\n      mload(0x40)\n      dup1\n      swap2\n      sub\n      swap1\n      revert\n        /* \"@openzeppelin/contracts/utils/Pausable.sol\":1939:2000  if (paused()) {... */\n    tag_178:\n        /* \"@openzeppelin/contracts/utils/Pausable.sol\":1878:2006  function _requireNotPaused() internal view virtual {... */\n      jump\t// out\n        /* \"@openzeppelin/contracts/utils/ReentrancyGuard.sol\":2575:2882  function _nonReentrantBefore() private {... */\n    tag_76:\n        /* \"@openzeppelin/contracts/utils/ReentrancyGuard.sol\":1899:1900  2 */\n      0x02\n        /* \"@openzeppelin/contracts/utils/ReentrancyGuard.sol\":2702:2709  _status */\n      sload(0x01)\n        /* \"@openzeppelin/contracts/utils/ReentrancyGuard.sol\":2702:2720  _status == ENTERED */\n      sub\n        /* \"@openzeppelin/contracts/utils/ReentrancyGuard.sol\":2698:2784  if (_status == ENTERED) {... */\n      tag_180\n      jumpi\n        /* \"@openzeppelin/contracts/utils/ReentrancyGuard.sol\":2743:2773  ReentrancyGuardReentrantCall() */\n      mload(0x40)\n      0x3ee5aeb500000000000000000000000000000000000000000000000000000000\n      dup2\n      mstore\n      0x04\n      add\n      mload(0x40)\n      dup1\n      swap2\n      sub\n      swap1\n      revert\n        /* \"@openzeppelin/contracts/utils/ReentrancyGuard.sol\":2698:2784  if (_status == ENTERED) {... */\n    tag_180:\n        /* \"@openzeppelin/contracts/utils/ReentrancyGuard.sol\":1899:1900  2 */\n      0x02\n        /* \"@openzeppelin/contracts/utils/ReentrancyGuard.sol\":2858:2865  _status */\n      0x01\n        /* \"@openzeppelin/contracts/utils/ReentrancyGuard.sol\":2858:2875  _status = ENTERED */\n      dup2\n      swap1\n      sstore\n      pop\n        /* \"@openzeppelin/contracts/utils/ReentrancyGuard.sol\":2575:2882  function _nonReentrantBefore() private {... */\n      jump\t// out\n        /* \"@openzeppelin/contracts/utils/ReentrancyGuard.sol\":2888:3096  function _nonReentrantAfter() private {... */\n    tag_90:\n        /* \"@openzeppelin/contracts/utils/ReentrancyGuard.sol\":1857:1858  1 */\n      0x01\n        /* \"@openzeppelin/contracts/utils/ReentrancyGuard.sol\":3068:3075  _status */\n      dup1\n        /* \"@openzeppelin/contracts/utils/ReentrancyGuard.sol\":3068:3089  _status = NOT_ENTERED */\n      dup2\n      swap1\n      sstore\n      pop\n        /* \"@openzeppelin/contracts/utils/ReentrancyGuard.sol\":2888:3096  function _nonReentrantAfter() private {... */\n      jump\t// out\n        /* \"@openzeppelin/contracts/utils/Pausable.sol\":2586:2703  function _unpause() internal virtual whenPaused {... */\n    tag_129:\n        /* \"@openzeppelin/contracts/utils/Pausable.sol\":1597:1613  _requirePaused() */\n      tag_183\n        /* \"@openzeppelin/contracts/utils/Pausable.sol\":1597:1611  _requirePaused */\n      tag_184\n        /* \"@openzeppelin/contracts/utils/Pausable.sol\":1597:1613  _requirePaused() */\n      jump\t// in\n    tag_183:\n        /* \"@openzeppelin/contracts/utils/Pausable.sol\":2654:2659  false */\n      0x00\n        /* \"@openzeppelin/contracts/utils/Pausable.sol\":2644:2651  _paused */\n      0x00\n      0x14\n        /* \"@openzeppelin/contracts/utils/Pausable.sol\":2644:2659  _paused = false */\n      0x0100\n      exp\n      dup2\n      sload\n      dup2\n      0xff\n      mul\n      not\n      and\n      swap1\n      dup4\n      iszero\n      iszero\n      mul\n      or\n      swap1\n      sstore\n      pop\n        /* \"@openzeppelin/contracts/utils/Pausable.sol\":2674:2696  Unpaused(_msgSender()) */\n      0x5db9ee0a495bf2e6ff9c91a7834c1ba4fdd244a5e8aa4e537bd38aeae4b073aa\n        /* \"@openzeppelin/contracts/utils/Pausable.sol\":2683:2695  _msgSender() */\n      tag_186\n        /* \"@openzeppelin/contracts/utils/Pausable.sol\":2683:2693  _msgSender */\n      tag_171\n        /* \"@openzeppelin/contracts/utils/Pausable.sol\":2683:2695  _msgSender() */\n      jump\t// in\n    tag_186:\n        /* \"@openzeppelin/contracts/utils/Pausable.sol\":2674:2696  Unpaused(_msgSender()) */\n      mload(0x40)\n      tag_187\n      swap2\n      swap1\n      tag_44\n      jump\t// in\n    tag_187:\n      mload(0x40)\n      dup1\n      swap2\n      sub\n      swap1\n      log1\n        /* \"@openzeppelin/contracts/utils/Pausable.sol\":2586:2703  function _unpause() internal virtual whenPaused {... */\n      jump\t// out\n        /* \"@openzeppelin/contracts/access/Ownable.sol\":2912:3099  function _transferOwnership(address newOwner) internal virtual {... */\n    tag_151:\n        /* \"@openzeppelin/contracts/access/Ownable.sol\":2985:3001  address oldOwner */\n      0x00\n        /* \"@openzeppelin/contracts/access/Ownable.sol\":3004:3010  _owner */\n      0x00\n      0x00\n      swap1\n      sload\n      swap1\n      0x0100\n      exp\n      swap1\n      div\n      0xffffffffffffffffffffffffffffffffffffffff\n      and\n        /* \"@openzeppelin/contracts/access/Ownable.sol\":2985:3010  address oldOwner = _owner */\n      swap1\n      pop\n        /* \"@openzeppelin/contracts/access/Ownable.sol\":3029:3037  newOwner */\n      dup2\n        /* \"@openzeppelin/contracts/access/Ownable.sol\":3020:3026  _owner */\n      0x00\n      0x00\n        /* \"@openzeppelin/contracts/access/Ownable.sol\":3020:3037  _owner = newOwner */\n      0x0100\n      exp\n      dup2\n      sload\n      dup2\n      0xffffffffffffffffffffffffffffffffffffffff\n      mul\n      not\n      and\n      swap1\n      dup4\n      0xffffffffffffffffffffffffffffffffffffffff\n      and\n      mul\n      or\n      swap1\n      sstore\n      pop\n        /* \"@openzeppelin/contracts/access/Ownable.sol\":3083:3091  newOwner */\n      dup2\n        /* \"@openzeppelin/contracts/access/Ownable.sol\":3052:3092  OwnershipTransferred(oldOwner, newOwner) */\n      0xffffffffffffffffffffffffffffffffffffffff\n      and\n        /* \"@openzeppelin/contracts/access/Ownable.sol\":3073:3081  oldOwner */\n      dup2\n        /* \"@openzeppelin/contracts/access/Ownable.sol\":3052:3092  OwnershipTransferred(oldOwner, newOwner) */\n      0xffffffffffffffffffffffffffffffffffffffff\n      and\n      0x8be0079c531659141344cd1fd0a4f28419497f9722a3daafe3b4186f6b6457e0\n      mload(0x40)\n      mload(0x40)\n      dup1\n      swap2\n      sub\n      swap1\n      log3\n        /* \"@openzeppelin/contracts/access/Ownable.sol\":2975:3099  {... */\n      pop\n        /* \"@openzeppelin/contracts/access/Ownable.sol\":2912:3099  function _transferOwnership(address newOwner) internal virtual {... */\n      pop\n      jump\t// out\n        /* \"@openzeppelin/contracts/utils/Pausable.sol\":2339:2454  function _pause() internal virtual whenNotPaused {... */\n    tag_156:\n        /* \"@openzeppelin/contracts/utils/Pausable.sol\":1350:1369  _requireNotPaused() */\n      tag_190\n        /* \"@openzeppelin/contracts/utils/Pausable.sol\":1350:1367  _requireNotPaused */\n      tag_73\n        /* \"@openzeppelin/contracts/utils/Pausable.sol\":1350:1369  _requireNotPaused() */\n      jump\t// in\n    tag_190:\n        /* \"@openzeppelin/contracts/utils/Pausable.sol\":2408:2412  true */\n      0x01\n        /* \"@openzeppelin/contracts/utils/Pausable.sol\":2398:2405  _paused */\n      0x00\n      0x14\n        /* \"@openzeppelin/contracts/utils/Pausable.sol\":2398:2412  _paused = true */\n      0x0100\n      exp\n      dup2\n      sload\n      dup2\n      0xff\n      mul\n      not\n      and\n      swap1\n      dup4\n      iszero\n      iszero\n      mul\n      or\n      swap1\n      sstore\n      pop\n        /* \"@openzeppelin/contracts/utils/Pausable.sol\":2427:2447  Paused(_msgSender()) */\n      0x62e78cea01bee320cd4e420270b5ea74000d11b0c9f74754ebdbfc544b05a258\n        /* \"@openzeppelin/contracts/utils/Pausable.sol\":2434:2446  _msgSender() */\n      tag_192\n        /* \"@openzeppelin/contracts/utils/Pausable.sol\":2434:2444  _msgSender */\n      tag_171\n        /* \"@openzeppelin/contracts/utils/Pausable.sol\":2434:2446  _msgSender() */\n      jump\t// in\n    tag_192:\n        /* \"@openzeppelin/contracts/utils/Pausable.sol\":2427:2447  Paused(_msgSender()) */\n      mload(0x40)\n      tag_193\n      swap2\n      swap1\n      tag_44\n      jump\t// in\n    tag_193:\n      mload(0x40)\n      dup1\n      swap2\n      sub\n      swap1\n      log1\n        /* \"@openzeppelin/contracts/utils/Pausable.sol\":2339:2454  function _pause() internal virtual whenNotPaused {... */\n      jump\t// out\n        /* \"@openzeppelin/contracts/utils/Context.sol\":656:752  function _msgSender() internal view virtual returns (address) {... */\n    tag_171:\n        /* \"@openzeppelin/contracts/utils/Context.sol\":709:716  address */\n      0x00\n        /* \"@openzeppelin/contracts/utils/Context.sol\":735:745  msg.sender */\n      caller\n        /* \"@openzeppelin/contracts/utils/Context.sol\":728:745  return msg.sender */\n      swap1\n      pop\n        /* \"@openzeppelin/contracts/utils/Context.sol\":656:752  function _msgSender() internal view virtual returns (address) {... */\n      swap1\n      jump\t// out\n        /* \"@openzeppelin/contracts/utils/Pausable.sol\":2078:2204  function _requirePaused() internal view virtual {... */\n    tag_184:\n        /* \"@openzeppelin/contracts/utils/Pausable.sol\":2141:2149  paused() */\n      tag_196\n        /* \"@openzeppelin/contracts/utils/Pausable.sol\":2141:2147  paused */\n      tag_46\n        /* \"@openzeppelin/contracts/utils/Pausable.sol\":2141:2149  paused() */\n      jump\t// in\n    tag_196:\n        /* \"@openzeppelin/contracts/utils/Pausable.sol\":2136:2198  if (!paused()) {... */\n      tag_197\n      jumpi\n        /* \"@openzeppelin/contracts/utils/Pausable.sol\":2172:2187  ExpectedPause() */\n      mload(0x40)\n      0x8dfc202b00000000000000000000000000000000000000000000000000000000\n      dup2\n      mstore\n      0x04\n      add\n      mload(0x40)\n      dup1\n      swap2\n      sub\n      swap1\n      revert\n        /* \"@openzeppelin/contracts/utils/Pausable.sol\":2136:2198  if (!paused()) {... */\n    tag_197:\n        /* \"@openzeppelin/contracts/utils/Pausable.sol\":2078:2204  function _requirePaused() internal view virtual {... */\n      jump\t// out\n        /* \"#utility.yul\":88:205   */\n    tag_199:\n        /* \"#utility.yul\":197:198   */\n      0x00\n        /* \"#utility.yul\":194:195   */\n      0x00\n        /* \"#utility.yul\":187:199   */\n      revert\n        /* \"#utility.yul\":211:328   */\n    tag_200:\n        /* \"#utility.yul\":320:321   */\n      0x00\n        /* \"#utility.yul\":317:318   */\n      0x00\n        /* \"#utility.yul\":310:322   */\n      revert\n        /* \"#utility.yul\":334:460   */\n    tag_201:\n        /* \"#utility.yul\":371:378   */\n      0x00\n        /* \"#utility.yul\":411:453   */\n      0xffffffffffffffffffffffffffffffffffffffff\n        /* \"#utility.yul\":404:409   */\n      dup3\n        /* \"#utility.yul\":400:454   */\n      and\n        /* \"#utility.yul\":389:454   */\n      swap1\n      pop\n        /* \"#utility.yul\":334:460   */\n      swap2\n      swap1\n      pop\n      jump\t// out\n        /* \"#utility.yul\":466:562   */\n    tag_202:\n        /* \"#utility.yul\":503:510   */\n      0x00\n        /* \"#utility.yul\":532:556   */\n      tag_242\n        /* \"#utility.yul\":550:555   */\n      dup3\n        /* \"#utility.yul\":532:556   */\n      tag_201\n      jump\t// in\n    tag_242:\n        /* \"#utility.yul\":521:556   */\n      swap1\n      pop\n        /* \"#utility.yul\":466:562   */\n      swap2\n      swap1\n      pop\n      jump\t// out\n        /* \"#utility.yul\":568:690   */\n    tag_203:\n        /* \"#utility.yul\":641:665   */\n      tag_244\n        /* \"#utility.yul\":659:664   */\n      dup2\n        /* \"#utility.yul\":641:665   */\n      tag_202\n      jump\t// in\n    tag_244:\n        /* \"#utility.yul\":634:639   */\n      dup2\n        /* \"#utility.yul\":631:666   */\n      eq\n        /* \"#utility.yul\":621:684   */\n      tag_245\n      jumpi\n        /* \"#utility.yul\":680:681   */\n      0x00\n        /* \"#utility.yul\":677:678   */\n      0x00\n        /* \"#utility.yul\":670:682   */\n      revert\n        /* \"#utility.yul\":621:684   */\n    tag_245:\n        /* \"#utility.yul\":568:690   */\n      pop\n      jump\t// out\n        /* \"#utility.yul\":696:835   */\n    tag_204:\n        /* \"#utility.yul\":742:747   */\n      0x00\n        /* \"#utility.yul\":780:786   */\n      dup2\n        /* \"#utility.yul\":767:787   */\n      calldataload\n        /* \"#utility.yul\":758:787   */\n      swap1\n      pop\n        /* \"#utility.yul\":796:829   */\n      tag_247\n        /* \"#utility.yul\":823:828   */\n      dup2\n        /* \"#utility.yul\":796:829   */\n      tag_203\n      jump\t// in\n    tag_247:\n        /* \"#utility.yul\":696:835   */\n      swap3\n      swap2\n      pop\n      pop\n      jump\t// out\n        /* \"#utility.yul\":841:918   */\n    tag_205:\n        /* \"#utility.yul\":878:885   */\n      0x00\n        /* \"#utility.yul\":907:912   */\n      dup2\n        /* \"#utility.yul\":896:912   */\n      swap1\n      pop\n        /* \"#utility.yul\":841:918   */\n      swap2\n      swap1\n      pop\n      jump\t// out\n        /* \"#utility.yul\":924:1046   */\n    tag_206:\n        /* \"#utility.yul\":997:1021   */\n      tag_250\n        /* \"#utility.yul\":1015:1020   */\n      dup2\n        /* \"#utility.yul\":997:1021   */\n      tag_205\n      jump\t// in\n    tag_250:\n        /* \"#utility.yul\":990:995   */\n      dup2\n        /* \"#utility.yul\":987:1022   */\n      eq\n        /* \"#utility.yul\":977:1040   */\n      tag_251\n      jumpi\n        /* \"#utility.yul\":1036:1037   */\n      0x00\n        /* \"#utility.yul\":1033:1034   */\n      0x00\n        /* \"#utility.yul\":1026:1038   */\n      revert\n        /* \"#utility.yul\":977:1040   */\n    tag_251:\n        /* \"#utility.yul\":924:1046   */\n      pop\n      jump\t// out\n        /* \"#utility.yul\":1052:1191   */\n    tag_207:\n        /* \"#utility.yul\":1098:1103   */\n      0x00\n        /* \"#utility.yul\":1136:1142   */\n      dup2\n        /* \"#utility.yul\":1123:1143   */\n      calldataload\n        /* \"#utility.yul\":1114:1143   */\n      swap1\n      pop\n        /* \"#utility.yul\":1152:1185   */\n      tag_253\n        /* \"#utility.yul\":1179:1184   */\n      dup2\n        /* \"#utility.yul\":1152:1185   */\n      tag_206\n      jump\t// in\n    tag_253:\n        /* \"#utility.yul\":1052:1191   */\n      swap3\n      swap2\n      pop\n      pop\n      jump\t// out\n        /* \"#utility.yul\":1197:1671   */\n    tag_22:\n        /* \"#utility.yul\":1265:1271   */\n      0x00\n        /* \"#utility.yul\":1273:1279   */\n      0x00\n        /* \"#utility.yul\":1322:1324   */\n      0x40\n        /* \"#utility.yul\":1310:1319   */\n      dup4\n        /* \"#utility.yul\":1301:1308   */\n      dup6\n        /* \"#utility.yul\":1297:1320   */\n      sub\n        /* \"#utility.yul\":1293:1325   */\n      slt\n        /* \"#utility.yul\":1290:1409   */\n      iszero\n      tag_255\n      jumpi\n        /* \"#utility.yul\":1328:1407   */\n      tag_256\n      tag_199\n      jump\t// in\n    tag_256:\n        /* \"#utility.yul\":1290:1409   */\n    tag_255:\n        /* \"#utility.yul\":1448:1449   */\n      0x00\n        /* \"#utility.yul\":1473:1526   */\n      tag_257\n        /* \"#utility.yul\":1518:1525   */\n      dup6\n        /* \"#utility.yul\":1509:1515   */\n      dup3\n        /* \"#utility.yul\":1498:1507   */\n      dup7\n        /* \"#utility.yul\":1494:1516   */\n      add\n        /* \"#utility.yul\":1473:1526   */\n      tag_204\n      jump\t// in\n    tag_257:\n        /* \"#utility.yul\":1463:1526   */\n      swap3\n      pop\n        /* \"#utility.yul\":1419:1536   */\n      pop\n        /* \"#utility.yul\":1575:1577   */\n      0x20\n        /* \"#utility.yul\":1601:1654   */\n      tag_258\n        /* \"#utility.yul\":1646:1653   */\n      dup6\n        /* \"#utility.yul\":1637:1643   */\n      dup3\n        /* \"#utility.yul\":1626:1635   */\n      dup7\n        /* \"#utility.yul\":1622:1644   */\n      add\n        /* \"#utility.yul\":1601:1654   */\n      tag_207\n      jump\t// in\n    tag_258:\n        /* \"#utility.yul\":1591:1654   */\n      swap2\n      pop\n        /* \"#utility.yul\":1546:1664   */\n      pop\n        /* \"#utility.yul\":1197:1671   */\n      swap3\n      pop\n      swap3\n      swap1\n      pop\n      jump\t// out\n        /* \"#utility.yul\":1677:1794   */\n    tag_208:\n        /* \"#utility.yul\":1786:1787   */\n      0x00\n        /* \"#utility.yul\":1783:1784   */\n      0x00\n        /* \"#utility.yul\":1776:1788   */\n      revert\n        /* \"#utility.yul\":1800:1917   */\n    tag_209:\n        /* \"#utility.yul\":1909:1910   */\n      0x00\n        /* \"#utility.yul\":1906:1907   */\n      0x00\n        /* \"#utility.yul\":1899:1911   */\n      revert\n        /* \"#utility.yul\":1923:2040   */\n    tag_210:\n        /* \"#utility.yul\":2032:2033   */\n      0x00\n        /* \"#utility.yul\":2029:2030   */\n      0x00\n        /* \"#utility.yul\":2022:2034   */\n      revert\n        /* \"#utility.yul\":2063:2631   */\n    tag_211:\n        /* \"#utility.yul\":2136:2144   */\n      0x00\n        /* \"#utility.yul\":2146:2152   */\n      0x00\n        /* \"#utility.yul\":2196:2199   */\n      dup4\n        /* \"#utility.yul\":2189:2193   */\n      0x1f\n        /* \"#utility.yul\":2181:2187   */\n      dup5\n        /* \"#utility.yul\":2177:2194   */\n      add\n        /* \"#utility.yul\":2173:2200   */\n      slt\n        /* \"#utility.yul\":2163:2285   */\n      tag_263\n      jumpi\n        /* \"#utility.yul\":2204:2283   */\n      tag_264\n      tag_208\n      jump\t// in\n    tag_264:\n        /* \"#utility.yul\":2163:2285   */\n    tag_263:\n        /* \"#utility.yul\":2317:2323   */\n      dup3\n        /* \"#utility.yul\":2304:2324   */\n      calldataload\n        /* \"#utility.yul\":2294:2324   */\n      swap1\n      pop\n        /* \"#utility.yul\":2347:2365   */\n      0xffffffffffffffff\n        /* \"#utility.yul\":2339:2345   */\n      dup2\n        /* \"#utility.yul\":2336:2366   */\n      gt\n        /* \"#utility.yul\":2333:2450   */\n      iszero\n      tag_265\n      jumpi\n        /* \"#utility.yul\":2369:2448   */\n      tag_266\n      tag_209\n      jump\t// in\n    tag_266:\n        /* \"#utility.yul\":2333:2450   */\n    tag_265:\n        /* \"#utility.yul\":2483:2487   */\n      0x20\n        /* \"#utility.yul\":2475:2481   */\n      dup4\n        /* \"#utility.yul\":2471:2488   */\n      add\n        /* \"#utility.yul\":2459:2488   */\n      swap2\n      pop\n        /* \"#utility.yul\":2537:2540   */\n      dup4\n        /* \"#utility.yul\":2529:2533   */\n      0x20\n        /* \"#utility.yul\":2521:2527   */\n      dup3\n        /* \"#utility.yul\":2517:2534   */\n      mul\n        /* \"#utility.yul\":2507:2515   */\n      dup4\n        /* \"#utility.yul\":2503:2535   */\n      add\n        /* \"#utility.yul\":2500:2541   */\n      gt\n        /* \"#utility.yul\":2497:2625   */\n      iszero\n      tag_267\n      jumpi\n        /* \"#utility.yul\":2544:2623   */\n      tag_268\n      tag_210\n      jump\t// in\n    tag_268:\n        /* \"#utility.yul\":2497:2625   */\n    tag_267:\n        /* \"#utility.yul\":2063:2631   */\n      swap3\n      pop\n      swap3\n      swap1\n      pop\n      jump\t// out\n        /* \"#utility.yul\":2654:3222   */\n    tag_212:\n        /* \"#utility.yul\":2727:2735   */\n      0x00\n        /* \"#utility.yul\":2737:2743   */\n      0x00\n        /* \"#utility.yul\":2787:2790   */\n      dup4\n        /* \"#utility.yul\":2780:2784   */\n      0x1f\n        /* \"#utility.yul\":2772:2778   */\n      dup5\n        /* \"#utility.yul\":2768:2785   */\n      add\n        /* \"#utility.yul\":2764:2791   */\n      slt\n        /* \"#utility.yul\":2754:2876   */\n      tag_270\n      jumpi\n        /* \"#utility.yul\":2795:2874   */\n      tag_271\n      tag_208\n      jump\t// in\n    tag_271:\n        /* \"#utility.yul\":2754:2876   */\n    tag_270:\n        /* \"#utility.yul\":2908:2914   */\n      dup3\n        /* \"#utility.yul\":2895:2915   */\n      calldataload\n        /* \"#utility.yul\":2885:2915   */\n      swap1\n      pop\n        /* \"#utility.yul\":2938:2956   */\n      0xffffffffffffffff\n        /* \"#utility.yul\":2930:2936   */\n      dup2\n        /* \"#utility.yul\":2927:2957   */\n      gt\n        /* \"#utility.yul\":2924:3041   */\n      iszero\n      tag_272\n      jumpi\n        /* \"#utility.yul\":2960:3039   */\n      tag_273\n      tag_209\n      jump\t// in\n    tag_273:\n        /* \"#utility.yul\":2924:3041   */\n    tag_272:\n        /* \"#utility.yul\":3074:3078   */\n      0x20\n        /* \"#utility.yul\":3066:3072   */\n      dup4\n        /* \"#utility.yul\":3062:3079   */\n      add\n        /* \"#utility.yul\":3050:3079   */\n      swap2\n      pop\n        /* \"#utility.yul\":3128:3131   */\n      dup4\n        /* \"#utility.yul\":3120:3124   */\n      0x20\n        /* \"#utility.yul\":3112:3118   */\n      dup3\n        /* \"#utility.yul\":3108:3125   */\n      mul\n        /* \"#utility.yul\":3098:3106   */\n      dup4\n        /* \"#utility.yul\":3094:3126   */\n      add\n        /* \"#utility.yul\":3091:3132   */\n      gt\n        /* \"#utility.yul\":3088:3216   */\n      iszero\n      tag_274\n      jumpi\n        /* \"#utility.yul\":3135:3214   */\n      tag_275\n      tag_210\n      jump\t// in\n    tag_275:\n        /* \"#utility.yul\":3088:3216   */\n    tag_274:\n        /* \"#utility.yul\":2654:3222   */\n      swap3\n      pop\n      swap3\n      swap1\n      pop\n      jump\t// out\n        /* \"#utility.yul\":3228:4162   */\n    tag_26:\n        /* \"#utility.yul\":3350:3356   */\n      0x00\n        /* \"#utility.yul\":3358:3364   */\n      0x00\n        /* \"#utility.yul\":3366:3372   */\n      0x00\n        /* \"#utility.yul\":3374:3380   */\n      0x00\n        /* \"#utility.yul\":3423:3425   */\n      0x40\n        /* \"#utility.yul\":3411:3420   */\n      dup6\n        /* \"#utility.yul\":3402:3409   */\n      dup8\n        /* \"#utility.yul\":3398:3421   */\n      sub\n        /* \"#utility.yul\":3394:3426   */\n      slt\n        /* \"#utility.yul\":3391:3510   */\n      iszero\n      tag_277\n      jumpi\n        /* \"#utility.yul\":3429:3508   */\n      tag_278\n      tag_199\n      jump\t// in\n    tag_278:\n        /* \"#utility.yul\":3391:3510   */\n    tag_277:\n        /* \"#utility.yul\":3577:3578   */\n      0x00\n        /* \"#utility.yul\":3566:3575   */\n      dup6\n        /* \"#utility.yul\":3562:3579   */\n      add\n        /* \"#utility.yul\":3549:3580   */\n      calldataload\n        /* \"#utility.yul\":3607:3625   */\n      0xffffffffffffffff\n        /* \"#utility.yul\":3599:3605   */\n      dup2\n        /* \"#utility.yul\":3596:3626   */\n      gt\n        /* \"#utility.yul\":3593:3710   */\n      iszero\n      tag_279\n      jumpi\n        /* \"#utility.yul\":3629:3708   */\n      tag_280\n      tag_200\n      jump\t// in\n    tag_280:\n        /* \"#utility.yul\":3593:3710   */\n    tag_279:\n        /* \"#utility.yul\":3742:3822   */\n      tag_281\n        /* \"#utility.yul\":3814:3821   */\n      dup8\n        /* \"#utility.yul\":3805:3811   */\n      dup3\n        /* \"#utility.yul\":3794:3803   */\n      dup9\n        /* \"#utility.yul\":3790:3812   */\n      add\n        /* \"#utility.yul\":3742:3822   */\n      tag_211\n      jump\t// in\n    tag_281:\n        /* \"#utility.yul\":3724:3822   */\n      swap5\n      pop\n      swap5\n      pop\n        /* \"#utility.yul\":3520:3832   */\n      pop\n        /* \"#utility.yul\":3899:3901   */\n      0x20\n        /* \"#utility.yul\":3888:3897   */\n      dup6\n        /* \"#utility.yul\":3884:3902   */\n      add\n        /* \"#utility.yul\":3871:3903   */\n      calldataload\n        /* \"#utility.yul\":3930:3948   */\n      0xffffffffffffffff\n        /* \"#utility.yul\":3922:3928   */\n      dup2\n        /* \"#utility.yul\":3919:3949   */\n      gt\n        /* \"#utility.yul\":3916:4033   */\n      iszero\n      tag_282\n      jumpi\n        /* \"#utility.yul\":3952:4031   */\n      tag_283\n      tag_200\n      jump\t// in\n    tag_283:\n        /* \"#utility.yul\":3916:4033   */\n    tag_282:\n        /* \"#utility.yul\":4065:4145   */\n      tag_284\n        /* \"#utility.yul\":4137:4144   */\n      dup8\n        /* \"#utility.yul\":4128:4134   */\n      dup3\n        /* \"#utility.yul\":4117:4126   */\n      dup9\n        /* \"#utility.yul\":4113:4135   */\n      add\n        /* \"#utility.yul\":4065:4145   */\n      tag_212\n      jump\t// in\n    tag_284:\n        /* \"#utility.yul\":4047:4145   */\n      swap3\n      pop\n      swap3\n      pop\n        /* \"#utility.yul\":3842:4155   */\n      pop\n        /* \"#utility.yul\":3228:4162   */\n      swap3\n      swap6\n      swap2\n      swap5\n      pop\n      swap3\n      pop\n      jump\t// out\n        /* \"#utility.yul\":4168:4228   */\n    tag_213:\n        /* \"#utility.yul\":4196:4199   */\n      0x00\n        /* \"#utility.yul\":4217:4222   */\n      dup2\n        /* \"#utility.yul\":4210:4222   */\n      swap1\n      pop\n        /* \"#utility.yul\":4168:4228   */\n      swap2\n      swap1\n      pop\n      jump\t// out\n        /* \"#utility.yul\":4234:4376   */\n    tag_214:\n        /* \"#utility.yul\":4284:4293   */\n      0x00\n        /* \"#utility.yul\":4317:4370   */\n      tag_287\n        /* \"#utility.yul\":4335:4369   */\n      tag_288\n        /* \"#utility.yul\":4344:4368   */\n      tag_289\n        /* \"#utility.yul\":4362:4367   */\n      dup5\n        /* \"#utility.yul\":4344:4368   */\n      tag_201\n      jump\t// in\n    tag_289:\n        /* \"#utility.yul\":4335:4369   */\n      tag_213\n      jump\t// in\n    tag_288:\n        /* \"#utility.yul\":4317:4370   */\n      tag_201\n      jump\t// in\n    tag_287:\n        /* \"#utility.yul\":4304:4370   */\n      swap1\n      pop\n        /* \"#utility.yul\":4234:4376   */\n      swap2\n      swap1\n      pop\n      jump\t// out\n        /* \"#utility.yul\":4382:4508   */\n    tag_215:\n        /* \"#utility.yul\":4432:4441   */\n      0x00\n        /* \"#utility.yul\":4465:4502   */\n      tag_291\n        /* \"#utility.yul\":4496:4501   */\n      dup3\n        /* \"#utility.yul\":4465:4502   */\n      tag_214\n      jump\t// in\n    tag_291:\n        /* \"#utility.yul\":4452:4502   */\n      swap1\n      pop\n        /* \"#utility.yul\":4382:4508   */\n      swap2\n      swap1\n      pop\n      jump\t// out\n        /* \"#utility.yul\":4514:4654   */\n    tag_216:\n        /* \"#utility.yul\":4578:4587   */\n      0x00\n        /* \"#utility.yul\":4611:4648   */\n      tag_293\n        /* \"#utility.yul\":4642:4647   */\n      dup3\n        /* \"#utility.yul\":4611:4648   */\n      tag_215\n      jump\t// in\n    tag_293:\n        /* \"#utility.yul\":4598:4648   */\n      swap1\n      pop\n        /* \"#utility.yul\":4514:4654   */\n      swap2\n      swap1\n      pop\n      jump\t// out\n        /* \"#utility.yul\":4660:4819   */\n    tag_217:\n        /* \"#utility.yul\":4761:4812   */\n      tag_295\n        /* \"#utility.yul\":4806:4811   */\n      dup2\n        /* \"#utility.yul\":4761:4812   */\n      tag_216\n      jump\t// in\n    tag_295:\n        /* \"#utility.yul\":4756:4759   */\n      dup3\n        /* \"#utility.yul\":4749:4813   */\n      mstore\n        /* \"#utility.yul\":4660:4819   */\n      pop\n      pop\n      jump\t// out\n        /* \"#utility.yul\":4825:5075   */\n    tag_31:\n        /* \"#utility.yul\":4932:4936   */\n      0x00\n        /* \"#utility.yul\":4970:4972   */\n      0x20\n        /* \"#utility.yul\":4959:4968   */\n      dup3\n        /* \"#utility.yul\":4955:4973   */\n      add\n        /* \"#utility.yul\":4947:4973   */\n      swap1\n      pop\n        /* \"#utility.yul\":4983:5068   */\n      tag_297\n        /* \"#utility.yul\":5065:5066   */\n      0x00\n        /* \"#utility.yul\":5054:5063   */\n      dup4\n        /* \"#utility.yul\":5050:5067   */\n      add\n        /* \"#utility.yul\":5041:5047   */\n      dup5\n        /* \"#utility.yul\":4983:5068   */\n      tag_217\n      jump\t// in\n    tag_297:\n        /* \"#utility.yul\":4825:5075   */\n      swap3\n      swap2\n      pop\n      pop\n      jump\t// out\n        /* \"#utility.yul\":5081:5167   */\n    tag_218:\n        /* \"#utility.yul\":5116:5123   */\n      0x00\n        /* \"#utility.yul\":5156:5160   */\n      0xff\n        /* \"#utility.yul\":5149:5154   */\n      dup3\n        /* \"#utility.yul\":5145:5161   */\n      and\n        /* \"#utility.yul\":5134:5161   */\n      swap1\n      pop\n        /* \"#utility.yul\":5081:5167   */\n      swap2\n      swap1\n      pop\n      jump\t// out\n        /* \"#utility.yul\":5173:5285   */\n    tag_219:\n        /* \"#utility.yul\":5256:5278   */\n      tag_300\n        /* \"#utility.yul\":5272:5277   */\n      dup2\n        /* \"#utility.yul\":5256:5278   */\n      tag_218\n      jump\t// in\n    tag_300:\n        /* \"#utility.yul\":5251:5254   */\n      dup3\n        /* \"#utility.yul\":5244:5279   */\n      mstore\n        /* \"#utility.yul\":5173:5285   */\n      pop\n      pop\n      jump\t// out\n        /* \"#utility.yul\":5291:5505   */\n    tag_40:\n        /* \"#utility.yul\":5380:5384   */\n      0x00\n        /* \"#utility.yul\":5418:5420   */\n      0x20\n        /* \"#utility.yul\":5407:5416   */\n      dup3\n        /* \"#utility.yul\":5403:5421   */\n      add\n        /* \"#utility.yul\":5395:5421   */\n      swap1\n      pop\n        /* \"#utility.yul\":5431:5498   */\n      tag_302\n        /* \"#utility.yul\":5495:5496   */\n      0x00\n        /* \"#utility.yul\":5484:5493   */\n      dup4\n        /* \"#utility.yul\":5480:5497   */\n      add\n        /* \"#utility.yul\":5471:5477   */\n      dup5\n        /* \"#utility.yul\":5431:5498   */\n      tag_219\n      jump\t// in\n    tag_302:\n        /* \"#utility.yul\":5291:5505   */\n      swap3\n      swap2\n      pop\n      pop\n      jump\t// out\n        /* \"#utility.yul\":5511:5629   */\n    tag_220:\n        /* \"#utility.yul\":5598:5622   */\n      tag_304\n        /* \"#utility.yul\":5616:5621   */\n      dup2\n        /* \"#utility.yul\":5598:5622   */\n      tag_202\n      jump\t// in\n    tag_304:\n        /* \"#utility.yul\":5593:5596   */\n      dup3\n        /* \"#utility.yul\":5586:5623   */\n      mstore\n        /* \"#utility.yul\":5511:5629   */\n      pop\n      pop\n      jump\t// out\n        /* \"#utility.yul\":5635:5857   */\n    tag_44:\n        /* \"#utility.yul\":5728:5732   */\n      0x00\n        /* \"#utility.yul\":5766:5768   */\n      0x20\n        /* \"#utility.yul\":5755:5764   */\n      dup3\n        /* \"#utility.yul\":5751:5769   */\n      add\n        /* \"#utility.yul\":5743:5769   */\n      swap1\n      pop\n        /* \"#utility.yul\":5779:5850   */\n      tag_306\n        /* \"#utility.yul\":5847:5848   */\n      0x00\n        /* \"#utility.yul\":5836:5845   */\n      dup4\n        /* \"#utility.yul\":5832:5849   */\n      add\n        /* \"#utility.yul\":5823:5829   */\n      dup5\n        /* \"#utility.yul\":5779:5850   */\n      tag_220\n      jump\t// in\n    tag_306:\n        /* \"#utility.yul\":5635:5857   */\n      swap3\n      swap2\n      pop\n      pop\n      jump\t// out\n        /* \"#utility.yul\":5863:5953   */\n    tag_221:\n        /* \"#utility.yul\":5897:5904   */\n      0x00\n        /* \"#utility.yul\":5940:5945   */\n      dup2\n        /* \"#utility.yul\":5933:5946   */\n      iszero\n        /* \"#utility.yul\":5926:5947   */\n      iszero\n        /* \"#utility.yul\":5915:5947   */\n      swap1\n      pop\n        /* \"#utility.yul\":5863:5953   */\n      swap2\n      swap1\n      pop\n      jump\t// out\n        /* \"#utility.yul\":5959:6068   */\n    tag_222:\n        /* \"#utility.yul\":6040:6061   */\n      tag_309\n        /* \"#utility.yul\":6055:6060   */\n      dup2\n        /* \"#utility.yul\":6040:6061   */\n      tag_221\n      jump\t// in\n    tag_309:\n        /* \"#utility.yul\":6035:6038   */\n      dup3\n        /* \"#utility.yul\":6028:6062   */\n      mstore\n        /* \"#utility.yul\":5959:6068   */\n      pop\n      pop\n      jump\t// out\n        /* \"#utility.yul\":6074:6284   */\n    tag_48:\n        /* \"#utility.yul\":6161:6165   */\n      0x00\n        /* \"#utility.yul\":6199:6201   */\n      0x20\n        /* \"#utility.yul\":6188:6197   */\n      dup3\n        /* \"#utility.yul\":6184:6202   */\n      add\n        /* \"#utility.yul\":6176:6202   */\n      swap1\n      pop\n        /* \"#utility.yul\":6212:6277   */\n      tag_311\n        /* \"#utility.yul\":6274:6275   */\n      0x00\n        /* \"#utility.yul\":6263:6272   */\n      dup4\n        /* \"#utility.yul\":6259:6276   */\n      add\n        /* \"#utility.yul\":6250:6256   */\n      dup5\n        /* \"#utility.yul\":6212:6277   */\n      tag_222\n      jump\t// in\n    tag_311:\n        /* \"#utility.yul\":6074:6284   */\n      swap3\n      swap2\n      pop\n      pop\n      jump\t// out\n        /* \"#utility.yul\":6290:6408   */\n    tag_223:\n        /* \"#utility.yul\":6361:6383   */\n      tag_313\n        /* \"#utility.yul\":6377:6382   */\n      dup2\n        /* \"#utility.yul\":6361:6383   */\n      tag_218\n      jump\t// in\n    tag_313:\n        /* \"#utility.yul\":6354:6359   */\n      dup2\n        /* \"#utility.yul\":6351:6384   */\n      eq\n        /* \"#utility.yul\":6341:6402   */\n      tag_314\n      jumpi\n        /* \"#utility.yul\":6398:6399   */\n      0x00\n        /* \"#utility.yul\":6395:6396   */\n      0x00\n        /* \"#utility.yul\":6388:6400   */\n      revert\n        /* \"#utility.yul\":6341:6402   */\n    tag_314:\n        /* \"#utility.yul\":6290:6408   */\n      pop\n      jump\t// out\n        /* \"#utility.yul\":6414:6549   */\n    tag_224:\n        /* \"#utility.yul\":6458:6463   */\n      0x00\n        /* \"#utility.yul\":6496:6502   */\n      dup2\n        /* \"#utility.yul\":6483:6503   */\n      calldataload\n        /* \"#utility.yul\":6474:6503   */\n      swap1\n      pop\n        /* \"#utility.yul\":6512:6543   */\n      tag_316\n        /* \"#utility.yul\":6537:6542   */\n      dup2\n        /* \"#utility.yul\":6512:6543   */\n      tag_223\n      jump\t// in\n    tag_316:\n        /* \"#utility.yul\":6414:6549   */\n      swap3\n      swap2\n      pop\n      pop\n      jump\t// out\n        /* \"#utility.yul\":6555:6880   */\n    tag_61:\n        /* \"#utility.yul\":6612:6618   */\n      0x00\n        /* \"#utility.yul\":6661:6663   */\n      0x20\n        /* \"#utility.yul\":6649:6658   */\n      dup3\n        /* \"#utility.yul\":6640:6647   */\n      dup5\n        /* \"#utility.yul\":6636:6659   */\n      sub\n        /* \"#utility.yul\":6632:6664   */\n      slt\n        /* \"#utility.yul\":6629:6748   */\n      iszero\n      tag_318\n      jumpi\n        /* \"#utility.yul\":6667:6746   */\n      tag_319\n      tag_199\n      jump\t// in\n    tag_319:\n        /* \"#utility.yul\":6629:6748   */\n    tag_318:\n        /* \"#utility.yul\":6787:6788   */\n      0x00\n        /* \"#utility.yul\":6812:6863   */\n      tag_320\n        /* \"#utility.yul\":6855:6862   */\n      dup5\n        /* \"#utility.yul\":6846:6852   */\n      dup3\n        /* \"#utility.yul\":6835:6844   */\n      dup6\n        /* \"#utility.yul\":6831:6853   */\n      add\n        /* \"#utility.yul\":6812:6863   */\n      tag_224\n      jump\t// in\n    tag_320:\n        /* \"#utility.yul\":6802:6863   */\n      swap2\n      pop\n        /* \"#utility.yul\":6758:6873   */\n      pop\n        /* \"#utility.yul\":6555:6880   */\n      swap3\n      swap2\n      pop\n      pop\n      jump\t// out\n        /* \"#utility.yul\":6886:7215   */\n    tag_66:\n        /* \"#utility.yul\":6945:6951   */\n      0x00\n        /* \"#utility.yul\":6994:6996   */\n      0x20\n        /* \"#utility.yul\":6982:6991   */\n      dup3\n        /* \"#utility.yul\":6973:6980   */\n      dup5\n        /* \"#utility.yul\":6969:6992   */\n      sub\n        /* \"#utility.yul\":6965:6997   */\n      slt\n        /* \"#utility.yul\":6962:7081   */\n      iszero\n      tag_322\n      jumpi\n        /* \"#utility.yul\":7000:7079   */\n      tag_323\n      tag_199\n      jump\t// in\n    tag_323:\n        /* \"#utility.yul\":6962:7081   */\n    tag_322:\n        /* \"#utility.yul\":7120:7121   */\n      0x00\n        /* \"#utility.yul\":7145:7198   */\n      tag_324\n        /* \"#utility.yul\":7190:7197   */\n      dup5\n        /* \"#utility.yul\":7181:7187   */\n      dup3\n        /* \"#utility.yul\":7170:7179   */\n      dup6\n        /* \"#utility.yul\":7166:7188   */\n      add\n        /* \"#utility.yul\":7145:7198   */\n      tag_204\n      jump\t// in\n    tag_324:\n        /* \"#utility.yul\":7135:7198   */\n      swap2\n      pop\n        /* \"#utility.yul\":7091:7208   */\n      pop\n        /* \"#utility.yul\":6886:7215   */\n      swap3\n      swap2\n      pop\n      pop\n      jump\t// out\n        /* \"#utility.yul\":7221:7553   */\n    tag_79:\n        /* \"#utility.yul\":7342:7346   */\n      0x00\n        /* \"#utility.yul\":7380:7382   */\n      0x40\n        /* \"#utility.yul\":7369:7378   */\n      dup3\n        /* \"#utility.yul\":7365:7383   */\n      add\n        /* \"#utility.yul\":7357:7383   */\n      swap1\n      pop\n        /* \"#utility.yul\":7393:7464   */\n      tag_326\n        /* \"#utility.yul\":7461:7462   */\n      0x00\n        /* \"#utility.yul\":7450:7459   */\n      dup4\n        /* \"#utility.yul\":7446:7463   */\n      add\n        /* \"#utility.yul\":7437:7443   */\n      dup6\n        /* \"#utility.yul\":7393:7464   */\n      tag_220\n      jump\t// in\n    tag_326:\n        /* \"#utility.yul\":7474:7546   */\n      tag_327\n        /* \"#utility.yul\":7542:7544   */\n      0x20\n        /* \"#utility.yul\":7531:7540   */\n      dup4\n        /* \"#utility.yul\":7527:7545   */\n      add\n        /* \"#utility.yul\":7518:7524   */\n      dup5\n        /* \"#utility.yul\":7474:7546   */\n      tag_220\n      jump\t// in\n    tag_327:\n        /* \"#utility.yul\":7221:7553   */\n      swap4\n      swap3\n      pop\n      pop\n      pop\n      jump\t// out\n        /* \"#utility.yul\":7559:7702   */\n    tag_225:\n        /* \"#utility.yul\":7616:7621   */\n      0x00\n        /* \"#utility.yul\":7647:7653   */\n      dup2\n        /* \"#utility.yul\":7641:7654   */\n      mload\n        /* \"#utility.yul\":7632:7654   */\n      swap1\n      pop\n        /* \"#utility.yul\":7663:7696   */\n      tag_329\n        /* \"#utility.yul\":7690:7695   */\n      dup2\n        /* \"#utility.yul\":7663:7696   */\n      tag_206\n      jump\t// in\n    tag_329:\n        /* \"#utility.yul\":7559:7702   */\n      swap3\n      swap2\n      pop\n      pop\n      jump\t// out\n        /* \"#utility.yul\":7708:8059   */\n    tag_83:\n        /* \"#utility.yul\":7778:7784   */\n      0x00\n        /* \"#utility.yul\":7827:7829   */\n      0x20\n        /* \"#utility.yul\":7815:7824   */\n      dup3\n        /* \"#utility.yul\":7806:7813   */\n      dup5\n        /* \"#utility.yul\":7802:7825   */\n      sub\n        /* \"#utility.yul\":7798:7830   */\n      slt\n        /* \"#utility.yul\":7795:7914   */\n      iszero\n      tag_331\n      jumpi\n        /* \"#utility.yul\":7833:7912   */\n      tag_332\n      tag_199\n      jump\t// in\n    tag_332:\n        /* \"#utility.yul\":7795:7914   */\n    tag_331:\n        /* \"#utility.yul\":7953:7954   */\n      0x00\n        /* \"#utility.yul\":7978:8042   */\n      tag_333\n        /* \"#utility.yul\":8034:8041   */\n      dup5\n        /* \"#utility.yul\":8025:8031   */\n      dup3\n        /* \"#utility.yul\":8014:8023   */\n      dup6\n        /* \"#utility.yul\":8010:8032   */\n      add\n        /* \"#utility.yul\":7978:8042   */\n      tag_225\n      jump\t// in\n    tag_333:\n        /* \"#utility.yul\":7968:8042   */\n      swap2\n      pop\n        /* \"#utility.yul\":7924:8052   */\n      pop\n        /* \"#utility.yul\":7708:8059   */\n      swap3\n      swap2\n      pop\n      pop\n      jump\t// out\n        /* \"#utility.yul\":8065:8234   */\n    tag_226:\n        /* \"#utility.yul\":8149:8160   */\n      0x00\n        /* \"#utility.yul\":8183:8189   */\n      dup3\n        /* \"#utility.yul\":8178:8181   */\n      dup3\n        /* \"#utility.yul\":8171:8190   */\n      mstore\n        /* \"#utility.yul\":8223:8227   */\n      0x20\n        /* \"#utility.yul\":8218:8221   */\n      dup3\n        /* \"#utility.yul\":8214:8228   */\n      add\n        /* \"#utility.yul\":8199:8228   */\n      swap1\n      pop\n        /* \"#utility.yul\":8065:8234   */\n      swap3\n      swap2\n      pop\n      pop\n      jump\t// out\n        /* \"#utility.yul\":8240:8465   */\n    tag_227:\n        /* \"#utility.yul\":8380:8414   */\n      0x496e73756666696369656e74205553444320616c6c6f77616e636520666f7220\n        /* \"#utility.yul\":8376:8377   */\n      0x00\n        /* \"#utility.yul\":8368:8374   */\n      dup3\n        /* \"#utility.yul\":8364:8378   */\n      add\n        /* \"#utility.yul\":8357:8415   */\n      mstore\n        /* \"#utility.yul\":8449:8457   */\n      0x726f757465720000000000000000000000000000000000000000000000000000\n        /* \"#utility.yul\":8444:8446   */\n      0x20\n        /* \"#utility.yul\":8436:8442   */\n      dup3\n        /* \"#utility.yul\":8432:8447   */\n      add\n        /* \"#utility.yul\":8425:8458   */\n      mstore\n        /* \"#utility.yul\":8240:8465   */\n      pop\n      jump\t// out\n        /* \"#utility.yul\":8471:8837   */\n    tag_228:\n        /* \"#utility.yul\":8613:8616   */\n      0x00\n        /* \"#utility.yul\":8634:8701   */\n      tag_337\n        /* \"#utility.yul\":8698:8700   */\n      0x26\n        /* \"#utility.yul\":8693:8696   */\n      dup4\n        /* \"#utility.yul\":8634:8701   */\n      tag_226\n      jump\t// in\n    tag_337:\n        /* \"#utility.yul\":8627:8701   */\n      swap2\n      pop\n        /* \"#utility.yul\":8710:8803   */\n      tag_338\n        /* \"#utility.yul\":8799:8802   */\n      dup3\n        /* \"#utility.yul\":8710:8803   */\n      tag_227\n      jump\t// in\n    tag_338:\n        /* \"#utility.yul\":8828:8830   */\n      0x40\n        /* \"#utility.yul\":8823:8826   */\n      dup3\n        /* \"#utility.yul\":8819:8831   */\n      add\n        /* \"#utility.yul\":8812:8831   */\n      swap1\n      pop\n        /* \"#utility.yul\":8471:8837   */\n      swap2\n      swap1\n      pop\n      jump\t// out\n        /* \"#utility.yul\":8843:9262   */\n    tag_86:\n        /* \"#utility.yul\":9009:9013   */\n      0x00\n        /* \"#utility.yul\":9047:9049   */\n      0x20\n        /* \"#utility.yul\":9036:9045   */\n      dup3\n        /* \"#utility.yul\":9032:9050   */\n      add\n        /* \"#utility.yul\":9024:9050   */\n      swap1\n      pop\n        /* \"#utility.yul\":9096:9105   */\n      dup2\n        /* \"#utility.yul\":9090:9094   */\n      dup2\n        /* \"#utility.yul\":9086:9106   */\n      sub\n        /* \"#utility.yul\":9082:9083   */\n      0x00\n        /* \"#utility.yul\":9071:9080   */\n      dup4\n        /* \"#utility.yul\":9067:9084   */\n      add\n        /* \"#utility.yul\":9060:9107   */\n      mstore\n        /* \"#utility.yul\":9124:9255   */\n      tag_340\n        /* \"#utility.yul\":9250:9254   */\n      dup2\n        /* \"#utility.yul\":9124:9255   */\n      tag_228\n      jump\t// in\n    tag_340:\n        /* \"#utility.yul\":9116:9255   */\n      swap1\n      pop\n        /* \"#utility.yul\":8843:9262   */\n      swap2\n      swap1\n      pop\n      jump\t// out\n        /* \"#utility.yul\":9268:9386   */\n    tag_229:\n        /* \"#utility.yul\":9355:9379   */\n      tag_342\n        /* \"#utility.yul\":9373:9378   */\n      dup2\n        /* \"#utility.yul\":9355:9379   */\n      tag_205\n      jump\t// in\n    tag_342:\n        /* \"#utility.yul\":9350:9353   */\n      dup3\n        /* \"#utility.yul\":9343:9380   */\n      mstore\n        /* \"#utility.yul\":9268:9386   */\n      pop\n      pop\n      jump\t// out\n        /* \"#utility.yul\":9392:9614   */\n    tag_88:\n        /* \"#utility.yul\":9485:9489   */\n      0x00\n        /* \"#utility.yul\":9523:9525   */\n      0x20\n        /* \"#utility.yul\":9512:9521   */\n      dup3\n        /* \"#utility.yul\":9508:9526   */\n      add\n        /* \"#utility.yul\":9500:9526   */\n      swap1\n      pop\n        /* \"#utility.yul\":9536:9607   */\n      tag_344\n        /* \"#utility.yul\":9604:9605   */\n      0x00\n        /* \"#utility.yul\":9593:9602   */\n      dup4\n        /* \"#utility.yul\":9589:9606   */\n      add\n        /* \"#utility.yul\":9580:9586   */\n      dup5\n        /* \"#utility.yul\":9536:9607   */\n      tag_229\n      jump\t// in\n    tag_344:\n        /* \"#utility.yul\":9392:9614   */\n      swap3\n      swap2\n      pop\n      pop\n      jump\t// out\n        /* \"#utility.yul\":9620:9841   */\n    tag_230:\n        /* \"#utility.yul\":9760:9794   */\n      0x4172726179206c656e677468206d69736d61746368206f7220746f6f206c6172\n        /* \"#utility.yul\":9756:9757   */\n      0x00\n        /* \"#utility.yul\":9748:9754   */\n      dup3\n        /* \"#utility.yul\":9744:9758   */\n      add\n        /* \"#utility.yul\":9737:9795   */\n      mstore\n        /* \"#utility.yul\":9829:9833   */\n      0x6765000000000000000000000000000000000000000000000000000000000000\n        /* \"#utility.yul\":9824:9826   */\n      0x20\n        /* \"#utility.yul\":9816:9822   */\n      dup3\n        /* \"#utility.yul\":9812:9827   */\n      add\n        /* \"#utility.yul\":9805:9834   */\n      mstore\n        /* \"#utility.yul\":9620:9841   */\n      pop\n      jump\t// out\n        /* \"#utility.yul\":9847:10213   */\n    tag_231:\n        /* \"#utility.yul\":9989:9992   */\n      0x00\n        /* \"#utility.yul\":10010:10077   */\n      tag_347\n        /* \"#utility.yul\":10074:10076   */\n      0x22\n        /* \"#utility.yul\":10069:10072   */\n      dup4\n        /* \"#utility.yul\":10010:10077   */\n      tag_226\n      jump\t// in\n    tag_347:\n        /* \"#utility.yul\":10003:10077   */\n      swap2\n      pop\n        /* \"#utility.yul\":10086:10179   */\n      tag_348\n        /* \"#utility.yul\":10175:10178   */\n      dup3\n        /* \"#utility.yul\":10086:10179   */\n      tag_230\n      jump\t// in\n    tag_348:\n        /* \"#utility.yul\":10204:10206   */\n      0x40\n        /* \"#utility.yul\":10199:10202   */\n      dup3\n        /* \"#utility.yul\":10195:10207   */\n      add\n        /* \"#utility.yul\":10188:10207   */\n      swap1\n      pop\n        /* \"#utility.yul\":9847:10213   */\n      swap2\n      swap1\n      pop\n      jump\t// out\n        /* \"#utility.yul\":10219:10638   */\n    tag_101:\n        /* \"#utility.yul\":10385:10389   */\n      0x00\n        /* \"#utility.yul\":10423:10425   */\n      0x20\n        /* \"#utility.yul\":10412:10421   */\n      dup3\n        /* \"#utility.yul\":10408:10426   */\n      add\n        /* \"#utility.yul\":10400:10426   */\n      swap1\n      pop\n        /* \"#utility.yul\":10472:10481   */\n      dup2\n        /* \"#utility.yul\":10466:10470   */\n      dup2\n        /* \"#utility.yul\":10462:10482   */\n      sub\n        /* \"#utility.yul\":10458:10459   */\n      0x00\n        /* \"#utility.yul\":10447:10456   */\n      dup4\n        /* \"#utility.yul\":10443:10460   */\n      add\n        /* \"#utility.yul\":10436:10483   */\n      mstore\n        /* \"#utility.yul\":10500:10631   */\n      tag_350\n        /* \"#utility.yul\":10626:10630   */\n      dup2\n        /* \"#utility.yul\":10500:10631   */\n      tag_231\n      jump\t// in\n    tag_350:\n        /* \"#utility.yul\":10492:10631   */\n      swap1\n      pop\n        /* \"#utility.yul\":10219:10638   */\n      swap2\n      swap1\n      pop\n      jump\t// out\n        /* \"#utility.yul\":10644:10824   */\n    tag_107:\n        /* \"#utility.yul\":10692:10769   */\n      0x4e487b7100000000000000000000000000000000000000000000000000000000\n        /* \"#utility.yul\":10689:10690   */\n      0x00\n        /* \"#utility.yul\":10682:10770   */\n      mstore\n        /* \"#utility.yul\":10789:10793   */\n      0x32\n        /* \"#utility.yul\":10786:10787   */\n      0x04\n        /* \"#utility.yul\":10779:10794   */\n      mstore\n        /* \"#utility.yul\":10813:10817   */\n      0x24\n        /* \"#utility.yul\":10810:10811   */\n      0x00\n        /* \"#utility.yul\":10803:10818   */\n      revert\n        /* \"#utility.yul\":10830:11065   */\n    tag_232:\n        /* \"#utility.yul\":10970:11004   */\n      0x496e73756666696369656e74205553444320616c6c6f77616e636520666f7220\n        /* \"#utility.yul\":10966:10967   */\n      0x00\n        /* \"#utility.yul\":10958:10964   */\n      dup3\n        /* \"#utility.yul\":10954:10968   */\n      add\n        /* \"#utility.yul\":10947:11005   */\n      mstore\n        /* \"#utility.yul\":11039:11057   */\n      0x4b796265725377617020726f7574657200000000000000000000000000000000\n        /* \"#utility.yul\":11034:11036   */\n      0x20\n        /* \"#utility.yul\":11026:11032   */\n      dup3\n        /* \"#utility.yul\":11022:11037   */\n      add\n        /* \"#utility.yul\":11015:11058   */\n      mstore\n        /* \"#utility.yul\":10830:11065   */\n      pop\n      jump\t// out\n        /* \"#utility.yul\":11071:11437   */\n    tag_233:\n        /* \"#utility.yul\":11213:11216   */\n      0x00\n        /* \"#utility.yul\":11234:11301   */\n      tag_354\n        /* \"#utility.yul\":11298:11300   */\n      0x30\n        /* \"#utility.yul\":11293:11296   */\n      dup4\n        /* \"#utility.yul\":11234:11301   */\n      tag_226\n      jump\t// in\n    tag_354:\n        /* \"#utility.yul\":11227:11301   */\n      swap2\n      pop\n        /* \"#utility.yul\":11310:11403   */\n      tag_355\n        /* \"#utility.yul\":11399:11402   */\n      dup3\n        /* \"#utility.yul\":11310:11403   */\n      tag_232\n      jump\t// in\n    tag_355:\n        /* \"#utility.yul\":11428:11430   */\n      0x40\n        /* \"#utility.yul\":11423:11426   */\n      dup3\n        /* \"#utility.yul\":11419:11431   */\n      add\n        /* \"#utility.yul\":11412:11431   */\n      swap1\n      pop\n        /* \"#utility.yul\":11071:11437   */\n      swap2\n      swap1\n      pop\n      jump\t// out\n        /* \"#utility.yul\":11443:11862   */\n    tag_117:\n        /* \"#utility.yul\":11609:11613   */\n      0x00\n        /* \"#utility.yul\":11647:11649   */\n      0x20\n        /* \"#utility.yul\":11636:11645   */\n      dup3\n        /* \"#utility.yul\":11632:11650   */\n      add\n        /* \"#utility.yul\":11624:11650   */\n      swap1\n      pop\n        /* \"#utility.yul\":11696:11705   */\n      dup2\n        /* \"#utility.yul\":11690:11694   */\n      dup2\n        /* \"#utility.yul\":11686:11706   */\n      sub\n        /* \"#utility.yul\":11682:11683   */\n      0x00\n        /* \"#utility.yul\":11671:11680   */\n      dup4\n        /* \"#utility.yul\":11667:11684   */\n      add\n        /* \"#utility.yul\":11660:11707   */\n      mstore\n        /* \"#utility.yul\":11724:11855   */\n      tag_357\n        /* \"#utility.yul\":11850:11854   */\n      dup2\n        /* \"#utility.yul\":11724:11855   */\n      tag_233\n      jump\t// in\n    tag_357:\n        /* \"#utility.yul\":11716:11855   */\n      swap1\n      pop\n        /* \"#utility.yul\":11443:11862   */\n      swap2\n      swap1\n      pop\n      jump\t// out\n        /* \"#utility.yul\":11868:12035   */\n    tag_234:\n        /* \"#utility.yul\":12008:12027   */\n      0x496e76616c696420726f75746572204944000000000000000000000000000000\n        /* \"#utility.yul\":12004:12005   */\n      0x00\n        /* \"#utility.yul\":11996:12002   */\n      dup3\n        /* \"#utility.yul\":11992:12006   */\n      add\n        /* \"#utility.yul\":11985:12028   */\n      mstore\n        /* \"#utility.yul\":11868:12035   */\n      pop\n      jump\t// out\n        /* \"#utility.yul\":12041:12407   */\n    tag_235:\n        /* \"#utility.yul\":12183:12186   */\n      0x00\n        /* \"#utility.yul\":12204:12271   */\n      tag_360\n        /* \"#utility.yul\":12268:12270   */\n      0x11\n        /* \"#utility.yul\":12263:12266   */\n      dup4\n        /* \"#utility.yul\":12204:12271   */\n      tag_226\n      jump\t// in\n    tag_360:\n        /* \"#utility.yul\":12197:12271   */\n      swap2\n      pop\n        /* \"#utility.yul\":12280:12373   */\n      tag_361\n        /* \"#utility.yul\":12369:12372   */\n      dup3\n        /* \"#utility.yul\":12280:12373   */\n      tag_234\n      jump\t// in\n    tag_361:\n        /* \"#utility.yul\":12398:12400   */\n      0x20\n        /* \"#utility.yul\":12393:12396   */\n      dup3\n        /* \"#utility.yul\":12389:12401   */\n      add\n        /* \"#utility.yul\":12382:12401   */\n      swap1\n      pop\n        /* \"#utility.yul\":12041:12407   */\n      swap2\n      swap1\n      pop\n      jump\t// out\n        /* \"#utility.yul\":12413:12832   */\n    tag_162:\n        /* \"#utility.yul\":12579:12583   */\n      0x00\n        /* \"#utility.yul\":12617:12619   */\n      0x20\n        /* \"#utility.yul\":12606:12615   */\n      dup3\n        /* \"#utility.yul\":12602:12620   */\n      add\n        /* \"#utility.yul\":12594:12620   */\n      swap1\n      pop\n        /* \"#utility.yul\":12666:12675   */\n      dup2\n        /* \"#utility.yul\":12660:12664   */\n      dup2\n        /* \"#utility.yul\":12656:12676   */\n      sub\n        /* \"#utility.yul\":12652:12653   */\n      0x00\n        /* \"#utility.yul\":12641:12650   */\n      dup4\n        /* \"#utility.yul\":12637:12654   */\n      add\n        /* \"#utility.yul\":12630:12677   */\n      mstore\n        /* \"#utility.yul\":12694:12825   */\n      tag_363\n        /* \"#utility.yul\":12820:12824   */\n      dup2\n        /* \"#utility.yul\":12694:12825   */\n      tag_235\n      jump\t// in\n    tag_363:\n        /* \"#utility.yul\":12686:12825   */\n      swap1\n      pop\n        /* \"#utility.yul\":12413:12832   */\n      swap2\n      swap1\n      pop\n      jump\t// out\n\n    auxdata: 0xa264697066735822122001337504b334771aff174de15546e418bd807ba0773c834948f3dd4db84d917d64736f6c634300081e0033\n}\n",
				"bytecode": {
					"linkReferences": {},
					"object": "60a060405234801561000f575f5ffd5b506040516115de3803806115de83398181016040528101906100319190610213565b805f73ffffffffffffffffffffffffffffffffffffffff168173ffffffffffffffffffffffffffffffffffffffff16036100a2575f6040517f1e4fbdf70000000000000000000000000000000000000000000000000000000081526004016100999190610260565b60405180910390fd5b6100b1816100f460201b60201c565b50600180819055508173ffffffffffffffffffffffffffffffffffffffff1660808173ffffffffffffffffffffffffffffffffffffffff16815250505050610279565b5f5f5f9054906101000a900473ffffffffffffffffffffffffffffffffffffffff169050815f5f6101000a81548173ffffffffffffffffffffffffffffffffffffffff021916908373ffffffffffffffffffffffffffffffffffffffff1602179055508173ffffffffffffffffffffffffffffffffffffffff168173ffffffffffffffffffffffffffffffffffffffff167f8be0079c531659141344cd1fd0a4f28419497f9722a3daafe3b4186f6b6457e060405160405180910390a35050565b5f5ffd5b5f73ffffffffffffffffffffffffffffffffffffffff82169050919050565b5f6101e2826101b9565b9050919050565b6101f2816101d8565b81146101fc575f5ffd5b50565b5f8151905061020d816101e9565b92915050565b5f5f60408385031215610229576102286101b5565b5b5f610236858286016101ff565b9250506020610247858286016101ff565b9150509250929050565b61025a816101d8565b82525050565b5f6020820190506102735f830184610251565b92915050565b6080516113386102a65f395f8181610279015281816104870152818161067201526106c101526113385ff3fe608060405234801561000f575f5ffd5b50600436106100e8575f3560e01c80635c975abb1161008a5780638456cb59116100645780638456cb59146101ea5780638da5cb5b146101f4578063cac73ed714610212578063f2fde38b14610242576100e8565b80635c975abb146101a457806370a48572146101c2578063715018a6146101e0576100e8565b80633f4ba83a116100c65780633f4ba83a146101425780634236c2e01461014c57806348fcdc7b1461016857806357df19e614610186576100e8565b806320e3319b146100ec57806338b8266d146101085780633e413bee14610124575b5f5ffd5b61010660048036038101906101019190610d30565b61025e565b005b610122600480360381019061011d9190610e24565b6103eb565b005b61012c610670565b6040516101399190610efd565b60405180910390f35b61014a610694565b005b61016660048036038101906101619190610d30565b6106a6565b005b610170610833565b60405161017d9190610f31565b60405180910390f35b61018e610837565b60405161019b9190610f59565b60405180910390f35b6101ac610852565b6040516101b99190610f8c565b60405180910390f35b6101ca610867565b6040516101d79190610f59565b60405180910390f35b6101e861087f565b005b6101f2610892565b005b6101fc6108a4565b6040516102099190610f59565b60405180910390f35b61022c60048036038101906102279190610fcf565b6108cb565b6040516102399190610f59565b60405180910390f35b61025c60048036038101906102579190610ffa565b610935565b005b6102666109b9565b61026e610a40565b610276610a81565b807f000000000000000000000000000000000000000000000000000000000000000073ffffffffffffffffffffffffffffffffffffffff1663dd62ed3e84736131b5fae19ea4f9d964eac0408e4408b66337b56040518363ffffffff1660e01b81526004016102e6929190611025565b602060405180830381865afa158015610301573d5f5f3e3d5ffd5b505050506040513d601f19601f820116820180604052508101906103259190611060565b1015610366576040517f08c379a000000000000000000000000000000000000000000000000000000000815260040161035d9061110b565b60405180910390fd5b736131b5fae19ea4f9d964eac0408e4408b66337b573ffffffffffffffffffffffffffffffffffffffff168273ffffffffffffffffffffffffffffffffffffffff167feab9cd112c05d2451f24acf7702297c9705b2115923d562c663c5272a60fe76f836040516103d79190611138565b60405180910390a36103e7610ac7565b5050565b6103f36109b9565b6103fb610a40565b610403610a81565b818190508484905014801561041c575060648484905011155b61045b576040517f08c379a0000000000000000000000000000000000000000000000000000000008152600401610452906111c1565b60405180910390fd5b5f5f90505b848490508110156106615782828281811061047e5761047d6111df565b5b905060200201357f000000000000000000000000000000000000000000000000000000000000000073ffffffffffffffffffffffffffffffffffffffff1663dd62ed3e8787858181106104d4576104d36111df565b5b90506020020160208101906104e99190610ffa565b736131b5fae19ea4f9d964eac0408e4408b66337b56040518363ffffffff1660e01b815260040161051b929190611025565b602060405180830381865afa158015610536573d5f5f3e3d5ffd5b505050506040513d601f19601f8201168201806040525081019061055a9190611060565b101561059b576040517f08c379a00000000000000000000000000000000000000000000000000000000081526004016105929061127c565b60405180910390fd5b736131b5fae19ea4f9d964eac0408e4408b66337b573ffffffffffffffffffffffffffffffffffffffff168585838181106105d9576105d86111df565b5b90506020020160208101906105ee9190610ffa565b73ffffffffffffffffffffffffffffffffffffffff167feab9cd112c05d2451f24acf7702297c9705b2115923d562c663c5272a60fe76f858585818110610638576106376111df565b5b9050602002013560405161064c9190611138565b60405180910390a38080600101915050610460565b5061066a610ac7565b50505050565b7f000000000000000000000000000000000000000000000000000000000000000081565b61069c6109b9565b6106a4610ad0565b565b6106ae6109b9565b6106b6610a40565b6106be610a81565b807f000000000000000000000000000000000000000000000000000000000000000073ffffffffffffffffffffffffffffffffffffffff1663dd62ed3e84736131b5fae19ea4f9d964eac0408e4408b66337b56040518363ffffffff1660e01b815260040161072e929190611025565b602060405180830381865afa158015610749573d5f5f3e3d5ffd5b505050506040513d601f19601f8201168201806040525081019061076d9190611060565b10156107ae576040517f08c379a00000000000000000000000000000000000000000000000000000000081526004016107a59061127c565b60405180910390fd5b736131b5fae19ea4f9d964eac0408e4408b66337b573ffffffffffffffffffffffffffffffffffffffff168273ffffffffffffffffffffffffffffffffffffffff167feab9cd112c05d2451f24acf7702297c9705b2115923d562c663c5272a60fe76f8360405161081f9190611138565b60405180910390a361082f610ac7565b5050565b5f81565b5f736131b5fae19ea4f9d964eac0408e4408b66337b5905090565b5f5f60149054906101000a900460ff16905090565b736131b5fae19ea4f9d964eac0408e4408b66337b581565b6108876109b9565b6108905f610b31565b565b61089a6109b9565b6108a2610bf2565b565b5f5f5f9054906101000a900473ffffffffffffffffffffffffffffffffffffffff16905090565b5f5f60ff168260ff16036108f557736131b5fae19ea4f9d964eac0408e4408b66337b59050610930565b6040517f08c379a0000000000000000000000000000000000000000000000000000000008152600401610927906112e4565b60405180910390fd5b919050565b61093d6109b9565b5f73ffffffffffffffffffffffffffffffffffffffff168173ffffffffffffffffffffffffffffffffffffffff16036109ad575f6040517f1e4fbdf70000000000000000000000000000000000000000000000000000000081526004016109a49190610f59565b60405180910390fd5b6109b681610b31565b50565b6109c1610c54565b73ffffffffffffffffffffffffffffffffffffffff166109df6108a4565b73ffffffffffffffffffffffffffffffffffffffff1614610a3e57610a02610c54565b6040517f118cdaa7000000000000000000000000000000000000000000000000000000008152600401610a359190610f59565b60405180910390fd5b565b610a48610852565b15610a7f576040517fd93c066500000000000000000000000000000000000000000000000000000000815260040160405180910390fd5b565b600260015403610abd576040517f3ee5aeb500000000000000000000000000000000000000000000000000000000815260040160405180910390fd5b6002600181905550565b60018081905550565b610ad8610c5b565b5f5f60146101000a81548160ff0219169083151502179055507f5db9ee0a495bf2e6ff9c91a7834c1ba4fdd244a5e8aa4e537bd38aeae4b073aa610b1a610c54565b604051610b279190610f59565b60405180910390a1565b5f5f5f9054906101000a900473ffffffffffffffffffffffffffffffffffffffff169050815f5f6101000a81548173ffffffffffffffffffffffffffffffffffffffff021916908373ffffffffffffffffffffffffffffffffffffffff1602179055508173ffffffffffffffffffffffffffffffffffffffff168173ffffffffffffffffffffffffffffffffffffffff167f8be0079c531659141344cd1fd0a4f28419497f9722a3daafe3b4186f6b6457e060405160405180910390a35050565b610bfa610a40565b60015f60146101000a81548160ff0219169083151502179055507f62e78cea01bee320cd4e420270b5ea74000d11b0c9f74754ebdbfc544b05a258610c3d610c54565b604051610c4a9190610f59565b60405180910390a1565b5f33905090565b610c63610852565b610c99576040517f8dfc202b00000000000000000000000000000000000000000000000000000000815260040160405180910390fd5b565b5f5ffd5b5f5ffd5b5f73ffffffffffffffffffffffffffffffffffffffff82169050919050565b5f610ccc82610ca3565b9050919050565b610cdc81610cc2565b8114610ce6575f5ffd5b50565b5f81359050610cf781610cd3565b92915050565b5f819050919050565b610d0f81610cfd565b8114610d19575f5ffd5b50565b5f81359050610d2a81610d06565b92915050565b5f5f60408385031215610d4657610d45610c9b565b5b5f610d5385828601610ce9565b9250506020610d6485828601610d1c565b9150509250929050565b5f5ffd5b5f5ffd5b5f5ffd5b5f5f83601f840112610d8f57610d8e610d6e565b5b8235905067ffffffffffffffff811115610dac57610dab610d72565b5b602083019150836020820283011115610dc857610dc7610d76565b5b9250929050565b5f5f83601f840112610de457610de3610d6e565b5b8235905067ffffffffffffffff811115610e0157610e00610d72565b5b602083019150836020820283011115610e1d57610e1c610d76565b5b9250929050565b5f5f5f5f60408587031215610e3c57610e3b610c9b565b5b5f85013567ffffffffffffffff811115610e5957610e58610c9f565b5b610e6587828801610d7a565b9450945050602085013567ffffffffffffffff811115610e8857610e87610c9f565b5b610e9487828801610dcf565b925092505092959194509250565b5f819050919050565b5f610ec5610ec0610ebb84610ca3565b610ea2565b610ca3565b9050919050565b5f610ed682610eab565b9050919050565b5f610ee782610ecc565b9050919050565b610ef781610edd565b82525050565b5f602082019050610f105f830184610eee565b92915050565b5f60ff82169050919050565b610f2b81610f16565b82525050565b5f602082019050610f445f830184610f22565b92915050565b610f5381610cc2565b82525050565b5f602082019050610f6c5f830184610f4a565b92915050565b5f8115159050919050565b610f8681610f72565b82525050565b5f602082019050610f9f5f830184610f7d565b92915050565b610fae81610f16565b8114610fb8575f5ffd5b50565b5f81359050610fc981610fa5565b92915050565b5f60208284031215610fe457610fe3610c9b565b5b5f610ff184828501610fbb565b91505092915050565b5f6020828403121561100f5761100e610c9b565b5b5f61101c84828501610ce9565b91505092915050565b5f6040820190506110385f830185610f4a565b6110456020830184610f4a565b9392505050565b5f8151905061105a81610d06565b92915050565b5f6020828403121561107557611074610c9b565b5b5f6110828482850161104c565b91505092915050565b5f82825260208201905092915050565b7f496e73756666696369656e74205553444320616c6c6f77616e636520666f72205f8201527f726f757465720000000000000000000000000000000000000000000000000000602082015250565b5f6110f560268361108b565b91506111008261109b565b604082019050919050565b5f6020820190508181035f830152611122816110e9565b9050919050565b61113281610cfd565b82525050565b5f60208201905061114b5f830184611129565b92915050565b7f4172726179206c656e677468206d69736d61746368206f7220746f6f206c61725f8201527f6765000000000000000000000000000000000000000000000000000000000000602082015250565b5f6111ab60228361108b565b91506111b682611151565b604082019050919050565b5f6020820190508181035f8301526111d88161119f565b9050919050565b7f4e487b71000000000000000000000000000000000000000000000000000000005f52603260045260245ffd5b7f496e73756666696369656e74205553444320616c6c6f77616e636520666f72205f8201527f4b796265725377617020726f7574657200000000000000000000000000000000602082015250565b5f61126660308361108b565b91506112718261120c565b604082019050919050565b5f6020820190508181035f8301526112938161125a565b9050919050565b7f496e76616c696420726f757465722049440000000000000000000000000000005f82015250565b5f6112ce60118361108b565b91506112d98261129a565b602082019050919050565b5f6020820190508181035f8301526112fb816112c2565b905091905056fea264697066735822122001337504b334771aff174de15546e418bd807ba0773c834948f3dd4db84d917d64736f6c634300081e0033",
					"opcodes": "PUSH1 0xA0 PUSH1 0x40 MSTORE CALLVALUE DUP1 ISZERO PUSH2 0xF JUMPI PUSH0 PUSH0 REVERT JUMPDEST POP PUSH1 0x40 MLOAD PUSH2 0x15DE CODESIZE SUB DUP1 PUSH2 0x15DE DUP4 CODECOPY DUP2 DUP2 ADD PUSH1 0x40 MSTORE DUP2 ADD SWAP1 PUSH2 0x31 SWAP2 SWAP1 PUSH2 0x213 JUMP JUMPDEST DUP1 PUSH0 PUSH20 0xFFFFFFFFFFFFFFFFFFFFFFFFFFFFFFFFFFFFFFFF AND DUP2 PUSH20 0xFFFFFFFFFFFFFFFFFFFFFFFFFFFFFFFFFFFFFFFF AND SUB PUSH2 0xA2 JUMPI PUSH0 PUSH1 0x40 MLOAD PUSH32 0x1E4FBDF700000000000000000000000000000000000000000000000000000000 DUP2 MSTORE PUSH1 0x4 ADD PUSH2 0x99 SWAP2 SWAP1 PUSH2 0x260 JUMP JUMPDEST PUSH1 0x40 MLOAD DUP1 SWAP2 SUB SWAP1 REVERT JUMPDEST PUSH2 0xB1 DUP2 PUSH2 0xF4 PUSH1 0x20 SHL PUSH1 0x20 SHR JUMP JUMPDEST POP PUSH1 0x1 DUP1 DUP2 SWAP1 SSTORE POP DUP2 PUSH20 0xFFFFFFFFFFFFFFFFFFFFFFFFFFFFFFFFFFFFFFFF AND PUSH1 0x80 DUP2 PUSH20 0xFFFFFFFFFFFFFFFFFFFFFFFFFFFFFFFFFFFFFFFF AND DUP2 MSTORE POP POP POP POP PUSH2 0x279 JUMP JUMPDEST PUSH0 PUSH0 PUSH0 SWAP1 SLOAD SWAP1 PUSH2 0x100 EXP SWAP1 DIV PUSH20 0xFFFFFFFFFFFFFFFFFFFFFFFFFFFFFFFFFFFFFFFF AND SWAP1 POP DUP2 PUSH0 PUSH0 PUSH2 0x100 EXP DUP2 SLOAD DUP2 PUSH20 0xFFFFFFFFFFFFFFFFFFFFFFFFFFFFFFFFFFFFFFFF MUL NOT AND SWAP1 DUP4 PUSH20 0xFFFFFFFFFFFFFFFFFFFFFFFFFFFFFFFFFFFFFFFF AND MUL OR SWAP1 SSTORE POP DUP2 PUSH20 0xFFFFFFFFFFFFFFFFFFFFFFFFFFFFFFFFFFFFFFFF AND DUP2 PUSH20 0xFFFFFFFFFFFFFFFFFFFFFFFFFFFFFFFFFFFFFFFF AND PUSH32 0x8BE0079C531659141344CD1FD0A4F28419497F9722A3DAAFE3B4186F6B6457E0 PUSH1 0x40 MLOAD PUSH1 0x40 MLOAD DUP1 SWAP2 SUB SWAP1 LOG3 POP POP JUMP JUMPDEST PUSH0 PUSH0 REVERT JUMPDEST PUSH0 PUSH20 0xFFFFFFFFFFFFFFFFFFFFFFFFFFFFFFFFFFFFFFFF DUP3 AND SWAP1 POP SWAP2 SWAP1 POP JUMP JUMPDEST PUSH0 PUSH2 0x1E2 DUP3 PUSH2 0x1B9 JUMP JUMPDEST SWAP1 POP SWAP2 SWAP1 POP JUMP JUMPDEST PUSH2 0x1F2 DUP2 PUSH2 0x1D8 JUMP JUMPDEST DUP2 EQ PUSH2 0x1FC JUMPI PUSH0 PUSH0 REVERT JUMPDEST POP JUMP JUMPDEST PUSH0 DUP2 MLOAD SWAP1 POP PUSH2 0x20D DUP2 PUSH2 0x1E9 JUMP JUMPDEST SWAP3 SWAP2 POP POP JUMP JUMPDEST PUSH0 PUSH0 PUSH1 0x40 DUP4 DUP6 SUB SLT ISZERO PUSH2 0x229 JUMPI PUSH2 0x228 PUSH2 0x1B5 JUMP JUMPDEST JUMPDEST PUSH0 PUSH2 0x236 DUP6 DUP3 DUP7 ADD PUSH2 0x1FF JUMP JUMPDEST SWAP3 POP POP PUSH1 0x20 PUSH2 0x247 DUP6 DUP3 DUP7 ADD PUSH2 0x1FF JUMP JUMPDEST SWAP2 POP POP SWAP3 POP SWAP3 SWAP1 POP JUMP JUMPDEST PUSH2 0x25A DUP2 PUSH2 0x1D8 JUMP JUMPDEST DUP3 MSTORE POP POP JUMP JUMPDEST PUSH0 PUSH1 0x20 DUP3 ADD SWAP1 POP PUSH2 0x273 PUSH0 DUP4 ADD DUP5 PUSH2 0x251 JUMP JUMPDEST SWAP3 SWAP2 POP POP JUMP JUMPDEST PUSH1 0x80 MLOAD PUSH2 0x1338 PUSH2 0x2A6 PUSH0 CODECOPY PUSH0 DUP2 DUP2 PUSH2 0x279 ADD MSTORE DUP2 DUP2 PUSH2 0x487 ADD MSTORE DUP2 DUP2 PUSH2 0x672 ADD MSTORE PUSH2 0x6C1 ADD MSTORE PUSH2 0x1338 PUSH0 RETURN INVALID PUSH1 0x80 PUSH1 0x40 MSTORE CALLVALUE DUP1 ISZERO PUSH2 0xF JUMPI PUSH0 PUSH0 REVERT JUMPDEST POP PUSH1 0x4 CALLDATASIZE LT PUSH2 0xE8 JUMPI PUSH0 CALLDATALOAD PUSH1 0xE0 SHR DUP1 PUSH4 0x5C975ABB GT PUSH2 0x8A JUMPI DUP1 PUSH4 0x8456CB59 GT PUSH2 0x64 JUMPI DUP1 PUSH4 0x8456CB59 EQ PUSH2 0x1EA JUMPI DUP1 PUSH4 0x8DA5CB5B EQ PUSH2 0x1F4 JUMPI DUP1 PUSH4 0xCAC73ED7 EQ PUSH2 0x212 JUMPI DUP1 PUSH4 0xF2FDE38B EQ PUSH2 0x242 JUMPI PUSH2 0xE8 JUMP JUMPDEST DUP1 PUSH4 0x5C975ABB EQ PUSH2 0x1A4 JUMPI DUP1 PUSH4 0x70A48572 EQ PUSH2 0x1C2 JUMPI DUP1 PUSH4 0x715018A6 EQ PUSH2 0x1E0 JUMPI PUSH2 0xE8 JUMP JUMPDEST DUP1 PUSH4 0x3F4BA83A GT PUSH2 0xC6 JUMPI DUP1 PUSH4 0x3F4BA83A EQ PUSH2 0x142 JUMPI DUP1 PUSH4 0x4236C2E0 EQ PUSH2 0x14C JUMPI DUP1 PUSH4 0x48FCDC7B EQ PUSH2 0x168 JUMPI DUP1 PUSH4 0x57DF19E6 EQ PUSH2 0x186 JUMPI PUSH2 0xE8 JUMP JUMPDEST DUP1 PUSH4 0x20E3319B EQ PUSH2 0xEC JUMPI DUP1 PUSH4 0x38B8266D EQ PUSH2 0x108 JUMPI DUP1 PUSH4 0x3E413BEE EQ PUSH2 0x124 JUMPI JUMPDEST PUSH0 PUSH0 REVERT JUMPDEST PUSH2 0x106 PUSH1 0x4 DUP1 CALLDATASIZE SUB DUP2 ADD SWAP1 PUSH2 0x101 SWAP2 SWAP1 PUSH2 0xD30 JUMP JUMPDEST PUSH2 0x25E JUMP JUMPDEST STOP JUMPDEST PUSH2 0x122 PUSH1 0x4 DUP1 CALLDATASIZE SUB DUP2 ADD SWAP1 PUSH2 0x11D SWAP2 SWAP1 PUSH2 0xE24 JUMP JUMPDEST PUSH2 0x3EB JUMP JUMPDEST STOP JUMPDEST PUSH2 0x12C PUSH2 0x670 JUMP JUMPDEST PUSH1 0x40 MLOAD PUSH2 0x139 SWAP2 SWAP1 PUSH2 0xEFD JUMP JUMPDEST PUSH1 0x40 MLOAD DUP1 SWAP2 SUB SWAP1 RETURN JUMPDEST PUSH2 0x14A PUSH2 0x694 JUMP JUMPDEST STOP JUMPDEST PUSH2 0x166 PUSH1 0x4 DUP1 CALLDATASIZE SUB DUP2 ADD SWAP1 PUSH2 0x161 SWAP2 SWAP1 PUSH2 0xD30 JUMP JUMPDEST PUSH2 0x6A6 JUMP JUMPDEST STOP JUMPDEST PUSH2 0x170 PUSH2 0x833 JUMP JUMPDEST PUSH1 0x40 MLOAD PUSH2 0x17D SWAP2 SWAP1 PUSH2 0xF31 JUMP JUMPDEST PUSH1 0x40 MLOAD DUP1 SWAP2 SUB SWAP1 RETURN JUMPDEST PUSH2 0x18E PUSH2 0x837 JUMP JUMPDEST PUSH1 0x40 MLOAD PUSH2 0x19B SWAP2 SWAP1 PUSH2 0xF59 JUMP JUMPDEST PUSH1 0x40 MLOAD DUP1 SWAP2 SUB SWAP1 RETURN JUMPDEST PUSH2 0x1AC PUSH2 0x852 JUMP JUMPDEST PUSH1 0x40 MLOAD PUSH2 0x1B9 SWAP2 SWAP1 PUSH2 0xF8C JUMP JUMPDEST PUSH1 0x40 MLOAD DUP1 SWAP2 SUB SWAP1 RETURN JUMPDEST PUSH2 0x1CA PUSH2 0x867 JUMP JUMPDEST PUSH1 0x40 MLOAD PUSH2 0x1D7 SWAP2 SWAP1 PUSH2 0xF59 JUMP JUMPDEST PUSH1 0x40 MLOAD DUP1 SWAP2 SUB SWAP1 RETURN JUMPDEST PUSH2 0x1E8 PUSH2 0x87F JUMP JUMPDEST STOP JUMPDEST PUSH2 0x1F2 PUSH2 0x892 JUMP JUMPDEST STOP JUMPDEST PUSH2 0x1FC PUSH2 0x8A4 JUMP JUMPDEST PUSH1 0x40 MLOAD PUSH2 0x209 SWAP2 SWAP1 PUSH2 0xF59 JUMP JUMPDEST PUSH1 0x40 MLOAD DUP1 SWAP2 SUB SWAP1 RETURN JUMPDEST PUSH2 0x22C PUSH1 0x4 DUP1 CALLDATASIZE SUB DUP2 ADD SWAP1 PUSH2 0x227 SWAP2 SWAP1 PUSH2 0xFCF JUMP JUMPDEST PUSH2 0x8CB JUMP JUMPDEST PUSH1 0x40 MLOAD PUSH2 0x239 SWAP2 SWAP1 PUSH2 0xF59 JUMP JUMPDEST PUSH1 0x40 MLOAD DUP1 SWAP2 SUB SWAP1 RETURN JUMPDEST PUSH2 0x25C PUSH1 0x4 DUP1 CALLDATASIZE SUB DUP2 ADD SWAP1 PUSH2 0x257 SWAP2 SWAP1 PUSH2 0xFFA JUMP JUMPDEST PUSH2 0x935 JUMP JUMPDEST STOP JUMPDEST PUSH2 0x266 PUSH2 0x9B9 JUMP JUMPDEST PUSH2 0x26E PUSH2 0xA40 JUMP JUMPDEST PUSH2 0x276 PUSH2 0xA81 JUMP JUMPDEST DUP1 PUSH32 0x0 PUSH20 0xFFFFFFFFFFFFFFFFFFFFFFFFFFFFFFFFFFFFFFFF AND PUSH4 0xDD62ED3E DUP5 PUSH20 0x6131B5FAE19EA4F9D964EAC0408E4408B66337B5 PUSH1 0x40 MLOAD DUP4 PUSH4 0xFFFFFFFF AND PUSH1 0xE0 SHL DUP2 MSTORE PUSH1 0x4 ADD PUSH2 0x2E6 SWAP3 SWAP2 SWAP1 PUSH2 0x1025 JUMP JUMPDEST PUSH1 0x20 PUSH1 0x40 MLOAD DUP1 DUP4 SUB DUP2 DUP7 GAS STATICCALL ISZERO DUP1 ISZERO PUSH2 0x301 JUMPI RETURNDATASIZE PUSH0 PUSH0 RETURNDATACOPY RETURNDATASIZE PUSH0 REVERT JUMPDEST POP POP POP POP PUSH1 0x40 MLOAD RETURNDATASIZE PUSH1 0x1F NOT PUSH1 0x1F DUP3 ADD AND DUP3 ADD DUP1 PUSH1 0x40 MSTORE POP DUP2 ADD SWAP1 PUSH2 0x325 SWAP2 SWAP1 PUSH2 0x1060 JUMP JUMPDEST LT ISZERO PUSH2 0x366 JUMPI PUSH1 0x40 MLOAD PUSH32 0x8C379A000000000000000000000000000000000000000000000000000000000 DUP2 MSTORE PUSH1 0x4 ADD PUSH2 0x35D SWAP1 PUSH2 0x110B JUMP JUMPDEST PUSH1 0x40 MLOAD DUP1 SWAP2 SUB SWAP1 REVERT JUMPDEST PUSH20 0x6131B5FAE19EA4F9D964EAC0408E4408B66337B5 PUSH20 0xFFFFFFFFFFFFFFFFFFFFFFFFFFFFFFFFFFFFFFFF AND DUP3 PUSH20 0xFFFFFFFFFFFFFFFFFFFFFFFFFFFFFFFFFFFFFFFF AND PUSH32 0xEAB9CD112C05D2451F24ACF7702297C9705B2115923D562C663C5272A60FE76F DUP4 PUSH1 0x40 MLOAD PUSH2 0x3D7 SWAP2 SWAP1 PUSH2 0x1138 JUMP JUMPDEST PUSH1 0x40 MLOAD DUP1 SWAP2 SUB SWAP1 LOG3 PUSH2 0x3E7 PUSH2 0xAC7 JUMP JUMPDEST POP POP JUMP JUMPDEST PUSH2 0x3F3 PUSH2 0x9B9 JUMP JUMPDEST PUSH2 0x3FB PUSH2 0xA40 JUMP JUMPDEST PUSH2 0x403 PUSH2 0xA81 JUMP JUMPDEST DUP2 DUP2 SWAP1 POP DUP5 DUP5 SWAP1 POP EQ DUP1 ISZERO PUSH2 0x41C JUMPI POP PUSH1 0x64 DUP5 DUP5 SWAP1 POP GT ISZERO JUMPDEST PUSH2 0x45B JUMPI PUSH1 0x40 MLOAD PUSH32 0x8C379A000000000000000000000000000000000000000000000000000000000 DUP2 MSTORE PUSH1 0x4 ADD PUSH2 0x452 SWAP1 PUSH2 0x11C1 JUMP JUMPDEST PUSH1 0x40 MLOAD DUP1 SWAP2 SUB SWAP1 REVERT JUMPDEST PUSH0 PUSH0 SWAP1 POP JUMPDEST DUP5 DUP5 SWAP1 POP DUP2 LT ISZERO PUSH2 0x661 JUMPI DUP3 DUP3 DUP3 DUP2 DUP2 LT PUSH2 0x47E JUMPI PUSH2 0x47D PUSH2 0x11DF JUMP JUMPDEST JUMPDEST SWAP1 POP PUSH1 0x20 MUL ADD CALLDATALOAD PUSH32 0x0 PUSH20 0xFFFFFFFFFFFFFFFFFFFFFFFFFFFFFFFFFFFFFFFF AND PUSH4 0xDD62ED3E DUP8 DUP8 DUP6 DUP2 DUP2 LT PUSH2 0x4D4 JUMPI PUSH2 0x4D3 PUSH2 0x11DF JUMP JUMPDEST JUMPDEST SWAP1 POP PUSH1 0x20 MUL ADD PUSH1 0x20 DUP2 ADD SWAP1 PUSH2 0x4E9 SWAP2 SWAP1 PUSH2 0xFFA JUMP JUMPDEST PUSH20 0x6131B5FAE19EA4F9D964EAC0408E4408B66337B5 PUSH1 0x40 MLOAD DUP4 PUSH4 0xFFFFFFFF AND PUSH1 0xE0 SHL DUP2 MSTORE PUSH1 0x4 ADD PUSH2 0x51B SWAP3 SWAP2 SWAP1 PUSH2 0x1025 JUMP JUMPDEST PUSH1 0x20 PUSH1 0x40 MLOAD DUP1 DUP4 SUB DUP2 DUP7 GAS STATICCALL ISZERO DUP1 ISZERO PUSH2 0x536 JUMPI RETURNDATASIZE PUSH0 PUSH0 RETURNDATACOPY RETURNDATASIZE PUSH0 REVERT JUMPDEST POP POP POP POP PUSH1 0x40 MLOAD RETURNDATASIZE PUSH1 0x1F NOT PUSH1 0x1F DUP3 ADD AND DUP3 ADD DUP1 PUSH1 0x40 MSTORE POP DUP2 ADD SWAP1 PUSH2 0x55A SWAP2 SWAP1 PUSH2 0x1060 JUMP JUMPDEST LT ISZERO PUSH2 0x59B JUMPI PUSH1 0x40 MLOAD PUSH32 0x8C379A000000000000000000000000000000000000000000000000000000000 DUP2 MSTORE PUSH1 0x4 ADD PUSH2 0x592 SWAP1 PUSH2 0x127C JUMP JUMPDEST PUSH1 0x40 MLOAD DUP1 SWAP2 SUB SWAP1 REVERT JUMPDEST PUSH20 0x6131B5FAE19EA4F9D964EAC0408E4408B66337B5 PUSH20 0xFFFFFFFFFFFFFFFFFFFFFFFFFFFFFFFFFFFFFFFF AND DUP6 DUP6 DUP4 DUP2 DUP2 LT PUSH2 0x5D9 JUMPI PUSH2 0x5D8 PUSH2 0x11DF JUMP JUMPDEST JUMPDEST SWAP1 POP PUSH1 0x20 MUL ADD PUSH1 0x20 DUP2 ADD SWAP1 PUSH2 0x5EE SWAP2 SWAP1 PUSH2 0xFFA JUMP JUMPDEST PUSH20 0xFFFFFFFFFFFFFFFFFFFFFFFFFFFFFFFFFFFFFFFF AND PUSH32 0xEAB9CD112C05D2451F24ACF7702297C9705B2115923D562C663C5272A60FE76F DUP6 DUP6 DUP6 DUP2 DUP2 LT PUSH2 0x638 JUMPI PUSH2 0x637 PUSH2 0x11DF JUMP JUMPDEST JUMPDEST SWAP1 POP PUSH1 0x20 MUL ADD CALLDATALOAD PUSH1 0x40 MLOAD PUSH2 0x64C SWAP2 SWAP1 PUSH2 0x1138 JUMP JUMPDEST PUSH1 0x40 MLOAD DUP1 SWAP2 SUB SWAP1 LOG3 DUP1 DUP1 PUSH1 0x1 ADD SWAP2 POP POP PUSH2 0x460 JUMP JUMPDEST POP PUSH2 0x66A PUSH2 0xAC7 JUMP JUMPDEST POP POP POP POP JUMP JUMPDEST PUSH32 0x0 DUP2 JUMP JUMPDEST PUSH2 0x69C PUSH2 0x9B9 JUMP JUMPDEST PUSH2 0x6A4 PUSH2 0xAD0 JUMP JUMPDEST JUMP JUMPDEST PUSH2 0x6AE PUSH2 0x9B9 JUMP JUMPDEST PUSH2 0x6B6 PUSH2 0xA40 JUMP JUMPDEST PUSH2 0x6BE PUSH2 0xA81 JUMP JUMPDEST DUP1 PUSH32 0x0 PUSH20 0xFFFFFFFFFFFFFFFFFFFFFFFFFFFFFFFFFFFFFFFF AND PUSH4 0xDD62ED3E DUP5 PUSH20 0x6131B5FAE19EA4F9D964EAC0408E4408B66337B5 PUSH1 0x40 MLOAD DUP4 PUSH4 0xFFFFFFFF AND PUSH1 0xE0 SHL DUP2 MSTORE PUSH1 0x4 ADD PUSH2 0x72E SWAP3 SWAP2 SWAP1 PUSH2 0x1025 JUMP JUMPDEST PUSH1 0x20 PUSH1 0x40 MLOAD DUP1 DUP4 SUB DUP2 DUP7 GAS STATICCALL ISZERO DUP1 ISZERO PUSH2 0x749 JUMPI RETURNDATASIZE PUSH0 PUSH0 RETURNDATACOPY RETURNDATASIZE PUSH0 REVERT JUMPDEST POP POP POP POP PUSH1 0x40 MLOAD RETURNDATASIZE PUSH1 0x1F NOT PUSH1 0x1F DUP3 ADD AND DUP3 ADD DUP1 PUSH1 0x40 MSTORE POP DUP2 ADD SWAP1 PUSH2 0x76D SWAP2 SWAP1 PUSH2 0x1060 JUMP JUMPDEST LT ISZERO PUSH2 0x7AE JUMPI PUSH1 0x40 MLOAD PUSH32 0x8C379A000000000000000000000000000000000000000000000000000000000 DUP2 MSTORE PUSH1 0x4 ADD PUSH2 0x7A5 SWAP1 PUSH2 0x127C JUMP JUMPDEST PUSH1 0x40 MLOAD DUP1 SWAP2 SUB SWAP1 REVERT JUMPDEST PUSH20 0x6131B5FAE19EA4F9D964EAC0408E4408B66337B5 PUSH20 0xFFFFFFFFFFFFFFFFFFFFFFFFFFFFFFFFFFFFFFFF AND DUP3 PUSH20 0xFFFFFFFFFFFFFFFFFFFFFFFFFFFFFFFFFFFFFFFF AND PUSH32 0xEAB9CD112C05D2451F24ACF7702297C9705B2115923D562C663C5272A60FE76F DUP4 PUSH1 0x40 MLOAD PUSH2 0x81F SWAP2 SWAP1 PUSH2 0x1138 JUMP JUMPDEST PUSH1 0x40 MLOAD DUP1 SWAP2 SUB SWAP1 LOG3 PUSH2 0x82F PUSH2 0xAC7 JUMP JUMPDEST POP POP JUMP JUMPDEST PUSH0 DUP2 JUMP JUMPDEST PUSH0 PUSH20 0x6131B5FAE19EA4F9D964EAC0408E4408B66337B5 SWAP1 POP SWAP1 JUMP JUMPDEST PUSH0 PUSH0 PUSH1 0x14 SWAP1 SLOAD SWAP1 PUSH2 0x100 EXP SWAP1 DIV PUSH1 0xFF AND SWAP1 POP SWAP1 JUMP JUMPDEST PUSH20 0x6131B5FAE19EA4F9D964EAC0408E4408B66337B5 DUP2 JUMP JUMPDEST PUSH2 0x887 PUSH2 0x9B9 JUMP JUMPDEST PUSH2 0x890 PUSH0 PUSH2 0xB31 JUMP JUMPDEST JUMP JUMPDEST PUSH2 0x89A PUSH2 0x9B9 JUMP JUMPDEST PUSH2 0x8A2 PUSH2 0xBF2 JUMP JUMPDEST JUMP JUMPDEST PUSH0 PUSH0 PUSH0 SWAP1 SLOAD SWAP1 PUSH2 0x100 EXP SWAP1 DIV PUSH20 0xFFFFFFFFFFFFFFFFFFFFFFFFFFFFFFFFFFFFFFFF AND SWAP1 POP SWAP1 JUMP JUMPDEST PUSH0 PUSH0 PUSH1 0xFF AND DUP3 PUSH1 0xFF AND SUB PUSH2 0x8F5 JUMPI PUSH20 0x6131B5FAE19EA4F9D964EAC0408E4408B66337B5 SWAP1 POP PUSH2 0x930 JUMP JUMPDEST PUSH1 0x40 MLOAD PUSH32 0x8C379A000000000000000000000000000000000000000000000000000000000 DUP2 MSTORE PUSH1 0x4 ADD PUSH2 0x927 SWAP1 PUSH2 0x12E4 JUMP JUMPDEST PUSH1 0x40 MLOAD DUP1 SWAP2 SUB SWAP1 REVERT JUMPDEST SWAP2 SWAP1 POP JUMP JUMPDEST PUSH2 0x93D PUSH2 0x9B9 JUMP JUMPDEST PUSH0 PUSH20 0xFFFFFFFFFFFFFFFFFFFFFFFFFFFFFFFFFFFFFFFF AND DUP2 PUSH20 0xFFFFFFFFFFFFFFFFFFFFFFFFFFFFFFFFFFFFFFFF AND SUB PUSH2 0x9AD JUMPI PUSH0 PUSH1 0x40 MLOAD PUSH32 0x1E4FBDF700000000000000000000000000000000000000000000000000000000 DUP2 MSTORE PUSH1 0x4 ADD PUSH2 0x9A4 SWAP2 SWAP1 PUSH2 0xF59 JUMP JUMPDEST PUSH1 0x40 MLOAD DUP1 SWAP2 SUB SWAP1 REVERT JUMPDEST PUSH2 0x9B6 DUP2 PUSH2 0xB31 JUMP JUMPDEST POP JUMP JUMPDEST PUSH2 0x9C1 PUSH2 0xC54 JUMP JUMPDEST PUSH20 0xFFFFFFFFFFFFFFFFFFFFFFFFFFFFFFFFFFFFFFFF AND PUSH2 0x9DF PUSH2 0x8A4 JUMP JUMPDEST PUSH20 0xFFFFFFFFFFFFFFFFFFFFFFFFFFFFFFFFFFFFFFFF AND EQ PUSH2 0xA3E JUMPI PUSH2 0xA02 PUSH2 0xC54 JUMP JUMPDEST PUSH1 0x40 MLOAD PUSH32 0x118CDAA700000000000000000000000000000000000000000000000000000000 DUP2 MSTORE PUSH1 0x4 ADD PUSH2 0xA35 SWAP2 SWAP1 PUSH2 0xF59 JUMP JUMPDEST PUSH1 0x40 MLOAD DUP1 SWAP2 SUB SWAP1 REVERT JUMPDEST JUMP JUMPDEST PUSH2 0xA48 PUSH2 0x852 JUMP JUMPDEST ISZERO PUSH2 0xA7F JUMPI PUSH1 0x40 MLOAD PUSH32 0xD93C066500000000000000000000000000000000000000000000000000000000 DUP2 MSTORE PUSH1 0x4 ADD PUSH1 0x40 MLOAD DUP1 SWAP2 SUB SWAP1 REVERT JUMPDEST JUMP JUMPDEST PUSH1 0x2 PUSH1 0x1 SLOAD SUB PUSH2 0xABD JUMPI PUSH1 0x40 MLOAD PUSH32 0x3EE5AEB500000000000000000000000000000000000000000000000000000000 DUP2 MSTORE PUSH1 0x4 ADD PUSH1 0x40 MLOAD DUP1 SWAP2 SUB SWAP1 REVERT JUMPDEST PUSH1 0x2 PUSH1 0x1 DUP2 SWAP1 SSTORE POP JUMP JUMPDEST PUSH1 0x1 DUP1 DUP2 SWAP1 SSTORE POP JUMP JUMPDEST PUSH2 0xAD8 PUSH2 0xC5B JUMP JUMPDEST PUSH0 PUSH0 PUSH1 0x14 PUSH2 0x100 EXP DUP2 SLOAD DUP2 PUSH1 0xFF MUL NOT AND SWAP1 DUP4 ISZERO ISZERO MUL OR SWAP1 SSTORE POP PUSH32 0x5DB9EE0A495BF2E6FF9C91A7834C1BA4FDD244A5E8AA4E537BD38AEAE4B073AA PUSH2 0xB1A PUSH2 0xC54 JUMP JUMPDEST PUSH1 0x40 MLOAD PUSH2 0xB27 SWAP2 SWAP1 PUSH2 0xF59 JUMP JUMPDEST PUSH1 0x40 MLOAD DUP1 SWAP2 SUB SWAP1 LOG1 JUMP JUMPDEST PUSH0 PUSH0 PUSH0 SWAP1 SLOAD SWAP1 PUSH2 0x100 EXP SWAP1 DIV PUSH20 0xFFFFFFFFFFFFFFFFFFFFFFFFFFFFFFFFFFFFFFFF AND SWAP1 POP DUP2 PUSH0 PUSH0 PUSH2 0x100 EXP DUP2 SLOAD DUP2 PUSH20 0xFFFFFFFFFFFFFFFFFFFFFFFFFFFFFFFFFFFFFFFF MUL NOT AND SWAP1 DUP4 PUSH20 0xFFFFFFFFFFFFFFFFFFFFFFFFFFFFFFFFFFFFFFFF AND MUL OR SWAP1 SSTORE POP DUP2 PUSH20 0xFFFFFFFFFFFFFFFFFFFFFFFFFFFFFFFFFFFFFFFF AND DUP2 PUSH20 0xFFFFFFFFFFFFFFFFFFFFFFFFFFFFFFFFFFFFFFFF AND PUSH32 0x8BE0079C531659141344CD1FD0A4F28419497F9722A3DAAFE3B4186F6B6457E0 PUSH1 0x40 MLOAD PUSH1 0x40 MLOAD DUP1 SWAP2 SUB SWAP1 LOG3 POP POP JUMP JUMPDEST PUSH2 0xBFA PUSH2 0xA40 JUMP JUMPDEST PUSH1 0x1 PUSH0 PUSH1 0x14 PUSH2 0x100 EXP DUP2 SLOAD DUP2 PUSH1 0xFF MUL NOT AND SWAP1 DUP4 ISZERO ISZERO MUL OR SWAP1 SSTORE POP PUSH32 0x62E78CEA01BEE320CD4E420270B5EA74000D11B0C9F74754EBDBFC544B05A258 PUSH2 0xC3D PUSH2 0xC54 JUMP JUMPDEST PUSH1 0x40 MLOAD PUSH2 0xC4A SWAP2 SWAP1 PUSH2 0xF59 JUMP JUMPDEST PUSH1 0x40 MLOAD DUP1 SWAP2 SUB SWAP1 LOG1 JUMP JUMPDEST PUSH0 CALLER SWAP1 POP SWAP1 JUMP JUMPDEST PUSH2 0xC63 PUSH2 0x852 JUMP JUMPDEST PUSH2 0xC99 JUMPI PUSH1 0x40 MLOAD PUSH32 0x8DFC202B00000000000000000000000000000000000000000000000000000000 DUP2 MSTORE PUSH1 0x4 ADD PUSH1 0x40 MLOAD DUP1 SWAP2 SUB SWAP1 REVERT JUMPDEST JUMP JUMPDEST PUSH0 PUSH0 REVERT JUMPDEST PUSH0 PUSH0 REVERT JUMPDEST PUSH0 PUSH20 0xFFFFFFFFFFFFFFFFFFFFFFFFFFFFFFFFFFFFFFFF DUP3 AND SWAP1 POP SWAP2 SWAP1 POP JUMP JUMPDEST PUSH0 PUSH2 0xCCC DUP3 PUSH2 0xCA3 JUMP JUMPDEST SWAP1 POP SWAP2 SWAP1 POP JUMP JUMPDEST PUSH2 0xCDC DUP2 PUSH2 0xCC2 JUMP JUMPDEST DUP2 EQ PUSH2 0xCE6 JUMPI PUSH0 PUSH0 REVERT JUMPDEST POP JUMP JUMPDEST PUSH0 DUP2 CALLDATALOAD SWAP1 POP PUSH2 0xCF7 DUP2 PUSH2 0xCD3 JUMP JUMPDEST SWAP3 SWAP2 POP POP JUMP JUMPDEST PUSH0 DUP2 SWAP1 POP SWAP2 SWAP1 POP JUMP JUMPDEST PUSH2 0xD0F DUP2 PUSH2 0xCFD JUMP JUMPDEST DUP2 EQ PUSH2 0xD19 JUMPI PUSH0 PUSH0 REVERT JUMPDEST POP JUMP JUMPDEST PUSH0 DUP2 CALLDATALOAD SWAP1 POP PUSH2 0xD2A DUP2 PUSH2 0xD06 JUMP JUMPDEST SWAP3 SWAP2 POP POP JUMP JUMPDEST PUSH0 PUSH0 PUSH1 0x40 DUP4 DUP6 SUB SLT ISZERO PUSH2 0xD46 JUMPI PUSH2 0xD45 PUSH2 0xC9B JUMP JUMPDEST JUMPDEST PUSH0 PUSH2 0xD53 DUP6 DUP3 DUP7 ADD PUSH2 0xCE9 JUMP JUMPDEST SWAP3 POP POP PUSH1 0x20 PUSH2 0xD64 DUP6 DUP3 DUP7 ADD PUSH2 0xD1C JUMP JUMPDEST SWAP2 POP POP SWAP3 POP SWAP3 SWAP1 POP JUMP JUMPDEST PUSH0 PUSH0 REVERT JUMPDEST PUSH0 PUSH0 REVERT JUMPDEST PUSH0 PUSH0 REVERT JUMPDEST PUSH0 PUSH0 DUP4 PUSH1 0x1F DUP5 ADD SLT PUSH2 0xD8F JUMPI PUSH2 0xD8E PUSH2 0xD6E JUMP JUMPDEST JUMPDEST DUP3 CALLDATALOAD SWAP1 POP PUSH8 0xFFFFFFFFFFFFFFFF DUP2 GT ISZERO PUSH2 0xDAC JUMPI PUSH2 0xDAB PUSH2 0xD72 JUMP JUMPDEST JUMPDEST PUSH1 0x20 DUP4 ADD SWAP2 POP DUP4 PUSH1 0x20 DUP3 MUL DUP4 ADD GT ISZERO PUSH2 0xDC8 JUMPI PUSH2 0xDC7 PUSH2 0xD76 JUMP JUMPDEST JUMPDEST SWAP3 POP SWAP3 SWAP1 POP JUMP JUMPDEST PUSH0 PUSH0 DUP4 PUSH1 0x1F DUP5 ADD SLT PUSH2 0xDE4 JUMPI PUSH2 0xDE3 PUSH2 0xD6E JUMP JUMPDEST JUMPDEST DUP3 CALLDATALOAD SWAP1 POP PUSH8 0xFFFFFFFFFFFFFFFF DUP2 GT ISZERO PUSH2 0xE01 JUMPI PUSH2 0xE00 PUSH2 0xD72 JUMP JUMPDEST JUMPDEST PUSH1 0x20 DUP4 ADD SWAP2 POP DUP4 PUSH1 0x20 DUP3 MUL DUP4 ADD GT ISZERO PUSH2 0xE1D JUMPI PUSH2 0xE1C PUSH2 0xD76 JUMP JUMPDEST JUMPDEST SWAP3 POP SWAP3 SWAP1 POP JUMP JUMPDEST PUSH0 PUSH0 PUSH0 PUSH0 PUSH1 0x40 DUP6 DUP8 SUB SLT ISZERO PUSH2 0xE3C JUMPI PUSH2 0xE3B PUSH2 0xC9B JUMP JUMPDEST JUMPDEST PUSH0 DUP6 ADD CALLDATALOAD PUSH8 0xFFFFFFFFFFFFFFFF DUP2 GT ISZERO PUSH2 0xE59 JUMPI PUSH2 0xE58 PUSH2 0xC9F JUMP JUMPDEST JUMPDEST PUSH2 0xE65 DUP8 DUP3 DUP9 ADD PUSH2 0xD7A JUMP JUMPDEST SWAP5 POP SWAP5 POP POP PUSH1 0x20 DUP6 ADD CALLDATALOAD PUSH8 0xFFFFFFFFFFFFFFFF DUP2 GT ISZERO PUSH2 0xE88 JUMPI PUSH2 0xE87 PUSH2 0xC9F JUMP JUMPDEST JUMPDEST PUSH2 0xE94 DUP8 DUP3 DUP9 ADD PUSH2 0xDCF JUMP JUMPDEST SWAP3 POP SWAP3 POP POP SWAP3 SWAP6 SWAP2 SWAP5 POP SWAP3 POP JUMP JUMPDEST PUSH0 DUP2 SWAP1 POP SWAP2 SWAP1 POP JUMP JUMPDEST PUSH0 PUSH2 0xEC5 PUSH2 0xEC0 PUSH2 0xEBB DUP5 PUSH2 0xCA3 JUMP JUMPDEST PUSH2 0xEA2 JUMP JUMPDEST PUSH2 0xCA3 JUMP JUMPDEST SWAP1 POP SWAP2 SWAP1 POP JUMP JUMPDEST PUSH0 PUSH2 0xED6 DUP3 PUSH2 0xEAB JUMP JUMPDEST SWAP1 POP SWAP2 SWAP1 POP JUMP JUMPDEST PUSH0 PUSH2 0xEE7 DUP3 PUSH2 0xECC JUMP JUMPDEST SWAP1 POP SWAP2 SWAP1 POP JUMP JUMPDEST PUSH2 0xEF7 DUP2 PUSH2 0xEDD JUMP JUMPDEST DUP3 MSTORE POP POP JUMP JUMPDEST PUSH0 PUSH1 0x20 DUP3 ADD SWAP1 POP PUSH2 0xF10 PUSH0 DUP4 ADD DUP5 PUSH2 0xEEE JUMP JUMPDEST SWAP3 SWAP2 POP POP JUMP JUMPDEST PUSH0 PUSH1 0xFF DUP3 AND SWAP1 POP SWAP2 SWAP1 POP JUMP JUMPDEST PUSH2 0xF2B DUP2 PUSH2 0xF16 JUMP JUMPDEST DUP3 MSTORE POP POP JUMP JUMPDEST PUSH0 PUSH1 0x20 DUP3 ADD SWAP1 POP PUSH2 0xF44 PUSH0 DUP4 ADD DUP5 PUSH2 0xF22 JUMP JUMPDEST SWAP3 SWAP2 POP POP JUMP JUMPDEST PUSH2 0xF53 DUP2 PUSH2 0xCC2 JUMP JUMPDEST DUP3 MSTORE POP POP JUMP JUMPDEST PUSH0 PUSH1 0x20 DUP3 ADD SWAP1 POP PUSH2 0xF6C PUSH0 DUP4 ADD DUP5 PUSH2 0xF4A JUMP JUMPDEST SWAP3 SWAP2 POP POP JUMP JUMPDEST PUSH0 DUP2 ISZERO ISZERO SWAP1 POP SWAP2 SWAP1 POP JUMP JUMPDEST PUSH2 0xF86 DUP2 PUSH2 0xF72 JUMP JUMPDEST DUP3 MSTORE POP POP JUMP JUMPDEST PUSH0 PUSH1 0x20 DUP3 ADD SWAP1 POP PUSH2 0xF9F PUSH0 DUP4 ADD DUP5 PUSH2 0xF7D JUMP JUMPDEST SWAP3 SWAP2 POP POP JUMP JUMPDEST PUSH2 0xFAE DUP2 PUSH2 0xF16 JUMP JUMPDEST DUP2 EQ PUSH2 0xFB8 JUMPI PUSH0 PUSH0 REVERT JUMPDEST POP JUMP JUMPDEST PUSH0 DUP2 CALLDATALOAD SWAP1 POP PUSH2 0xFC9 DUP2 PUSH2 0xFA5 JUMP JUMPDEST SWAP3 SWAP2 POP POP JUMP JUMPDEST PUSH0 PUSH1 0x20 DUP3 DUP5 SUB SLT ISZERO PUSH2 0xFE4 JUMPI PUSH2 0xFE3 PUSH2 0xC9B JUMP JUMPDEST JUMPDEST PUSH0 PUSH2 0xFF1 DUP5 DUP3 DUP6 ADD PUSH2 0xFBB JUMP JUMPDEST SWAP2 POP POP SWAP3 SWAP2 POP POP JUMP JUMPDEST PUSH0 PUSH1 0x20 DUP3 DUP5 SUB SLT ISZERO PUSH2 0x100F JUMPI PUSH2 0x100E PUSH2 0xC9B JUMP JUMPDEST JUMPDEST PUSH0 PUSH2 0x101C DUP5 DUP3 DUP6 ADD PUSH2 0xCE9 JUMP JUMPDEST SWAP2 POP POP SWAP3 SWAP2 POP POP JUMP JUMPDEST PUSH0 PUSH1 0x40 DUP3 ADD SWAP1 POP PUSH2 0x1038 PUSH0 DUP4 ADD DUP6 PUSH2 0xF4A JUMP JUMPDEST PUSH2 0x1045 PUSH1 0x20 DUP4 ADD DUP5 PUSH2 0xF4A JUMP JUMPDEST SWAP4 SWAP3 POP POP POP JUMP JUMPDEST PUSH0 DUP2 MLOAD SWAP1 POP PUSH2 0x105A DUP2 PUSH2 0xD06 JUMP JUMPDEST SWAP3 SWAP2 POP POP JUMP JUMPDEST PUSH0 PUSH1 0x20 DUP3 DUP5 SUB SLT ISZERO PUSH2 0x1075 JUMPI PUSH2 0x1074 PUSH2 0xC9B JUMP JUMPDEST JUMPDEST PUSH0 PUSH2 0x1082 DUP5 DUP3 DUP6 ADD PUSH2 0x104C JUMP JUMPDEST SWAP2 POP POP SWAP3 SWAP2 POP POP JUMP JUMPDEST PUSH0 DUP3 DUP3 MSTORE PUSH1 0x20 DUP3 ADD SWAP1 POP SWAP3 SWAP2 POP POP JUMP JUMPDEST PUSH32 0x496E73756666696369656E74205553444320616C6C6F77616E636520666F7220 PUSH0 DUP3 ADD MSTORE PUSH32 0x726F757465720000000000000000000000000000000000000000000000000000 PUSH1 0x20 DUP3 ADD MSTORE POP JUMP JUMPDEST PUSH0 PUSH2 0x10F5 PUSH1 0x26 DUP4 PUSH2 0x108B JUMP JUMPDEST SWAP2 POP PUSH2 0x1100 DUP3 PUSH2 0x109B JUMP JUMPDEST PUSH1 0x40 DUP3 ADD SWAP1 POP SWAP2 SWAP1 POP JUMP JUMPDEST PUSH0 PUSH1 0x20 DUP3 ADD SWAP1 POP DUP2 DUP2 SUB PUSH0 DUP4 ADD MSTORE PUSH2 0x1122 DUP2 PUSH2 0x10E9 JUMP JUMPDEST SWAP1 POP SWAP2 SWAP1 POP JUMP JUMPDEST PUSH2 0x1132 DUP2 PUSH2 0xCFD JUMP JUMPDEST DUP3 MSTORE POP POP JUMP JUMPDEST PUSH0 PUSH1 0x20 DUP3 ADD SWAP1 POP PUSH2 0x114B PUSH0 DUP4 ADD DUP5 PUSH2 0x1129 JUMP JUMPDEST SWAP3 SWAP2 POP POP JUMP JUMPDEST PUSH32 0x4172726179206C656E677468206D69736D61746368206F7220746F6F206C6172 PUSH0 DUP3 ADD MSTORE PUSH32 0x6765000000000000000000000000000000000000000000000000000000000000 PUSH1 0x20 DUP3 ADD MSTORE POP JUMP JUMPDEST PUSH0 PUSH2 0x11AB PUSH1 0x22 DUP4 PUSH2 0x108B JUMP JUMPDEST SWAP2 POP PUSH2 0x11B6 DUP3 PUSH2 0x1151 JUMP JUMPDEST PUSH1 0x40 DUP3 ADD SWAP1 POP SWAP2 SWAP1 POP JUMP JUMPDEST PUSH0 PUSH1 0x20 DUP3 ADD SWAP1 POP DUP2 DUP2 SUB PUSH0 DUP4 ADD MSTORE PUSH2 0x11D8 DUP2 PUSH2 0x119F JUMP JUMPDEST SWAP1 POP SWAP2 SWAP1 POP JUMP JUMPDEST PUSH32 0x4E487B7100000000000000000000000000000000000000000000000000000000 PUSH0 MSTORE PUSH1 0x32 PUSH1 0x4 MSTORE PUSH1 0x24 PUSH0 REVERT JUMPDEST PUSH32 0x496E73756666696369656E74205553444320616C6C6F77616E636520666F7220 PUSH0 DUP3 ADD MSTORE PUSH32 0x4B796265725377617020726F7574657200000000000000000000000000000000 PUSH1 0x20 DUP3 ADD MSTORE POP JUMP JUMPDEST PUSH0 PUSH2 0x1266 PUSH1 0x30 DUP4 PUSH2 0x108B JUMP JUMPDEST SWAP2 POP PUSH2 0x1271 DUP3 PUSH2 0x120C JUMP JUMPDEST PUSH1 0x40 DUP3 ADD SWAP1 POP SWAP2 SWAP1 POP JUMP JUMPDEST PUSH0 PUSH1 0x20 DUP3 ADD SWAP1 POP DUP2 DUP2 SUB PUSH0 DUP4 ADD MSTORE PUSH2 0x1293 DUP2 PUSH2 0x125A JUMP JUMPDEST SWAP1 POP SWAP2 SWAP1 POP JUMP JUMPDEST PUSH32 0x496E76616C696420726F75746572204944000000000000000000000000000000 PUSH0 DUP3 ADD MSTORE POP JUMP JUMPDEST PUSH0 PUSH2 0x12CE PUSH1 0x11 DUP4 PUSH2 0x108B JUMP JUMPDEST SWAP2 POP PUSH2 0x12D9 DUP3 PUSH2 0x129A JUMP JUMPDEST PUSH1 0x20 DUP3 ADD SWAP1 POP SWAP2 SWAP1 POP JUMP JUMPDEST PUSH0 PUSH1 0x20 DUP3 ADD SWAP1 POP DUP2 DUP2 SUB PUSH0 DUP4 ADD MSTORE PUSH2 0x12FB DUP2 PUSH2 0x12C2 JUMP JUMPDEST SWAP1 POP SWAP2 SWAP1 POP JUMP INVALID LOG2 PUSH5 0x6970667358 0x22 SLT KECCAK256 ADD CALLER PUSH22 0x4B334771AFF174DE15546E418BD807BA0773C834948 RETURN 0xDD 0x4D 0xB8 0x4D SWAP2 PUSH30 0x64736F6C634300081E003300000000000000000000000000000000000000 "
				},
				"gasEstimates": {
					"creation": {
						"codeDepositCost": "984000",
						"executionCost": "infinite",
						"totalCost": "infinite"
					},
					"external": {
						"KYBERSWAP_ID()": "397",
						"KYBERSWAP_ROUTER()": "418",
						"approveAutoBuy(address,uint256)": "infinite",
						"batchAutoBuy(address[],uint256[])": "infinite",
						"getKyberSwapRouter()": "469",
						"getRouterAddress(uint8)": "792",
						"owner()": "2558",
						"pause()": "infinite",
						"paused()": "2546",
						"renounceOwnership()": "infinite",
						"singleAutoBuy(address,uint256)": "infinite",
						"transferOwnership(address)": "infinite",
						"unpause()": "infinite",
						"usdc()": "infinite"
					}
				},
				"methodIdentifiers": {
					"KYBERSWAP_ID()": "48fcdc7b",
					"KYBERSWAP_ROUTER()": "70a48572",
					"approveAutoBuy(address,uint256)": "20e3319b",
					"batchAutoBuy(address[],uint256[])": "38b8266d",
					"getKyberSwapRouter()": "57df19e6",
					"getRouterAddress(uint8)": "cac73ed7",
					"owner()": "8da5cb5b",
					"pause()": "8456cb59",
					"paused()": "5c975abb",
					"renounceOwnership()": "715018a6",
					"singleAutoBuy(address,uint256)": "4236c2e0",
					"transferOwnership(address)": "f2fde38b",
					"unpause()": "3f4ba83a",
					"usdc()": "3e413bee"
				}
			},
			"storageLayout": {
				"storage": [
					{
						"astId": 8,
						"contract": "Optimized.sol:investre",
						"label": "_owner",
						"offset": 0,
						"slot": "0",
						"type": "t_address"
					},
					{
						"astId": 264,
						"contract": "Optimized.sol:investre",
						"label": "_paused",
						"offset": 20,
						"slot": "0",
						"type": "t_bool"
					},
					{
						"astId": 374,
						"contract": "Optimized.sol:investre",
						"label": "_status",
						"offset": 0,
						"slot": "1",
						"type": "t_uint256"
					}
				],
				"types": {
					"t_address": {
						"encoding": "inplace",
						"label": "address",
						"numberOfBytes": "20"
					},
					"t_bool": {
						"encoding": "inplace",
						"label": "bool",
						"numberOfBytes": "1"
					},
					"t_uint256": {
						"encoding": "inplace",
						"label": "uint256",
						"numberOfBytes": "32"
					}
				}
			},
			"userdoc": {
				"kind": "user",
				"methods": {},
				"version": 1
			}
		}
	}
}