{
	"Optimized_flattened.sol": {
		"investreAutoBuy": {
			"abi": [
				{
					"inputs": [
						{
							"internalType": "address",
							"name": "_usdc",
							"type": "address"
						},
						{
							"internalType": "address",
							"name": "initialOwner",
							"type": "address"
						}
					],
					"stateMutability": "nonpayable",
					"type": "constructor"
				},
				{
					"inputs": [],
					"name": "EnforcedPause",
					"type": "error"
				},
				{
					"inputs": [],
					"name": "ExpectedPause",
					"type": "error"
				},
				{
					"inputs": [
						{
							"internalType": "address",
							"name": "owner",
							"type": "address"
						}
					],
					"name": "OwnableInvalidOwner",
					"type": "error"
				},
				{
					"inputs": [
						{
							"internalType": "address",
							"name": "account",
							"type": "address"
						}
					],
					"name": "OwnableUnauthorizedAccount",
					"type": "error"
				},
				{
					"inputs": [],
					"name": "ReentrancyGuardReentrantCall",
					"type": "error"
				},
				{
					"anonymous": false,
					"inputs": [
						{
							"indexed": true,
							"internalType": "address",
							"name": "user",
							"type": "address"
						},
						{
							"indexed": false,
							"internalType": "uint256",
							"name": "usdcAmount",
							"type": "uint256"
						},
						{
							"indexed": true,
							"internalType": "address",
							"name": "router",
							"type": "address"
						}
					],
					"name": "AutoBuyApproved",
					"type": "event"
				},
				{
					"anonymous": false,
					"inputs": [
						{
							"indexed": true,
							"internalType": "address",
							"name": "previousOwner",
							"type": "address"
						},
						{
							"indexed": true,
							"internalType": "address",
							"name": "newOwner",
							"type": "address"
						}
					],
					"name": "OwnershipTransferred",
					"type": "event"
				},
				{
					"anonymous": false,
					"inputs": [
						{
							"indexed": false,
							"internalType": "address",
							"name": "account",
							"type": "address"
						}
					],
					"name": "Paused",
					"type": "event"
				},
				{
					"anonymous": false,
					"inputs": [
						{
							"indexed": false,
							"internalType": "address",
							"name": "account",
							"type": "address"
						}
					],
					"name": "Unpaused",
					"type": "event"
				},
				{
					"inputs": [],
					"name": "KYBERSWAP_ID",
					"outputs": [
						{
							"internalType": "uint8",
							"name": "",
							"type": "uint8"
						}
					],
					"stateMutability": "view",
					"type": "function"
				},
				{
					"inputs": [],
					"name": "OPENOCEAN_ID",
					"outputs": [
						{
							"internalType": "uint8",
							"name": "",
							"type": "uint8"
						}
					],
					"stateMutability": "view",
					"type": "function"
				},
				{
					"inputs": [],
					"name": "_KYBERSWAP_ROUTER",
					"outputs": [
						{
							"internalType": "address",
							"name": "",
							"type": "address"
						}
					],
					"stateMutability": "view",
					"type": "function"
				},
				{
					"inputs": [],
					"name": "_OPENOCEAN_ROUTER",
					"outputs": [
						{
							"internalType": "address",
							"name": "",
							"type": "address"
						}
					],
					"stateMutability": "view",
					"type": "function"
				},
				{
					"inputs": [
						{
							"internalType": "address",
							"name": "user",
							"type": "address"
						},
						{
							"internalType": "uint256",
							"name": "usdcAmount",
							"type": "uint256"
						},
						{
							"internalType": "uint8",
							"name": "routerId",
							"type": "uint8"
						}
					],
					"name": "approveAutoBuy",
					"outputs": [],
					"stateMutability": "nonpayable",
					"type": "function"
				},
				{
					"inputs": [
						{
							"internalType": "address[]",
							"name": "users",
							"type": "address[]"
						},
						{
							"internalType": "uint256[]",
							"name": "usdcAmounts",
							"type": "uint256[]"
						},
						{
							"internalType": "uint8[]",
							"name": "routerIds",
							"type": "uint8[]"
						}
					],
					"name": "batchAutoBuy",
					"outputs": [],
					"stateMutability": "nonpayable",
					"type": "function"
				},
				{
					"inputs": [],
					"name": "getKyberSwapRouter",
					"outputs": [
						{
							"internalType": "address",
							"name": "",
							"type": "address"
						}
					],
					"stateMutability": "pure",
					"type": "function"
				},
				{
					"inputs": [],
					"name": "getOpenOceanRouter",
					"outputs": [
						{
							"internalType": "address",
							"name": "",
							"type": "address"
						}
					],
					"stateMutability": "pure",
					"type": "function"
				},
				{
					"inputs": [
						{
							"internalType": "uint8",
							"name": "routerId",
							"type": "uint8"
						}
					],
					"name": "getRouterAddress",
					"outputs": [
						{
							"internalType": "address",
							"name": "",
							"type": "address"
						}
					],
					"stateMutability": "pure",
					"type": "function"
				},
				{
					"inputs": [],
					"name": "owner",
					"outputs": [
						{
							"internalType": "address",
							"name": "",
							"type": "address"
						}
					],
					"stateMutability": "view",
					"type": "function"
				},
				{
					"inputs": [],
					"name": "pause",
					"outputs": [],
					"stateMutability": "nonpayable",
					"type": "function"
				},
				{
					"inputs": [],
					"name": "paused",
					"outputs": [
						{
							"internalType": "bool",
							"name": "",
							"type": "bool"
						}
					],
					"stateMutability": "view",
					"type": "function"
				},
				{
					"inputs": [],
					"name": "renounceOwnership",
					"outputs": [],
					"stateMutability": "nonpayable",
					"type": "function"
				},
				{
					"inputs": [
						{
							"internalType": "address",
							"name": "newOwner",
							"type": "address"
						}
					],
					"name": "transferOwnership",
					"outputs": [],
					"stateMutability": "nonpayable",
					"type": "function"
				},
				{
					"inputs": [],
					"name": "unpause",
					"outputs": [],
					"stateMutability": "nonpayable",
					"type": "function"
				},
				{
					"inputs": [],
					"name": "usdc",
					"outputs": [
						{
							"internalType": "contract IERC20",
							"name": "",
							"type": "address"
						}
					],
					"stateMutability": "view",
					"type": "function"
				}
			],
			"devdoc": {
				"details": "Ultra-lightweight auto-buy contract optimized for <15k gas per transaction  Design Philosophy: - Hard-coded trusted routers for maximum gas efficiency - Users approve routers directly to pull USDC - Backend handles validation, tracking, and swap execution - Standard USDC approval for simple UX - Minimal gas footprint for microtransactions",
				"errors": {
					"EnforcedPause()": [
						{
							"details": "The operation failed because the contract is paused."
						}
					],
					"ExpectedPause()": [
						{
							"details": "The operation failed because the contract is not paused."
						}
					],
					"OwnableInvalidOwner(address)": [
						{
							"details": "The owner is not a valid owner account. (eg. `address(0)`)"
						}
					],
					"OwnableUnauthorizedAccount(address)": [
						{
							"details": "The caller account is not authorized to perform an operation."
						}
					],
					"ReentrancyGuardReentrantCall()": [
						{
							"details": "Unauthorized reentrant call."
						}
					]
				},
				"events": {
					"Paused(address)": {
						"details": "Emitted when the pause is triggered by `account`."
					},
					"Unpaused(address)": {
						"details": "Emitted when the pause is lifted by `account`."
					}
				},
				"kind": "dev",
				"methods": {
					"approveAutoBuy(address,uint256,uint8)": {
						"details": "Ultra-light auto-buy approval function (hard-coded routers)",
						"params": {
							"routerId": "Router ID (0=OpenOcean, 1=KyberSwap)",
							"usdcAmount": "Amount of USDC to approve",
							"user": "User's wallet address"
						}
					},
					"batchAutoBuy(address[],uint256[],uint8[])": {
						"details": "Batch auto-buy approval for multiple users/amounts/routers//",
						"params": {
							"routerIds": "Array of router IDs",
							"usdcAmounts": "Array of USDC amounts",
							"users": "Array of user addresses"
						}
					},
					"getKyberSwapRouter()": {
						"details": "Get KyberSwap router address",
						"returns": {
							"_0": "KyberSwap router address"
						}
					},
					"getOpenOceanRouter()": {
						"details": "Get OpenOcean router address",
						"returns": {
							"_0": "OpenOcean router address"
						}
					},
					"getRouterAddress(uint8)": {
						"details": "Get router address by ID",
						"params": {
							"routerId": "Router ID (0=OpenOcean, 1=KyberSwap)"
						},
						"returns": {
							"_0": "Router contract address"
						}
					},
					"owner()": {
						"details": "Returns the address of the current owner."
					},
					"pause()": {
						"details": "Emergency pause"
					},
					"paused()": {
						"details": "Returns true if the contract is paused, and false otherwise."
					},
					"renounceOwnership()": {
						"details": "Leaves the contract without owner. It will not be possible to call `onlyOwner` functions. Can only be called by the current owner. NOTE: Renouncing ownership will leave the contract without an owner, thereby disabling any functionality that is only available to the owner."
					},
					"transferOwnership(address)": {
						"details": "Transfers ownership of the contract to a new account (`newOwner`). Can only be called by the current owner."
					},
					"unpause()": {
						"details": "Unpause"
					}
				},
				"title": "investreAutoBuy",
				"version": 1
			},
			"evm": {
				"assembly": "    /* \"Optimized_flattened.sol\":13428:17190  contract investreAutoBuy is Ownable, Pausable, ReentrancyGuard {... */\n  mstore(0x40, 0xa0)\n    /* \"Optimized_flattened.sol\":14042:14150  constructor(address _usdc, address initialOwner) Ownable(initialOwner) {... */\n  callvalue\n  dup1\n  iszero\n  tag_1\n  jumpi\n  revert(0x00, 0x00)\ntag_1:\n  pop\n  mload(0x40)\n  sub(codesize, bytecodeSize)\n  dup1\n  bytecodeSize\n  dup4\n  codecopy\n  dup2\n  add\n  0x40\n  dup2\n  swap1\n  mstore\n  tag_2\n  swap2\n  tag_3\n  jump\t// in\ntag_2:\n    /* \"Optimized_flattened.sol\":14099:14111  initialOwner */\n  dup1\n  sub(shl(0xa0, 0x01), 0x01)\n    /* \"Optimized_flattened.sol\":5043:5069  initialOwner == address(0) */\n  dup2\n  and\n    /* \"Optimized_flattened.sol\":5039:5134  if (initialOwner == address(0)) {... */\n  tag_8\n  jumpi\n    /* \"Optimized_flattened.sol\":5092:5123  OwnableInvalidOwner(address(0)) */\n  mload(0x40)\n  shl(0xe0, 0x1e4fbdf7)\n  dup2\n  mstore\n    /* \"Optimized_flattened.sol\":5120:5121  0 */\n  0x00\n    /* \"Optimized_flattened.sol\":5092:5123  OwnableInvalidOwner(address(0)) */\n  0x04\n  dup3\n  add\n    /* \"#utility.yul\":640:691   */\n  mstore\n    /* \"#utility.yul\":613:631   */\n  0x24\n  add\n    /* \"Optimized_flattened.sol\":5092:5123  OwnableInvalidOwner(address(0)) */\n  mload(0x40)\n  dup1\n  swap2\n  sub\n  swap1\n  revert\n    /* \"Optimized_flattened.sol\":5039:5134  if (initialOwner == address(0)) {... */\ntag_8:\n    /* \"Optimized_flattened.sol\":5143:5175  _transferOwnership(initialOwner) */\n  tag_11\n    /* \"Optimized_flattened.sol\":5162:5174  initialOwner */\n  dup2\n    /* \"Optimized_flattened.sol\":5143:5161  _transferOwnership */\n  tag_12\n    /* \"Optimized_flattened.sol\":5143:5175  _transferOwnership(initialOwner) */\n  jump\t// in\ntag_11:\n  pop\n  pop\n    /* \"Optimized_flattened.sol\":11442:11443  1 */\n  0x01\n    /* \"Optimized_flattened.sol\":11646:11667  _status = NOT_ENTERED */\n  dup1\n  sstore\n  sub(shl(0xa0, 0x01), 0x01)\n    /* \"Optimized_flattened.sol\":14123:14143  usdc = IERC20(_usdc) */\n  and\n  0x80\n  mstore\n    /* \"Optimized_flattened.sol\":13428:17190  contract investreAutoBuy is Ownable, Pausable, ReentrancyGuard {... */\n  jump(tag_18)\n    /* \"Optimized_flattened.sol\":6682:6869  function _transferOwnership(address newOwner) internal virtual {... */\ntag_12:\n    /* \"Optimized_flattened.sol\":6755:6771  address oldOwner */\n  0x00\n    /* \"Optimized_flattened.sol\":6774:6780  _owner */\n  dup1\n  sload\n  sub(shl(0xa0, 0x01), 0x01)\n    /* \"Optimized_flattened.sol\":6790:6807  _owner = newOwner */\n  dup4\n  dup2\n  and\n  not(sub(shl(0xa0, 0x01), 0x01))\n  dup4\n  and\n  dup2\n  or\n  dup5\n  sstore\n    /* \"Optimized_flattened.sol\":6822:6862  OwnershipTransferred(oldOwner, newOwner) */\n  mload(0x40)\n    /* \"Optimized_flattened.sol\":6774:6780  _owner */\n  swap2\n  swap1\n  swap3\n  and\n  swap3\n  dup4\n  swap2\n    /* \"Optimized_flattened.sol\":6822:6862  OwnershipTransferred(oldOwner, newOwner) */\n  0x8be0079c531659141344cd1fd0a4f28419497f9722a3daafe3b4186f6b6457e0\n  swap2\n    /* \"Optimized_flattened.sol\":6755:6771  address oldOwner */\n  swap1\n    /* \"Optimized_flattened.sol\":6822:6862  OwnershipTransferred(oldOwner, newOwner) */\n  log3\n    /* \"Optimized_flattened.sol\":6745:6869  {... */\n  pop\n    /* \"Optimized_flattened.sol\":6682:6869  function _transferOwnership(address newOwner) internal virtual {... */\n  pop\n  jump\t// out\n    /* \"#utility.yul\":14:191   */\ntag_17:\n    /* \"#utility.yul\":93:106   */\n  dup1\n  mload\n  sub(shl(0xa0, 0x01), 0x01)\n    /* \"#utility.yul\":135:166   */\n  dup2\n  and\n    /* \"#utility.yul\":125:167   */\n  dup2\n  eq\n    /* \"#utility.yul\":115:185   */\n  tag_20\n  jumpi\n    /* \"#utility.yul\":181:182   */\n  0x00\n    /* \"#utility.yul\":178:179   */\n  0x00\n    /* \"#utility.yul\":171:183   */\n  revert\n    /* \"#utility.yul\":115:185   */\ntag_20:\n    /* \"#utility.yul\":14:191   */\n  swap2\n  swap1\n  pop\n  jump\t// out\n    /* \"#utility.yul\":196:489   */\ntag_3:\n    /* \"#utility.yul\":275:281   */\n  0x00\n    /* \"#utility.yul\":283:289   */\n  0x00\n    /* \"#utility.yul\":336:338   */\n  0x40\n    /* \"#utility.yul\":324:333   */\n  dup4\n    /* \"#utility.yul\":315:322   */\n  dup6\n    /* \"#utility.yul\":311:334   */\n  sub\n    /* \"#utility.yul\":307:339   */\n  slt\n    /* \"#utility.yul\":304:356   */\n  iszero\n  tag_22\n  jumpi\n    /* \"#utility.yul\":352:353   */\n  0x00\n    /* \"#utility.yul\":349:350   */\n  0x00\n    /* \"#utility.yul\":342:354   */\n  revert\n    /* \"#utility.yul\":304:356   */\ntag_22:\n    /* \"#utility.yul\":375:415   */\n  tag_23\n    /* \"#utility.yul\":405:414   */\n  dup4\n    /* \"#utility.yul\":375:415   */\n  tag_17\n  jump\t// in\ntag_23:\n    /* \"#utility.yul\":365:415   */\n  swap2\n  pop\n    /* \"#utility.yul\":434:483   */\n  tag_24\n    /* \"#utility.yul\":479:481   */\n  0x20\n    /* \"#utility.yul\":468:477   */\n  dup5\n    /* \"#utility.yul\":464:482   */\n  add\n    /* \"#utility.yul\":434:483   */\n  tag_17\n  jump\t// in\ntag_24:\n    /* \"#utility.yul\":424:483   */\n  swap1\n  pop\n    /* \"#utility.yul\":196:489   */\n  swap3\n  pop\n  swap3\n  swap1\n  pop\n  jump\t// out\n    /* \"#utility.yul\":494:697   */\ntag_18:\n    /* \"Optimized_flattened.sol\":13428:17190  contract investreAutoBuy is Ownable, Pausable, ReentrancyGuard {... */\n  mload(0x80)\n  codecopy(0x00, dataOffset(sub_0), dataSize(sub_0))\n  0x00\n  assignImmutable(\"0x92ed5054041280b2f98f14bc4e303e3331c98df3b59420ba770a6dfa51c0ab61\")\n  return(0x00, dataSize(sub_0))\nstop\n\nsub_0: assembly {\n        /* \"Optimized_flattened.sol\":13428:17190  contract investreAutoBuy is Ownable, Pausable, ReentrancyGuard {... */\n      mstore(0x40, 0x80)\n      callvalue\n      dup1\n      iszero\n      tag_1\n      jumpi\n      revert(0x00, 0x00)\n    tag_1:\n      pop\n      jumpi(tag_2, lt(calldatasize, 0x04))\n      shr(0xe0, calldataload(0x00))\n      dup1\n      0x612e3146\n      gt\n      tag_19\n      jumpi\n      dup1\n      0x9f1f61a0\n      gt\n      tag_20\n      jumpi\n      dup1\n      0x9f1f61a0\n      eq\n      tag_15\n      jumpi\n      dup1\n      0xa4518efb\n      eq\n      tag_16\n      jumpi\n      dup1\n      0xcac73ed7\n      eq\n      tag_17\n      jumpi\n      dup1\n      0xf2fde38b\n      eq\n      tag_18\n      jumpi\n      revert(0x00, 0x00)\n    tag_20:\n      dup1\n      0x612e3146\n      eq\n      tag_11\n      jumpi\n      dup1\n      0x715018a6\n      eq\n      tag_12\n      jumpi\n      dup1\n      0x8456cb59\n      eq\n      tag_13\n      jumpi\n      dup1\n      0x8da5cb5b\n      eq\n      tag_14\n      jumpi\n      revert(0x00, 0x00)\n    tag_19:\n      dup1\n      0x3f4ba83a\n      gt\n      tag_21\n      jumpi\n      dup1\n      0x3f4ba83a\n      eq\n      tag_7\n      jumpi\n      dup1\n      0x48fcdc7b\n      eq\n      tag_8\n      jumpi\n      dup1\n      0x57df19e6\n      eq\n      tag_9\n      jumpi\n      dup1\n      0x5c975abb\n      eq\n      tag_10\n      jumpi\n      revert(0x00, 0x00)\n    tag_21:\n      dup1\n      0x18c786af\n      eq\n      tag_3\n      jumpi\n      dup1\n      0x1e8bcca5\n      eq\n      tag_4\n      jumpi\n      dup1\n      0x2b15e47c\n      eq\n      tag_5\n      jumpi\n      dup1\n      0x3e413bee\n      eq\n      tag_6\n      jumpi\n    tag_2:\n      revert(0x00, 0x00)\n        /* \"Optimized_flattened.sol\":13821:13859  uint8 public constant OPENOCEAN_ID = 0 */\n    tag_3:\n      tag_22\n        /* \"Optimized_flattened.sol\":13858:13859  0 */\n      0x00\n        /* \"Optimized_flattened.sol\":13821:13859  uint8 public constant OPENOCEAN_ID = 0 */\n      dup2\n      jump\n    tag_22:\n      mload(0x40)\n        /* \"#utility.yul\":186:190   */\n      0xff\n        /* \"#utility.yul\":174:191   */\n      swap1\n      swap2\n      and\n        /* \"#utility.yul\":156:192   */\n      dup2\n      mstore\n        /* \"#utility.yul\":144:146   */\n      0x20\n        /* \"#utility.yul\":129:147   */\n      add\n        /* \"Optimized_flattened.sol\":13821:13859  uint8 public constant OPENOCEAN_ID = 0 */\n    tag_24:\n      mload(0x40)\n      dup1\n      swap2\n      sub\n      swap1\n      return\n        /* \"Optimized_flattened.sol\":15202:16088  function batchAutoBuy(... */\n    tag_4:\n      tag_26\n      tag_27\n      calldatasize\n      0x04\n      tag_28\n      jump\t// in\n    tag_27:\n      tag_29\n      jump\t// in\n    tag_26:\n      stop\n        /* \"Optimized_flattened.sol\":14396:14971  function approveAutoBuy(... */\n    tag_5:\n      tag_26\n      tag_31\n      calldatasize\n      0x04\n      tag_32\n      jump\t// in\n    tag_31:\n      tag_33\n      jump\t// in\n        /* \"Optimized_flattened.sol\":13497:13525  IERC20 public immutable usdc */\n    tag_6:\n      tag_34\n      immutable(\"0x92ed5054041280b2f98f14bc4e303e3331c98df3b59420ba770a6dfa51c0ab61\")\n      dup2\n      jump\n    tag_34:\n      mload(0x40)\n      sub(shl(0xa0, 0x01), 0x01)\n        /* \"#utility.yul\":2522:2554   */\n      swap1\n      swap2\n      and\n        /* \"#utility.yul\":2504:2555   */\n      dup2\n      mstore\n        /* \"#utility.yul\":2492:2494   */\n      0x20\n        /* \"#utility.yul\":2477:2495   */\n      add\n        /* \"Optimized_flattened.sol\":13497:13525  IERC20 public immutable usdc */\n      tag_24\n        /* \"#utility.yul\":2345:2561   */\n      jump\n        /* \"Optimized_flattened.sol\":16241:16306  function unpause() external onlyOwner {... */\n    tag_7:\n      tag_26\n      tag_39\n      jump\t// in\n        /* \"Optimized_flattened.sol\":13865:13903  uint8 public constant KYBERSWAP_ID = 1 */\n    tag_8:\n      tag_22\n        /* \"Optimized_flattened.sol\":13902:13903  1 */\n      0x01\n        /* \"Optimized_flattened.sol\":13865:13903  uint8 public constant KYBERSWAP_ID = 1 */\n      dup2\n      jump\n        /* \"Optimized_flattened.sol\":17085:17188  function getKyberSwapRouter() external pure returns (address) {... */\n    tag_9:\n        /* \"Optimized_flattened.sol\":13721:13763  0x6131B5fae19EA4f9D964eAc0408E4408b66337b5 */\n      0x6131b5fae19ea4f9d964eac0408e4408b66337b5\n        /* \"Optimized_flattened.sol\":17085:17188  function getKyberSwapRouter() external pure returns (address) {... */\n      jump(tag_34)\n        /* \"Optimized_flattened.sol\":8575:8659  function paused() public view virtual returns (bool) {... */\n    tag_10:\n        /* \"Optimized_flattened.sol\":8622:8626  bool */\n      0x00\n        /* \"Optimized_flattened.sol\":8645:8652  _paused */\n      sload\n      shl(0xa0, 0x01)\n      swap1\n      div\n      0xff\n      and\n        /* \"Optimized_flattened.sol\":8575:8659  function paused() public view virtual returns (bool) {... */\n      mload(0x40)\n        /* \"#utility.yul\":2939:2953   */\n      swap1\n      iszero\n        /* \"#utility.yul\":2932:2954   */\n      iszero\n        /* \"#utility.yul\":2914:2955   */\n      dup2\n      mstore\n        /* \"#utility.yul\":2902:2904   */\n      0x20\n        /* \"#utility.yul\":2887:2905   */\n      add\n        /* \"Optimized_flattened.sol\":8575:8659  function paused() public view virtual returns (bool) {... */\n      tag_24\n        /* \"#utility.yul\":2774:2961   */\n      jump\n        /* \"Optimized_flattened.sol\":16879:16982  function getOpenOceanRouter() external pure returns (address) {... */\n    tag_11:\n        /* \"Optimized_flattened.sol\":13629:13671  0x6352a56caadC4F1E25CD6c75970Fa768A3304e64 */\n      0x6352a56caadc4f1e25cd6c75970fa768a3304e64\n        /* \"Optimized_flattened.sol\":16879:16982  function getOpenOceanRouter() external pure returns (address) {... */\n      jump(tag_34)\n        /* \"Optimized_flattened.sol\":6063:6164  function renounceOwnership() public virtual onlyOwner {... */\n    tag_12:\n      tag_26\n      tag_55\n      jump\t// in\n        /* \"Optimized_flattened.sol\":16138:16199  function pause() external onlyOwner {... */\n    tag_13:\n      tag_26\n      tag_57\n      jump\t// in\n        /* \"Optimized_flattened.sol\":5408:5493  function owner() public view virtual returns (address) {... */\n    tag_14:\n        /* \"Optimized_flattened.sol\":5454:5461  address */\n      0x00\n        /* \"Optimized_flattened.sol\":5480:5486  _owner */\n      sload\n      sub(shl(0xa0, 0x01), 0x01)\n      and\n        /* \"Optimized_flattened.sol\":5408:5493  function owner() public view virtual returns (address) {... */\n      jump(tag_34)\n        /* \"Optimized_flattened.sol\":13677:13763  address public constant _KYBERSWAP_ROUTER = 0x6131B5fae19EA4f9D964eAc0408E4408b66337b5 */\n    tag_15:\n      tag_34\n        /* \"Optimized_flattened.sol\":13721:13763  0x6131B5fae19EA4f9D964eAc0408E4408b66337b5 */\n      0x6131b5fae19ea4f9d964eac0408e4408b66337b5\n        /* \"Optimized_flattened.sol\":13677:13763  address public constant _KYBERSWAP_ROUTER = 0x6131B5fae19EA4f9D964eAc0408E4408b66337b5 */\n      dup2\n      jump\n        /* \"Optimized_flattened.sol\":13585:13671  address public constant _OPENOCEAN_ROUTER = 0x6352a56caadC4F1E25CD6c75970Fa768A3304e64 */\n    tag_16:\n      tag_34\n        /* \"Optimized_flattened.sol\":13629:13671  0x6352a56caadC4F1E25CD6c75970Fa768A3304e64 */\n      0x6352a56caadc4f1e25cd6c75970fa768a3304e64\n        /* \"Optimized_flattened.sol\":13585:13671  address public constant _OPENOCEAN_ROUTER = 0x6352a56caadC4F1E25CD6c75970Fa768A3304e64 */\n      dup2\n      jump\n        /* \"Optimized_flattened.sol\":16464:16776  function getRouterAddress(uint8 routerId) external pure returns (address) {... */\n    tag_17:\n      tag_34\n      tag_68\n      calldatasize\n      0x04\n      tag_69\n      jump\t// in\n    tag_68:\n      tag_70\n      jump\t// in\n        /* \"Optimized_flattened.sol\":6313:6528  function transferOwnership(address newOwner) public virtual onlyOwner {... */\n    tag_18:\n      tag_26\n      tag_73\n      calldatasize\n      0x04\n      tag_74\n      jump\t// in\n    tag_73:\n      tag_75\n      jump\t// in\n        /* \"Optimized_flattened.sol\":15202:16088  function batchAutoBuy(... */\n    tag_29:\n        /* \"Optimized_flattened.sol\":5301:5314  _checkOwner() */\n      tag_77\n        /* \"Optimized_flattened.sol\":5301:5312  _checkOwner */\n      tag_78\n        /* \"Optimized_flattened.sol\":5301:5314  _checkOwner() */\n      jump\t// in\n    tag_77:\n        /* \"Optimized_flattened.sol\":8199:8218  _requireNotPaused() */\n      tag_80\n        /* \"Optimized_flattened.sol\":8199:8216  _requireNotPaused */\n      tag_81\n        /* \"Optimized_flattened.sol\":8199:8218  _requireNotPaused() */\n      jump\t// in\n    tag_80:\n        /* \"Optimized_flattened.sol\":12085:12106  _nonReentrantBefore() */\n      tag_83\n        /* \"Optimized_flattened.sol\":12085:12104  _nonReentrantBefore */\n      tag_84\n        /* \"Optimized_flattened.sol\":12085:12106  _nonReentrantBefore() */\n      jump\t// in\n    tag_83:\n        /* \"Optimized_flattened.sol\":15404:15438  users.length == usdcAmounts.length */\n      dup5\n      dup4\n      eq\n        /* \"Optimized_flattened.sol\":15404:15474  users.length == usdcAmounts.length && users.length == routerIds.length */\n      dup1\n      iszero\n      tag_86\n      jumpi\n      pop\n        /* \"Optimized_flattened.sol\":15442:15474  users.length == routerIds.length */\n      dup5\n      dup2\n      eq\n        /* \"Optimized_flattened.sol\":15404:15474  users.length == usdcAmounts.length && users.length == routerIds.length */\n    tag_86:\n        /* \"Optimized_flattened.sol\":15404:15497  users.length == usdcAmounts.length && users.length == routerIds.length && users.length <= 100 */\n      dup1\n      iszero\n      tag_87\n      jumpi\n      pop\n        /* \"Optimized_flattened.sol\":15494:15497  100 */\n      0x64\n        /* \"Optimized_flattened.sol\":15478:15497  users.length <= 100 */\n      dup6\n      gt\n      iszero\n        /* \"Optimized_flattened.sol\":15404:15497  users.length == usdcAmounts.length && users.length == routerIds.length && users.length <= 100 */\n    tag_87:\n        /* \"Optimized_flattened.sol\":15396:15536  require(users.length == usdcAmounts.length && users.length == routerIds.length && users.length <= 100, \"Array length mismatch or too large\") */\n      tag_88\n      jumpi\n      mload(0x40)\n      shl(0xe5, 0x461bcd)\n      dup2\n      mstore\n        /* \"#utility.yul\":3546:3548   */\n      0x20\n        /* \"Optimized_flattened.sol\":15396:15536  require(users.length == usdcAmounts.length && users.length == routerIds.length && users.length <= 100, \"Array length mismatch or too large\") */\n      0x04\n      dup3\n      add\n        /* \"#utility.yul\":3528:3549   */\n      mstore\n        /* \"#utility.yul\":3585:3587   */\n      0x22\n        /* \"#utility.yul\":3565:3583   */\n      0x24\n      dup3\n      add\n        /* \"#utility.yul\":3558:3588   */\n      mstore\n        /* \"#utility.yul\":3624:3658   */\n      0x4172726179206c656e677468206d69736d61746368206f7220746f6f206c6172\n        /* \"#utility.yul\":3604:3622   */\n      0x44\n      dup3\n      add\n        /* \"#utility.yul\":3597:3659   */\n      mstore\n      shl(0xf0, 0x6765)\n        /* \"#utility.yul\":3675:3693   */\n      0x64\n      dup3\n      add\n        /* \"#utility.yul\":3668:3700   */\n      mstore\n        /* \"#utility.yul\":3717:3736   */\n      0x84\n      add\n        /* \"Optimized_flattened.sol\":15396:15536  require(users.length == usdcAmounts.length && users.length == routerIds.length && users.length <= 100, \"Array length mismatch or too large\") */\n    tag_89:\n      mload(0x40)\n      dup1\n      swap2\n      sub\n      swap1\n      revert\n    tag_88:\n        /* \"Optimized_flattened.sol\":15551:15560  uint256 i */\n      0x00\n        /* \"Optimized_flattened.sol\":15546:16082  for (uint256 i = 0; i < users.length; i++) {... */\n    tag_91:\n        /* \"Optimized_flattened.sol\":15566:15582  i < users.length */\n      dup6\n      dup2\n      lt\n        /* \"Optimized_flattened.sol\":15546:16082  for (uint256 i = 0; i < users.length; i++) {... */\n      iszero\n      tag_92\n      jumpi\n        /* \"Optimized_flattened.sol\":15603:15617  address router */\n      0x00\n      dup1\n        /* \"Optimized_flattened.sol\":15635:15644  routerIds */\n      dup5\n      dup5\n        /* \"Optimized_flattened.sol\":15645:15646  i */\n      dup5\n        /* \"Optimized_flattened.sol\":15635:15647  routerIds[i] */\n      dup2\n      dup2\n      lt\n      tag_95\n      jumpi\n      tag_95\n      tag_96\n      jump\t// in\n    tag_95:\n      swap1\n      pop\n      0x20\n      mul\n      add\n      0x20\n      dup2\n      add\n      swap1\n      tag_97\n      swap2\n      swap1\n      tag_69\n      jump\t// in\n    tag_97:\n        /* \"Optimized_flattened.sol\":15635:15663  routerIds[i] == OPENOCEAN_ID */\n      0xff\n      and\n      sub\n        /* \"Optimized_flattened.sol\":15631:15889  if (routerIds[i] == OPENOCEAN_ID) {... */\n      tag_98\n      jumpi\n      pop\n        /* \"Optimized_flattened.sol\":13629:13671  0x6352a56caadC4F1E25CD6c75970Fa768A3304e64 */\n      0x6352a56caadc4f1e25cd6c75970fa768a3304e64\n        /* \"Optimized_flattened.sol\":15631:15889  if (routerIds[i] == OPENOCEAN_ID) {... */\n      jump(tag_104)\n    tag_98:\n        /* \"Optimized_flattened.sol\":13902:13903  1 */\n      0x01\n        /* \"Optimized_flattened.sol\":15734:15743  routerIds */\n      dup5\n      dup5\n        /* \"Optimized_flattened.sol\":15744:15745  i */\n      dup5\n        /* \"Optimized_flattened.sol\":15734:15746  routerIds[i] */\n      dup2\n      dup2\n      lt\n      tag_101\n      jumpi\n      tag_101\n      tag_96\n      jump\t// in\n    tag_101:\n      swap1\n      pop\n      0x20\n      mul\n      add\n      0x20\n      dup2\n      add\n      swap1\n      tag_102\n      swap2\n      swap1\n      tag_69\n      jump\t// in\n    tag_102:\n        /* \"Optimized_flattened.sol\":15734:15762  routerIds[i] == KYBERSWAP_ID */\n      0xff\n      and\n      sub\n        /* \"Optimized_flattened.sol\":15730:15889  if (routerIds[i] == KYBERSWAP_ID) {... */\n      tag_103\n      jumpi\n      pop\n        /* \"Optimized_flattened.sol\":13721:13763  0x6131B5fae19EA4f9D964eAc0408E4408b66337b5 */\n      0x6131b5fae19ea4f9d964eac0408e4408b66337b5\n        /* \"Optimized_flattened.sol\":15730:15889  if (routerIds[i] == KYBERSWAP_ID) {... */\n      jump(tag_104)\n    tag_103:\n        /* \"Optimized_flattened.sol\":15847:15874  revert(\"Invalid router ID\") */\n      mload(0x40)\n      shl(0xe5, 0x461bcd)\n      dup2\n      mstore\n        /* \"#utility.yul\":4081:4083   */\n      0x20\n        /* \"Optimized_flattened.sol\":15847:15874  revert(\"Invalid router ID\") */\n      0x04\n      dup3\n      add\n        /* \"#utility.yul\":4063:4084   */\n      mstore\n        /* \"#utility.yul\":4120:4122   */\n      0x11\n        /* \"#utility.yul\":4100:4118   */\n      0x24\n      dup3\n      add\n        /* \"#utility.yul\":4093:4123   */\n      mstore\n      shl(0x7a, 0x125b9d985b1a59081c9bdd5d195c881251)\n        /* \"#utility.yul\":4139:4157   */\n      0x44\n      dup3\n      add\n        /* \"#utility.yul\":4132:4179   */\n      mstore\n        /* \"#utility.yul\":4196:4214   */\n      0x64\n      add\n        /* \"Optimized_flattened.sol\":15847:15874  revert(\"Invalid router ID\") */\n      tag_89\n        /* \"#utility.yul\":3879:4220   */\n      jump\n        /* \"Optimized_flattened.sol\":15730:15889  if (routerIds[i] == KYBERSWAP_ID) {... */\n    tag_104:\n        /* \"Optimized_flattened.sol\":15946:15957  usdcAmounts */\n      dup6\n      dup6\n        /* \"Optimized_flattened.sol\":15958:15959  i */\n      dup4\n        /* \"Optimized_flattened.sol\":15946:15960  usdcAmounts[i] */\n      dup2\n      dup2\n      lt\n      tag_108\n      jumpi\n      tag_108\n      tag_96\n      jump\t// in\n    tag_108:\n      swap1\n      pop\n      0x20\n      mul\n      add\n      calldataload\n        /* \"Optimized_flattened.sol\":15910:15914  usdc */\n      immutable(\"0x92ed5054041280b2f98f14bc4e303e3331c98df3b59420ba770a6dfa51c0ab61\")\n      sub(shl(0xa0, 0x01), 0x01)\n        /* \"Optimized_flattened.sol\":15910:15924  usdc.allowance */\n      and\n      0xdd62ed3e\n        /* \"Optimized_flattened.sol\":15925:15930  users */\n      dup11\n      dup11\n        /* \"Optimized_flattened.sol\":15931:15932  i */\n      dup7\n        /* \"Optimized_flattened.sol\":15925:15933  users[i] */\n      dup2\n      dup2\n      lt\n      tag_110\n      jumpi\n      tag_110\n      tag_96\n      jump\t// in\n    tag_110:\n      swap1\n      pop\n      0x20\n      mul\n      add\n      0x20\n      dup2\n      add\n      swap1\n      tag_111\n      swap2\n      swap1\n      tag_74\n      jump\t// in\n    tag_111:\n        /* \"Optimized_flattened.sol\":15910:15942  usdc.allowance(users[i], router) */\n      mload(0x40)\n      not(sub(shl(0xe0, 0x01), 0x01))\n      0xe0\n      dup5\n      swap1\n      shl\n      and\n      dup2\n      mstore\n      sub(shl(0xa0, 0x01), 0x01)\n        /* \"#utility.yul\":4417:4449   */\n      swap2\n      dup3\n      and\n        /* \"Optimized_flattened.sol\":15910:15942  usdc.allowance(users[i], router) */\n      0x04\n      dup3\n      add\n        /* \"#utility.yul\":4399:4450   */\n      mstore\n        /* \"#utility.yul\":4486:4518   */\n      swap1\n      dup6\n      and\n        /* \"#utility.yul\":4466:4484   */\n      0x24\n      dup3\n      add\n        /* \"#utility.yul\":4459:4519   */\n      mstore\n        /* \"#utility.yul\":4372:4390   */\n      0x44\n      add\n        /* \"Optimized_flattened.sol\":15910:15942  usdc.allowance(users[i], router) */\n      0x20\n      mload(0x40)\n      dup1\n      dup4\n      sub\n      dup2\n      dup7\n      gas\n      staticcall\n      iszero\n      dup1\n      iszero\n      tag_115\n      jumpi\n      returndatacopy(0x00, 0x00, returndatasize)\n      revert(0x00, returndatasize)\n    tag_115:\n      pop\n      pop\n      pop\n      pop\n      mload(0x40)\n      returndatasize\n      not(0x1f)\n      0x1f\n      dup3\n      add\n      and\n      dup3\n      add\n      dup1\n      0x40\n      mstore\n      pop\n      dup2\n      add\n      swap1\n      tag_116\n      swap2\n      swap1\n      tag_117\n      jump\t// in\n    tag_116:\n        /* \"Optimized_flattened.sol\":15910:15960  usdc.allowance(users[i], router) >= usdcAmounts[i] */\n      lt\n      iszero\n        /* \"Optimized_flattened.sol\":15902:16003  require(usdc.allowance(users[i], router) >= usdcAmounts[i], \"Insufficient USDC allowance for router\") */\n      tag_118\n      jumpi\n      mload(0x40)\n      shl(0xe5, 0x461bcd)\n      dup2\n      mstore\n      0x04\n      add\n      tag_89\n      swap1\n      tag_120\n      jump\t// in\n    tag_118:\n        /* \"Optimized_flattened.sol\":16064:16070  router */\n      dup1\n      sub(shl(0xa0, 0x01), 0x01)\n        /* \"Optimized_flattened.sol\":16022:16071  AutoBuyApproved(users[i], usdcAmounts[i], router) */\n      and\n        /* \"Optimized_flattened.sol\":16038:16043  users */\n      dup9\n      dup9\n        /* \"Optimized_flattened.sol\":16044:16045  i */\n      dup5\n        /* \"Optimized_flattened.sol\":16038:16046  users[i] */\n      dup2\n      dup2\n      lt\n      tag_122\n      jumpi\n      tag_122\n      tag_96\n      jump\t// in\n    tag_122:\n      swap1\n      pop\n      0x20\n      mul\n      add\n      0x20\n      dup2\n      add\n      swap1\n      tag_123\n      swap2\n      swap1\n      tag_74\n      jump\t// in\n    tag_123:\n      sub(shl(0xa0, 0x01), 0x01)\n        /* \"Optimized_flattened.sol\":16022:16071  AutoBuyApproved(users[i], usdcAmounts[i], router) */\n      and\n      0xeab9cd112c05d2451f24acf7702297c9705b2115923d562c663c5272a60fe76f\n        /* \"Optimized_flattened.sol\":16048:16059  usdcAmounts */\n      dup9\n      dup9\n        /* \"Optimized_flattened.sol\":16060:16061  i */\n      dup7\n        /* \"Optimized_flattened.sol\":16048:16062  usdcAmounts[i] */\n      dup2\n      dup2\n      lt\n      tag_125\n      jumpi\n      tag_125\n      tag_96\n      jump\t// in\n    tag_125:\n      swap1\n      pop\n      0x20\n      mul\n      add\n      calldataload\n        /* \"Optimized_flattened.sol\":16022:16071  AutoBuyApproved(users[i], usdcAmounts[i], router) */\n      mload(0x40)\n      tag_126\n      swap2\n        /* \"#utility.yul\":5272:5297   */\n      dup2\n      mstore\n        /* \"#utility.yul\":5260:5262   */\n      0x20\n        /* \"#utility.yul\":5245:5263   */\n      add\n      swap1\n        /* \"#utility.yul\":5126:5303   */\n      jump\n        /* \"Optimized_flattened.sol\":16022:16071  AutoBuyApproved(users[i], usdcAmounts[i], router) */\n    tag_126:\n      mload(0x40)\n      dup1\n      swap2\n      sub\n      swap1\n      log3\n      pop\n        /* \"Optimized_flattened.sol\":15584:15587  i++ */\n      0x01\n      add\n        /* \"Optimized_flattened.sol\":15546:16082  for (uint256 i = 0; i < users.length; i++) {... */\n      jump(tag_91)\n    tag_92:\n      pop\n        /* \"Optimized_flattened.sol\":12127:12147  _nonReentrantAfter() */\n      tag_128\n        /* \"Optimized_flattened.sol\":11442:11443  1 */\n      0x01\n        /* \"Optimized_flattened.sol\":12653:12674  _status = NOT_ENTERED */\n      dup1\n      sstore\n        /* \"Optimized_flattened.sol\":12473:12681  function _nonReentrantAfter() private {... */\n      jump\n        /* \"Optimized_flattened.sol\":12127:12147  _nonReentrantAfter() */\n    tag_128:\n        /* \"Optimized_flattened.sol\":15202:16088  function batchAutoBuy(... */\n      pop\n      pop\n      pop\n      pop\n      pop\n      pop\n      jump\t// out\n        /* \"Optimized_flattened.sol\":14396:14971  function approveAutoBuy(... */\n    tag_33:\n        /* \"Optimized_flattened.sol\":5301:5314  _checkOwner() */\n      tag_131\n        /* \"Optimized_flattened.sol\":5301:5312  _checkOwner */\n      tag_78\n        /* \"Optimized_flattened.sol\":5301:5314  _checkOwner() */\n      jump\t// in\n    tag_131:\n        /* \"Optimized_flattened.sol\":8199:8218  _requireNotPaused() */\n      tag_133\n        /* \"Optimized_flattened.sol\":8199:8216  _requireNotPaused */\n      tag_81\n        /* \"Optimized_flattened.sol\":8199:8218  _requireNotPaused() */\n      jump\t// in\n    tag_133:\n        /* \"Optimized_flattened.sol\":12085:12106  _nonReentrantBefore() */\n      tag_135\n        /* \"Optimized_flattened.sol\":12085:12104  _nonReentrantBefore */\n      tag_84\n        /* \"Optimized_flattened.sol\":12085:12106  _nonReentrantBefore() */\n      jump\t// in\n    tag_135:\n        /* \"Optimized_flattened.sol\":14556:14570  address router */\n      0x00\n        /* \"Optimized_flattened.sol\":14584:14608  routerId == OPENOCEAN_ID */\n      0xff\n      dup3\n      and\n        /* \"Optimized_flattened.sol\":14580:14806  if (routerId == OPENOCEAN_ID) {... */\n      tag_137\n      jumpi\n      pop\n        /* \"Optimized_flattened.sol\":13629:13671  0x6352a56caadC4F1E25CD6c75970Fa768A3304e64 */\n      0x6352a56caadc4f1e25cd6c75970fa768a3304e64\n        /* \"Optimized_flattened.sol\":14580:14806  if (routerId == OPENOCEAN_ID) {... */\n      jump(tag_140)\n    tag_137:\n      not(0x00)\n        /* \"Optimized_flattened.sol\":14671:14695  routerId == KYBERSWAP_ID */\n      0xff\n      dup4\n      and\n      add\n        /* \"Optimized_flattened.sol\":14667:14806  if (routerId == KYBERSWAP_ID) {... */\n      tag_103\n      jumpi\n      pop\n        /* \"Optimized_flattened.sol\":13721:13763  0x6131B5fae19EA4f9D964eAc0408E4408b66337b5 */\n      0x6131b5fae19ea4f9d964eac0408e4408b66337b5\n        /* \"Optimized_flattened.sol\":14667:14806  if (routerId == KYBERSWAP_ID) {... */\n    tag_140:\n        /* \"Optimized_flattened.sol\":14823:14851  usdc.allowance(user, router) */\n      mload(0x40)\n      shl(0xe1, 0x6eb1769f)\n      dup2\n      mstore\n      sub(shl(0xa0, 0x01), 0x01)\n        /* \"#utility.yul\":4417:4449   */\n      dup6\n      dup2\n      and\n        /* \"Optimized_flattened.sol\":14823:14851  usdc.allowance(user, router) */\n      0x04\n      dup4\n      add\n        /* \"#utility.yul\":4399:4450   */\n      mstore\n        /* \"#utility.yul\":4486:4518   */\n      dup3\n      dup2\n      and\n        /* \"#utility.yul\":4466:4484   */\n      0x24\n      dup4\n      add\n        /* \"#utility.yul\":4459:4519   */\n      mstore\n        /* \"Optimized_flattened.sol\":14855:14865  usdcAmount */\n      dup5\n      swap2\n        /* \"Optimized_flattened.sol\":14823:14827  usdc */\n      immutable(\"0x92ed5054041280b2f98f14bc4e303e3331c98df3b59420ba770a6dfa51c0ab61\")\n        /* \"Optimized_flattened.sol\":14823:14837  usdc.allowance */\n      swap1\n      swap2\n      and\n      swap1\n      0xdd62ed3e\n      swap1\n        /* \"#utility.yul\":4372:4390   */\n      0x44\n      add\n        /* \"Optimized_flattened.sol\":14823:14851  usdc.allowance(user, router) */\n      0x20\n      mload(0x40)\n      dup1\n      dup4\n      sub\n      dup2\n      dup7\n      gas\n      staticcall\n      iszero\n      dup1\n      iszero\n      tag_144\n      jumpi\n      returndatacopy(0x00, 0x00, returndatasize)\n      revert(0x00, returndatasize)\n    tag_144:\n      pop\n      pop\n      pop\n      pop\n      mload(0x40)\n      returndatasize\n      not(0x1f)\n      0x1f\n      dup3\n      add\n      and\n      dup3\n      add\n      dup1\n      0x40\n      mstore\n      pop\n      dup2\n      add\n      swap1\n      tag_145\n      swap2\n      swap1\n      tag_117\n      jump\t// in\n    tag_145:\n        /* \"Optimized_flattened.sol\":14823:14865  usdc.allowance(user, router) >= usdcAmount */\n      lt\n      iszero\n        /* \"Optimized_flattened.sol\":14815:14908  require(usdc.allowance(user, router) >= usdcAmount, \"Insufficient USDC allowance for router\") */\n      tag_146\n      jumpi\n      mload(0x40)\n      shl(0xe5, 0x461bcd)\n      dup2\n      mstore\n      0x04\n      add\n      tag_89\n      swap1\n      tag_120\n      jump\t// in\n    tag_146:\n        /* \"Optimized_flattened.sol\":14957:14963  router */\n      dup1\n      sub(shl(0xa0, 0x01), 0x01)\n        /* \"Optimized_flattened.sol\":14923:14964  AutoBuyApproved(user, usdcAmount, router) */\n      and\n        /* \"Optimized_flattened.sol\":14939:14943  user */\n      dup5\n      sub(shl(0xa0, 0x01), 0x01)\n        /* \"Optimized_flattened.sol\":14923:14964  AutoBuyApproved(user, usdcAmount, router) */\n      and\n      0xeab9cd112c05d2451f24acf7702297c9705b2115923d562c663c5272a60fe76f\n        /* \"Optimized_flattened.sol\":14945:14955  usdcAmount */\n      dup6\n        /* \"Optimized_flattened.sol\":14923:14964  AutoBuyApproved(user, usdcAmount, router) */\n      mload(0x40)\n      tag_148\n      swap2\n        /* \"#utility.yul\":5272:5297   */\n      dup2\n      mstore\n        /* \"#utility.yul\":5260:5262   */\n      0x20\n        /* \"#utility.yul\":5245:5263   */\n      add\n      swap1\n        /* \"#utility.yul\":5126:5303   */\n      jump\n        /* \"Optimized_flattened.sol\":14923:14964  AutoBuyApproved(user, usdcAmount, router) */\n    tag_148:\n      mload(0x40)\n      dup1\n      swap2\n      sub\n      swap1\n      log3\n        /* \"Optimized_flattened.sol\":14546:14971  {... */\n      pop\n        /* \"Optimized_flattened.sol\":12127:12147  _nonReentrantAfter() */\n      tag_149\n        /* \"Optimized_flattened.sol\":11442:11443  1 */\n      0x01\n        /* \"Optimized_flattened.sol\":12653:12674  _status = NOT_ENTERED */\n      dup1\n      sstore\n        /* \"Optimized_flattened.sol\":12473:12681  function _nonReentrantAfter() private {... */\n      jump\n        /* \"Optimized_flattened.sol\":12127:12147  _nonReentrantAfter() */\n    tag_149:\n        /* \"Optimized_flattened.sol\":14396:14971  function approveAutoBuy(... */\n      pop\n      pop\n      pop\n      jump\t// out\n        /* \"Optimized_flattened.sol\":16241:16306  function unpause() external onlyOwner {... */\n    tag_39:\n        /* \"Optimized_flattened.sol\":5301:5314  _checkOwner() */\n      tag_151\n        /* \"Optimized_flattened.sol\":5301:5312  _checkOwner */\n      tag_78\n        /* \"Optimized_flattened.sol\":5301:5314  _checkOwner() */\n      jump\t// in\n    tag_151:\n        /* \"Optimized_flattened.sol\":16289:16299  _unpause() */\n      tag_153\n        /* \"Optimized_flattened.sol\":16289:16297  _unpause */\n      tag_154\n        /* \"Optimized_flattened.sol\":16289:16299  _unpause() */\n      jump\t// in\n    tag_153:\n        /* \"Optimized_flattened.sol\":16241:16306  function unpause() external onlyOwner {... */\n      jump\t// out\n        /* \"Optimized_flattened.sol\":6063:6164  function renounceOwnership() public virtual onlyOwner {... */\n    tag_55:\n        /* \"Optimized_flattened.sol\":5301:5314  _checkOwner() */\n      tag_159\n        /* \"Optimized_flattened.sol\":5301:5312  _checkOwner */\n      tag_78\n        /* \"Optimized_flattened.sol\":5301:5314  _checkOwner() */\n      jump\t// in\n    tag_159:\n        /* \"Optimized_flattened.sol\":6127:6157  _transferOwnership(address(0)) */\n      tag_153\n        /* \"Optimized_flattened.sol\":6154:6155  0 */\n      0x00\n        /* \"Optimized_flattened.sol\":6127:6145  _transferOwnership */\n      tag_162\n        /* \"Optimized_flattened.sol\":6127:6157  _transferOwnership(address(0)) */\n      jump\t// in\n        /* \"Optimized_flattened.sol\":16138:16199  function pause() external onlyOwner {... */\n    tag_57:\n        /* \"Optimized_flattened.sol\":5301:5314  _checkOwner() */\n      tag_164\n        /* \"Optimized_flattened.sol\":5301:5312  _checkOwner */\n      tag_78\n        /* \"Optimized_flattened.sol\":5301:5314  _checkOwner() */\n      jump\t// in\n    tag_164:\n        /* \"Optimized_flattened.sol\":16184:16192  _pause() */\n      tag_153\n        /* \"Optimized_flattened.sol\":16184:16190  _pause */\n      tag_167\n        /* \"Optimized_flattened.sol\":16184:16192  _pause() */\n      jump\t// in\n        /* \"Optimized_flattened.sol\":16464:16776  function getRouterAddress(uint8 routerId) external pure returns (address) {... */\n    tag_70:\n        /* \"Optimized_flattened.sol\":16529:16536  address */\n      0x00\n        /* \"Optimized_flattened.sol\":16552:16576  routerId == OPENOCEAN_ID */\n      0xff\n      dup3\n      and\n        /* \"Optimized_flattened.sol\":16548:16770  if (routerId == OPENOCEAN_ID) {... */\n      tag_170\n      jumpi\n      pop\n        /* \"Optimized_flattened.sol\":13629:13671  0x6352a56caadC4F1E25CD6c75970Fa768A3304e64 */\n      0x6352a56caadc4f1e25cd6c75970fa768a3304e64\n      swap2\n        /* \"Optimized_flattened.sol\":16464:16776  function getRouterAddress(uint8 routerId) external pure returns (address) {... */\n      swap1\n      pop\n      jump\t// out\n        /* \"Optimized_flattened.sol\":16548:16770  if (routerId == OPENOCEAN_ID) {... */\n    tag_170:\n      not(0x00)\n        /* \"Optimized_flattened.sol\":16637:16661  routerId == KYBERSWAP_ID */\n      0xff\n      dup4\n      and\n      add\n        /* \"Optimized_flattened.sol\":16633:16770  if (routerId == KYBERSWAP_ID) {... */\n      tag_103\n      jumpi\n      pop\n        /* \"Optimized_flattened.sol\":13721:13763  0x6131B5fae19EA4f9D964eAc0408E4408b66337b5 */\n      0x6131b5fae19ea4f9d964eac0408e4408b66337b5\n      swap2\n        /* \"Optimized_flattened.sol\":16464:16776  function getRouterAddress(uint8 routerId) external pure returns (address) {... */\n      swap1\n      pop\n      jump\t// out\n        /* \"Optimized_flattened.sol\":16633:16770  if (routerId == KYBERSWAP_ID) {... */\n    tag_173:\n        /* \"Optimized_flattened.sol\":16464:16776  function getRouterAddress(uint8 routerId) external pure returns (address) {... */\n      swap2\n      swap1\n      pop\n      jump\t// out\n        /* \"Optimized_flattened.sol\":6313:6528  function transferOwnership(address newOwner) public virtual onlyOwner {... */\n    tag_75:\n        /* \"Optimized_flattened.sol\":5301:5314  _checkOwner() */\n      tag_176\n        /* \"Optimized_flattened.sol\":5301:5312  _checkOwner */\n      tag_78\n        /* \"Optimized_flattened.sol\":5301:5314  _checkOwner() */\n      jump\t// in\n    tag_176:\n      sub(shl(0xa0, 0x01), 0x01)\n        /* \"Optimized_flattened.sol\":6397:6419  newOwner == address(0) */\n      dup2\n      and\n        /* \"Optimized_flattened.sol\":6393:6484  if (newOwner == address(0)) {... */\n      tag_178\n      jumpi\n        /* \"Optimized_flattened.sol\":6442:6473  OwnableInvalidOwner(address(0)) */\n      mload(0x40)\n      shl(0xe0, 0x1e4fbdf7)\n      dup2\n      mstore\n        /* \"Optimized_flattened.sol\":6470:6471  0 */\n      0x00\n        /* \"Optimized_flattened.sol\":6442:6473  OwnableInvalidOwner(address(0)) */\n      0x04\n      dup3\n      add\n        /* \"#utility.yul\":2504:2555   */\n      mstore\n        /* \"#utility.yul\":2477:2495   */\n      0x24\n      add\n        /* \"Optimized_flattened.sol\":6442:6473  OwnableInvalidOwner(address(0)) */\n      tag_89\n        /* \"#utility.yul\":2345:2561   */\n      jump\n        /* \"Optimized_flattened.sol\":6393:6484  if (newOwner == address(0)) {... */\n    tag_178:\n        /* \"Optimized_flattened.sol\":6493:6521  _transferOwnership(newOwner) */\n      tag_180\n        /* \"Optimized_flattened.sol\":6512:6520  newOwner */\n      dup2\n        /* \"Optimized_flattened.sol\":6493:6511  _transferOwnership */\n      tag_162\n        /* \"Optimized_flattened.sol\":6493:6521  _transferOwnership(newOwner) */\n      jump\t// in\n    tag_180:\n        /* \"Optimized_flattened.sol\":6313:6528  function transferOwnership(address newOwner) public virtual onlyOwner {... */\n      pop\n      jump\t// out\n        /* \"Optimized_flattened.sol\":5566:5728  function _checkOwner() internal view virtual {... */\n    tag_78:\n        /* \"Optimized_flattened.sol\":5454:5461  address */\n      0x00\n        /* \"Optimized_flattened.sol\":5480:5486  _owner */\n      sload\n      sub(shl(0xa0, 0x01), 0x01)\n      and\n        /* \"Optimized_flattened.sol\":3565:3575  msg.sender */\n      caller\n        /* \"Optimized_flattened.sol\":5625:5648  owner() != _msgSender() */\n      eq\n        /* \"Optimized_flattened.sol\":5621:5722  if (owner() != _msgSender()) {... */\n      tag_153\n      jumpi\n        /* \"Optimized_flattened.sol\":5671:5711  OwnableUnauthorizedAccount(_msgSender()) */\n      mload(0x40)\n      shl(0xe0, 0x118cdaa7)\n      dup2\n      mstore\n        /* \"Optimized_flattened.sol\":3565:3575  msg.sender */\n      caller\n        /* \"Optimized_flattened.sol\":5671:5711  OwnableUnauthorizedAccount(_msgSender()) */\n      0x04\n      dup3\n      add\n        /* \"#utility.yul\":2504:2555   */\n      mstore\n        /* \"#utility.yul\":2477:2495   */\n      0x24\n      add\n        /* \"Optimized_flattened.sol\":5671:5711  OwnableUnauthorizedAccount(_msgSender()) */\n      tag_89\n        /* \"#utility.yul\":2345:2561   */\n      jump\n        /* \"Optimized_flattened.sol\":8727:8855  function _requireNotPaused() internal view virtual {... */\n    tag_81:\n        /* \"Optimized_flattened.sol\":8622:8626  bool */\n      0x00\n        /* \"Optimized_flattened.sol\":8645:8652  _paused */\n      sload\n      shl(0xa0, 0x01)\n      swap1\n      div\n      0xff\n      and\n        /* \"Optimized_flattened.sol\":8788:8849  if (paused()) {... */\n      iszero\n      tag_153\n      jumpi\n        /* \"Optimized_flattened.sol\":8823:8838  EnforcedPause() */\n      mload(0x40)\n      shl(0xe0, 0xd93c0665)\n      dup2\n      mstore\n      0x04\n      add\n      mload(0x40)\n      dup1\n      swap2\n      sub\n      swap1\n      revert\n        /* \"Optimized_flattened.sol\":12160:12467  function _nonReentrantBefore() private {... */\n    tag_84:\n        /* \"Optimized_flattened.sol\":11484:11485  2 */\n      0x02\n        /* \"Optimized_flattened.sol\":12287:12294  _status */\n      sload(0x01)\n        /* \"Optimized_flattened.sol\":12287:12305  _status == ENTERED */\n      sub\n        /* \"Optimized_flattened.sol\":12283:12369  if (_status == ENTERED) {... */\n      tag_192\n      jumpi\n        /* \"Optimized_flattened.sol\":12328:12358  ReentrancyGuardReentrantCall() */\n      mload(0x40)\n      shl(0xe0, 0x3ee5aeb5)\n      dup2\n      mstore\n      0x04\n      add\n      mload(0x40)\n      dup1\n      swap2\n      sub\n      swap1\n      revert\n        /* \"Optimized_flattened.sol\":12283:12369  if (_status == ENTERED) {... */\n    tag_192:\n        /* \"Optimized_flattened.sol\":11484:11485  2 */\n      0x02\n        /* \"Optimized_flattened.sol\":12443:12450  _status */\n      0x01\n        /* \"Optimized_flattened.sol\":12443:12460  _status = ENTERED */\n      sstore\n        /* \"Optimized_flattened.sol\":12160:12467  function _nonReentrantBefore() private {... */\n      jump\t// out\n        /* \"Optimized_flattened.sol\":9435:9552  function _unpause() internal virtual whenPaused {... */\n    tag_154:\n        /* \"Optimized_flattened.sol\":8446:8462  _requirePaused() */\n      tag_195\n        /* \"Optimized_flattened.sol\":8446:8460  _requirePaused */\n      tag_196\n        /* \"Optimized_flattened.sol\":8446:8462  _requirePaused() */\n      jump\t// in\n    tag_195:\n        /* \"Optimized_flattened.sol\":9503:9508  false */\n      0x00\n        /* \"Optimized_flattened.sol\":9493:9508  _paused = false */\n      dup1\n      sload\n      not(shl(0xa0, 0xff))\n      and\n      swap1\n      sstore\n        /* \"Optimized_flattened.sol\":9523:9545  Unpaused(_msgSender()) */\n      0x5db9ee0a495bf2e6ff9c91a7834c1ba4fdd244a5e8aa4e537bd38aeae4b073aa\n        /* \"Optimized_flattened.sol\":3565:3575  msg.sender */\n      caller\n        /* \"Optimized_flattened.sol\":9532:9544  _msgSender() */\n    tag_198:\n        /* \"Optimized_flattened.sol\":9523:9545  Unpaused(_msgSender()) */\n      mload(0x40)\n      sub(shl(0xa0, 0x01), 0x01)\n        /* \"#utility.yul\":2522:2554   */\n      swap1\n      swap2\n      and\n        /* \"#utility.yul\":2504:2555   */\n      dup2\n      mstore\n        /* \"#utility.yul\":2492:2494   */\n      0x20\n        /* \"#utility.yul\":2477:2495   */\n      add\n        /* \"Optimized_flattened.sol\":9523:9545  Unpaused(_msgSender()) */\n      mload(0x40)\n      dup1\n      swap2\n      sub\n      swap1\n      log1\n        /* \"Optimized_flattened.sol\":9435:9552  function _unpause() internal virtual whenPaused {... */\n      jump\t// out\n        /* \"Optimized_flattened.sol\":6682:6869  function _transferOwnership(address newOwner) internal virtual {... */\n    tag_162:\n        /* \"Optimized_flattened.sol\":6755:6771  address oldOwner */\n      0x00\n        /* \"Optimized_flattened.sol\":6774:6780  _owner */\n      dup1\n      sload\n      sub(shl(0xa0, 0x01), 0x01)\n        /* \"Optimized_flattened.sol\":6790:6807  _owner = newOwner */\n      dup4\n      dup2\n      and\n      not(sub(shl(0xa0, 0x01), 0x01))\n      dup4\n      and\n      dup2\n      or\n      dup5\n      sstore\n        /* \"Optimized_flattened.sol\":6822:6862  OwnershipTransferred(oldOwner, newOwner) */\n      mload(0x40)\n        /* \"Optimized_flattened.sol\":6774:6780  _owner */\n      swap2\n      swap1\n      swap3\n      and\n      swap3\n      dup4\n      swap2\n        /* \"Optimized_flattened.sol\":6822:6862  OwnershipTransferred(oldOwner, newOwner) */\n      0x8be0079c531659141344cd1fd0a4f28419497f9722a3daafe3b4186f6b6457e0\n      swap2\n        /* \"Optimized_flattened.sol\":6755:6771  address oldOwner */\n      swap1\n        /* \"Optimized_flattened.sol\":6822:6862  OwnershipTransferred(oldOwner, newOwner) */\n      log3\n        /* \"Optimized_flattened.sol\":6745:6869  {... */\n      pop\n        /* \"Optimized_flattened.sol\":6682:6869  function _transferOwnership(address newOwner) internal virtual {... */\n      pop\n      jump\t// out\n        /* \"Optimized_flattened.sol\":9188:9303  function _pause() internal virtual whenNotPaused {... */\n    tag_167:\n        /* \"Optimized_flattened.sol\":8199:8218  _requireNotPaused() */\n      tag_202\n        /* \"Optimized_flattened.sol\":8199:8216  _requireNotPaused */\n      tag_81\n        /* \"Optimized_flattened.sol\":8199:8218  _requireNotPaused() */\n      jump\t// in\n    tag_202:\n        /* \"Optimized_flattened.sol\":9247:9254  _paused */\n      0x00\n        /* \"Optimized_flattened.sol\":9247:9261  _paused = true */\n      dup1\n      sload\n      not(shl(0xa0, 0xff))\n      and\n      shl(0xa0, 0x01)\n      or\n      swap1\n      sstore\n        /* \"Optimized_flattened.sol\":9276:9296  Paused(_msgSender()) */\n      0x62e78cea01bee320cd4e420270b5ea74000d11b0c9f74754ebdbfc544b05a258\n        /* \"Optimized_flattened.sol\":9283:9295  _msgSender() */\n      tag_198\n        /* \"Optimized_flattened.sol\":3565:3575  msg.sender */\n      caller\n      swap1\n        /* \"Optimized_flattened.sol\":3486:3582  function _msgSender() internal view virtual returns (address) {... */\n      jump\n        /* \"Optimized_flattened.sol\":8927:9053  function _requirePaused() internal view virtual {... */\n    tag_196:\n        /* \"Optimized_flattened.sol\":8622:8626  bool */\n      0x00\n        /* \"Optimized_flattened.sol\":8645:8652  _paused */\n      sload\n      shl(0xa0, 0x01)\n      swap1\n      div\n      0xff\n      and\n        /* \"Optimized_flattened.sol\":8985:9047  if (!paused()) {... */\n      tag_153\n      jumpi\n        /* \"Optimized_flattened.sol\":9021:9036  ExpectedPause() */\n      mload(0x40)\n      shl(0xe0, 0x8dfc202b)\n      dup2\n      mstore\n      0x04\n      add\n      mload(0x40)\n      dup1\n      swap2\n      sub\n      swap1\n      revert\n        /* \"#utility.yul\":203:570   */\n    tag_210:\n        /* \"#utility.yul\":266:274   */\n      0x00\n        /* \"#utility.yul\":276:282   */\n      0x00\n        /* \"#utility.yul\":330:333   */\n      dup4\n        /* \"#utility.yul\":323:327   */\n      0x1f\n        /* \"#utility.yul\":315:321   */\n      dup5\n        /* \"#utility.yul\":311:328   */\n      add\n        /* \"#utility.yul\":307:334   */\n      slt\n        /* \"#utility.yul\":297:352   */\n      tag_216\n      jumpi\n        /* \"#utility.yul\":348:349   */\n      0x00\n        /* \"#utility.yul\":345:346   */\n      0x00\n        /* \"#utility.yul\":338:350   */\n      revert\n        /* \"#utility.yul\":297:352   */\n    tag_216:\n      pop\n        /* \"#utility.yul\":371:391   */\n      dup2\n      calldataload\n        /* \"#utility.yul\":414:432   */\n      0xffffffffffffffff\n        /* \"#utility.yul\":403:433   */\n      dup2\n      gt\n        /* \"#utility.yul\":400:450   */\n      iszero\n      tag_217\n      jumpi\n        /* \"#utility.yul\":446:447   */\n      0x00\n        /* \"#utility.yul\":443:444   */\n      0x00\n        /* \"#utility.yul\":436:448   */\n      revert\n        /* \"#utility.yul\":400:450   */\n    tag_217:\n        /* \"#utility.yul\":483:487   */\n      0x20\n        /* \"#utility.yul\":475:481   */\n      dup4\n        /* \"#utility.yul\":471:488   */\n      add\n        /* \"#utility.yul\":459:488   */\n      swap2\n      pop\n        /* \"#utility.yul\":543:546   */\n      dup4\n        /* \"#utility.yul\":536:540   */\n      0x20\n        /* \"#utility.yul\":526:532   */\n      dup3\n        /* \"#utility.yul\":523:524   */\n      0x05\n        /* \"#utility.yul\":519:533   */\n      shl\n        /* \"#utility.yul\":511:517   */\n      dup6\n        /* \"#utility.yul\":507:534   */\n      add\n        /* \"#utility.yul\":503:541   */\n      add\n        /* \"#utility.yul\":500:547   */\n      gt\n        /* \"#utility.yul\":497:564   */\n      iszero\n      tag_218\n      jumpi\n        /* \"#utility.yul\":560:561   */\n      0x00\n        /* \"#utility.yul\":557:558   */\n      0x00\n        /* \"#utility.yul\":550:562   */\n      revert\n        /* \"#utility.yul\":497:564   */\n    tag_218:\n        /* \"#utility.yul\":203:570   */\n      swap3\n      pop\n      swap3\n      swap1\n      pop\n      jump\t// out\n        /* \"#utility.yul\":575:1672   */\n    tag_28:\n        /* \"#utility.yul\":731:737   */\n      0x00\n        /* \"#utility.yul\":739:745   */\n      0x00\n        /* \"#utility.yul\":747:753   */\n      0x00\n        /* \"#utility.yul\":755:761   */\n      0x00\n        /* \"#utility.yul\":763:769   */\n      0x00\n        /* \"#utility.yul\":771:777   */\n      0x00\n        /* \"#utility.yul\":824:826   */\n      0x60\n        /* \"#utility.yul\":812:821   */\n      dup8\n        /* \"#utility.yul\":803:810   */\n      dup10\n        /* \"#utility.yul\":799:822   */\n      sub\n        /* \"#utility.yul\":795:827   */\n      slt\n        /* \"#utility.yul\":792:844   */\n      iszero\n      tag_220\n      jumpi\n        /* \"#utility.yul\":840:841   */\n      0x00\n        /* \"#utility.yul\":837:838   */\n      0x00\n        /* \"#utility.yul\":830:842   */\n      revert\n        /* \"#utility.yul\":792:844   */\n    tag_220:\n        /* \"#utility.yul\":880:889   */\n      dup7\n        /* \"#utility.yul\":867:890   */\n      calldataload\n        /* \"#utility.yul\":913:931   */\n      0xffffffffffffffff\n        /* \"#utility.yul\":905:911   */\n      dup2\n        /* \"#utility.yul\":902:932   */\n      gt\n        /* \"#utility.yul\":899:949   */\n      iszero\n      tag_221\n      jumpi\n        /* \"#utility.yul\":945:946   */\n      0x00\n        /* \"#utility.yul\":942:943   */\n      0x00\n        /* \"#utility.yul\":935:947   */\n      revert\n        /* \"#utility.yul\":899:949   */\n    tag_221:\n        /* \"#utility.yul\":984:1054   */\n      tag_222\n        /* \"#utility.yul\":1046:1053   */\n      dup10\n        /* \"#utility.yul\":1037:1043   */\n      dup3\n        /* \"#utility.yul\":1026:1035   */\n      dup11\n        /* \"#utility.yul\":1022:1044   */\n      add\n        /* \"#utility.yul\":984:1054   */\n      tag_210\n      jump\t// in\n    tag_222:\n        /* \"#utility.yul\":1073:1081   */\n      swap1\n      swap8\n      pop\n        /* \"#utility.yul\":958:1054   */\n      swap6\n      pop\n      pop\n        /* \"#utility.yul\":1161:1163   */\n      0x20\n        /* \"#utility.yul\":1146:1164   */\n      dup8\n      add\n        /* \"#utility.yul\":1133:1165   */\n      calldataload\n        /* \"#utility.yul\":1190:1208   */\n      0xffffffffffffffff\n        /* \"#utility.yul\":1177:1209   */\n      dup2\n      gt\n        /* \"#utility.yul\":1174:1226   */\n      iszero\n      tag_223\n      jumpi\n        /* \"#utility.yul\":1222:1223   */\n      0x00\n        /* \"#utility.yul\":1219:1220   */\n      0x00\n        /* \"#utility.yul\":1212:1224   */\n      revert\n        /* \"#utility.yul\":1174:1226   */\n    tag_223:\n        /* \"#utility.yul\":1261:1333   */\n      tag_224\n        /* \"#utility.yul\":1325:1332   */\n      dup10\n        /* \"#utility.yul\":1314:1322   */\n      dup3\n        /* \"#utility.yul\":1303:1312   */\n      dup11\n        /* \"#utility.yul\":1299:1323   */\n      add\n        /* \"#utility.yul\":1261:1333   */\n      tag_210\n      jump\t// in\n    tag_224:\n        /* \"#utility.yul\":1352:1360   */\n      swap1\n      swap6\n      pop\n        /* \"#utility.yul\":1235:1333   */\n      swap4\n      pop\n      pop\n        /* \"#utility.yul\":1440:1442   */\n      0x40\n        /* \"#utility.yul\":1425:1443   */\n      dup8\n      add\n        /* \"#utility.yul\":1412:1444   */\n      calldataload\n        /* \"#utility.yul\":1469:1487   */\n      0xffffffffffffffff\n        /* \"#utility.yul\":1456:1488   */\n      dup2\n      gt\n        /* \"#utility.yul\":1453:1505   */\n      iszero\n      tag_225\n      jumpi\n        /* \"#utility.yul\":1501:1502   */\n      0x00\n        /* \"#utility.yul\":1498:1499   */\n      0x00\n        /* \"#utility.yul\":1491:1503   */\n      revert\n        /* \"#utility.yul\":1453:1505   */\n    tag_225:\n        /* \"#utility.yul\":1540:1612   */\n      tag_226\n        /* \"#utility.yul\":1604:1611   */\n      dup10\n        /* \"#utility.yul\":1593:1601   */\n      dup3\n        /* \"#utility.yul\":1582:1591   */\n      dup11\n        /* \"#utility.yul\":1578:1602   */\n      add\n        /* \"#utility.yul\":1540:1612   */\n      tag_210\n      jump\t// in\n    tag_226:\n        /* \"#utility.yul\":575:1672   */\n      swap8\n      swap11\n      swap7\n      swap10\n      pop\n      swap5\n      swap8\n      pop\n      swap3\n      swap6\n        /* \"#utility.yul\":1631:1639   */\n      swap4\n      swap5\n        /* \"#utility.yul\":575:1672   */\n      swap3\n      pop\n      pop\n      pop\n      jump\t// out\n        /* \"#utility.yul\":1677:1850   */\n    tag_211:\n        /* \"#utility.yul\":1745:1765   */\n      dup1\n      calldataload\n      sub(shl(0xa0, 0x01), 0x01)\n        /* \"#utility.yul\":1794:1825   */\n      dup2\n      and\n        /* \"#utility.yul\":1784:1826   */\n      dup2\n      eq\n        /* \"#utility.yul\":1774:1844   */\n      tag_173\n      jumpi\n        /* \"#utility.yul\":1840:1841   */\n      0x00\n        /* \"#utility.yul\":1837:1838   */\n      0x00\n        /* \"#utility.yul\":1830:1842   */\n      revert\n        /* \"#utility.yul\":1855:2011   */\n    tag_212:\n        /* \"#utility.yul\":1921:1941   */\n      dup1\n      calldataload\n        /* \"#utility.yul\":1981:1985   */\n      0xff\n        /* \"#utility.yul\":1970:1986   */\n      dup2\n      and\n        /* \"#utility.yul\":1960:1987   */\n      dup2\n      eq\n        /* \"#utility.yul\":1950:2005   */\n      tag_173\n      jumpi\n        /* \"#utility.yul\":2001:2002   */\n      0x00\n        /* \"#utility.yul\":1998:1999   */\n      0x00\n        /* \"#utility.yul\":1991:2003   */\n      revert\n        /* \"#utility.yul\":2016:2340   */\n    tag_32:\n        /* \"#utility.yul\":2091:2097   */\n      0x00\n        /* \"#utility.yul\":2099:2105   */\n      0x00\n        /* \"#utility.yul\":2107:2113   */\n      0x00\n        /* \"#utility.yul\":2160:2162   */\n      0x60\n        /* \"#utility.yul\":2148:2157   */\n      dup5\n        /* \"#utility.yul\":2139:2146   */\n      dup7\n        /* \"#utility.yul\":2135:2158   */\n      sub\n        /* \"#utility.yul\":2131:2163   */\n      slt\n        /* \"#utility.yul\":2128:2180   */\n      iszero\n      tag_232\n      jumpi\n        /* \"#utility.yul\":2176:2177   */\n      0x00\n        /* \"#utility.yul\":2173:2174   */\n      0x00\n        /* \"#utility.yul\":2166:2178   */\n      revert\n        /* \"#utility.yul\":2128:2180   */\n    tag_232:\n        /* \"#utility.yul\":2199:2228   */\n      tag_233\n        /* \"#utility.yul\":2218:2227   */\n      dup5\n        /* \"#utility.yul\":2199:2228   */\n      tag_211\n      jump\t// in\n    tag_233:\n        /* \"#utility.yul\":2189:2228   */\n      swap3\n      pop\n        /* \"#utility.yul\":2275:2277   */\n      0x20\n        /* \"#utility.yul\":2264:2273   */\n      dup5\n        /* \"#utility.yul\":2260:2278   */\n      add\n        /* \"#utility.yul\":2247:2279   */\n      calldataload\n        /* \"#utility.yul\":2237:2279   */\n      swap2\n      pop\n        /* \"#utility.yul\":2298:2334   */\n      tag_234\n        /* \"#utility.yul\":2330:2332   */\n      0x40\n        /* \"#utility.yul\":2319:2328   */\n      dup6\n        /* \"#utility.yul\":2315:2333   */\n      add\n        /* \"#utility.yul\":2298:2334   */\n      tag_212\n      jump\t// in\n    tag_234:\n        /* \"#utility.yul\":2288:2334   */\n      swap1\n      pop\n        /* \"#utility.yul\":2016:2340   */\n      swap3\n      pop\n      swap3\n      pop\n      swap3\n      jump\t// out\n        /* \"#utility.yul\":2966:3148   */\n    tag_69:\n        /* \"#utility.yul\":3023:3029   */\n      0x00\n        /* \"#utility.yul\":3076:3078   */\n      0x20\n        /* \"#utility.yul\":3064:3073   */\n      dup3\n        /* \"#utility.yul\":3055:3062   */\n      dup5\n        /* \"#utility.yul\":3051:3074   */\n      sub\n        /* \"#utility.yul\":3047:3079   */\n      slt\n        /* \"#utility.yul\":3044:3096   */\n      iszero\n      tag_239\n      jumpi\n        /* \"#utility.yul\":3092:3093   */\n      0x00\n        /* \"#utility.yul\":3089:3090   */\n      0x00\n        /* \"#utility.yul\":3082:3094   */\n      revert\n        /* \"#utility.yul\":3044:3096   */\n    tag_239:\n        /* \"#utility.yul\":3115:3142   */\n      tag_240\n        /* \"#utility.yul\":3132:3141   */\n      dup3\n        /* \"#utility.yul\":3115:3142   */\n      tag_212\n      jump\t// in\n    tag_240:\n        /* \"#utility.yul\":3105:3142   */\n      swap4\n        /* \"#utility.yul\":2966:3148   */\n      swap3\n      pop\n      pop\n      pop\n      jump\t// out\n        /* \"#utility.yul\":3153:3339   */\n    tag_74:\n        /* \"#utility.yul\":3212:3218   */\n      0x00\n        /* \"#utility.yul\":3265:3267   */\n      0x20\n        /* \"#utility.yul\":3253:3262   */\n      dup3\n        /* \"#utility.yul\":3244:3251   */\n      dup5\n        /* \"#utility.yul\":3240:3263   */\n      sub\n        /* \"#utility.yul\":3236:3268   */\n      slt\n        /* \"#utility.yul\":3233:3285   */\n      iszero\n      tag_242\n      jumpi\n        /* \"#utility.yul\":3281:3282   */\n      0x00\n        /* \"#utility.yul\":3278:3279   */\n      0x00\n        /* \"#utility.yul\":3271:3283   */\n      revert\n        /* \"#utility.yul\":3233:3285   */\n    tag_242:\n        /* \"#utility.yul\":3304:3333   */\n      tag_240\n        /* \"#utility.yul\":3323:3332   */\n      dup3\n        /* \"#utility.yul\":3304:3333   */\n      tag_211\n      jump\t// in\n        /* \"#utility.yul\":3747:3874   */\n    tag_96:\n        /* \"#utility.yul\":3808:3818   */\n      0x4e487b71\n        /* \"#utility.yul\":3803:3806   */\n      0xe0\n        /* \"#utility.yul\":3799:3819   */\n      shl\n        /* \"#utility.yul\":3796:3797   */\n      0x00\n        /* \"#utility.yul\":3789:3820   */\n      mstore\n        /* \"#utility.yul\":3839:3843   */\n      0x32\n        /* \"#utility.yul\":3836:3837   */\n      0x04\n        /* \"#utility.yul\":3829:3844   */\n      mstore\n        /* \"#utility.yul\":3863:3867   */\n      0x24\n        /* \"#utility.yul\":3860:3861   */\n      0x00\n        /* \"#utility.yul\":3853:3868   */\n      revert\n        /* \"#utility.yul\":4530:4714   */\n    tag_117:\n        /* \"#utility.yul\":4600:4606   */\n      0x00\n        /* \"#utility.yul\":4653:4655   */\n      0x20\n        /* \"#utility.yul\":4641:4650   */\n      dup3\n        /* \"#utility.yul\":4632:4639   */\n      dup5\n        /* \"#utility.yul\":4628:4651   */\n      sub\n        /* \"#utility.yul\":4624:4656   */\n      slt\n        /* \"#utility.yul\":4621:4673   */\n      iszero\n      tag_249\n      jumpi\n        /* \"#utility.yul\":4669:4670   */\n      0x00\n        /* \"#utility.yul\":4666:4667   */\n      0x00\n        /* \"#utility.yul\":4659:4671   */\n      revert\n        /* \"#utility.yul\":4621:4673   */\n    tag_249:\n      pop\n        /* \"#utility.yul\":4692:4708   */\n      mload\n      swap2\n        /* \"#utility.yul\":4530:4714   */\n      swap1\n      pop\n      jump\t// out\n        /* \"#utility.yul\":4719:5121   */\n    tag_120:\n        /* \"#utility.yul\":4921:4923   */\n      0x20\n        /* \"#utility.yul\":4903:4924   */\n      dup1\n      dup3\n      mstore\n        /* \"#utility.yul\":4960:4962   */\n      0x26\n        /* \"#utility.yul\":4940:4958   */\n      swap1\n      dup3\n      add\n        /* \"#utility.yul\":4933:4963   */\n      mstore\n        /* \"#utility.yul\":4999:5033   */\n      0x496e73756666696369656e74205553444320616c6c6f77616e636520666f7220\n        /* \"#utility.yul\":4994:4996   */\n      0x40\n        /* \"#utility.yul\":4979:4997   */\n      dup3\n      add\n        /* \"#utility.yul\":4972:5034   */\n      mstore\n      shl(0xd1, 0x3937baba32b9)\n        /* \"#utility.yul\":5065:5067   */\n      0x60\n        /* \"#utility.yul\":5050:5068   */\n      dup3\n      add\n        /* \"#utility.yul\":5043:5079   */\n      mstore\n        /* \"#utility.yul\":5111:5114   */\n      0x80\n        /* \"#utility.yul\":5096:5115   */\n      add\n      swap1\n        /* \"#utility.yul\":4719:5121   */\n      jump\t// out\n\n    auxdata: 0xa264697066735822122002ddb94308cf22b12af03e2c8cf8cf912c6f66af862498651996981630a046bf64736f6c634300081e0033\n}\n",
				"bytecode": {
					"linkReferences": {},
					"object": "60a060405234801561000f575f5ffd5b50604051610c8a380380610c8a83398101604081905261002e916100e6565b806001600160a01b03811661005c57604051631e4fbdf760e01b81525f600482015260240160405180910390fd5b6100658161007c565b5050600180556001600160a01b0316608052610117565b5f80546001600160a01b038381166001600160a01b0319831681178455604051919092169283917f8be0079c531659141344cd1fd0a4f28419497f9722a3daafe3b4186f6b6457e09190a35050565b80516001600160a01b03811681146100e1575f5ffd5b919050565b5f5f604083850312156100f7575f5ffd5b610100836100cb565b915061010e602084016100cb565b90509250929050565b608051610b4d61013d5f395f818161014a015281816103e801526105f50152610b4d5ff3fe608060405234801561000f575f5ffd5b50600436106100fb575f3560e01c8063612e3146116100935780639f1f61a0116100635780639f1f61a014610204578063a4518efb1461021f578063cac73ed71461023a578063f2fde38b1461024d575f5ffd5b8063612e3146146101ca578063715018a6146101e45780638456cb59146101ec5780638da5cb5b146101f4575f5ffd5b80633f4ba83a116100ce5780633f4ba83a1461018457806348fcdc7b1461018c57806357df19e6146101945780635c975abb146101ae575f5ffd5b806318c786af146100ff5780631e8bcca51461011d5780632b15e47c146101325780633e413bee14610145575b5f5ffd5b6101065f81565b60405160ff90911681526020015b60405180910390f35b61013061012b36600461096f565b610260565b005b610130610140366004610a34565b61056e565b61016c7f000000000000000000000000000000000000000000000000000000000000000081565b6040516001600160a01b039091168152602001610114565b6101306106da565b610106600181565b736131b5fae19ea4f9d964eac0408e4408b66337b561016c565b5f54600160a01b900460ff166040519015158152602001610114565b736352a56caadc4f1e25cd6c75970fa768a3304e6461016c565b6101306106ec565b6101306106fd565b5f546001600160a01b031661016c565b61016c736131b5fae19ea4f9d964eac0408e4408b66337b581565b61016c736352a56caadc4f1e25cd6c75970fa768a3304e6481565b61016c610248366004610a6d565b61070d565b61013061025b366004610a8d565b61075c565b610268610799565b6102706107c5565b6102786107ef565b848314801561028657508481145b8015610293575060648511155b6102ef5760405162461bcd60e51b815260206004820152602260248201527f4172726179206c656e677468206d69736d61746368206f7220746f6f206c6172604482015261676560f01b60648201526084015b60405180910390fd5b5f5b8581101561055c575f8084848481811061030d5761030d610aa6565b90506020020160208101906103229190610a6d565b60ff16036103455750736352a56caadc4f1e25cd6c75970fa768a3304e646103cd565b600184848481811061035957610359610aa6565b905060200201602081019061036e9190610a6d565b60ff16036103915750736131b5fae19ea4f9d964eac0408e4408b66337b56103cd565b60405162461bcd60e51b8152602060048201526011602482015270125b9d985b1a59081c9bdd5d195c881251607a1b60448201526064016102e6565b8585838181106103df576103df610aa6565b905060200201357f00000000000000000000000000000000000000000000000000000000000000006001600160a01b031663dd62ed3e8a8a8681811061042757610427610aa6565b905060200201602081019061043c9190610a8d565b6040516001600160e01b031960e084901b1681526001600160a01b0391821660048201529085166024820152604401602060405180830381865afa158015610486573d5f5f3e3d5ffd5b505050506040513d601f19601f820116820180604052508101906104aa9190610aba565b10156104c85760405162461bcd60e51b81526004016102e690610ad1565b806001600160a01b03168888848181106104e4576104e4610aa6565b90506020020160208101906104f99190610a8d565b6001600160a01b03167feab9cd112c05d2451f24acf7702297c9705b2115923d562c663c5272a60fe76f88888681811061053557610535610aa6565b9050602002013560405161054b91815260200190565b60405180910390a3506001016102f1565b5061056660018055565b505050505050565b610576610799565b61057e6107c5565b6105866107ef565b5f60ff82166105aa5750736352a56caadc4f1e25cd6c75970fa768a3304e646105cc565b5f1960ff8316016103915750736131b5fae19ea4f9d964eac0408e4408b66337b55b604051636eb1769f60e11b81526001600160a01b038581166004830152828116602483015284917f00000000000000000000000000000000000000000000000000000000000000009091169063dd62ed3e90604401602060405180830381865afa15801561063c573d5f5f3e3d5ffd5b505050506040513d601f19601f820116820180604052508101906106609190610aba565b101561067e5760405162461bcd60e51b81526004016102e690610ad1565b806001600160a01b0316846001600160a01b03167feab9cd112c05d2451f24acf7702297c9705b2115923d562c663c5272a60fe76f856040516106c391815260200190565b60405180910390a3506106d560018055565b505050565b6106e2610799565b6106ea610819565b565b6106f4610799565b6106ea5f61086d565b610705610799565b6106ea6108bc565b5f60ff82166107315750736352a56caadc4f1e25cd6c75970fa768a3304e64919050565b5f1960ff8316016103915750736131b5fae19ea4f9d964eac0408e4408b66337b5919050565b919050565b610764610799565b6001600160a01b03811661078d57604051631e4fbdf760e01b81525f60048201526024016102e6565b6107968161086d565b50565b5f546001600160a01b031633146106ea5760405163118cdaa760e01b81523360048201526024016102e6565b5f54600160a01b900460ff16156106ea5760405163d93c066560e01b815260040160405180910390fd5b60026001540361081257604051633ee5aeb560e01b815260040160405180910390fd5b6002600155565b6108216108fe565b5f805460ff60a01b191690557f5db9ee0a495bf2e6ff9c91a7834c1ba4fdd244a5e8aa4e537bd38aeae4b073aa335b6040516001600160a01b03909116815260200160405180910390a1565b5f80546001600160a01b038381166001600160a01b0319831681178455604051919092169283917f8be0079c531659141344cd1fd0a4f28419497f9722a3daafe3b4186f6b6457e09190a35050565b6108c46107c5565b5f805460ff60a01b1916600160a01b1790557f62e78cea01bee320cd4e420270b5ea74000d11b0c9f74754ebdbfc544b05a2586108503390565b5f54600160a01b900460ff166106ea57604051638dfc202b60e01b815260040160405180910390fd5b5f5f83601f840112610937575f5ffd5b50813567ffffffffffffffff81111561094e575f5ffd5b6020830191508360208260051b8501011115610968575f5ffd5b9250929050565b5f5f5f5f5f5f60608789031215610984575f5ffd5b863567ffffffffffffffff81111561099a575f5ffd5b6109a689828a01610927565b909750955050602087013567ffffffffffffffff8111156109c5575f5ffd5b6109d189828a01610927565b909550935050604087013567ffffffffffffffff8111156109f0575f5ffd5b6109fc89828a01610927565b979a9699509497509295939492505050565b80356001600160a01b0381168114610757575f5ffd5b803560ff81168114610757575f5ffd5b5f5f5f60608486031215610a46575f5ffd5b610a4f84610a0e565b925060208401359150610a6460408501610a24565b90509250925092565b5f60208284031215610a7d575f5ffd5b610a8682610a24565b9392505050565b5f60208284031215610a9d575f5ffd5b610a8682610a0e565b634e487b7160e01b5f52603260045260245ffd5b5f60208284031215610aca575f5ffd5b5051919050565b60208082526026908201527f496e73756666696369656e74205553444320616c6c6f77616e636520666f72206040820152653937baba32b960d11b60608201526080019056fea264697066735822122002ddb94308cf22b12af03e2c8cf8cf912c6f66af862498651996981630a046bf64736f6c634300081e0033",
					"opcodes": "PUSH1 0xA0 PUSH1 0x40 MSTORE CALLVALUE DUP1 ISZERO PUSH2 0xF JUMPI PUSH0 PUSH0 REVERT JUMPDEST POP PUSH1 0x40 MLOAD PUSH2 0xC8A CODESIZE SUB DUP1 PUSH2 0xC8A DUP4 CODECOPY DUP2 ADD PUSH1 0x40 DUP2 SWAP1 MSTORE PUSH2 0x2E SWAP2 PUSH2 0xE6 JUMP JUMPDEST DUP1 PUSH1 0x1 PUSH1 0x1 PUSH1 0xA0 SHL SUB DUP2 AND PUSH2 0x5C JUMPI PUSH1 0x40 MLOAD PUSH4 0x1E4FBDF7 PUSH1 0xE0 SHL DUP2 MSTORE PUSH0 PUSH1 0x4 DUP3 ADD MSTORE PUSH1 0x24 ADD PUSH1 0x40 MLOAD DUP1 SWAP2 SUB SWAP1 REVERT JUMPDEST PUSH2 0x65 DUP2 PUSH2 0x7C JUMP JUMPDEST POP POP PUSH1 0x1 DUP1 SSTORE PUSH1 0x1 PUSH1 0x1 PUSH1 0xA0 SHL SUB AND PUSH1 0x80 MSTORE PUSH2 0x117 JUMP JUMPDEST PUSH0 DUP1 SLOAD PUSH1 0x1 PUSH1 0x1 PUSH1 0xA0 SHL SUB DUP4 DUP2 AND PUSH1 0x1 PUSH1 0x1 PUSH1 0xA0 SHL SUB NOT DUP4 AND DUP2 OR DUP5 SSTORE PUSH1 0x40 MLOAD SWAP2 SWAP1 SWAP3 AND SWAP3 DUP4 SWAP2 PUSH32 0x8BE0079C531659141344CD1FD0A4F28419497F9722A3DAAFE3B4186F6B6457E0 SWAP2 SWAP1 LOG3 POP POP JUMP JUMPDEST DUP1 MLOAD PUSH1 0x1 PUSH1 0x1 PUSH1 0xA0 SHL SUB DUP2 AND DUP2 EQ PUSH2 0xE1 JUMPI PUSH0 PUSH0 REVERT JUMPDEST SWAP2 SWAP1 POP JUMP JUMPDEST PUSH0 PUSH0 PUSH1 0x40 DUP4 DUP6 SUB SLT ISZERO PUSH2 0xF7 JUMPI PUSH0 PUSH0 REVERT JUMPDEST PUSH2 0x100 DUP4 PUSH2 0xCB JUMP JUMPDEST SWAP2 POP PUSH2 0x10E PUSH1 0x20 DUP5 ADD PUSH2 0xCB JUMP JUMPDEST SWAP1 POP SWAP3 POP SWAP3 SWAP1 POP JUMP JUMPDEST PUSH1 0x80 MLOAD PUSH2 0xB4D PUSH2 0x13D PUSH0 CODECOPY PUSH0 DUP2 DUP2 PUSH2 0x14A ADD MSTORE DUP2 DUP2 PUSH2 0x3E8 ADD MSTORE PUSH2 0x5F5 ADD MSTORE PUSH2 0xB4D PUSH0 RETURN INVALID PUSH1 0x80 PUSH1 0x40 MSTORE CALLVALUE DUP1 ISZERO PUSH2 0xF JUMPI PUSH0 PUSH0 REVERT JUMPDEST POP PUSH1 0x4 CALLDATASIZE LT PUSH2 0xFB JUMPI PUSH0 CALLDATALOAD PUSH1 0xE0 SHR DUP1 PUSH4 0x612E3146 GT PUSH2 0x93 JUMPI DUP1 PUSH4 0x9F1F61A0 GT PUSH2 0x63 JUMPI DUP1 PUSH4 0x9F1F61A0 EQ PUSH2 0x204 JUMPI DUP1 PUSH4 0xA4518EFB EQ PUSH2 0x21F JUMPI DUP1 PUSH4 0xCAC73ED7 EQ PUSH2 0x23A JUMPI DUP1 PUSH4 0xF2FDE38B EQ PUSH2 0x24D JUMPI PUSH0 PUSH0 REVERT JUMPDEST DUP1 PUSH4 0x612E3146 EQ PUSH2 0x1CA JUMPI DUP1 PUSH4 0x715018A6 EQ PUSH2 0x1E4 JUMPI DUP1 PUSH4 0x8456CB59 EQ PUSH2 0x1EC JUMPI DUP1 PUSH4 0x8DA5CB5B EQ PUSH2 0x1F4 JUMPI PUSH0 PUSH0 REVERT JUMPDEST DUP1 PUSH4 0x3F4BA83A GT PUSH2 0xCE JUMPI DUP1 PUSH4 0x3F4BA83A EQ PUSH2 0x184 JUMPI DUP1 PUSH4 0x48FCDC7B EQ PUSH2 0x18C JUMPI DUP1 PUSH4 0x57DF19E6 EQ PUSH2 0x194 JUMPI DUP1 PUSH4 0x5C975ABB EQ PUSH2 0x1AE JUMPI PUSH0 PUSH0 REVERT JUMPDEST DUP1 PUSH4 0x18C786AF EQ PUSH2 0xFF JUMPI DUP1 PUSH4 0x1E8BCCA5 EQ PUSH2 0x11D JUMPI DUP1 PUSH4 0x2B15E47C EQ PUSH2 0x132 JUMPI DUP1 PUSH4 0x3E413BEE EQ PUSH2 0x145 JUMPI JUMPDEST PUSH0 PUSH0 REVERT JUMPDEST PUSH2 0x106 PUSH0 DUP2 JUMP JUMPDEST PUSH1 0x40 MLOAD PUSH1 0xFF SWAP1 SWAP2 AND DUP2 MSTORE PUSH1 0x20 ADD JUMPDEST PUSH1 0x40 MLOAD DUP1 SWAP2 SUB SWAP1 RETURN JUMPDEST PUSH2 0x130 PUSH2 0x12B CALLDATASIZE PUSH1 0x4 PUSH2 0x96F JUMP JUMPDEST PUSH2 0x260 JUMP JUMPDEST STOP JUMPDEST PUSH2 0x130 PUSH2 0x140 CALLDATASIZE PUSH1 0x4 PUSH2 0xA34 JUMP JUMPDEST PUSH2 0x56E JUMP JUMPDEST PUSH2 0x16C PUSH32 0x0 DUP2 JUMP JUMPDEST PUSH1 0x40 MLOAD PUSH1 0x1 PUSH1 0x1 PUSH1 0xA0 SHL SUB SWAP1 SWAP2 AND DUP2 MSTORE PUSH1 0x20 ADD PUSH2 0x114 JUMP JUMPDEST PUSH2 0x130 PUSH2 0x6DA JUMP JUMPDEST PUSH2 0x106 PUSH1 0x1 DUP2 JUMP JUMPDEST PUSH20 0x6131B5FAE19EA4F9D964EAC0408E4408B66337B5 PUSH2 0x16C JUMP JUMPDEST PUSH0 SLOAD PUSH1 0x1 PUSH1 0xA0 SHL SWAP1 DIV PUSH1 0xFF AND PUSH1 0x40 MLOAD SWAP1 ISZERO ISZERO DUP2 MSTORE PUSH1 0x20 ADD PUSH2 0x114 JUMP JUMPDEST PUSH20 0x6352A56CAADC4F1E25CD6C75970FA768A3304E64 PUSH2 0x16C JUMP JUMPDEST PUSH2 0x130 PUSH2 0x6EC JUMP JUMPDEST PUSH2 0x130 PUSH2 0x6FD JUMP JUMPDEST PUSH0 SLOAD PUSH1 0x1 PUSH1 0x1 PUSH1 0xA0 SHL SUB AND PUSH2 0x16C JUMP JUMPDEST PUSH2 0x16C PUSH20 0x6131B5FAE19EA4F9D964EAC0408E4408B66337B5 DUP2 JUMP JUMPDEST PUSH2 0x16C PUSH20 0x6352A56CAADC4F1E25CD6C75970FA768A3304E64 DUP2 JUMP JUMPDEST PUSH2 0x16C PUSH2 0x248 CALLDATASIZE PUSH1 0x4 PUSH2 0xA6D JUMP JUMPDEST PUSH2 0x70D JUMP JUMPDEST PUSH2 0x130 PUSH2 0x25B CALLDATASIZE PUSH1 0x4 PUSH2 0xA8D JUMP JUMPDEST PUSH2 0x75C JUMP JUMPDEST PUSH2 0x268 PUSH2 0x799 JUMP JUMPDEST PUSH2 0x270 PUSH2 0x7C5 JUMP JUMPDEST PUSH2 0x278 PUSH2 0x7EF JUMP JUMPDEST DUP5 DUP4 EQ DUP1 ISZERO PUSH2 0x286 JUMPI POP DUP5 DUP2 EQ JUMPDEST DUP1 ISZERO PUSH2 0x293 JUMPI POP PUSH1 0x64 DUP6 GT ISZERO JUMPDEST PUSH2 0x2EF JUMPI PUSH1 0x40 MLOAD PUSH3 0x461BCD PUSH1 0xE5 SHL DUP2 MSTORE PUSH1 0x20 PUSH1 0x4 DUP3 ADD MSTORE PUSH1 0x22 PUSH1 0x24 DUP3 ADD MSTORE PUSH32 0x4172726179206C656E677468206D69736D61746368206F7220746F6F206C6172 PUSH1 0x44 DUP3 ADD MSTORE PUSH2 0x6765 PUSH1 0xF0 SHL PUSH1 0x64 DUP3 ADD MSTORE PUSH1 0x84 ADD JUMPDEST PUSH1 0x40 MLOAD DUP1 SWAP2 SUB SWAP1 REVERT JUMPDEST PUSH0 JUMPDEST DUP6 DUP2 LT ISZERO PUSH2 0x55C JUMPI PUSH0 DUP1 DUP5 DUP5 DUP5 DUP2 DUP2 LT PUSH2 0x30D JUMPI PUSH2 0x30D PUSH2 0xAA6 JUMP JUMPDEST SWAP1 POP PUSH1 0x20 MUL ADD PUSH1 0x20 DUP2 ADD SWAP1 PUSH2 0x322 SWAP2 SWAP1 PUSH2 0xA6D JUMP JUMPDEST PUSH1 0xFF AND SUB PUSH2 0x345 JUMPI POP PUSH20 0x6352A56CAADC4F1E25CD6C75970FA768A3304E64 PUSH2 0x3CD JUMP JUMPDEST PUSH1 0x1 DUP5 DUP5 DUP5 DUP2 DUP2 LT PUSH2 0x359 JUMPI PUSH2 0x359 PUSH2 0xAA6 JUMP JUMPDEST SWAP1 POP PUSH1 0x20 MUL ADD PUSH1 0x20 DUP2 ADD SWAP1 PUSH2 0x36E SWAP2 SWAP1 PUSH2 0xA6D JUMP JUMPDEST PUSH1 0xFF AND SUB PUSH2 0x391 JUMPI POP PUSH20 0x6131B5FAE19EA4F9D964EAC0408E4408B66337B5 PUSH2 0x3CD JUMP JUMPDEST PUSH1 0x40 MLOAD PUSH3 0x461BCD PUSH1 0xE5 SHL DUP2 MSTORE PUSH1 0x20 PUSH1 0x4 DUP3 ADD MSTORE PUSH1 0x11 PUSH1 0x24 DUP3 ADD MSTORE PUSH17 0x125B9D985B1A59081C9BDD5D195C881251 PUSH1 0x7A SHL PUSH1 0x44 DUP3 ADD MSTORE PUSH1 0x64 ADD PUSH2 0x2E6 JUMP JUMPDEST DUP6 DUP6 DUP4 DUP2 DUP2 LT PUSH2 0x3DF JUMPI PUSH2 0x3DF PUSH2 0xAA6 JUMP JUMPDEST SWAP1 POP PUSH1 0x20 MUL ADD CALLDATALOAD PUSH32 0x0 PUSH1 0x1 PUSH1 0x1 PUSH1 0xA0 SHL SUB AND PUSH4 0xDD62ED3E DUP11 DUP11 DUP7 DUP2 DUP2 LT PUSH2 0x427 JUMPI PUSH2 0x427 PUSH2 0xAA6 JUMP JUMPDEST SWAP1 POP PUSH1 0x20 MUL ADD PUSH1 0x20 DUP2 ADD SWAP1 PUSH2 0x43C SWAP2 SWAP1 PUSH2 0xA8D JUMP JUMPDEST PUSH1 0x40 MLOAD PUSH1 0x1 PUSH1 0x1 PUSH1 0xE0 SHL SUB NOT PUSH1 0xE0 DUP5 SWAP1 SHL AND DUP2 MSTORE PUSH1 0x1 PUSH1 0x1 PUSH1 0xA0 SHL SUB SWAP2 DUP3 AND PUSH1 0x4 DUP3 ADD MSTORE SWAP1 DUP6 AND PUSH1 0x24 DUP3 ADD MSTORE PUSH1 0x44 ADD PUSH1 0x20 PUSH1 0x40 MLOAD DUP1 DUP4 SUB DUP2 DUP7 GAS STATICCALL ISZERO DUP1 ISZERO PUSH2 0x486 JUMPI RETURNDATASIZE PUSH0 PUSH0 RETURNDATACOPY RETURNDATASIZE PUSH0 REVERT JUMPDEST POP POP POP POP PUSH1 0x40 MLOAD RETURNDATASIZE PUSH1 0x1F NOT PUSH1 0x1F DUP3 ADD AND DUP3 ADD DUP1 PUSH1 0x40 MSTORE POP DUP2 ADD SWAP1 PUSH2 0x4AA SWAP2 SWAP1 PUSH2 0xABA JUMP JUMPDEST LT ISZERO PUSH2 0x4C8 JUMPI PUSH1 0x40 MLOAD PUSH3 0x461BCD PUSH1 0xE5 SHL DUP2 MSTORE PUSH1 0x4 ADD PUSH2 0x2E6 SWAP1 PUSH2 0xAD1 JUMP JUMPDEST DUP1 PUSH1 0x1 PUSH1 0x1 PUSH1 0xA0 SHL SUB AND DUP9 DUP9 DUP5 DUP2 DUP2 LT PUSH2 0x4E4 JUMPI PUSH2 0x4E4 PUSH2 0xAA6 JUMP JUMPDEST SWAP1 POP PUSH1 0x20 MUL ADD PUSH1 0x20 DUP2 ADD SWAP1 PUSH2 0x4F9 SWAP2 SWAP1 PUSH2 0xA8D JUMP JUMPDEST PUSH1 0x1 PUSH1 0x1 PUSH1 0xA0 SHL SUB AND PUSH32 0xEAB9CD112C05D2451F24ACF7702297C9705B2115923D562C663C5272A60FE76F DUP9 DUP9 DUP7 DUP2 DUP2 LT PUSH2 0x535 JUMPI PUSH2 0x535 PUSH2 0xAA6 JUMP JUMPDEST SWAP1 POP PUSH1 0x20 MUL ADD CALLDATALOAD PUSH1 0x40 MLOAD PUSH2 0x54B SWAP2 DUP2 MSTORE PUSH1 0x20 ADD SWAP1 JUMP JUMPDEST PUSH1 0x40 MLOAD DUP1 SWAP2 SUB SWAP1 LOG3 POP PUSH1 0x1 ADD PUSH2 0x2F1 JUMP JUMPDEST POP PUSH2 0x566 PUSH1 0x1 DUP1 SSTORE JUMP JUMPDEST POP POP POP POP POP POP JUMP JUMPDEST PUSH2 0x576 PUSH2 0x799 JUMP JUMPDEST PUSH2 0x57E PUSH2 0x7C5 JUMP JUMPDEST PUSH2 0x586 PUSH2 0x7EF JUMP JUMPDEST PUSH0 PUSH1 0xFF DUP3 AND PUSH2 0x5AA JUMPI POP PUSH20 0x6352A56CAADC4F1E25CD6C75970FA768A3304E64 PUSH2 0x5CC JUMP JUMPDEST PUSH0 NOT PUSH1 0xFF DUP4 AND ADD PUSH2 0x391 JUMPI POP PUSH20 0x6131B5FAE19EA4F9D964EAC0408E4408B66337B5 JUMPDEST PUSH1 0x40 MLOAD PUSH4 0x6EB1769F PUSH1 0xE1 SHL DUP2 MSTORE PUSH1 0x1 PUSH1 0x1 PUSH1 0xA0 SHL SUB DUP6 DUP2 AND PUSH1 0x4 DUP4 ADD MSTORE DUP3 DUP2 AND PUSH1 0x24 DUP4 ADD MSTORE DUP5 SWAP2 PUSH32 0x0 SWAP1 SWAP2 AND SWAP1 PUSH4 0xDD62ED3E SWAP1 PUSH1 0x44 ADD PUSH1 0x20 PUSH1 0x40 MLOAD DUP1 DUP4 SUB DUP2 DUP7 GAS STATICCALL ISZERO DUP1 ISZERO PUSH2 0x63C JUMPI RETURNDATASIZE PUSH0 PUSH0 RETURNDATACOPY RETURNDATASIZE PUSH0 REVERT JUMPDEST POP POP POP POP PUSH1 0x40 MLOAD RETURNDATASIZE PUSH1 0x1F NOT PUSH1 0x1F DUP3 ADD AND DUP3 ADD DUP1 PUSH1 0x40 MSTORE POP DUP2 ADD SWAP1 PUSH2 0x660 SWAP2 SWAP1 PUSH2 0xABA JUMP JUMPDEST LT ISZERO PUSH2 0x67E JUMPI PUSH1 0x40 MLOAD PUSH3 0x461BCD PUSH1 0xE5 SHL DUP2 MSTORE PUSH1 0x4 ADD PUSH2 0x2E6 SWAP1 PUSH2 0xAD1 JUMP JUMPDEST DUP1 PUSH1 0x1 PUSH1 0x1 PUSH1 0xA0 SHL SUB AND DUP5 PUSH1 0x1 PUSH1 0x1 PUSH1 0xA0 SHL SUB AND PUSH32 0xEAB9CD112C05D2451F24ACF7702297C9705B2115923D562C663C5272A60FE76F DUP6 PUSH1 0x40 MLOAD PUSH2 0x6C3 SWAP2 DUP2 MSTORE PUSH1 0x20 ADD SWAP1 JUMP JUMPDEST PUSH1 0x40 MLOAD DUP1 SWAP2 SUB SWAP1 LOG3 POP PUSH2 0x6D5 PUSH1 0x1 DUP1 SSTORE JUMP JUMPDEST POP POP POP JUMP JUMPDEST PUSH2 0x6E2 PUSH2 0x799 JUMP JUMPDEST PUSH2 0x6EA PUSH2 0x819 JUMP JUMPDEST JUMP JUMPDEST PUSH2 0x6F4 PUSH2 0x799 JUMP JUMPDEST PUSH2 0x6EA PUSH0 PUSH2 0x86D JUMP JUMPDEST PUSH2 0x705 PUSH2 0x799 JUMP JUMPDEST PUSH2 0x6EA PUSH2 0x8BC JUMP JUMPDEST PUSH0 PUSH1 0xFF DUP3 AND PUSH2 0x731 JUMPI POP PUSH20 0x6352A56CAADC4F1E25CD6C75970FA768A3304E64 SWAP2 SWAP1 POP JUMP JUMPDEST PUSH0 NOT PUSH1 0xFF DUP4 AND ADD PUSH2 0x391 JUMPI POP PUSH20 0x6131B5FAE19EA4F9D964EAC0408E4408B66337B5 SWAP2 SWAP1 POP JUMP JUMPDEST SWAP2 SWAP1 POP JUMP JUMPDEST PUSH2 0x764 PUSH2 0x799 JUMP JUMPDEST PUSH1 0x1 PUSH1 0x1 PUSH1 0xA0 SHL SUB DUP2 AND PUSH2 0x78D JUMPI PUSH1 0x40 MLOAD PUSH4 0x1E4FBDF7 PUSH1 0xE0 SHL DUP2 MSTORE PUSH0 PUSH1 0x4 DUP3 ADD MSTORE PUSH1 0x24 ADD PUSH2 0x2E6 JUMP JUMPDEST PUSH2 0x796 DUP2 PUSH2 0x86D JUMP JUMPDEST POP JUMP JUMPDEST PUSH0 SLOAD PUSH1 0x1 PUSH1 0x1 PUSH1 0xA0 SHL SUB AND CALLER EQ PUSH2 0x6EA JUMPI PUSH1 0x40 MLOAD PUSH4 0x118CDAA7 PUSH1 0xE0 SHL DUP2 MSTORE CALLER PUSH1 0x4 DUP3 ADD MSTORE PUSH1 0x24 ADD PUSH2 0x2E6 JUMP JUMPDEST PUSH0 SLOAD PUSH1 0x1 PUSH1 0xA0 SHL SWAP1 DIV PUSH1 0xFF AND ISZERO PUSH2 0x6EA JUMPI PUSH1 0x40 MLOAD PUSH4 0xD93C0665 PUSH1 0xE0 SHL DUP2 MSTORE PUSH1 0x4 ADD PUSH1 0x40 MLOAD DUP1 SWAP2 SUB SWAP1 REVERT JUMPDEST PUSH1 0x2 PUSH1 0x1 SLOAD SUB PUSH2 0x812 JUMPI PUSH1 0x40 MLOAD PUSH4 0x3EE5AEB5 PUSH1 0xE0 SHL DUP2 MSTORE PUSH1 0x4 ADD PUSH1 0x40 MLOAD DUP1 SWAP2 SUB SWAP1 REVERT JUMPDEST PUSH1 0x2 PUSH1 0x1 SSTORE JUMP JUMPDEST PUSH2 0x821 PUSH2 0x8FE JUMP JUMPDEST PUSH0 DUP1 SLOAD PUSH1 0xFF PUSH1 0xA0 SHL NOT AND SWAP1 SSTORE PUSH32 0x5DB9EE0A495BF2E6FF9C91A7834C1BA4FDD244A5E8AA4E537BD38AEAE4B073AA CALLER JUMPDEST PUSH1 0x40 MLOAD PUSH1 0x1 PUSH1 0x1 PUSH1 0xA0 SHL SUB SWAP1 SWAP2 AND DUP2 MSTORE PUSH1 0x20 ADD PUSH1 0x40 MLOAD DUP1 SWAP2 SUB SWAP1 LOG1 JUMP JUMPDEST PUSH0 DUP1 SLOAD PUSH1 0x1 PUSH1 0x1 PUSH1 0xA0 SHL SUB DUP4 DUP2 AND PUSH1 0x1 PUSH1 0x1 PUSH1 0xA0 SHL SUB NOT DUP4 AND DUP2 OR DUP5 SSTORE PUSH1 0x40 MLOAD SWAP2 SWAP1 SWAP3 AND SWAP3 DUP4 SWAP2 PUSH32 0x8BE0079C531659141344CD1FD0A4F28419497F9722A3DAAFE3B4186F6B6457E0 SWAP2 SWAP1 LOG3 POP POP JUMP JUMPDEST PUSH2 0x8C4 PUSH2 0x7C5 JUMP JUMPDEST PUSH0 DUP1 SLOAD PUSH1 0xFF PUSH1 0xA0 SHL NOT AND PUSH1 0x1 PUSH1 0xA0 SHL OR SWAP1 SSTORE PUSH32 0x62E78CEA01BEE320CD4E420270B5EA74000D11B0C9F74754EBDBFC544B05A258 PUSH2 0x850 CALLER SWAP1 JUMP JUMPDEST PUSH0 SLOAD PUSH1 0x1 PUSH1 0xA0 SHL SWAP1 DIV PUSH1 0xFF AND PUSH2 0x6EA JUMPI PUSH1 0x40 MLOAD PUSH4 0x8DFC202B PUSH1 0xE0 SHL DUP2 MSTORE PUSH1 0x4 ADD PUSH1 0x40 MLOAD DUP1 SWAP2 SUB SWAP1 REVERT JUMPDEST PUSH0 PUSH0 DUP4 PUSH1 0x1F DUP5 ADD SLT PUSH2 0x937 JUMPI PUSH0 PUSH0 REVERT JUMPDEST POP DUP2 CALLDATALOAD PUSH8 0xFFFFFFFFFFFFFFFF DUP2 GT ISZERO PUSH2 0x94E JUMPI PUSH0 PUSH0 REVERT JUMPDEST PUSH1 0x20 DUP4 ADD SWAP2 POP DUP4 PUSH1 0x20 DUP3 PUSH1 0x5 SHL DUP6 ADD ADD GT ISZERO PUSH2 0x968 JUMPI PUSH0 PUSH0 REVERT JUMPDEST SWAP3 POP SWAP3 SWAP1 POP JUMP JUMPDEST PUSH0 PUSH0 PUSH0 PUSH0 PUSH0 PUSH0 PUSH1 0x60 DUP8 DUP10 SUB SLT ISZERO PUSH2 0x984 JUMPI PUSH0 PUSH0 REVERT JUMPDEST DUP7 CALLDATALOAD PUSH8 0xFFFFFFFFFFFFFFFF DUP2 GT ISZERO PUSH2 0x99A JUMPI PUSH0 PUSH0 REVERT JUMPDEST PUSH2 0x9A6 DUP10 DUP3 DUP11 ADD PUSH2 0x927 JUMP JUMPDEST SWAP1 SWAP8 POP SWAP6 POP POP PUSH1 0x20 DUP8 ADD CALLDATALOAD PUSH8 0xFFFFFFFFFFFFFFFF DUP2 GT ISZERO PUSH2 0x9C5 JUMPI PUSH0 PUSH0 REVERT JUMPDEST PUSH2 0x9D1 DUP10 DUP3 DUP11 ADD PUSH2 0x927 JUMP JUMPDEST SWAP1 SWAP6 POP SWAP4 POP POP PUSH1 0x40 DUP8 ADD CALLDATALOAD PUSH8 0xFFFFFFFFFFFFFFFF DUP2 GT ISZERO PUSH2 0x9F0 JUMPI PUSH0 PUSH0 REVERT JUMPDEST PUSH2 0x9FC DUP10 DUP3 DUP11 ADD PUSH2 0x927 JUMP JUMPDEST SWAP8 SWAP11 SWAP7 SWAP10 POP SWAP5 SWAP8 POP SWAP3 SWAP6 SWAP4 SWAP5 SWAP3 POP POP POP JUMP JUMPDEST DUP1 CALLDATALOAD PUSH1 0x1 PUSH1 0x1 PUSH1 0xA0 SHL SUB DUP2 AND DUP2 EQ PUSH2 0x757 JUMPI PUSH0 PUSH0 REVERT JUMPDEST DUP1 CALLDATALOAD PUSH1 0xFF DUP2 AND DUP2 EQ PUSH2 0x757 JUMPI PUSH0 PUSH0 REVERT JUMPDEST PUSH0 PUSH0 PUSH0 PUSH1 0x60 DUP5 DUP7 SUB SLT ISZERO PUSH2 0xA46 JUMPI PUSH0 PUSH0 REVERT JUMPDEST PUSH2 0xA4F DUP5 PUSH2 0xA0E JUMP JUMPDEST SWAP3 POP PUSH1 0x20 DUP5 ADD CALLDATALOAD SWAP2 POP PUSH2 0xA64 PUSH1 0x40 DUP6 ADD PUSH2 0xA24 JUMP JUMPDEST SWAP1 POP SWAP3 POP SWAP3 POP SWAP3 JUMP JUMPDEST PUSH0 PUSH1 0x20 DUP3 DUP5 SUB SLT ISZERO PUSH2 0xA7D JUMPI PUSH0 PUSH0 REVERT JUMPDEST PUSH2 0xA86 DUP3 PUSH2 0xA24 JUMP JUMPDEST SWAP4 SWAP3 POP POP POP JUMP JUMPDEST PUSH0 PUSH1 0x20 DUP3 DUP5 SUB SLT ISZERO PUSH2 0xA9D JUMPI PUSH0 PUSH0 REVERT JUMPDEST PUSH2 0xA86 DUP3 PUSH2 0xA0E JUMP JUMPDEST PUSH4 0x4E487B71 PUSH1 0xE0 SHL PUSH0 MSTORE PUSH1 0x32 PUSH1 0x4 MSTORE PUSH1 0x24 PUSH0 REVERT JUMPDEST PUSH0 PUSH1 0x20 DUP3 DUP5 SUB SLT ISZERO PUSH2 0xACA JUMPI PUSH0 PUSH0 REVERT JUMPDEST POP MLOAD SWAP2 SWAP1 POP JUMP JUMPDEST PUSH1 0x20 DUP1 DUP3 MSTORE PUSH1 0x26 SWAP1 DUP3 ADD MSTORE PUSH32 0x496E73756666696369656E74205553444320616C6C6F77616E636520666F7220 PUSH1 0x40 DUP3 ADD MSTORE PUSH6 0x3937BABA32B9 PUSH1 0xD1 SHL PUSH1 0x60 DUP3 ADD MSTORE PUSH1 0x80 ADD SWAP1 JUMP INVALID LOG2 PUSH5 0x6970667358 0x22 SLT KECCAK256 MUL 0xDD 0xB9 NUMBER ADDMOD 0xCF 0x22 0xB1 0x2A CREATE RETURNDATACOPY 0x2C DUP13 EXTCALL 0xCF SWAP2 0x2C PUSH16 0x66AF862498651996981630A046BF6473 PUSH16 0x6C634300081E00330000000000000000 "
				},
				"gasEstimates": {
					"creation": {
						"codeDepositCost": "578600",
						"executionCost": "infinite",
						"totalCost": "infinite"
					},
					"external": {
						"KYBERSWAP_ID()": "237",
						"OPENOCEAN_ID()": "215",
						"_KYBERSWAP_ROUTER()": "237",
						"_OPENOCEAN_ROUTER()": "259",
						"approveAutoBuy(address,uint256,uint8)": "infinite",
						"batchAutoBuy(address[],uint256[],uint8[])": "infinite",
						"getKyberSwapRouter()": "279",
						"getOpenOceanRouter()": "235",
						"getRouterAddress(uint8)": "524",
						"owner()": "2418",
						"pause()": "infinite",
						"paused()": "2396",
						"renounceOwnership()": "infinite",
						"transferOwnership(address)": "28417",
						"unpause()": "infinite",
						"usdc()": "infinite"
					}
				},
				"methodIdentifiers": {
					"KYBERSWAP_ID()": "48fcdc7b",
					"OPENOCEAN_ID()": "18c786af",
					"_KYBERSWAP_ROUTER()": "9f1f61a0",
					"_OPENOCEAN_ROUTER()": "a4518efb",
					"approveAutoBuy(address,uint256,uint8)": "2b15e47c",
					"batchAutoBuy(address[],uint256[],uint8[])": "1e8bcca5",
					"getKyberSwapRouter()": "57df19e6",
					"getOpenOceanRouter()": "612e3146",
					"getRouterAddress(uint8)": "cac73ed7",
					"owner()": "8da5cb5b",
					"pause()": "8456cb59",
					"paused()": "5c975abb",
					"renounceOwnership()": "715018a6",
					"transferOwnership(address)": "f2fde38b",
					"unpause()": "3f4ba83a",
					"usdc()": "3e413bee"
				}
			},
			"storageLayout": {
				"storage": [
					{
						"astId": 112,
						"contract": "Optimized_flattened.sol:investreAutoBuy",
						"label": "_owner",
						"offset": 0,
						"slot": "0",
						"type": "t_address"
					},
					{
						"astId": 257,
						"contract": "Optimized_flattened.sol:investreAutoBuy",
						"label": "_paused",
						"offset": 20,
						"slot": "0",
						"type": "t_bool"
					},
					{
						"astId": 366,
						"contract": "Optimized_flattened.sol:investreAutoBuy",
						"label": "_status",
						"offset": 0,
						"slot": "1",
						"type": "t_uint256"
					}
				],
				"types": {
					"t_address": {
						"encoding": "inplace",
						"label": "address",
						"numberOfBytes": "20"
					},
					"t_bool": {
						"encoding": "inplace",
						"label": "bool",
						"numberOfBytes": "1"
					},
					"t_uint256": {
						"encoding": "inplace",
						"label": "uint256",
						"numberOfBytes": "32"
					}
				}
			},
			"userdoc": {
				"kind": "user",
				"methods": {},
				"version": 1
			}
		}
	}
}