{
	"Optimized.sol": {
		"investreAutoBuy": {
			"abi": [
				{
					"inputs": [
						{
							"internalType": "address",
							"name": "_usdc",
							"type": "address"
						},
						{
							"internalType": "address",
							"name": "initialOwner",
							"type": "address"
						}
					],
					"stateMutability": "nonpayable",
					"type": "constructor"
				},
				{
					"inputs": [],
					"name": "EnforcedPause",
					"type": "error"
				},
				{
					"inputs": [],
					"name": "ExpectedPause",
					"type": "error"
				},
				{
					"inputs": [
						{
							"internalType": "address",
							"name": "owner",
							"type": "address"
						}
					],
					"name": "OwnableInvalidOwner",
					"type": "error"
				},
				{
					"inputs": [
						{
							"internalType": "address",
							"name": "account",
							"type": "address"
						}
					],
					"name": "OwnableUnauthorizedAccount",
					"type": "error"
				},
				{
					"inputs": [],
					"name": "ReentrancyGuardReentrantCall",
					"type": "error"
				},
				{
					"anonymous": false,
					"inputs": [
						{
							"indexed": true,
							"internalType": "address",
							"name": "user",
							"type": "address"
						},
						{
							"indexed": false,
							"internalType": "uint256",
							"name": "usdcAmount",
							"type": "uint256"
						},
						{
							"indexed": true,
							"internalType": "address",
							"name": "router",
							"type": "address"
						}
					],
					"name": "AutoBuyApproved",
					"type": "event"
				},
				{
					"anonymous": false,
					"inputs": [
						{
							"indexed": true,
							"internalType": "address",
							"name": "previousOwner",
							"type": "address"
						},
						{
							"indexed": true,
							"internalType": "address",
							"name": "newOwner",
							"type": "address"
						}
					],
					"name": "OwnershipTransferred",
					"type": "event"
				},
				{
					"anonymous": false,
					"inputs": [
						{
							"indexed": false,
							"internalType": "address",
							"name": "account",
							"type": "address"
						}
					],
					"name": "Paused",
					"type": "event"
				},
				{
					"anonymous": false,
					"inputs": [
						{
							"indexed": false,
							"internalType": "address",
							"name": "account",
							"type": "address"
						}
					],
					"name": "Unpaused",
					"type": "event"
				},
				{
					"inputs": [],
					"name": "KYBERSWAP_ID",
					"outputs": [
						{
							"internalType": "uint8",
							"name": "",
							"type": "uint8"
						}
					],
					"stateMutability": "view",
					"type": "function"
				},
				{
					"inputs": [],
					"name": "OPENOCEAN_ID",
					"outputs": [
						{
							"internalType": "uint8",
							"name": "",
							"type": "uint8"
						}
					],
					"stateMutability": "view",
					"type": "function"
				},
				{
					"inputs": [],
					"name": "_KYBERSWAP_ROUTER",
					"outputs": [
						{
							"internalType": "address",
							"name": "",
							"type": "address"
						}
					],
					"stateMutability": "view",
					"type": "function"
				},
				{
					"inputs": [],
					"name": "_OPENOCEAN_ROUTER",
					"outputs": [
						{
							"internalType": "address",
							"name": "",
							"type": "address"
						}
					],
					"stateMutability": "view",
					"type": "function"
				},
				{
					"inputs": [
						{
							"internalType": "address",
							"name": "user",
							"type": "address"
						},
						{
							"internalType": "uint256",
							"name": "usdcAmount",
							"type": "uint256"
						},
						{
							"internalType": "uint8",
							"name": "routerId",
							"type": "uint8"
						}
					],
					"name": "approveAutoBuy",
					"outputs": [],
					"stateMutability": "nonpayable",
					"type": "function"
				},
				{
					"inputs": [
						{
							"internalType": "address[]",
							"name": "users",
							"type": "address[]"
						},
						{
							"internalType": "uint256[]",
							"name": "usdcAmounts",
							"type": "uint256[]"
						},
						{
							"internalType": "uint8[]",
							"name": "routerIds",
							"type": "uint8[]"
						}
					],
					"name": "batchAutoBuy",
					"outputs": [],
					"stateMutability": "nonpayable",
					"type": "function"
				},
				{
					"inputs": [],
					"name": "getKyberSwapRouter",
					"outputs": [
						{
							"internalType": "address",
							"name": "",
							"type": "address"
						}
					],
					"stateMutability": "pure",
					"type": "function"
				},
				{
					"inputs": [],
					"name": "getOpenOceanRouter",
					"outputs": [
						{
							"internalType": "address",
							"name": "",
							"type": "address"
						}
					],
					"stateMutability": "pure",
					"type": "function"
				},
				{
					"inputs": [
						{
							"internalType": "uint8",
							"name": "routerId",
							"type": "uint8"
						}
					],
					"name": "getRouterAddress",
					"outputs": [
						{
							"internalType": "address",
							"name": "",
							"type": "address"
						}
					],
					"stateMutability": "pure",
					"type": "function"
				},
				{
					"inputs": [],
					"name": "owner",
					"outputs": [
						{
							"internalType": "address",
							"name": "",
							"type": "address"
						}
					],
					"stateMutability": "view",
					"type": "function"
				},
				{
					"inputs": [],
					"name": "pause",
					"outputs": [],
					"stateMutability": "nonpayable",
					"type": "function"
				},
				{
					"inputs": [],
					"name": "paused",
					"outputs": [
						{
							"internalType": "bool",
							"name": "",
							"type": "bool"
						}
					],
					"stateMutability": "view",
					"type": "function"
				},
				{
					"inputs": [],
					"name": "renounceOwnership",
					"outputs": [],
					"stateMutability": "nonpayable",
					"type": "function"
				},
				{
					"inputs": [
						{
							"internalType": "address",
							"name": "newOwner",
							"type": "address"
						}
					],
					"name": "transferOwnership",
					"outputs": [],
					"stateMutability": "nonpayable",
					"type": "function"
				},
				{
					"inputs": [],
					"name": "unpause",
					"outputs": [],
					"stateMutability": "nonpayable",
					"type": "function"
				},
				{
					"inputs": [],
					"name": "usdc",
					"outputs": [
						{
							"internalType": "contract IERC20",
							"name": "",
							"type": "address"
						}
					],
					"stateMutability": "view",
					"type": "function"
				}
			],
			"devdoc": {
				"details": "Ultra-lightweight auto-buy contract optimized for <15k gas per transaction  Design Philosophy: - Hard-coded trusted routers for maximum gas efficiency - Users approve routers directly to pull USDC - Backend handles validation, tracking, and swap execution - Standard USDC approval for simple UX - Minimal gas footprint for microtransactions",
				"errors": {
					"EnforcedPause()": [
						{
							"details": "The operation failed because the contract is paused."
						}
					],
					"ExpectedPause()": [
						{
							"details": "The operation failed because the contract is not paused."
						}
					],
					"OwnableInvalidOwner(address)": [
						{
							"details": "The owner is not a valid owner account. (eg. `address(0)`)"
						}
					],
					"OwnableUnauthorizedAccount(address)": [
						{
							"details": "The caller account is not authorized to perform an operation."
						}
					],
					"ReentrancyGuardReentrantCall()": [
						{
							"details": "Unauthorized reentrant call."
						}
					]
				},
				"events": {
					"Paused(address)": {
						"details": "Emitted when the pause is triggered by `account`."
					},
					"Unpaused(address)": {
						"details": "Emitted when the pause is lifted by `account`."
					}
				},
				"kind": "dev",
				"methods": {
					"approveAutoBuy(address,uint256,uint8)": {
						"details": "Ultra-light auto-buy approval function (hard-coded routers)",
						"params": {
							"routerId": "Router ID (0=OpenOcean, 1=KyberSwap)",
							"usdcAmount": "Amount of USDC to approve",
							"user": "User's wallet address"
						}
					},
					"batchAutoBuy(address[],uint256[],uint8[])": {
						"details": "Batch auto-buy approval for multiple users/amounts/routers//",
						"params": {
							"routerIds": "Array of router IDs",
							"usdcAmounts": "Array of USDC amounts",
							"users": "Array of user addresses"
						}
					},
					"getKyberSwapRouter()": {
						"details": "Get KyberSwap router address",
						"returns": {
							"_0": "KyberSwap router address"
						}
					},
					"getOpenOceanRouter()": {
						"details": "Get OpenOcean router address",
						"returns": {
							"_0": "OpenOcean router address"
						}
					},
					"getRouterAddress(uint8)": {
						"details": "Get router address by ID",
						"params": {
							"routerId": "Router ID (0=OpenOcean, 1=KyberSwap)"
						},
						"returns": {
							"_0": "Router contract address"
						}
					},
					"owner()": {
						"details": "Returns the address of the current owner."
					},
					"pause()": {
						"details": "Emergency pause"
					},
					"paused()": {
						"details": "Returns true if the contract is paused, and false otherwise."
					},
					"renounceOwnership()": {
						"details": "Leaves the contract without owner. It will not be possible to call `onlyOwner` functions. Can only be called by the current owner. NOTE: Renouncing ownership will leave the contract without an owner, thereby disabling any functionality that is only available to the owner."
					},
					"transferOwnership(address)": {
						"details": "Transfers ownership of the contract to a new account (`newOwner`). Can only be called by the current owner."
					},
					"unpause()": {
						"details": "Unpause"
					}
				},
				"title": "investreAutoBuy",
				"version": 1
			},
			"evm": {
				"assembly": "    /* \"Optimized.sol\":685:4447  contract investreAutoBuy is Ownable, Pausable, ReentrancyGuard {... */\n  mstore(0x40, 0xa0)\n    /* \"Optimized.sol\":1299:1407  constructor(address _usdc, address initialOwner) Ownable(initialOwner) {... */\n  callvalue\n  dup1\n  iszero\n  tag_1\n  jumpi\n  revert(0x00, 0x00)\ntag_1:\n  pop\n  mload(0x40)\n  sub(codesize, bytecodeSize)\n  dup1\n  bytecodeSize\n  dup4\n  codecopy\n  dup2\n  dup2\n  add\n  0x40\n  mstore\n  dup2\n  add\n  swap1\n  tag_2\n  swap2\n  swap1\n  tag_3\n  jump\t// in\ntag_2:\n    /* \"Optimized.sol\":1356:1368  initialOwner */\n  dup1\n    /* \"@openzeppelin/contracts/access/Ownable.sol\":1297:1298  0 */\n  0x00\n    /* \"@openzeppelin/contracts/access/Ownable.sol\":1273:1299  initialOwner == address(0) */\n  0xffffffffffffffffffffffffffffffffffffffff\n  and\n    /* \"@openzeppelin/contracts/access/Ownable.sol\":1273:1285  initialOwner */\n  dup2\n    /* \"@openzeppelin/contracts/access/Ownable.sol\":1273:1299  initialOwner == address(0) */\n  0xffffffffffffffffffffffffffffffffffffffff\n  and\n  sub\n    /* \"@openzeppelin/contracts/access/Ownable.sol\":1269:1364  if (initialOwner == address(0)) {... */\n  tag_8\n  jumpi\n    /* \"@openzeppelin/contracts/access/Ownable.sol\":1350:1351  0 */\n  0x00\n    /* \"@openzeppelin/contracts/access/Ownable.sol\":1322:1353  OwnableInvalidOwner(address(0)) */\n  mload(0x40)\n  0x1e4fbdf700000000000000000000000000000000000000000000000000000000\n  dup2\n  mstore\n  0x04\n  add\n  tag_9\n  swap2\n  swap1\n  tag_10\n  jump\t// in\ntag_9:\n  mload(0x40)\n  dup1\n  swap2\n  sub\n  swap1\n  revert\n    /* \"@openzeppelin/contracts/access/Ownable.sol\":1269:1364  if (initialOwner == address(0)) {... */\ntag_8:\n    /* \"@openzeppelin/contracts/access/Ownable.sol\":1373:1405  _transferOwnership(initialOwner) */\n  tag_11\n    /* \"@openzeppelin/contracts/access/Ownable.sol\":1392:1404  initialOwner */\n  dup2\n    /* \"@openzeppelin/contracts/access/Ownable.sol\":1373:1391  _transferOwnership */\n  shl(0x20, tag_12)\n    /* \"@openzeppelin/contracts/access/Ownable.sol\":1373:1405  _transferOwnership(initialOwner) */\n  0x20\n  shr\n  jump\t// in\ntag_11:\n    /* \"@openzeppelin/contracts/access/Ownable.sol\":1225:1412  constructor(address initialOwner) {... */\n  pop\n    /* \"@openzeppelin/contracts/utils/ReentrancyGuard.sol\":1857:1858  1 */\n  0x01\n    /* \"@openzeppelin/contracts/utils/ReentrancyGuard.sol\":2061:2068  _status */\n  dup1\n    /* \"@openzeppelin/contracts/utils/ReentrancyGuard.sol\":2061:2082  _status = NOT_ENTERED */\n  dup2\n  swap1\n  sstore\n  pop\n    /* \"Optimized.sol\":1394:1399  _usdc */\n  dup2\n    /* \"Optimized.sol\":1380:1400  usdc = IERC20(_usdc) */\n  0xffffffffffffffffffffffffffffffffffffffff\n  and\n  0x80\n  dup2\n  0xffffffffffffffffffffffffffffffffffffffff\n  and\n  dup2\n  mstore\n  pop\n  pop\n    /* \"Optimized.sol\":1299:1407  constructor(address _usdc, address initialOwner) Ownable(initialOwner) {... */\n  pop\n  pop\n    /* \"Optimized.sol\":685:4447  contract investreAutoBuy is Ownable, Pausable, ReentrancyGuard {... */\n  jump(tag_15)\n    /* \"@openzeppelin/contracts/access/Ownable.sol\":2912:3099  function _transferOwnership(address newOwner) internal virtual {... */\ntag_12:\n    /* \"@openzeppelin/contracts/access/Ownable.sol\":2985:3001  address oldOwner */\n  0x00\n    /* \"@openzeppelin/contracts/access/Ownable.sol\":3004:3010  _owner */\n  0x00\n  0x00\n  swap1\n  sload\n  swap1\n  0x0100\n  exp\n  swap1\n  div\n  0xffffffffffffffffffffffffffffffffffffffff\n  and\n    /* \"@openzeppelin/contracts/access/Ownable.sol\":2985:3010  address oldOwner = _owner */\n  swap1\n  pop\n    /* \"@openzeppelin/contracts/access/Ownable.sol\":3029:3037  newOwner */\n  dup2\n    /* \"@openzeppelin/contracts/access/Ownable.sol\":3020:3026  _owner */\n  0x00\n  0x00\n    /* \"@openzeppelin/contracts/access/Ownable.sol\":3020:3037  _owner = newOwner */\n  0x0100\n  exp\n  dup2\n  sload\n  dup2\n  0xffffffffffffffffffffffffffffffffffffffff\n  mul\n  not\n  and\n  swap1\n  dup4\n  0xffffffffffffffffffffffffffffffffffffffff\n  and\n  mul\n  or\n  swap1\n  sstore\n  pop\n    /* \"@openzeppelin/contracts/access/Ownable.sol\":3083:3091  newOwner */\n  dup2\n    /* \"@openzeppelin/contracts/access/Ownable.sol\":3052:3092  OwnershipTransferred(oldOwner, newOwner) */\n  0xffffffffffffffffffffffffffffffffffffffff\n  and\n    /* \"@openzeppelin/contracts/access/Ownable.sol\":3073:3081  oldOwner */\n  dup2\n    /* \"@openzeppelin/contracts/access/Ownable.sol\":3052:3092  OwnershipTransferred(oldOwner, newOwner) */\n  0xffffffffffffffffffffffffffffffffffffffff\n  and\n  0x8be0079c531659141344cd1fd0a4f28419497f9722a3daafe3b4186f6b6457e0\n  mload(0x40)\n  mload(0x40)\n  dup1\n  swap2\n  sub\n  swap1\n  log3\n    /* \"@openzeppelin/contracts/access/Ownable.sol\":2975:3099  {... */\n  pop\n    /* \"@openzeppelin/contracts/access/Ownable.sol\":2912:3099  function _transferOwnership(address newOwner) internal virtual {... */\n  pop\n  jump\t// out\n    /* \"#utility.yul\":88:205   */\ntag_18:\n    /* \"#utility.yul\":197:198   */\n  0x00\n    /* \"#utility.yul\":194:195   */\n  0x00\n    /* \"#utility.yul\":187:199   */\n  revert\n    /* \"#utility.yul\":334:460   */\ntag_20:\n    /* \"#utility.yul\":371:378   */\n  0x00\n    /* \"#utility.yul\":411:453   */\n  0xffffffffffffffffffffffffffffffffffffffff\n    /* \"#utility.yul\":404:409   */\n  dup3\n    /* \"#utility.yul\":400:454   */\n  and\n    /* \"#utility.yul\":389:454   */\n  swap1\n  pop\n    /* \"#utility.yul\":334:460   */\n  swap2\n  swap1\n  pop\n  jump\t// out\n    /* \"#utility.yul\":466:562   */\ntag_21:\n    /* \"#utility.yul\":503:510   */\n  0x00\n    /* \"#utility.yul\":532:556   */\n  tag_31\n    /* \"#utility.yul\":550:555   */\n  dup3\n    /* \"#utility.yul\":532:556   */\n  tag_20\n  jump\t// in\ntag_31:\n    /* \"#utility.yul\":521:556   */\n  swap1\n  pop\n    /* \"#utility.yul\":466:562   */\n  swap2\n  swap1\n  pop\n  jump\t// out\n    /* \"#utility.yul\":568:690   */\ntag_22:\n    /* \"#utility.yul\":641:665   */\n  tag_33\n    /* \"#utility.yul\":659:664   */\n  dup2\n    /* \"#utility.yul\":641:665   */\n  tag_21\n  jump\t// in\ntag_33:\n    /* \"#utility.yul\":634:639   */\n  dup2\n    /* \"#utility.yul\":631:666   */\n  eq\n    /* \"#utility.yul\":621:684   */\n  tag_34\n  jumpi\n    /* \"#utility.yul\":680:681   */\n  0x00\n    /* \"#utility.yul\":677:678   */\n  0x00\n    /* \"#utility.yul\":670:682   */\n  revert\n    /* \"#utility.yul\":621:684   */\ntag_34:\n    /* \"#utility.yul\":568:690   */\n  pop\n  jump\t// out\n    /* \"#utility.yul\":696:839   */\ntag_23:\n    /* \"#utility.yul\":753:758   */\n  0x00\n    /* \"#utility.yul\":784:790   */\n  dup2\n    /* \"#utility.yul\":778:791   */\n  mload\n    /* \"#utility.yul\":769:791   */\n  swap1\n  pop\n    /* \"#utility.yul\":800:833   */\n  tag_36\n    /* \"#utility.yul\":827:832   */\n  dup2\n    /* \"#utility.yul\":800:833   */\n  tag_22\n  jump\t// in\ntag_36:\n    /* \"#utility.yul\":696:839   */\n  swap3\n  swap2\n  pop\n  pop\n  jump\t// out\n    /* \"#utility.yul\":845:1352   */\ntag_3:\n    /* \"#utility.yul\":924:930   */\n  0x00\n    /* \"#utility.yul\":932:938   */\n  0x00\n    /* \"#utility.yul\":981:983   */\n  0x40\n    /* \"#utility.yul\":969:978   */\n  dup4\n    /* \"#utility.yul\":960:967   */\n  dup6\n    /* \"#utility.yul\":956:979   */\n  sub\n    /* \"#utility.yul\":952:984   */\n  slt\n    /* \"#utility.yul\":949:1068   */\n  iszero\n  tag_38\n  jumpi\n    /* \"#utility.yul\":987:1066   */\n  tag_39\n  tag_18\n  jump\t// in\ntag_39:\n    /* \"#utility.yul\":949:1068   */\ntag_38:\n    /* \"#utility.yul\":1107:1108   */\n  0x00\n    /* \"#utility.yul\":1132:1196   */\n  tag_40\n    /* \"#utility.yul\":1188:1195   */\n  dup6\n    /* \"#utility.yul\":1179:1185   */\n  dup3\n    /* \"#utility.yul\":1168:1177   */\n  dup7\n    /* \"#utility.yul\":1164:1186   */\n  add\n    /* \"#utility.yul\":1132:1196   */\n  tag_23\n  jump\t// in\ntag_40:\n    /* \"#utility.yul\":1122:1196   */\n  swap3\n  pop\n    /* \"#utility.yul\":1078:1206   */\n  pop\n    /* \"#utility.yul\":1245:1247   */\n  0x20\n    /* \"#utility.yul\":1271:1335   */\n  tag_41\n    /* \"#utility.yul\":1327:1334   */\n  dup6\n    /* \"#utility.yul\":1318:1324   */\n  dup3\n    /* \"#utility.yul\":1307:1316   */\n  dup7\n    /* \"#utility.yul\":1303:1325   */\n  add\n    /* \"#utility.yul\":1271:1335   */\n  tag_23\n  jump\t// in\ntag_41:\n    /* \"#utility.yul\":1261:1335   */\n  swap2\n  pop\n    /* \"#utility.yul\":1216:1345   */\n  pop\n    /* \"#utility.yul\":845:1352   */\n  swap3\n  pop\n  swap3\n  swap1\n  pop\n  jump\t// out\n    /* \"#utility.yul\":1358:1476   */\ntag_24:\n    /* \"#utility.yul\":1445:1469   */\n  tag_43\n    /* \"#utility.yul\":1463:1468   */\n  dup2\n    /* \"#utility.yul\":1445:1469   */\n  tag_21\n  jump\t// in\ntag_43:\n    /* \"#utility.yul\":1440:1443   */\n  dup3\n    /* \"#utility.yul\":1433:1470   */\n  mstore\n    /* \"#utility.yul\":1358:1476   */\n  pop\n  pop\n  jump\t// out\n    /* \"#utility.yul\":1482:1704   */\ntag_10:\n    /* \"#utility.yul\":1575:1579   */\n  0x00\n    /* \"#utility.yul\":1613:1615   */\n  0x20\n    /* \"#utility.yul\":1602:1611   */\n  dup3\n    /* \"#utility.yul\":1598:1616   */\n  add\n    /* \"#utility.yul\":1590:1616   */\n  swap1\n  pop\n    /* \"#utility.yul\":1626:1697   */\n  tag_45\n    /* \"#utility.yul\":1694:1695   */\n  0x00\n    /* \"#utility.yul\":1683:1692   */\n  dup4\n    /* \"#utility.yul\":1679:1696   */\n  add\n    /* \"#utility.yul\":1670:1676   */\n  dup5\n    /* \"#utility.yul\":1626:1697   */\n  tag_24\n  jump\t// in\ntag_45:\n    /* \"#utility.yul\":1482:1704   */\n  swap3\n  swap2\n  pop\n  pop\n  jump\t// out\n    /* \"Optimized.sol\":685:4447  contract investreAutoBuy is Ownable, Pausable, ReentrancyGuard {... */\ntag_15:\n  mload(0x80)\n  codecopy(0x00, dataOffset(sub_0), dataSize(sub_0))\n  0x00\n  assignImmutable(\"0x92d0077c1e5b3b21289711fe01d9a6df2f8384bad8f4115869b44ae61cfe56d9\")\n  return(0x00, dataSize(sub_0))\nstop\n\nsub_0: assembly {\n        /* \"Optimized.sol\":685:4447  contract investreAutoBuy is Ownable, Pausable, ReentrancyGuard {... */\n      mstore(0x40, 0x80)\n      callvalue\n      dup1\n      iszero\n      tag_1\n      jumpi\n      revert(0x00, 0x00)\n    tag_1:\n      pop\n      jumpi(tag_2, lt(calldatasize, 0x04))\n      shr(0xe0, calldataload(0x00))\n      dup1\n      0x612e3146\n      gt\n      tag_19\n      jumpi\n      dup1\n      0x9f1f61a0\n      gt\n      tag_20\n      jumpi\n      dup1\n      0x9f1f61a0\n      eq\n      tag_15\n      jumpi\n      dup1\n      0xa4518efb\n      eq\n      tag_16\n      jumpi\n      dup1\n      0xcac73ed7\n      eq\n      tag_17\n      jumpi\n      dup1\n      0xf2fde38b\n      eq\n      tag_18\n      jumpi\n      jump(tag_2)\n    tag_20:\n      dup1\n      0x612e3146\n      eq\n      tag_11\n      jumpi\n      dup1\n      0x715018a6\n      eq\n      tag_12\n      jumpi\n      dup1\n      0x8456cb59\n      eq\n      tag_13\n      jumpi\n      dup1\n      0x8da5cb5b\n      eq\n      tag_14\n      jumpi\n      jump(tag_2)\n    tag_19:\n      dup1\n      0x3f4ba83a\n      gt\n      tag_21\n      jumpi\n      dup1\n      0x3f4ba83a\n      eq\n      tag_7\n      jumpi\n      dup1\n      0x48fcdc7b\n      eq\n      tag_8\n      jumpi\n      dup1\n      0x57df19e6\n      eq\n      tag_9\n      jumpi\n      dup1\n      0x5c975abb\n      eq\n      tag_10\n      jumpi\n      jump(tag_2)\n    tag_21:\n      dup1\n      0x18c786af\n      eq\n      tag_3\n      jumpi\n      dup1\n      0x1e8bcca5\n      eq\n      tag_4\n      jumpi\n      dup1\n      0x2b15e47c\n      eq\n      tag_5\n      jumpi\n      dup1\n      0x3e413bee\n      eq\n      tag_6\n      jumpi\n    tag_2:\n      revert(0x00, 0x00)\n        /* \"Optimized.sol\":1078:1116  uint8 public constant OPENOCEAN_ID = 0 */\n    tag_3:\n      tag_22\n      tag_23\n      jump\t// in\n    tag_22:\n      mload(0x40)\n      tag_24\n      swap2\n      swap1\n      tag_25\n      jump\t// in\n    tag_24:\n      mload(0x40)\n      dup1\n      swap2\n      sub\n      swap1\n      return\n        /* \"Optimized.sol\":2459:3345  function batchAutoBuy(... */\n    tag_4:\n      tag_26\n      0x04\n      dup1\n      calldatasize\n      sub\n      dup2\n      add\n      swap1\n      tag_27\n      swap2\n      swap1\n      tag_28\n      jump\t// in\n    tag_27:\n      tag_29\n      jump\t// in\n    tag_26:\n      stop\n        /* \"Optimized.sol\":1653:2228  function approveAutoBuy(... */\n    tag_5:\n      tag_30\n      0x04\n      dup1\n      calldatasize\n      sub\n      dup2\n      add\n      swap1\n      tag_31\n      swap2\n      swap1\n      tag_32\n      jump\t// in\n    tag_31:\n      tag_33\n      jump\t// in\n    tag_30:\n      stop\n        /* \"Optimized.sol\":754:782  IERC20 public immutable usdc */\n    tag_6:\n      tag_34\n      tag_35\n      jump\t// in\n    tag_34:\n      mload(0x40)\n      tag_36\n      swap2\n      swap1\n      tag_37\n      jump\t// in\n    tag_36:\n      mload(0x40)\n      dup1\n      swap2\n      sub\n      swap1\n      return\n        /* \"Optimized.sol\":3498:3563  function unpause() external onlyOwner {... */\n    tag_7:\n      tag_38\n      tag_39\n      jump\t// in\n    tag_38:\n      stop\n        /* \"Optimized.sol\":1122:1160  uint8 public constant KYBERSWAP_ID = 1 */\n    tag_8:\n      tag_40\n      tag_41\n      jump\t// in\n    tag_40:\n      mload(0x40)\n      tag_42\n      swap2\n      swap1\n      tag_25\n      jump\t// in\n    tag_42:\n      mload(0x40)\n      dup1\n      swap2\n      sub\n      swap1\n      return\n        /* \"Optimized.sol\":4342:4445  function getKyberSwapRouter() external pure returns (address) {... */\n    tag_9:\n      tag_43\n      tag_44\n      jump\t// in\n    tag_43:\n      mload(0x40)\n      tag_45\n      swap2\n      swap1\n      tag_46\n      jump\t// in\n    tag_45:\n      mload(0x40)\n      dup1\n      swap2\n      sub\n      swap1\n      return\n        /* \"@openzeppelin/contracts/utils/Pausable.sol\":1726:1810  function paused() public view virtual returns (bool) {... */\n    tag_10:\n      tag_47\n      tag_48\n      jump\t// in\n    tag_47:\n      mload(0x40)\n      tag_49\n      swap2\n      swap1\n      tag_50\n      jump\t// in\n    tag_49:\n      mload(0x40)\n      dup1\n      swap2\n      sub\n      swap1\n      return\n        /* \"Optimized.sol\":4136:4239  function getOpenOceanRouter() external pure returns (address) {... */\n    tag_11:\n      tag_51\n      tag_52\n      jump\t// in\n    tag_51:\n      mload(0x40)\n      tag_53\n      swap2\n      swap1\n      tag_46\n      jump\t// in\n    tag_53:\n      mload(0x40)\n      dup1\n      swap2\n      sub\n      swap1\n      return\n        /* \"@openzeppelin/contracts/access/Ownable.sol\":2293:2394  function renounceOwnership() public virtual onlyOwner {... */\n    tag_12:\n      tag_54\n      tag_55\n      jump\t// in\n    tag_54:\n      stop\n        /* \"Optimized.sol\":3395:3456  function pause() external onlyOwner {... */\n    tag_13:\n      tag_56\n      tag_57\n      jump\t// in\n    tag_56:\n      stop\n        /* \"@openzeppelin/contracts/access/Ownable.sol\":1638:1723  function owner() public view virtual returns (address) {... */\n    tag_14:\n      tag_58\n      tag_59\n      jump\t// in\n    tag_58:\n      mload(0x40)\n      tag_60\n      swap2\n      swap1\n      tag_46\n      jump\t// in\n    tag_60:\n      mload(0x40)\n      dup1\n      swap2\n      sub\n      swap1\n      return\n        /* \"Optimized.sol\":934:1020  address public constant _KYBERSWAP_ROUTER = 0x6131B5fae19EA4f9D964eAc0408E4408b66337b5 */\n    tag_15:\n      tag_61\n      tag_62\n      jump\t// in\n    tag_61:\n      mload(0x40)\n      tag_63\n      swap2\n      swap1\n      tag_46\n      jump\t// in\n    tag_63:\n      mload(0x40)\n      dup1\n      swap2\n      sub\n      swap1\n      return\n        /* \"Optimized.sol\":842:928  address public constant _OPENOCEAN_ROUTER = 0x6352a56caadC4F1E25CD6c75970Fa768A3304e64 */\n    tag_16:\n      tag_64\n      tag_65\n      jump\t// in\n    tag_64:\n      mload(0x40)\n      tag_66\n      swap2\n      swap1\n      tag_46\n      jump\t// in\n    tag_66:\n      mload(0x40)\n      dup1\n      swap2\n      sub\n      swap1\n      return\n        /* \"Optimized.sol\":3721:4033  function getRouterAddress(uint8 routerId) external pure returns (address) {... */\n    tag_17:\n      tag_67\n      0x04\n      dup1\n      calldatasize\n      sub\n      dup2\n      add\n      swap1\n      tag_68\n      swap2\n      swap1\n      tag_69\n      jump\t// in\n    tag_68:\n      tag_70\n      jump\t// in\n    tag_67:\n      mload(0x40)\n      tag_71\n      swap2\n      swap1\n      tag_46\n      jump\t// in\n    tag_71:\n      mload(0x40)\n      dup1\n      swap2\n      sub\n      swap1\n      return\n        /* \"@openzeppelin/contracts/access/Ownable.sol\":2543:2758  function transferOwnership(address newOwner) public virtual onlyOwner {... */\n    tag_18:\n      tag_72\n      0x04\n      dup1\n      calldatasize\n      sub\n      dup2\n      add\n      swap1\n      tag_73\n      swap2\n      swap1\n      tag_74\n      jump\t// in\n    tag_73:\n      tag_75\n      jump\t// in\n    tag_72:\n      stop\n        /* \"Optimized.sol\":1078:1116  uint8 public constant OPENOCEAN_ID = 0 */\n    tag_23:\n        /* \"Optimized.sol\":1115:1116  0 */\n      0x00\n        /* \"Optimized.sol\":1078:1116  uint8 public constant OPENOCEAN_ID = 0 */\n      dup2\n      jump\t// out\n        /* \"Optimized.sol\":2459:3345  function batchAutoBuy(... */\n    tag_29:\n        /* \"@openzeppelin/contracts/access/Ownable.sol\":1531:1544  _checkOwner() */\n      tag_77\n        /* \"@openzeppelin/contracts/access/Ownable.sol\":1531:1542  _checkOwner */\n      tag_78\n        /* \"@openzeppelin/contracts/access/Ownable.sol\":1531:1544  _checkOwner() */\n      jump\t// in\n    tag_77:\n        /* \"@openzeppelin/contracts/utils/Pausable.sol\":1350:1369  _requireNotPaused() */\n      tag_80\n        /* \"@openzeppelin/contracts/utils/Pausable.sol\":1350:1367  _requireNotPaused */\n      tag_81\n        /* \"@openzeppelin/contracts/utils/Pausable.sol\":1350:1369  _requireNotPaused() */\n      jump\t// in\n    tag_80:\n        /* \"@openzeppelin/contracts/utils/ReentrancyGuard.sol\":2500:2521  _nonReentrantBefore() */\n      tag_83\n        /* \"@openzeppelin/contracts/utils/ReentrancyGuard.sol\":2500:2519  _nonReentrantBefore */\n      tag_84\n        /* \"@openzeppelin/contracts/utils/ReentrancyGuard.sol\":2500:2521  _nonReentrantBefore() */\n      jump\t// in\n    tag_83:\n        /* \"Optimized.sol\":2677:2688  usdcAmounts */\n      dup4\n      dup4\n        /* \"Optimized.sol\":2677:2695  usdcAmounts.length */\n      swap1\n      pop\n        /* \"Optimized.sol\":2661:2666  users */\n      dup7\n      dup7\n        /* \"Optimized.sol\":2661:2673  users.length */\n      swap1\n      pop\n        /* \"Optimized.sol\":2661:2695  users.length == usdcAmounts.length */\n      eq\n        /* \"Optimized.sol\":2661:2731  users.length == usdcAmounts.length && users.length == routerIds.length */\n      dup1\n      iszero\n      tag_86\n      jumpi\n      pop\n        /* \"Optimized.sol\":2715:2724  routerIds */\n      dup2\n      dup2\n        /* \"Optimized.sol\":2715:2731  routerIds.length */\n      swap1\n      pop\n        /* \"Optimized.sol\":2699:2704  users */\n      dup7\n      dup7\n        /* \"Optimized.sol\":2699:2711  users.length */\n      swap1\n      pop\n        /* \"Optimized.sol\":2699:2731  users.length == routerIds.length */\n      eq\n        /* \"Optimized.sol\":2661:2731  users.length == usdcAmounts.length && users.length == routerIds.length */\n    tag_86:\n        /* \"Optimized.sol\":2661:2754  users.length == usdcAmounts.length && users.length == routerIds.length && users.length <= 100 */\n      dup1\n      iszero\n      tag_87\n      jumpi\n      pop\n        /* \"Optimized.sol\":2751:2754  100 */\n      0x64\n        /* \"Optimized.sol\":2735:2740  users */\n      dup7\n      dup7\n        /* \"Optimized.sol\":2735:2747  users.length */\n      swap1\n      pop\n        /* \"Optimized.sol\":2735:2754  users.length <= 100 */\n      gt\n      iszero\n        /* \"Optimized.sol\":2661:2754  users.length == usdcAmounts.length && users.length == routerIds.length && users.length <= 100 */\n    tag_87:\n        /* \"Optimized.sol\":2653:2793  require(users.length == usdcAmounts.length && users.length == routerIds.length && users.length <= 100, \"Array length mismatch or too large\") */\n      tag_88\n      jumpi\n      mload(0x40)\n      0x08c379a000000000000000000000000000000000000000000000000000000000\n      dup2\n      mstore\n      0x04\n      add\n      tag_89\n      swap1\n      tag_90\n      jump\t// in\n    tag_89:\n      mload(0x40)\n      dup1\n      swap2\n      sub\n      swap1\n      revert\n    tag_88:\n        /* \"Optimized.sol\":2808:2817  uint256 i */\n      0x00\n        /* \"Optimized.sol\":2820:2821  0 */\n      0x00\n        /* \"Optimized.sol\":2808:2821  uint256 i = 0 */\n      swap1\n      pop\n        /* \"Optimized.sol\":2803:3339  for (uint256 i = 0; i < users.length; i++) {... */\n    tag_91:\n        /* \"Optimized.sol\":2827:2832  users */\n      dup7\n      dup7\n        /* \"Optimized.sol\":2827:2839  users.length */\n      swap1\n      pop\n        /* \"Optimized.sol\":2823:2824  i */\n      dup2\n        /* \"Optimized.sol\":2823:2839  i < users.length */\n      lt\n        /* \"Optimized.sol\":2803:3339  for (uint256 i = 0; i < users.length; i++) {... */\n      iszero\n      tag_92\n      jumpi\n        /* \"Optimized.sol\":2860:2874  address router */\n      0x00\n        /* \"Optimized.sol\":1115:1116  0 */\n      0x00\n        /* \"Optimized.sol\":2892:2920  routerIds[i] == OPENOCEAN_ID */\n      0xff\n      and\n        /* \"Optimized.sol\":2892:2901  routerIds */\n      dup5\n      dup5\n        /* \"Optimized.sol\":2902:2903  i */\n      dup5\n        /* \"Optimized.sol\":2892:2904  routerIds[i] */\n      dup2\n      dup2\n      lt\n      tag_94\n      jumpi\n      tag_95\n      tag_96\n      jump\t// in\n    tag_95:\n    tag_94:\n      swap1\n      pop\n      0x20\n      mul\n      add\n      0x20\n      dup2\n      add\n      swap1\n      tag_97\n      swap2\n      swap1\n      tag_69\n      jump\t// in\n    tag_97:\n        /* \"Optimized.sol\":2892:2920  routerIds[i] == OPENOCEAN_ID */\n      0xff\n      and\n      sub\n        /* \"Optimized.sol\":2888:3146  if (routerIds[i] == OPENOCEAN_ID) {... */\n      tag_98\n      jumpi\n        /* \"Optimized.sol\":886:928  0x6352a56caadC4F1E25CD6c75970Fa768A3304e64 */\n      0x6352a56caadc4f1e25cd6c75970fa768a3304e64\n        /* \"Optimized.sol\":2940:2966  router = _OPENOCEAN_ROUTER */\n      swap1\n      pop\n        /* \"Optimized.sol\":2888:3146  if (routerIds[i] == OPENOCEAN_ID) {... */\n      jump(tag_99)\n    tag_98:\n        /* \"Optimized.sol\":1159:1160  1 */\n      0x01\n        /* \"Optimized.sol\":2991:3019  routerIds[i] == KYBERSWAP_ID */\n      0xff\n      and\n        /* \"Optimized.sol\":2991:3000  routerIds */\n      dup5\n      dup5\n        /* \"Optimized.sol\":3001:3002  i */\n      dup5\n        /* \"Optimized.sol\":2991:3003  routerIds[i] */\n      dup2\n      dup2\n      lt\n      tag_100\n      jumpi\n      tag_101\n      tag_96\n      jump\t// in\n    tag_101:\n    tag_100:\n      swap1\n      pop\n      0x20\n      mul\n      add\n      0x20\n      dup2\n      add\n      swap1\n      tag_102\n      swap2\n      swap1\n      tag_69\n      jump\t// in\n    tag_102:\n        /* \"Optimized.sol\":2991:3019  routerIds[i] == KYBERSWAP_ID */\n      0xff\n      and\n      sub\n        /* \"Optimized.sol\":2987:3146  if (routerIds[i] == KYBERSWAP_ID) {... */\n      tag_103\n      jumpi\n        /* \"Optimized.sol\":978:1020  0x6131B5fae19EA4f9D964eAc0408E4408b66337b5 */\n      0x6131b5fae19ea4f9d964eac0408e4408b66337b5\n        /* \"Optimized.sol\":3039:3065  router = _KYBERSWAP_ROUTER */\n      swap1\n      pop\n        /* \"Optimized.sol\":2987:3146  if (routerIds[i] == KYBERSWAP_ID) {... */\n      jump(tag_104)\n    tag_103:\n        /* \"Optimized.sol\":3104:3131  revert(\"Invalid router ID\") */\n      mload(0x40)\n      0x08c379a000000000000000000000000000000000000000000000000000000000\n      dup2\n      mstore\n      0x04\n      add\n      tag_105\n      swap1\n      tag_106\n      jump\t// in\n    tag_105:\n      mload(0x40)\n      dup1\n      swap2\n      sub\n      swap1\n      revert\n        /* \"Optimized.sol\":2987:3146  if (routerIds[i] == KYBERSWAP_ID) {... */\n    tag_104:\n        /* \"Optimized.sol\":2888:3146  if (routerIds[i] == OPENOCEAN_ID) {... */\n    tag_99:\n        /* \"Optimized.sol\":3203:3214  usdcAmounts */\n      dup6\n      dup6\n        /* \"Optimized.sol\":3215:3216  i */\n      dup4\n        /* \"Optimized.sol\":3203:3217  usdcAmounts[i] */\n      dup2\n      dup2\n      lt\n      tag_107\n      jumpi\n      tag_108\n      tag_96\n      jump\t// in\n    tag_108:\n    tag_107:\n      swap1\n      pop\n      0x20\n      mul\n      add\n      calldataload\n        /* \"Optimized.sol\":3167:3171  usdc */\n      immutable(\"0x92d0077c1e5b3b21289711fe01d9a6df2f8384bad8f4115869b44ae61cfe56d9\")\n        /* \"Optimized.sol\":3167:3181  usdc.allowance */\n      0xffffffffffffffffffffffffffffffffffffffff\n      and\n      0xdd62ed3e\n        /* \"Optimized.sol\":3182:3187  users */\n      dup11\n      dup11\n        /* \"Optimized.sol\":3188:3189  i */\n      dup7\n        /* \"Optimized.sol\":3182:3190  users[i] */\n      dup2\n      dup2\n      lt\n      tag_109\n      jumpi\n      tag_110\n      tag_96\n      jump\t// in\n    tag_110:\n    tag_109:\n      swap1\n      pop\n      0x20\n      mul\n      add\n      0x20\n      dup2\n      add\n      swap1\n      tag_111\n      swap2\n      swap1\n      tag_74\n      jump\t// in\n    tag_111:\n        /* \"Optimized.sol\":3192:3198  router */\n      dup5\n        /* \"Optimized.sol\":3167:3199  usdc.allowance(users[i], router) */\n      mload(0x40)\n      dup4\n      0xffffffff\n      and\n      0xe0\n      shl\n      dup2\n      mstore\n      0x04\n      add\n      tag_112\n      swap3\n      swap2\n      swap1\n      tag_113\n      jump\t// in\n    tag_112:\n      0x20\n      mload(0x40)\n      dup1\n      dup4\n      sub\n      dup2\n      dup7\n      gas\n      staticcall\n      iszero\n      dup1\n      iszero\n      tag_115\n      jumpi\n      returndatacopy(0x00, 0x00, returndatasize)\n      revert(0x00, returndatasize)\n    tag_115:\n      pop\n      pop\n      pop\n      pop\n      mload(0x40)\n      returndatasize\n      not(0x1f)\n      0x1f\n      dup3\n      add\n      and\n      dup3\n      add\n      dup1\n      0x40\n      mstore\n      pop\n      dup2\n      add\n      swap1\n      tag_116\n      swap2\n      swap1\n      tag_117\n      jump\t// in\n    tag_116:\n        /* \"Optimized.sol\":3167:3217  usdc.allowance(users[i], router) >= usdcAmounts[i] */\n      lt\n      iszero\n        /* \"Optimized.sol\":3159:3260  require(usdc.allowance(users[i], router) >= usdcAmounts[i], \"Insufficient USDC allowance for router\") */\n      tag_118\n      jumpi\n      mload(0x40)\n      0x08c379a000000000000000000000000000000000000000000000000000000000\n      dup2\n      mstore\n      0x04\n      add\n      tag_119\n      swap1\n      tag_120\n      jump\t// in\n    tag_119:\n      mload(0x40)\n      dup1\n      swap2\n      sub\n      swap1\n      revert\n    tag_118:\n        /* \"Optimized.sol\":3321:3327  router */\n      dup1\n        /* \"Optimized.sol\":3279:3328  AutoBuyApproved(users[i], usdcAmounts[i], router) */\n      0xffffffffffffffffffffffffffffffffffffffff\n      and\n        /* \"Optimized.sol\":3295:3300  users */\n      dup9\n      dup9\n        /* \"Optimized.sol\":3301:3302  i */\n      dup5\n        /* \"Optimized.sol\":3295:3303  users[i] */\n      dup2\n      dup2\n      lt\n      tag_121\n      jumpi\n      tag_122\n      tag_96\n      jump\t// in\n    tag_122:\n    tag_121:\n      swap1\n      pop\n      0x20\n      mul\n      add\n      0x20\n      dup2\n      add\n      swap1\n      tag_123\n      swap2\n      swap1\n      tag_74\n      jump\t// in\n    tag_123:\n        /* \"Optimized.sol\":3279:3328  AutoBuyApproved(users[i], usdcAmounts[i], router) */\n      0xffffffffffffffffffffffffffffffffffffffff\n      and\n      0xeab9cd112c05d2451f24acf7702297c9705b2115923d562c663c5272a60fe76f\n        /* \"Optimized.sol\":3305:3316  usdcAmounts */\n      dup9\n      dup9\n        /* \"Optimized.sol\":3317:3318  i */\n      dup7\n        /* \"Optimized.sol\":3305:3319  usdcAmounts[i] */\n      dup2\n      dup2\n      lt\n      tag_124\n      jumpi\n      tag_125\n      tag_96\n      jump\t// in\n    tag_125:\n    tag_124:\n      swap1\n      pop\n      0x20\n      mul\n      add\n      calldataload\n        /* \"Optimized.sol\":3279:3328  AutoBuyApproved(users[i], usdcAmounts[i], router) */\n      mload(0x40)\n      tag_126\n      swap2\n      swap1\n      tag_127\n      jump\t// in\n    tag_126:\n      mload(0x40)\n      dup1\n      swap2\n      sub\n      swap1\n      log3\n        /* \"Optimized.sol\":2846:3339  {... */\n      pop\n        /* \"Optimized.sol\":2841:2844  i++ */\n      dup1\n      dup1\n      0x01\n      add\n      swap2\n      pop\n      pop\n        /* \"Optimized.sol\":2803:3339  for (uint256 i = 0; i < users.length; i++) {... */\n      jump(tag_91)\n    tag_92:\n      pop\n        /* \"@openzeppelin/contracts/utils/ReentrancyGuard.sol\":2542:2562  _nonReentrantAfter() */\n      tag_128\n        /* \"@openzeppelin/contracts/utils/ReentrancyGuard.sol\":2542:2560  _nonReentrantAfter */\n      tag_129\n        /* \"@openzeppelin/contracts/utils/ReentrancyGuard.sol\":2542:2562  _nonReentrantAfter() */\n      jump\t// in\n    tag_128:\n        /* \"Optimized.sol\":2459:3345  function batchAutoBuy(... */\n      pop\n      pop\n      pop\n      pop\n      pop\n      pop\n      jump\t// out\n        /* \"Optimized.sol\":1653:2228  function approveAutoBuy(... */\n    tag_33:\n        /* \"@openzeppelin/contracts/access/Ownable.sol\":1531:1544  _checkOwner() */\n      tag_131\n        /* \"@openzeppelin/contracts/access/Ownable.sol\":1531:1542  _checkOwner */\n      tag_78\n        /* \"@openzeppelin/contracts/access/Ownable.sol\":1531:1544  _checkOwner() */\n      jump\t// in\n    tag_131:\n        /* \"@openzeppelin/contracts/utils/Pausable.sol\":1350:1369  _requireNotPaused() */\n      tag_133\n        /* \"@openzeppelin/contracts/utils/Pausable.sol\":1350:1367  _requireNotPaused */\n      tag_81\n        /* \"@openzeppelin/contracts/utils/Pausable.sol\":1350:1369  _requireNotPaused() */\n      jump\t// in\n    tag_133:\n        /* \"@openzeppelin/contracts/utils/ReentrancyGuard.sol\":2500:2521  _nonReentrantBefore() */\n      tag_135\n        /* \"@openzeppelin/contracts/utils/ReentrancyGuard.sol\":2500:2519  _nonReentrantBefore */\n      tag_84\n        /* \"@openzeppelin/contracts/utils/ReentrancyGuard.sol\":2500:2521  _nonReentrantBefore() */\n      jump\t// in\n    tag_135:\n        /* \"Optimized.sol\":1813:1827  address router */\n      0x00\n        /* \"Optimized.sol\":1115:1116  0 */\n      0x00\n        /* \"Optimized.sol\":1841:1865  routerId == OPENOCEAN_ID */\n      0xff\n      and\n        /* \"Optimized.sol\":1841:1849  routerId */\n      dup3\n        /* \"Optimized.sol\":1841:1865  routerId == OPENOCEAN_ID */\n      0xff\n      and\n      sub\n        /* \"Optimized.sol\":1837:2063  if (routerId == OPENOCEAN_ID) {... */\n      tag_137\n      jumpi\n        /* \"Optimized.sol\":886:928  0x6352a56caadC4F1E25CD6c75970Fa768A3304e64 */\n      0x6352a56caadc4f1e25cd6c75970fa768a3304e64\n        /* \"Optimized.sol\":1881:1907  router = _OPENOCEAN_ROUTER */\n      swap1\n      pop\n        /* \"Optimized.sol\":1837:2063  if (routerId == OPENOCEAN_ID) {... */\n      jump(tag_138)\n    tag_137:\n        /* \"Optimized.sol\":1159:1160  1 */\n      0x01\n        /* \"Optimized.sol\":1928:1952  routerId == KYBERSWAP_ID */\n      0xff\n      and\n        /* \"Optimized.sol\":1928:1936  routerId */\n      dup3\n        /* \"Optimized.sol\":1928:1952  routerId == KYBERSWAP_ID */\n      0xff\n      and\n      sub\n        /* \"Optimized.sol\":1924:2063  if (routerId == KYBERSWAP_ID) {... */\n      tag_139\n      jumpi\n        /* \"Optimized.sol\":978:1020  0x6131B5fae19EA4f9D964eAc0408E4408b66337b5 */\n      0x6131b5fae19ea4f9d964eac0408e4408b66337b5\n        /* \"Optimized.sol\":1968:1994  router = _KYBERSWAP_ROUTER */\n      swap1\n      pop\n        /* \"Optimized.sol\":1924:2063  if (routerId == KYBERSWAP_ID) {... */\n      jump(tag_140)\n    tag_139:\n        /* \"Optimized.sol\":2025:2052  revert(\"Invalid router ID\") */\n      mload(0x40)\n      0x08c379a000000000000000000000000000000000000000000000000000000000\n      dup2\n      mstore\n      0x04\n      add\n      tag_141\n      swap1\n      tag_106\n      jump\t// in\n    tag_141:\n      mload(0x40)\n      dup1\n      swap2\n      sub\n      swap1\n      revert\n        /* \"Optimized.sol\":1924:2063  if (routerId == KYBERSWAP_ID) {... */\n    tag_140:\n        /* \"Optimized.sol\":1837:2063  if (routerId == OPENOCEAN_ID) {... */\n    tag_138:\n        /* \"Optimized.sol\":2112:2122  usdcAmount */\n      dup3\n        /* \"Optimized.sol\":2080:2084  usdc */\n      immutable(\"0x92d0077c1e5b3b21289711fe01d9a6df2f8384bad8f4115869b44ae61cfe56d9\")\n        /* \"Optimized.sol\":2080:2094  usdc.allowance */\n      0xffffffffffffffffffffffffffffffffffffffff\n      and\n      0xdd62ed3e\n        /* \"Optimized.sol\":2095:2099  user */\n      dup7\n        /* \"Optimized.sol\":2101:2107  router */\n      dup5\n        /* \"Optimized.sol\":2080:2108  usdc.allowance(user, router) */\n      mload(0x40)\n      dup4\n      0xffffffff\n      and\n      0xe0\n      shl\n      dup2\n      mstore\n      0x04\n      add\n      tag_142\n      swap3\n      swap2\n      swap1\n      tag_113\n      jump\t// in\n    tag_142:\n      0x20\n      mload(0x40)\n      dup1\n      dup4\n      sub\n      dup2\n      dup7\n      gas\n      staticcall\n      iszero\n      dup1\n      iszero\n      tag_144\n      jumpi\n      returndatacopy(0x00, 0x00, returndatasize)\n      revert(0x00, returndatasize)\n    tag_144:\n      pop\n      pop\n      pop\n      pop\n      mload(0x40)\n      returndatasize\n      not(0x1f)\n      0x1f\n      dup3\n      add\n      and\n      dup3\n      add\n      dup1\n      0x40\n      mstore\n      pop\n      dup2\n      add\n      swap1\n      tag_145\n      swap2\n      swap1\n      tag_117\n      jump\t// in\n    tag_145:\n        /* \"Optimized.sol\":2080:2122  usdc.allowance(user, router) >= usdcAmount */\n      lt\n      iszero\n        /* \"Optimized.sol\":2072:2165  require(usdc.allowance(user, router) >= usdcAmount, \"Insufficient USDC allowance for router\") */\n      tag_146\n      jumpi\n      mload(0x40)\n      0x08c379a000000000000000000000000000000000000000000000000000000000\n      dup2\n      mstore\n      0x04\n      add\n      tag_147\n      swap1\n      tag_120\n      jump\t// in\n    tag_147:\n      mload(0x40)\n      dup1\n      swap2\n      sub\n      swap1\n      revert\n    tag_146:\n        /* \"Optimized.sol\":2214:2220  router */\n      dup1\n        /* \"Optimized.sol\":2180:2221  AutoBuyApproved(user, usdcAmount, router) */\n      0xffffffffffffffffffffffffffffffffffffffff\n      and\n        /* \"Optimized.sol\":2196:2200  user */\n      dup5\n        /* \"Optimized.sol\":2180:2221  AutoBuyApproved(user, usdcAmount, router) */\n      0xffffffffffffffffffffffffffffffffffffffff\n      and\n      0xeab9cd112c05d2451f24acf7702297c9705b2115923d562c663c5272a60fe76f\n        /* \"Optimized.sol\":2202:2212  usdcAmount */\n      dup6\n        /* \"Optimized.sol\":2180:2221  AutoBuyApproved(user, usdcAmount, router) */\n      mload(0x40)\n      tag_148\n      swap2\n      swap1\n      tag_127\n      jump\t// in\n    tag_148:\n      mload(0x40)\n      dup1\n      swap2\n      sub\n      swap1\n      log3\n        /* \"Optimized.sol\":1803:2228  {... */\n      pop\n        /* \"@openzeppelin/contracts/utils/ReentrancyGuard.sol\":2542:2562  _nonReentrantAfter() */\n      tag_149\n        /* \"@openzeppelin/contracts/utils/ReentrancyGuard.sol\":2542:2560  _nonReentrantAfter */\n      tag_129\n        /* \"@openzeppelin/contracts/utils/ReentrancyGuard.sol\":2542:2562  _nonReentrantAfter() */\n      jump\t// in\n    tag_149:\n        /* \"Optimized.sol\":1653:2228  function approveAutoBuy(... */\n      pop\n      pop\n      pop\n      jump\t// out\n        /* \"Optimized.sol\":754:782  IERC20 public immutable usdc */\n    tag_35:\n      immutable(\"0x92d0077c1e5b3b21289711fe01d9a6df2f8384bad8f4115869b44ae61cfe56d9\")\n      dup2\n      jump\t// out\n        /* \"Optimized.sol\":3498:3563  function unpause() external onlyOwner {... */\n    tag_39:\n        /* \"@openzeppelin/contracts/access/Ownable.sol\":1531:1544  _checkOwner() */\n      tag_151\n        /* \"@openzeppelin/contracts/access/Ownable.sol\":1531:1542  _checkOwner */\n      tag_78\n        /* \"@openzeppelin/contracts/access/Ownable.sol\":1531:1544  _checkOwner() */\n      jump\t// in\n    tag_151:\n        /* \"Optimized.sol\":3546:3556  _unpause() */\n      tag_153\n        /* \"Optimized.sol\":3546:3554  _unpause */\n      tag_154\n        /* \"Optimized.sol\":3546:3556  _unpause() */\n      jump\t// in\n    tag_153:\n        /* \"Optimized.sol\":3498:3563  function unpause() external onlyOwner {... */\n      jump\t// out\n        /* \"Optimized.sol\":1122:1160  uint8 public constant KYBERSWAP_ID = 1 */\n    tag_41:\n        /* \"Optimized.sol\":1159:1160  1 */\n      0x01\n        /* \"Optimized.sol\":1122:1160  uint8 public constant KYBERSWAP_ID = 1 */\n      dup2\n      jump\t// out\n        /* \"Optimized.sol\":4342:4445  function getKyberSwapRouter() external pure returns (address) {... */\n    tag_44:\n        /* \"Optimized.sol\":4395:4402  address */\n      0x00\n        /* \"Optimized.sol\":978:1020  0x6131B5fae19EA4f9D964eAc0408E4408b66337b5 */\n      0x6131b5fae19ea4f9d964eac0408e4408b66337b5\n        /* \"Optimized.sol\":4414:4438  return _KYBERSWAP_ROUTER */\n      swap1\n      pop\n        /* \"Optimized.sol\":4342:4445  function getKyberSwapRouter() external pure returns (address) {... */\n      swap1\n      jump\t// out\n        /* \"@openzeppelin/contracts/utils/Pausable.sol\":1726:1810  function paused() public view virtual returns (bool) {... */\n    tag_48:\n        /* \"@openzeppelin/contracts/utils/Pausable.sol\":1773:1777  bool */\n      0x00\n        /* \"@openzeppelin/contracts/utils/Pausable.sol\":1796:1803  _paused */\n      0x00\n      0x14\n      swap1\n      sload\n      swap1\n      0x0100\n      exp\n      swap1\n      div\n      0xff\n      and\n        /* \"@openzeppelin/contracts/utils/Pausable.sol\":1789:1803  return _paused */\n      swap1\n      pop\n        /* \"@openzeppelin/contracts/utils/Pausable.sol\":1726:1810  function paused() public view virtual returns (bool) {... */\n      swap1\n      jump\t// out\n        /* \"Optimized.sol\":4136:4239  function getOpenOceanRouter() external pure returns (address) {... */\n    tag_52:\n        /* \"Optimized.sol\":4189:4196  address */\n      0x00\n        /* \"Optimized.sol\":886:928  0x6352a56caadC4F1E25CD6c75970Fa768A3304e64 */\n      0x6352a56caadc4f1e25cd6c75970fa768a3304e64\n        /* \"Optimized.sol\":4208:4232  return _OPENOCEAN_ROUTER */\n      swap1\n      pop\n        /* \"Optimized.sol\":4136:4239  function getOpenOceanRouter() external pure returns (address) {... */\n      swap1\n      jump\t// out\n        /* \"@openzeppelin/contracts/access/Ownable.sol\":2293:2394  function renounceOwnership() public virtual onlyOwner {... */\n    tag_55:\n        /* \"@openzeppelin/contracts/access/Ownable.sol\":1531:1544  _checkOwner() */\n      tag_159\n        /* \"@openzeppelin/contracts/access/Ownable.sol\":1531:1542  _checkOwner */\n      tag_78\n        /* \"@openzeppelin/contracts/access/Ownable.sol\":1531:1544  _checkOwner() */\n      jump\t// in\n    tag_159:\n        /* \"@openzeppelin/contracts/access/Ownable.sol\":2357:2387  _transferOwnership(address(0)) */\n      tag_161\n        /* \"@openzeppelin/contracts/access/Ownable.sol\":2384:2385  0 */\n      0x00\n        /* \"@openzeppelin/contracts/access/Ownable.sol\":2357:2375  _transferOwnership */\n      tag_162\n        /* \"@openzeppelin/contracts/access/Ownable.sol\":2357:2387  _transferOwnership(address(0)) */\n      jump\t// in\n    tag_161:\n        /* \"@openzeppelin/contracts/access/Ownable.sol\":2293:2394  function renounceOwnership() public virtual onlyOwner {... */\n      jump\t// out\n        /* \"Optimized.sol\":3395:3456  function pause() external onlyOwner {... */\n    tag_57:\n        /* \"@openzeppelin/contracts/access/Ownable.sol\":1531:1544  _checkOwner() */\n      tag_164\n        /* \"@openzeppelin/contracts/access/Ownable.sol\":1531:1542  _checkOwner */\n      tag_78\n        /* \"@openzeppelin/contracts/access/Ownable.sol\":1531:1544  _checkOwner() */\n      jump\t// in\n    tag_164:\n        /* \"Optimized.sol\":3441:3449  _pause() */\n      tag_166\n        /* \"Optimized.sol\":3441:3447  _pause */\n      tag_167\n        /* \"Optimized.sol\":3441:3449  _pause() */\n      jump\t// in\n    tag_166:\n        /* \"Optimized.sol\":3395:3456  function pause() external onlyOwner {... */\n      jump\t// out\n        /* \"@openzeppelin/contracts/access/Ownable.sol\":1638:1723  function owner() public view virtual returns (address) {... */\n    tag_59:\n        /* \"@openzeppelin/contracts/access/Ownable.sol\":1684:1691  address */\n      0x00\n        /* \"@openzeppelin/contracts/access/Ownable.sol\":1710:1716  _owner */\n      0x00\n      0x00\n      swap1\n      sload\n      swap1\n      0x0100\n      exp\n      swap1\n      div\n      0xffffffffffffffffffffffffffffffffffffffff\n      and\n        /* \"@openzeppelin/contracts/access/Ownable.sol\":1703:1716  return _owner */\n      swap1\n      pop\n        /* \"@openzeppelin/contracts/access/Ownable.sol\":1638:1723  function owner() public view virtual returns (address) {... */\n      swap1\n      jump\t// out\n        /* \"Optimized.sol\":934:1020  address public constant _KYBERSWAP_ROUTER = 0x6131B5fae19EA4f9D964eAc0408E4408b66337b5 */\n    tag_62:\n        /* \"Optimized.sol\":978:1020  0x6131B5fae19EA4f9D964eAc0408E4408b66337b5 */\n      0x6131b5fae19ea4f9d964eac0408e4408b66337b5\n        /* \"Optimized.sol\":934:1020  address public constant _KYBERSWAP_ROUTER = 0x6131B5fae19EA4f9D964eAc0408E4408b66337b5 */\n      dup2\n      jump\t// out\n        /* \"Optimized.sol\":842:928  address public constant _OPENOCEAN_ROUTER = 0x6352a56caadC4F1E25CD6c75970Fa768A3304e64 */\n    tag_65:\n        /* \"Optimized.sol\":886:928  0x6352a56caadC4F1E25CD6c75970Fa768A3304e64 */\n      0x6352a56caadc4f1e25cd6c75970fa768a3304e64\n        /* \"Optimized.sol\":842:928  address public constant _OPENOCEAN_ROUTER = 0x6352a56caadC4F1E25CD6c75970Fa768A3304e64 */\n      dup2\n      jump\t// out\n        /* \"Optimized.sol\":3721:4033  function getRouterAddress(uint8 routerId) external pure returns (address) {... */\n    tag_70:\n        /* \"Optimized.sol\":3786:3793  address */\n      0x00\n        /* \"Optimized.sol\":1115:1116  0 */\n      0x00\n        /* \"Optimized.sol\":3809:3833  routerId == OPENOCEAN_ID */\n      0xff\n      and\n        /* \"Optimized.sol\":3809:3817  routerId */\n      dup3\n        /* \"Optimized.sol\":3809:3833  routerId == OPENOCEAN_ID */\n      0xff\n      and\n      sub\n        /* \"Optimized.sol\":3805:4027  if (routerId == OPENOCEAN_ID) {... */\n      tag_170\n      jumpi\n        /* \"Optimized.sol\":886:928  0x6352a56caadC4F1E25CD6c75970Fa768A3304e64 */\n      0x6352a56caadc4f1e25cd6c75970fa768a3304e64\n        /* \"Optimized.sol\":3849:3873  return _OPENOCEAN_ROUTER */\n      swap1\n      pop\n      jump(tag_169)\n        /* \"Optimized.sol\":3805:4027  if (routerId == OPENOCEAN_ID) {... */\n    tag_170:\n        /* \"Optimized.sol\":1159:1160  1 */\n      0x01\n        /* \"Optimized.sol\":3894:3918  routerId == KYBERSWAP_ID */\n      0xff\n      and\n        /* \"Optimized.sol\":3894:3902  routerId */\n      dup3\n        /* \"Optimized.sol\":3894:3918  routerId == KYBERSWAP_ID */\n      0xff\n      and\n      sub\n        /* \"Optimized.sol\":3890:4027  if (routerId == KYBERSWAP_ID) {... */\n      tag_172\n      jumpi\n        /* \"Optimized.sol\":978:1020  0x6131B5fae19EA4f9D964eAc0408E4408b66337b5 */\n      0x6131b5fae19ea4f9d964eac0408e4408b66337b5\n        /* \"Optimized.sol\":3934:3958  return _KYBERSWAP_ROUTER */\n      swap1\n      pop\n      jump(tag_169)\n        /* \"Optimized.sol\":3890:4027  if (routerId == KYBERSWAP_ID) {... */\n    tag_172:\n        /* \"Optimized.sol\":3989:4016  revert(\"Invalid router ID\") */\n      mload(0x40)\n      0x08c379a000000000000000000000000000000000000000000000000000000000\n      dup2\n      mstore\n      0x04\n      add\n      tag_174\n      swap1\n      tag_106\n      jump\t// in\n    tag_174:\n      mload(0x40)\n      dup1\n      swap2\n      sub\n      swap1\n      revert\n        /* \"Optimized.sol\":3721:4033  function getRouterAddress(uint8 routerId) external pure returns (address) {... */\n    tag_169:\n      swap2\n      swap1\n      pop\n      jump\t// out\n        /* \"@openzeppelin/contracts/access/Ownable.sol\":2543:2758  function transferOwnership(address newOwner) public virtual onlyOwner {... */\n    tag_75:\n        /* \"@openzeppelin/contracts/access/Ownable.sol\":1531:1544  _checkOwner() */\n      tag_176\n        /* \"@openzeppelin/contracts/access/Ownable.sol\":1531:1542  _checkOwner */\n      tag_78\n        /* \"@openzeppelin/contracts/access/Ownable.sol\":1531:1544  _checkOwner() */\n      jump\t// in\n    tag_176:\n        /* \"@openzeppelin/contracts/access/Ownable.sol\":2647:2648  0 */\n      0x00\n        /* \"@openzeppelin/contracts/access/Ownable.sol\":2627:2649  newOwner == address(0) */\n      0xffffffffffffffffffffffffffffffffffffffff\n      and\n        /* \"@openzeppelin/contracts/access/Ownable.sol\":2627:2635  newOwner */\n      dup2\n        /* \"@openzeppelin/contracts/access/Ownable.sol\":2627:2649  newOwner == address(0) */\n      0xffffffffffffffffffffffffffffffffffffffff\n      and\n      sub\n        /* \"@openzeppelin/contracts/access/Ownable.sol\":2623:2714  if (newOwner == address(0)) {... */\n      tag_178\n      jumpi\n        /* \"@openzeppelin/contracts/access/Ownable.sol\":2700:2701  0 */\n      0x00\n        /* \"@openzeppelin/contracts/access/Ownable.sol\":2672:2703  OwnableInvalidOwner(address(0)) */\n      mload(0x40)\n      0x1e4fbdf700000000000000000000000000000000000000000000000000000000\n      dup2\n      mstore\n      0x04\n      add\n      tag_179\n      swap2\n      swap1\n      tag_46\n      jump\t// in\n    tag_179:\n      mload(0x40)\n      dup1\n      swap2\n      sub\n      swap1\n      revert\n        /* \"@openzeppelin/contracts/access/Ownable.sol\":2623:2714  if (newOwner == address(0)) {... */\n    tag_178:\n        /* \"@openzeppelin/contracts/access/Ownable.sol\":2723:2751  _transferOwnership(newOwner) */\n      tag_180\n        /* \"@openzeppelin/contracts/access/Ownable.sol\":2742:2750  newOwner */\n      dup2\n        /* \"@openzeppelin/contracts/access/Ownable.sol\":2723:2741  _transferOwnership */\n      tag_162\n        /* \"@openzeppelin/contracts/access/Ownable.sol\":2723:2751  _transferOwnership(newOwner) */\n      jump\t// in\n    tag_180:\n        /* \"@openzeppelin/contracts/access/Ownable.sol\":2543:2758  function transferOwnership(address newOwner) public virtual onlyOwner {... */\n      pop\n      jump\t// out\n        /* \"@openzeppelin/contracts/access/Ownable.sol\":1796:1958  function _checkOwner() internal view virtual {... */\n    tag_78:\n        /* \"@openzeppelin/contracts/access/Ownable.sol\":1866:1878  _msgSender() */\n      tag_182\n        /* \"@openzeppelin/contracts/access/Ownable.sol\":1866:1876  _msgSender */\n      tag_183\n        /* \"@openzeppelin/contracts/access/Ownable.sol\":1866:1878  _msgSender() */\n      jump\t// in\n    tag_182:\n        /* \"@openzeppelin/contracts/access/Ownable.sol\":1855:1878  owner() != _msgSender() */\n      0xffffffffffffffffffffffffffffffffffffffff\n      and\n        /* \"@openzeppelin/contracts/access/Ownable.sol\":1855:1862  owner() */\n      tag_184\n        /* \"@openzeppelin/contracts/access/Ownable.sol\":1855:1860  owner */\n      tag_59\n        /* \"@openzeppelin/contracts/access/Ownable.sol\":1855:1862  owner() */\n      jump\t// in\n    tag_184:\n        /* \"@openzeppelin/contracts/access/Ownable.sol\":1855:1878  owner() != _msgSender() */\n      0xffffffffffffffffffffffffffffffffffffffff\n      and\n      eq\n        /* \"@openzeppelin/contracts/access/Ownable.sol\":1851:1952  if (owner() != _msgSender()) {... */\n      tag_185\n      jumpi\n        /* \"@openzeppelin/contracts/access/Ownable.sol\":1928:1940  _msgSender() */\n      tag_186\n        /* \"@openzeppelin/contracts/access/Ownable.sol\":1928:1938  _msgSender */\n      tag_183\n        /* \"@openzeppelin/contracts/access/Ownable.sol\":1928:1940  _msgSender() */\n      jump\t// in\n    tag_186:\n        /* \"@openzeppelin/contracts/access/Ownable.sol\":1901:1941  OwnableUnauthorizedAccount(_msgSender()) */\n      mload(0x40)\n      0x118cdaa700000000000000000000000000000000000000000000000000000000\n      dup2\n      mstore\n      0x04\n      add\n      tag_187\n      swap2\n      swap1\n      tag_46\n      jump\t// in\n    tag_187:\n      mload(0x40)\n      dup1\n      swap2\n      sub\n      swap1\n      revert\n        /* \"@openzeppelin/contracts/access/Ownable.sol\":1851:1952  if (owner() != _msgSender()) {... */\n    tag_185:\n        /* \"@openzeppelin/contracts/access/Ownable.sol\":1796:1958  function _checkOwner() internal view virtual {... */\n      jump\t// out\n        /* \"@openzeppelin/contracts/utils/Pausable.sol\":1878:2006  function _requireNotPaused() internal view virtual {... */\n    tag_81:\n        /* \"@openzeppelin/contracts/utils/Pausable.sol\":1943:1951  paused() */\n      tag_189\n        /* \"@openzeppelin/contracts/utils/Pausable.sol\":1943:1949  paused */\n      tag_48\n        /* \"@openzeppelin/contracts/utils/Pausable.sol\":1943:1951  paused() */\n      jump\t// in\n    tag_189:\n        /* \"@openzeppelin/contracts/utils/Pausable.sol\":1939:2000  if (paused()) {... */\n      iszero\n      tag_190\n      jumpi\n        /* \"@openzeppelin/contracts/utils/Pausable.sol\":1974:1989  EnforcedPause() */\n      mload(0x40)\n      0xd93c066500000000000000000000000000000000000000000000000000000000\n      dup2\n      mstore\n      0x04\n      add\n      mload(0x40)\n      dup1\n      swap2\n      sub\n      swap1\n      revert\n        /* \"@openzeppelin/contracts/utils/Pausable.sol\":1939:2000  if (paused()) {... */\n    tag_190:\n        /* \"@openzeppelin/contracts/utils/Pausable.sol\":1878:2006  function _requireNotPaused() internal view virtual {... */\n      jump\t// out\n        /* \"@openzeppelin/contracts/utils/ReentrancyGuard.sol\":2575:2882  function _nonReentrantBefore() private {... */\n    tag_84:\n        /* \"@openzeppelin/contracts/utils/ReentrancyGuard.sol\":1899:1900  2 */\n      0x02\n        /* \"@openzeppelin/contracts/utils/ReentrancyGuard.sol\":2702:2709  _status */\n      sload(0x01)\n        /* \"@openzeppelin/contracts/utils/ReentrancyGuard.sol\":2702:2720  _status == ENTERED */\n      sub\n        /* \"@openzeppelin/contracts/utils/ReentrancyGuard.sol\":2698:2784  if (_status == ENTERED) {... */\n      tag_192\n      jumpi\n        /* \"@openzeppelin/contracts/utils/ReentrancyGuard.sol\":2743:2773  ReentrancyGuardReentrantCall() */\n      mload(0x40)\n      0x3ee5aeb500000000000000000000000000000000000000000000000000000000\n      dup2\n      mstore\n      0x04\n      add\n      mload(0x40)\n      dup1\n      swap2\n      sub\n      swap1\n      revert\n        /* \"@openzeppelin/contracts/utils/ReentrancyGuard.sol\":2698:2784  if (_status == ENTERED) {... */\n    tag_192:\n        /* \"@openzeppelin/contracts/utils/ReentrancyGuard.sol\":1899:1900  2 */\n      0x02\n        /* \"@openzeppelin/contracts/utils/ReentrancyGuard.sol\":2858:2865  _status */\n      0x01\n        /* \"@openzeppelin/contracts/utils/ReentrancyGuard.sol\":2858:2875  _status = ENTERED */\n      dup2\n      swap1\n      sstore\n      pop\n        /* \"@openzeppelin/contracts/utils/ReentrancyGuard.sol\":2575:2882  function _nonReentrantBefore() private {... */\n      jump\t// out\n        /* \"@openzeppelin/contracts/utils/ReentrancyGuard.sol\":2888:3096  function _nonReentrantAfter() private {... */\n    tag_129:\n        /* \"@openzeppelin/contracts/utils/ReentrancyGuard.sol\":1857:1858  1 */\n      0x01\n        /* \"@openzeppelin/contracts/utils/ReentrancyGuard.sol\":3068:3075  _status */\n      dup1\n        /* \"@openzeppelin/contracts/utils/ReentrancyGuard.sol\":3068:3089  _status = NOT_ENTERED */\n      dup2\n      swap1\n      sstore\n      pop\n        /* \"@openzeppelin/contracts/utils/ReentrancyGuard.sol\":2888:3096  function _nonReentrantAfter() private {... */\n      jump\t// out\n        /* \"@openzeppelin/contracts/utils/Pausable.sol\":2586:2703  function _unpause() internal virtual whenPaused {... */\n    tag_154:\n        /* \"@openzeppelin/contracts/utils/Pausable.sol\":1597:1613  _requirePaused() */\n      tag_195\n        /* \"@openzeppelin/contracts/utils/Pausable.sol\":1597:1611  _requirePaused */\n      tag_196\n        /* \"@openzeppelin/contracts/utils/Pausable.sol\":1597:1613  _requirePaused() */\n      jump\t// in\n    tag_195:\n        /* \"@openzeppelin/contracts/utils/Pausable.sol\":2654:2659  false */\n      0x00\n        /* \"@openzeppelin/contracts/utils/Pausable.sol\":2644:2651  _paused */\n      0x00\n      0x14\n        /* \"@openzeppelin/contracts/utils/Pausable.sol\":2644:2659  _paused = false */\n      0x0100\n      exp\n      dup2\n      sload\n      dup2\n      0xff\n      mul\n      not\n      and\n      swap1\n      dup4\n      iszero\n      iszero\n      mul\n      or\n      swap1\n      sstore\n      pop\n        /* \"@openzeppelin/contracts/utils/Pausable.sol\":2674:2696  Unpaused(_msgSender()) */\n      0x5db9ee0a495bf2e6ff9c91a7834c1ba4fdd244a5e8aa4e537bd38aeae4b073aa\n        /* \"@openzeppelin/contracts/utils/Pausable.sol\":2683:2695  _msgSender() */\n      tag_198\n        /* \"@openzeppelin/contracts/utils/Pausable.sol\":2683:2693  _msgSender */\n      tag_183\n        /* \"@openzeppelin/contracts/utils/Pausable.sol\":2683:2695  _msgSender() */\n      jump\t// in\n    tag_198:\n        /* \"@openzeppelin/contracts/utils/Pausable.sol\":2674:2696  Unpaused(_msgSender()) */\n      mload(0x40)\n      tag_199\n      swap2\n      swap1\n      tag_46\n      jump\t// in\n    tag_199:\n      mload(0x40)\n      dup1\n      swap2\n      sub\n      swap1\n      log1\n        /* \"@openzeppelin/contracts/utils/Pausable.sol\":2586:2703  function _unpause() internal virtual whenPaused {... */\n      jump\t// out\n        /* \"@openzeppelin/contracts/access/Ownable.sol\":2912:3099  function _transferOwnership(address newOwner) internal virtual {... */\n    tag_162:\n        /* \"@openzeppelin/contracts/access/Ownable.sol\":2985:3001  address oldOwner */\n      0x00\n        /* \"@openzeppelin/contracts/access/Ownable.sol\":3004:3010  _owner */\n      0x00\n      0x00\n      swap1\n      sload\n      swap1\n      0x0100\n      exp\n      swap1\n      div\n      0xffffffffffffffffffffffffffffffffffffffff\n      and\n        /* \"@openzeppelin/contracts/access/Ownable.sol\":2985:3010  address oldOwner = _owner */\n      swap1\n      pop\n        /* \"@openzeppelin/contracts/access/Ownable.sol\":3029:3037  newOwner */\n      dup2\n        /* \"@openzeppelin/contracts/access/Ownable.sol\":3020:3026  _owner */\n      0x00\n      0x00\n        /* \"@openzeppelin/contracts/access/Ownable.sol\":3020:3037  _owner = newOwner */\n      0x0100\n      exp\n      dup2\n      sload\n      dup2\n      0xffffffffffffffffffffffffffffffffffffffff\n      mul\n      not\n      and\n      swap1\n      dup4\n      0xffffffffffffffffffffffffffffffffffffffff\n      and\n      mul\n      or\n      swap1\n      sstore\n      pop\n        /* \"@openzeppelin/contracts/access/Ownable.sol\":3083:3091  newOwner */\n      dup2\n        /* \"@openzeppelin/contracts/access/Ownable.sol\":3052:3092  OwnershipTransferred(oldOwner, newOwner) */\n      0xffffffffffffffffffffffffffffffffffffffff\n      and\n        /* \"@openzeppelin/contracts/access/Ownable.sol\":3073:3081  oldOwner */\n      dup2\n        /* \"@openzeppelin/contracts/access/Ownable.sol\":3052:3092  OwnershipTransferred(oldOwner, newOwner) */\n      0xffffffffffffffffffffffffffffffffffffffff\n      and\n      0x8be0079c531659141344cd1fd0a4f28419497f9722a3daafe3b4186f6b6457e0\n      mload(0x40)\n      mload(0x40)\n      dup1\n      swap2\n      sub\n      swap1\n      log3\n        /* \"@openzeppelin/contracts/access/Ownable.sol\":2975:3099  {... */\n      pop\n        /* \"@openzeppelin/contracts/access/Ownable.sol\":2912:3099  function _transferOwnership(address newOwner) internal virtual {... */\n      pop\n      jump\t// out\n        /* \"@openzeppelin/contracts/utils/Pausable.sol\":2339:2454  function _pause() internal virtual whenNotPaused {... */\n    tag_167:\n        /* \"@openzeppelin/contracts/utils/Pausable.sol\":1350:1369  _requireNotPaused() */\n      tag_202\n        /* \"@openzeppelin/contracts/utils/Pausable.sol\":1350:1367  _requireNotPaused */\n      tag_81\n        /* \"@openzeppelin/contracts/utils/Pausable.sol\":1350:1369  _requireNotPaused() */\n      jump\t// in\n    tag_202:\n        /* \"@openzeppelin/contracts/utils/Pausable.sol\":2408:2412  true */\n      0x01\n        /* \"@openzeppelin/contracts/utils/Pausable.sol\":2398:2405  _paused */\n      0x00\n      0x14\n        /* \"@openzeppelin/contracts/utils/Pausable.sol\":2398:2412  _paused = true */\n      0x0100\n      exp\n      dup2\n      sload\n      dup2\n      0xff\n      mul\n      not\n      and\n      swap1\n      dup4\n      iszero\n      iszero\n      mul\n      or\n      swap1\n      sstore\n      pop\n        /* \"@openzeppelin/contracts/utils/Pausable.sol\":2427:2447  Paused(_msgSender()) */\n      0x62e78cea01bee320cd4e420270b5ea74000d11b0c9f74754ebdbfc544b05a258\n        /* \"@openzeppelin/contracts/utils/Pausable.sol\":2434:2446  _msgSender() */\n      tag_204\n        /* \"@openzeppelin/contracts/utils/Pausable.sol\":2434:2444  _msgSender */\n      tag_183\n        /* \"@openzeppelin/contracts/utils/Pausable.sol\":2434:2446  _msgSender() */\n      jump\t// in\n    tag_204:\n        /* \"@openzeppelin/contracts/utils/Pausable.sol\":2427:2447  Paused(_msgSender()) */\n      mload(0x40)\n      tag_205\n      swap2\n      swap1\n      tag_46\n      jump\t// in\n    tag_205:\n      mload(0x40)\n      dup1\n      swap2\n      sub\n      swap1\n      log1\n        /* \"@openzeppelin/contracts/utils/Pausable.sol\":2339:2454  function _pause() internal virtual whenNotPaused {... */\n      jump\t// out\n        /* \"@openzeppelin/contracts/utils/Context.sol\":656:752  function _msgSender() internal view virtual returns (address) {... */\n    tag_183:\n        /* \"@openzeppelin/contracts/utils/Context.sol\":709:716  address */\n      0x00\n        /* \"@openzeppelin/contracts/utils/Context.sol\":735:745  msg.sender */\n      caller\n        /* \"@openzeppelin/contracts/utils/Context.sol\":728:745  return msg.sender */\n      swap1\n      pop\n        /* \"@openzeppelin/contracts/utils/Context.sol\":656:752  function _msgSender() internal view virtual returns (address) {... */\n      swap1\n      jump\t// out\n        /* \"@openzeppelin/contracts/utils/Pausable.sol\":2078:2204  function _requirePaused() internal view virtual {... */\n    tag_196:\n        /* \"@openzeppelin/contracts/utils/Pausable.sol\":2141:2149  paused() */\n      tag_208\n        /* \"@openzeppelin/contracts/utils/Pausable.sol\":2141:2147  paused */\n      tag_48\n        /* \"@openzeppelin/contracts/utils/Pausable.sol\":2141:2149  paused() */\n      jump\t// in\n    tag_208:\n        /* \"@openzeppelin/contracts/utils/Pausable.sol\":2136:2198  if (!paused()) {... */\n      tag_209\n      jumpi\n        /* \"@openzeppelin/contracts/utils/Pausable.sol\":2172:2187  ExpectedPause() */\n      mload(0x40)\n      0x8dfc202b00000000000000000000000000000000000000000000000000000000\n      dup2\n      mstore\n      0x04\n      add\n      mload(0x40)\n      dup1\n      swap2\n      sub\n      swap1\n      revert\n        /* \"@openzeppelin/contracts/utils/Pausable.sol\":2136:2198  if (!paused()) {... */\n    tag_209:\n        /* \"@openzeppelin/contracts/utils/Pausable.sol\":2078:2204  function _requirePaused() internal view virtual {... */\n      jump\t// out\n        /* \"#utility.yul\":7:93   */\n    tag_210:\n        /* \"#utility.yul\":42:49   */\n      0x00\n        /* \"#utility.yul\":82:86   */\n      0xff\n        /* \"#utility.yul\":75:80   */\n      dup3\n        /* \"#utility.yul\":71:87   */\n      and\n        /* \"#utility.yul\":60:87   */\n      swap1\n      pop\n        /* \"#utility.yul\":7:93   */\n      swap2\n      swap1\n      pop\n      jump\t// out\n        /* \"#utility.yul\":99:211   */\n    tag_211:\n        /* \"#utility.yul\":182:204   */\n      tag_250\n        /* \"#utility.yul\":198:203   */\n      dup2\n        /* \"#utility.yul\":182:204   */\n      tag_210\n      jump\t// in\n    tag_250:\n        /* \"#utility.yul\":177:180   */\n      dup3\n        /* \"#utility.yul\":170:205   */\n      mstore\n        /* \"#utility.yul\":99:211   */\n      pop\n      pop\n      jump\t// out\n        /* \"#utility.yul\":217:431   */\n    tag_25:\n        /* \"#utility.yul\":306:310   */\n      0x00\n        /* \"#utility.yul\":344:346   */\n      0x20\n        /* \"#utility.yul\":333:342   */\n      dup3\n        /* \"#utility.yul\":329:347   */\n      add\n        /* \"#utility.yul\":321:347   */\n      swap1\n      pop\n        /* \"#utility.yul\":357:424   */\n      tag_252\n        /* \"#utility.yul\":421:422   */\n      0x00\n        /* \"#utility.yul\":410:419   */\n      dup4\n        /* \"#utility.yul\":406:423   */\n      add\n        /* \"#utility.yul\":397:403   */\n      dup5\n        /* \"#utility.yul\":357:424   */\n      tag_211\n      jump\t// in\n    tag_252:\n        /* \"#utility.yul\":217:431   */\n      swap3\n      swap2\n      pop\n      pop\n      jump\t// out\n        /* \"#utility.yul\":518:635   */\n    tag_213:\n        /* \"#utility.yul\":627:628   */\n      0x00\n        /* \"#utility.yul\":624:625   */\n      0x00\n        /* \"#utility.yul\":617:629   */\n      revert\n        /* \"#utility.yul\":641:758   */\n    tag_214:\n        /* \"#utility.yul\":750:751   */\n      0x00\n        /* \"#utility.yul\":747:748   */\n      0x00\n        /* \"#utility.yul\":740:752   */\n      revert\n        /* \"#utility.yul\":764:881   */\n    tag_215:\n        /* \"#utility.yul\":873:874   */\n      0x00\n        /* \"#utility.yul\":870:871   */\n      0x00\n        /* \"#utility.yul\":863:875   */\n      revert\n        /* \"#utility.yul\":887:1004   */\n    tag_216:\n        /* \"#utility.yul\":996:997   */\n      0x00\n        /* \"#utility.yul\":993:994   */\n      0x00\n        /* \"#utility.yul\":986:998   */\n      revert\n        /* \"#utility.yul\":1010:1127   */\n    tag_217:\n        /* \"#utility.yul\":1119:1120   */\n      0x00\n        /* \"#utility.yul\":1116:1117   */\n      0x00\n        /* \"#utility.yul\":1109:1121   */\n      revert\n        /* \"#utility.yul\":1150:1718   */\n    tag_218:\n        /* \"#utility.yul\":1223:1231   */\n      0x00\n        /* \"#utility.yul\":1233:1239   */\n      0x00\n        /* \"#utility.yul\":1283:1286   */\n      dup4\n        /* \"#utility.yul\":1276:1280   */\n      0x1f\n        /* \"#utility.yul\":1268:1274   */\n      dup5\n        /* \"#utility.yul\":1264:1281   */\n      add\n        /* \"#utility.yul\":1260:1287   */\n      slt\n        /* \"#utility.yul\":1250:1372   */\n      tag_260\n      jumpi\n        /* \"#utility.yul\":1291:1370   */\n      tag_261\n      tag_215\n      jump\t// in\n    tag_261:\n        /* \"#utility.yul\":1250:1372   */\n    tag_260:\n        /* \"#utility.yul\":1404:1410   */\n      dup3\n        /* \"#utility.yul\":1391:1411   */\n      calldataload\n        /* \"#utility.yul\":1381:1411   */\n      swap1\n      pop\n        /* \"#utility.yul\":1434:1452   */\n      0xffffffffffffffff\n        /* \"#utility.yul\":1426:1432   */\n      dup2\n        /* \"#utility.yul\":1423:1453   */\n      gt\n        /* \"#utility.yul\":1420:1537   */\n      iszero\n      tag_262\n      jumpi\n        /* \"#utility.yul\":1456:1535   */\n      tag_263\n      tag_216\n      jump\t// in\n    tag_263:\n        /* \"#utility.yul\":1420:1537   */\n    tag_262:\n        /* \"#utility.yul\":1570:1574   */\n      0x20\n        /* \"#utility.yul\":1562:1568   */\n      dup4\n        /* \"#utility.yul\":1558:1575   */\n      add\n        /* \"#utility.yul\":1546:1575   */\n      swap2\n      pop\n        /* \"#utility.yul\":1624:1627   */\n      dup4\n        /* \"#utility.yul\":1616:1620   */\n      0x20\n        /* \"#utility.yul\":1608:1614   */\n      dup3\n        /* \"#utility.yul\":1604:1621   */\n      mul\n        /* \"#utility.yul\":1594:1602   */\n      dup4\n        /* \"#utility.yul\":1590:1622   */\n      add\n        /* \"#utility.yul\":1587:1628   */\n      gt\n        /* \"#utility.yul\":1584:1712   */\n      iszero\n      tag_264\n      jumpi\n        /* \"#utility.yul\":1631:1710   */\n      tag_265\n      tag_217\n      jump\t// in\n    tag_265:\n        /* \"#utility.yul\":1584:1712   */\n    tag_264:\n        /* \"#utility.yul\":1150:1718   */\n      swap3\n      pop\n      swap3\n      swap1\n      pop\n      jump\t// out\n        /* \"#utility.yul\":1741:2309   */\n    tag_219:\n        /* \"#utility.yul\":1814:1822   */\n      0x00\n        /* \"#utility.yul\":1824:1830   */\n      0x00\n        /* \"#utility.yul\":1874:1877   */\n      dup4\n        /* \"#utility.yul\":1867:1871   */\n      0x1f\n        /* \"#utility.yul\":1859:1865   */\n      dup5\n        /* \"#utility.yul\":1855:1872   */\n      add\n        /* \"#utility.yul\":1851:1878   */\n      slt\n        /* \"#utility.yul\":1841:1963   */\n      tag_267\n      jumpi\n        /* \"#utility.yul\":1882:1961   */\n      tag_268\n      tag_215\n      jump\t// in\n    tag_268:\n        /* \"#utility.yul\":1841:1963   */\n    tag_267:\n        /* \"#utility.yul\":1995:2001   */\n      dup3\n        /* \"#utility.yul\":1982:2002   */\n      calldataload\n        /* \"#utility.yul\":1972:2002   */\n      swap1\n      pop\n        /* \"#utility.yul\":2025:2043   */\n      0xffffffffffffffff\n        /* \"#utility.yul\":2017:2023   */\n      dup2\n        /* \"#utility.yul\":2014:2044   */\n      gt\n        /* \"#utility.yul\":2011:2128   */\n      iszero\n      tag_269\n      jumpi\n        /* \"#utility.yul\":2047:2126   */\n      tag_270\n      tag_216\n      jump\t// in\n    tag_270:\n        /* \"#utility.yul\":2011:2128   */\n    tag_269:\n        /* \"#utility.yul\":2161:2165   */\n      0x20\n        /* \"#utility.yul\":2153:2159   */\n      dup4\n        /* \"#utility.yul\":2149:2166   */\n      add\n        /* \"#utility.yul\":2137:2166   */\n      swap2\n      pop\n        /* \"#utility.yul\":2215:2218   */\n      dup4\n        /* \"#utility.yul\":2207:2211   */\n      0x20\n        /* \"#utility.yul\":2199:2205   */\n      dup3\n        /* \"#utility.yul\":2195:2212   */\n      mul\n        /* \"#utility.yul\":2185:2193   */\n      dup4\n        /* \"#utility.yul\":2181:2213   */\n      add\n        /* \"#utility.yul\":2178:2219   */\n      gt\n        /* \"#utility.yul\":2175:2303   */\n      iszero\n      tag_271\n      jumpi\n        /* \"#utility.yul\":2222:2301   */\n      tag_272\n      tag_217\n      jump\t// in\n    tag_272:\n        /* \"#utility.yul\":2175:2303   */\n    tag_271:\n        /* \"#utility.yul\":1741:2309   */\n      swap3\n      pop\n      swap3\n      swap1\n      pop\n      jump\t// out\n        /* \"#utility.yul\":2330:2896   */\n    tag_220:\n        /* \"#utility.yul\":2401:2409   */\n      0x00\n        /* \"#utility.yul\":2411:2417   */\n      0x00\n        /* \"#utility.yul\":2461:2464   */\n      dup4\n        /* \"#utility.yul\":2454:2458   */\n      0x1f\n        /* \"#utility.yul\":2446:2452   */\n      dup5\n        /* \"#utility.yul\":2442:2459   */\n      add\n        /* \"#utility.yul\":2438:2465   */\n      slt\n        /* \"#utility.yul\":2428:2550   */\n      tag_274\n      jumpi\n        /* \"#utility.yul\":2469:2548   */\n      tag_275\n      tag_215\n      jump\t// in\n    tag_275:\n        /* \"#utility.yul\":2428:2550   */\n    tag_274:\n        /* \"#utility.yul\":2582:2588   */\n      dup3\n        /* \"#utility.yul\":2569:2589   */\n      calldataload\n        /* \"#utility.yul\":2559:2589   */\n      swap1\n      pop\n        /* \"#utility.yul\":2612:2630   */\n      0xffffffffffffffff\n        /* \"#utility.yul\":2604:2610   */\n      dup2\n        /* \"#utility.yul\":2601:2631   */\n      gt\n        /* \"#utility.yul\":2598:2715   */\n      iszero\n      tag_276\n      jumpi\n        /* \"#utility.yul\":2634:2713   */\n      tag_277\n      tag_216\n      jump\t// in\n    tag_277:\n        /* \"#utility.yul\":2598:2715   */\n    tag_276:\n        /* \"#utility.yul\":2748:2752   */\n      0x20\n        /* \"#utility.yul\":2740:2746   */\n      dup4\n        /* \"#utility.yul\":2736:2753   */\n      add\n        /* \"#utility.yul\":2724:2753   */\n      swap2\n      pop\n        /* \"#utility.yul\":2802:2805   */\n      dup4\n        /* \"#utility.yul\":2794:2798   */\n      0x20\n        /* \"#utility.yul\":2786:2792   */\n      dup3\n        /* \"#utility.yul\":2782:2799   */\n      mul\n        /* \"#utility.yul\":2772:2780   */\n      dup4\n        /* \"#utility.yul\":2768:2800   */\n      add\n        /* \"#utility.yul\":2765:2806   */\n      gt\n        /* \"#utility.yul\":2762:2890   */\n      iszero\n      tag_278\n      jumpi\n        /* \"#utility.yul\":2809:2888   */\n      tag_279\n      tag_217\n      jump\t// in\n    tag_279:\n        /* \"#utility.yul\":2762:2890   */\n    tag_278:\n        /* \"#utility.yul\":2330:2896   */\n      swap3\n      pop\n      swap3\n      swap1\n      pop\n      jump\t// out\n        /* \"#utility.yul\":2902:4207   */\n    tag_28:\n        /* \"#utility.yul\":3058:3064   */\n      0x00\n        /* \"#utility.yul\":3066:3072   */\n      0x00\n        /* \"#utility.yul\":3074:3080   */\n      0x00\n        /* \"#utility.yul\":3082:3088   */\n      0x00\n        /* \"#utility.yul\":3090:3096   */\n      0x00\n        /* \"#utility.yul\":3098:3104   */\n      0x00\n        /* \"#utility.yul\":3147:3149   */\n      0x60\n        /* \"#utility.yul\":3135:3144   */\n      dup8\n        /* \"#utility.yul\":3126:3133   */\n      dup10\n        /* \"#utility.yul\":3122:3145   */\n      sub\n        /* \"#utility.yul\":3118:3150   */\n      slt\n        /* \"#utility.yul\":3115:3234   */\n      iszero\n      tag_281\n      jumpi\n        /* \"#utility.yul\":3153:3232   */\n      tag_282\n      tag_213\n      jump\t// in\n    tag_282:\n        /* \"#utility.yul\":3115:3234   */\n    tag_281:\n        /* \"#utility.yul\":3301:3302   */\n      0x00\n        /* \"#utility.yul\":3290:3299   */\n      dup8\n        /* \"#utility.yul\":3286:3303   */\n      add\n        /* \"#utility.yul\":3273:3304   */\n      calldataload\n        /* \"#utility.yul\":3331:3349   */\n      0xffffffffffffffff\n        /* \"#utility.yul\":3323:3329   */\n      dup2\n        /* \"#utility.yul\":3320:3350   */\n      gt\n        /* \"#utility.yul\":3317:3434   */\n      iszero\n      tag_283\n      jumpi\n        /* \"#utility.yul\":3353:3432   */\n      tag_284\n      tag_214\n      jump\t// in\n    tag_284:\n        /* \"#utility.yul\":3317:3434   */\n    tag_283:\n        /* \"#utility.yul\":3466:3546   */\n      tag_285\n        /* \"#utility.yul\":3538:3545   */\n      dup10\n        /* \"#utility.yul\":3529:3535   */\n      dup3\n        /* \"#utility.yul\":3518:3527   */\n      dup11\n        /* \"#utility.yul\":3514:3536   */\n      add\n        /* \"#utility.yul\":3466:3546   */\n      tag_218\n      jump\t// in\n    tag_285:\n        /* \"#utility.yul\":3448:3546   */\n      swap7\n      pop\n      swap7\n      pop\n        /* \"#utility.yul\":3244:3556   */\n      pop\n        /* \"#utility.yul\":3623:3625   */\n      0x20\n        /* \"#utility.yul\":3612:3621   */\n      dup8\n        /* \"#utility.yul\":3608:3626   */\n      add\n        /* \"#utility.yul\":3595:3627   */\n      calldataload\n        /* \"#utility.yul\":3654:3672   */\n      0xffffffffffffffff\n        /* \"#utility.yul\":3646:3652   */\n      dup2\n        /* \"#utility.yul\":3643:3673   */\n      gt\n        /* \"#utility.yul\":3640:3757   */\n      iszero\n      tag_286\n      jumpi\n        /* \"#utility.yul\":3676:3755   */\n      tag_287\n      tag_214\n      jump\t// in\n    tag_287:\n        /* \"#utility.yul\":3640:3757   */\n    tag_286:\n        /* \"#utility.yul\":3789:3869   */\n      tag_288\n        /* \"#utility.yul\":3861:3868   */\n      dup10\n        /* \"#utility.yul\":3852:3858   */\n      dup3\n        /* \"#utility.yul\":3841:3850   */\n      dup11\n        /* \"#utility.yul\":3837:3859   */\n      add\n        /* \"#utility.yul\":3789:3869   */\n      tag_219\n      jump\t// in\n    tag_288:\n        /* \"#utility.yul\":3771:3869   */\n      swap5\n      pop\n      swap5\n      pop\n        /* \"#utility.yul\":3566:3879   */\n      pop\n        /* \"#utility.yul\":3946:3948   */\n      0x40\n        /* \"#utility.yul\":3935:3944   */\n      dup8\n        /* \"#utility.yul\":3931:3949   */\n      add\n        /* \"#utility.yul\":3918:3950   */\n      calldataload\n        /* \"#utility.yul\":3977:3995   */\n      0xffffffffffffffff\n        /* \"#utility.yul\":3969:3975   */\n      dup2\n        /* \"#utility.yul\":3966:3996   */\n      gt\n        /* \"#utility.yul\":3963:4080   */\n      iszero\n      tag_289\n      jumpi\n        /* \"#utility.yul\":3999:4078   */\n      tag_290\n      tag_214\n      jump\t// in\n    tag_290:\n        /* \"#utility.yul\":3963:4080   */\n    tag_289:\n        /* \"#utility.yul\":4112:4190   */\n      tag_291\n        /* \"#utility.yul\":4182:4189   */\n      dup10\n        /* \"#utility.yul\":4173:4179   */\n      dup3\n        /* \"#utility.yul\":4162:4171   */\n      dup11\n        /* \"#utility.yul\":4158:4180   */\n      add\n        /* \"#utility.yul\":4112:4190   */\n      tag_220\n      jump\t// in\n    tag_291:\n        /* \"#utility.yul\":4094:4190   */\n      swap3\n      pop\n      swap3\n      pop\n        /* \"#utility.yul\":3889:4200   */\n      pop\n        /* \"#utility.yul\":2902:4207   */\n      swap3\n      swap6\n      pop\n      swap3\n      swap6\n      pop\n      swap3\n      swap6\n      jump\t// out\n        /* \"#utility.yul\":4213:4339   */\n    tag_221:\n        /* \"#utility.yul\":4250:4257   */\n      0x00\n        /* \"#utility.yul\":4290:4332   */\n      0xffffffffffffffffffffffffffffffffffffffff\n        /* \"#utility.yul\":4283:4288   */\n      dup3\n        /* \"#utility.yul\":4279:4333   */\n      and\n        /* \"#utility.yul\":4268:4333   */\n      swap1\n      pop\n        /* \"#utility.yul\":4213:4339   */\n      swap2\n      swap1\n      pop\n      jump\t// out\n        /* \"#utility.yul\":4345:4441   */\n    tag_222:\n        /* \"#utility.yul\":4382:4389   */\n      0x00\n        /* \"#utility.yul\":4411:4435   */\n      tag_294\n        /* \"#utility.yul\":4429:4434   */\n      dup3\n        /* \"#utility.yul\":4411:4435   */\n      tag_221\n      jump\t// in\n    tag_294:\n        /* \"#utility.yul\":4400:4435   */\n      swap1\n      pop\n        /* \"#utility.yul\":4345:4441   */\n      swap2\n      swap1\n      pop\n      jump\t// out\n        /* \"#utility.yul\":4447:4569   */\n    tag_223:\n        /* \"#utility.yul\":4520:4544   */\n      tag_296\n        /* \"#utility.yul\":4538:4543   */\n      dup2\n        /* \"#utility.yul\":4520:4544   */\n      tag_222\n      jump\t// in\n    tag_296:\n        /* \"#utility.yul\":4513:4518   */\n      dup2\n        /* \"#utility.yul\":4510:4545   */\n      eq\n        /* \"#utility.yul\":4500:4563   */\n      tag_297\n      jumpi\n        /* \"#utility.yul\":4559:4560   */\n      0x00\n        /* \"#utility.yul\":4556:4557   */\n      0x00\n        /* \"#utility.yul\":4549:4561   */\n      revert\n        /* \"#utility.yul\":4500:4563   */\n    tag_297:\n        /* \"#utility.yul\":4447:4569   */\n      pop\n      jump\t// out\n        /* \"#utility.yul\":4575:4714   */\n    tag_224:\n        /* \"#utility.yul\":4621:4626   */\n      0x00\n        /* \"#utility.yul\":4659:4665   */\n      dup2\n        /* \"#utility.yul\":4646:4666   */\n      calldataload\n        /* \"#utility.yul\":4637:4666   */\n      swap1\n      pop\n        /* \"#utility.yul\":4675:4708   */\n      tag_299\n        /* \"#utility.yul\":4702:4707   */\n      dup2\n        /* \"#utility.yul\":4675:4708   */\n      tag_223\n      jump\t// in\n    tag_299:\n        /* \"#utility.yul\":4575:4714   */\n      swap3\n      swap2\n      pop\n      pop\n      jump\t// out\n        /* \"#utility.yul\":4720:4797   */\n    tag_225:\n        /* \"#utility.yul\":4757:4764   */\n      0x00\n        /* \"#utility.yul\":4786:4791   */\n      dup2\n        /* \"#utility.yul\":4775:4791   */\n      swap1\n      pop\n        /* \"#utility.yul\":4720:4797   */\n      swap2\n      swap1\n      pop\n      jump\t// out\n        /* \"#utility.yul\":4803:4925   */\n    tag_226:\n        /* \"#utility.yul\":4876:4900   */\n      tag_302\n        /* \"#utility.yul\":4894:4899   */\n      dup2\n        /* \"#utility.yul\":4876:4900   */\n      tag_225\n      jump\t// in\n    tag_302:\n        /* \"#utility.yul\":4869:4874   */\n      dup2\n        /* \"#utility.yul\":4866:4901   */\n      eq\n        /* \"#utility.yul\":4856:4919   */\n      tag_303\n      jumpi\n        /* \"#utility.yul\":4915:4916   */\n      0x00\n        /* \"#utility.yul\":4912:4913   */\n      0x00\n        /* \"#utility.yul\":4905:4917   */\n      revert\n        /* \"#utility.yul\":4856:4919   */\n    tag_303:\n        /* \"#utility.yul\":4803:4925   */\n      pop\n      jump\t// out\n        /* \"#utility.yul\":4931:5070   */\n    tag_227:\n        /* \"#utility.yul\":4977:4982   */\n      0x00\n        /* \"#utility.yul\":5015:5021   */\n      dup2\n        /* \"#utility.yul\":5002:5022   */\n      calldataload\n        /* \"#utility.yul\":4993:5022   */\n      swap1\n      pop\n        /* \"#utility.yul\":5031:5064   */\n      tag_305\n        /* \"#utility.yul\":5058:5063   */\n      dup2\n        /* \"#utility.yul\":5031:5064   */\n      tag_226\n      jump\t// in\n    tag_305:\n        /* \"#utility.yul\":4931:5070   */\n      swap3\n      swap2\n      pop\n      pop\n      jump\t// out\n        /* \"#utility.yul\":5076:5194   */\n    tag_228:\n        /* \"#utility.yul\":5147:5169   */\n      tag_307\n        /* \"#utility.yul\":5163:5168   */\n      dup2\n        /* \"#utility.yul\":5147:5169   */\n      tag_210\n      jump\t// in\n    tag_307:\n        /* \"#utility.yul\":5140:5145   */\n      dup2\n        /* \"#utility.yul\":5137:5170   */\n      eq\n        /* \"#utility.yul\":5127:5188   */\n      tag_308\n      jumpi\n        /* \"#utility.yul\":5184:5185   */\n      0x00\n        /* \"#utility.yul\":5181:5182   */\n      0x00\n        /* \"#utility.yul\":5174:5186   */\n      revert\n        /* \"#utility.yul\":5127:5188   */\n    tag_308:\n        /* \"#utility.yul\":5076:5194   */\n      pop\n      jump\t// out\n        /* \"#utility.yul\":5200:5335   */\n    tag_229:\n        /* \"#utility.yul\":5244:5249   */\n      0x00\n        /* \"#utility.yul\":5282:5288   */\n      dup2\n        /* \"#utility.yul\":5269:5289   */\n      calldataload\n        /* \"#utility.yul\":5260:5289   */\n      swap1\n      pop\n        /* \"#utility.yul\":5298:5329   */\n      tag_310\n        /* \"#utility.yul\":5323:5328   */\n      dup2\n        /* \"#utility.yul\":5298:5329   */\n      tag_228\n      jump\t// in\n    tag_310:\n        /* \"#utility.yul\":5200:5335   */\n      swap3\n      swap2\n      pop\n      pop\n      jump\t// out\n        /* \"#utility.yul\":5341:5956   */\n    tag_32:\n        /* \"#utility.yul\":5416:5422   */\n      0x00\n        /* \"#utility.yul\":5424:5430   */\n      0x00\n        /* \"#utility.yul\":5432:5438   */\n      0x00\n        /* \"#utility.yul\":5481:5483   */\n      0x60\n        /* \"#utility.yul\":5469:5478   */\n      dup5\n        /* \"#utility.yul\":5460:5467   */\n      dup7\n        /* \"#utility.yul\":5456:5479   */\n      sub\n        /* \"#utility.yul\":5452:5484   */\n      slt\n        /* \"#utility.yul\":5449:5568   */\n      iszero\n      tag_312\n      jumpi\n        /* \"#utility.yul\":5487:5566   */\n      tag_313\n      tag_213\n      jump\t// in\n    tag_313:\n        /* \"#utility.yul\":5449:5568   */\n    tag_312:\n        /* \"#utility.yul\":5607:5608   */\n      0x00\n        /* \"#utility.yul\":5632:5685   */\n      tag_314\n        /* \"#utility.yul\":5677:5684   */\n      dup7\n        /* \"#utility.yul\":5668:5674   */\n      dup3\n        /* \"#utility.yul\":5657:5666   */\n      dup8\n        /* \"#utility.yul\":5653:5675   */\n      add\n        /* \"#utility.yul\":5632:5685   */\n      tag_224\n      jump\t// in\n    tag_314:\n        /* \"#utility.yul\":5622:5685   */\n      swap4\n      pop\n        /* \"#utility.yul\":5578:5695   */\n      pop\n        /* \"#utility.yul\":5734:5736   */\n      0x20\n        /* \"#utility.yul\":5760:5813   */\n      tag_315\n        /* \"#utility.yul\":5805:5812   */\n      dup7\n        /* \"#utility.yul\":5796:5802   */\n      dup3\n        /* \"#utility.yul\":5785:5794   */\n      dup8\n        /* \"#utility.yul\":5781:5803   */\n      add\n        /* \"#utility.yul\":5760:5813   */\n      tag_227\n      jump\t// in\n    tag_315:\n        /* \"#utility.yul\":5750:5813   */\n      swap3\n      pop\n        /* \"#utility.yul\":5705:5823   */\n      pop\n        /* \"#utility.yul\":5862:5864   */\n      0x40\n        /* \"#utility.yul\":5888:5939   */\n      tag_316\n        /* \"#utility.yul\":5931:5938   */\n      dup7\n        /* \"#utility.yul\":5922:5928   */\n      dup3\n        /* \"#utility.yul\":5911:5920   */\n      dup8\n        /* \"#utility.yul\":5907:5929   */\n      add\n        /* \"#utility.yul\":5888:5939   */\n      tag_229\n      jump\t// in\n    tag_316:\n        /* \"#utility.yul\":5878:5939   */\n      swap2\n      pop\n        /* \"#utility.yul\":5833:5949   */\n      pop\n        /* \"#utility.yul\":5341:5956   */\n      swap3\n      pop\n      swap3\n      pop\n      swap3\n      jump\t// out\n        /* \"#utility.yul\":5962:6022   */\n    tag_230:\n        /* \"#utility.yul\":5990:5993   */\n      0x00\n        /* \"#utility.yul\":6011:6016   */\n      dup2\n        /* \"#utility.yul\":6004:6016   */\n      swap1\n      pop\n        /* \"#utility.yul\":5962:6022   */\n      swap2\n      swap1\n      pop\n      jump\t// out\n        /* \"#utility.yul\":6028:6170   */\n    tag_231:\n        /* \"#utility.yul\":6078:6087   */\n      0x00\n        /* \"#utility.yul\":6111:6164   */\n      tag_319\n        /* \"#utility.yul\":6129:6163   */\n      tag_320\n        /* \"#utility.yul\":6138:6162   */\n      tag_321\n        /* \"#utility.yul\":6156:6161   */\n      dup5\n        /* \"#utility.yul\":6138:6162   */\n      tag_221\n      jump\t// in\n    tag_321:\n        /* \"#utility.yul\":6129:6163   */\n      tag_230\n      jump\t// in\n    tag_320:\n        /* \"#utility.yul\":6111:6164   */\n      tag_221\n      jump\t// in\n    tag_319:\n        /* \"#utility.yul\":6098:6164   */\n      swap1\n      pop\n        /* \"#utility.yul\":6028:6170   */\n      swap2\n      swap1\n      pop\n      jump\t// out\n        /* \"#utility.yul\":6176:6302   */\n    tag_232:\n        /* \"#utility.yul\":6226:6235   */\n      0x00\n        /* \"#utility.yul\":6259:6296   */\n      tag_323\n        /* \"#utility.yul\":6290:6295   */\n      dup3\n        /* \"#utility.yul\":6259:6296   */\n      tag_231\n      jump\t// in\n    tag_323:\n        /* \"#utility.yul\":6246:6296   */\n      swap1\n      pop\n        /* \"#utility.yul\":6176:6302   */\n      swap2\n      swap1\n      pop\n      jump\t// out\n        /* \"#utility.yul\":6308:6448   */\n    tag_233:\n        /* \"#utility.yul\":6372:6381   */\n      0x00\n        /* \"#utility.yul\":6405:6442   */\n      tag_325\n        /* \"#utility.yul\":6436:6441   */\n      dup3\n        /* \"#utility.yul\":6405:6442   */\n      tag_232\n      jump\t// in\n    tag_325:\n        /* \"#utility.yul\":6392:6442   */\n      swap1\n      pop\n        /* \"#utility.yul\":6308:6448   */\n      swap2\n      swap1\n      pop\n      jump\t// out\n        /* \"#utility.yul\":6454:6613   */\n    tag_234:\n        /* \"#utility.yul\":6555:6606   */\n      tag_327\n        /* \"#utility.yul\":6600:6605   */\n      dup2\n        /* \"#utility.yul\":6555:6606   */\n      tag_233\n      jump\t// in\n    tag_327:\n        /* \"#utility.yul\":6550:6553   */\n      dup3\n        /* \"#utility.yul\":6543:6607   */\n      mstore\n        /* \"#utility.yul\":6454:6613   */\n      pop\n      pop\n      jump\t// out\n        /* \"#utility.yul\":6619:6869   */\n    tag_37:\n        /* \"#utility.yul\":6726:6730   */\n      0x00\n        /* \"#utility.yul\":6764:6766   */\n      0x20\n        /* \"#utility.yul\":6753:6762   */\n      dup3\n        /* \"#utility.yul\":6749:6767   */\n      add\n        /* \"#utility.yul\":6741:6767   */\n      swap1\n      pop\n        /* \"#utility.yul\":6777:6862   */\n      tag_329\n        /* \"#utility.yul\":6859:6860   */\n      0x00\n        /* \"#utility.yul\":6848:6857   */\n      dup4\n        /* \"#utility.yul\":6844:6861   */\n      add\n        /* \"#utility.yul\":6835:6841   */\n      dup5\n        /* \"#utility.yul\":6777:6862   */\n      tag_234\n      jump\t// in\n    tag_329:\n        /* \"#utility.yul\":6619:6869   */\n      swap3\n      swap2\n      pop\n      pop\n      jump\t// out\n        /* \"#utility.yul\":6875:6993   */\n    tag_235:\n        /* \"#utility.yul\":6962:6986   */\n      tag_331\n        /* \"#utility.yul\":6980:6985   */\n      dup2\n        /* \"#utility.yul\":6962:6986   */\n      tag_222\n      jump\t// in\n    tag_331:\n        /* \"#utility.yul\":6957:6960   */\n      dup3\n        /* \"#utility.yul\":6950:6987   */\n      mstore\n        /* \"#utility.yul\":6875:6993   */\n      pop\n      pop\n      jump\t// out\n        /* \"#utility.yul\":6999:7221   */\n    tag_46:\n        /* \"#utility.yul\":7092:7096   */\n      0x00\n        /* \"#utility.yul\":7130:7132   */\n      0x20\n        /* \"#utility.yul\":7119:7128   */\n      dup3\n        /* \"#utility.yul\":7115:7133   */\n      add\n        /* \"#utility.yul\":7107:7133   */\n      swap1\n      pop\n        /* \"#utility.yul\":7143:7214   */\n      tag_333\n        /* \"#utility.yul\":7211:7212   */\n      0x00\n        /* \"#utility.yul\":7200:7209   */\n      dup4\n        /* \"#utility.yul\":7196:7213   */\n      add\n        /* \"#utility.yul\":7187:7193   */\n      dup5\n        /* \"#utility.yul\":7143:7214   */\n      tag_235\n      jump\t// in\n    tag_333:\n        /* \"#utility.yul\":6999:7221   */\n      swap3\n      swap2\n      pop\n      pop\n      jump\t// out\n        /* \"#utility.yul\":7227:7317   */\n    tag_236:\n        /* \"#utility.yul\":7261:7268   */\n      0x00\n        /* \"#utility.yul\":7304:7309   */\n      dup2\n        /* \"#utility.yul\":7297:7310   */\n      iszero\n        /* \"#utility.yul\":7290:7311   */\n      iszero\n        /* \"#utility.yul\":7279:7311   */\n      swap1\n      pop\n        /* \"#utility.yul\":7227:7317   */\n      swap2\n      swap1\n      pop\n      jump\t// out\n        /* \"#utility.yul\":7323:7432   */\n    tag_237:\n        /* \"#utility.yul\":7404:7425   */\n      tag_336\n        /* \"#utility.yul\":7419:7424   */\n      dup2\n        /* \"#utility.yul\":7404:7425   */\n      tag_236\n      jump\t// in\n    tag_336:\n        /* \"#utility.yul\":7399:7402   */\n      dup3\n        /* \"#utility.yul\":7392:7426   */\n      mstore\n        /* \"#utility.yul\":7323:7432   */\n      pop\n      pop\n      jump\t// out\n        /* \"#utility.yul\":7438:7648   */\n    tag_50:\n        /* \"#utility.yul\":7525:7529   */\n      0x00\n        /* \"#utility.yul\":7563:7565   */\n      0x20\n        /* \"#utility.yul\":7552:7561   */\n      dup3\n        /* \"#utility.yul\":7548:7566   */\n      add\n        /* \"#utility.yul\":7540:7566   */\n      swap1\n      pop\n        /* \"#utility.yul\":7576:7641   */\n      tag_338\n        /* \"#utility.yul\":7638:7639   */\n      0x00\n        /* \"#utility.yul\":7627:7636   */\n      dup4\n        /* \"#utility.yul\":7623:7640   */\n      add\n        /* \"#utility.yul\":7614:7620   */\n      dup5\n        /* \"#utility.yul\":7576:7641   */\n      tag_237\n      jump\t// in\n    tag_338:\n        /* \"#utility.yul\":7438:7648   */\n      swap3\n      swap2\n      pop\n      pop\n      jump\t// out\n        /* \"#utility.yul\":7654:7979   */\n    tag_69:\n        /* \"#utility.yul\":7711:7717   */\n      0x00\n        /* \"#utility.yul\":7760:7762   */\n      0x20\n        /* \"#utility.yul\":7748:7757   */\n      dup3\n        /* \"#utility.yul\":7739:7746   */\n      dup5\n        /* \"#utility.yul\":7735:7758   */\n      sub\n        /* \"#utility.yul\":7731:7763   */\n      slt\n        /* \"#utility.yul\":7728:7847   */\n      iszero\n      tag_340\n      jumpi\n        /* \"#utility.yul\":7766:7845   */\n      tag_341\n      tag_213\n      jump\t// in\n    tag_341:\n        /* \"#utility.yul\":7728:7847   */\n    tag_340:\n        /* \"#utility.yul\":7886:7887   */\n      0x00\n        /* \"#utility.yul\":7911:7962   */\n      tag_342\n        /* \"#utility.yul\":7954:7961   */\n      dup5\n        /* \"#utility.yul\":7945:7951   */\n      dup3\n        /* \"#utility.yul\":7934:7943   */\n      dup6\n        /* \"#utility.yul\":7930:7952   */\n      add\n        /* \"#utility.yul\":7911:7962   */\n      tag_229\n      jump\t// in\n    tag_342:\n        /* \"#utility.yul\":7901:7962   */\n      swap2\n      pop\n        /* \"#utility.yul\":7857:7972   */\n      pop\n        /* \"#utility.yul\":7654:7979   */\n      swap3\n      swap2\n      pop\n      pop\n      jump\t// out\n        /* \"#utility.yul\":7985:8314   */\n    tag_74:\n        /* \"#utility.yul\":8044:8050   */\n      0x00\n        /* \"#utility.yul\":8093:8095   */\n      0x20\n        /* \"#utility.yul\":8081:8090   */\n      dup3\n        /* \"#utility.yul\":8072:8079   */\n      dup5\n        /* \"#utility.yul\":8068:8091   */\n      sub\n        /* \"#utility.yul\":8064:8096   */\n      slt\n        /* \"#utility.yul\":8061:8180   */\n      iszero\n      tag_344\n      jumpi\n        /* \"#utility.yul\":8099:8178   */\n      tag_345\n      tag_213\n      jump\t// in\n    tag_345:\n        /* \"#utility.yul\":8061:8180   */\n    tag_344:\n        /* \"#utility.yul\":8219:8220   */\n      0x00\n        /* \"#utility.yul\":8244:8297   */\n      tag_346\n        /* \"#utility.yul\":8289:8296   */\n      dup5\n        /* \"#utility.yul\":8280:8286   */\n      dup3\n        /* \"#utility.yul\":8269:8278   */\n      dup6\n        /* \"#utility.yul\":8265:8287   */\n      add\n        /* \"#utility.yul\":8244:8297   */\n      tag_224\n      jump\t// in\n    tag_346:\n        /* \"#utility.yul\":8234:8297   */\n      swap2\n      pop\n        /* \"#utility.yul\":8190:8307   */\n      pop\n        /* \"#utility.yul\":7985:8314   */\n      swap3\n      swap2\n      pop\n      pop\n      jump\t// out\n        /* \"#utility.yul\":8320:8489   */\n    tag_238:\n        /* \"#utility.yul\":8404:8415   */\n      0x00\n        /* \"#utility.yul\":8438:8444   */\n      dup3\n        /* \"#utility.yul\":8433:8436   */\n      dup3\n        /* \"#utility.yul\":8426:8445   */\n      mstore\n        /* \"#utility.yul\":8478:8482   */\n      0x20\n        /* \"#utility.yul\":8473:8476   */\n      dup3\n        /* \"#utility.yul\":8469:8483   */\n      add\n        /* \"#utility.yul\":8454:8483   */\n      swap1\n      pop\n        /* \"#utility.yul\":8320:8489   */\n      swap3\n      swap2\n      pop\n      pop\n      jump\t// out\n        /* \"#utility.yul\":8495:8716   */\n    tag_239:\n        /* \"#utility.yul\":8635:8669   */\n      0x4172726179206c656e677468206d69736d61746368206f7220746f6f206c6172\n        /* \"#utility.yul\":8631:8632   */\n      0x00\n        /* \"#utility.yul\":8623:8629   */\n      dup3\n        /* \"#utility.yul\":8619:8633   */\n      add\n        /* \"#utility.yul\":8612:8670   */\n      mstore\n        /* \"#utility.yul\":8704:8708   */\n      0x6765000000000000000000000000000000000000000000000000000000000000\n        /* \"#utility.yul\":8699:8701   */\n      0x20\n        /* \"#utility.yul\":8691:8697   */\n      dup3\n        /* \"#utility.yul\":8687:8702   */\n      add\n        /* \"#utility.yul\":8680:8709   */\n      mstore\n        /* \"#utility.yul\":8495:8716   */\n      pop\n      jump\t// out\n        /* \"#utility.yul\":8722:9088   */\n    tag_240:\n        /* \"#utility.yul\":8864:8867   */\n      0x00\n        /* \"#utility.yul\":8885:8952   */\n      tag_350\n        /* \"#utility.yul\":8949:8951   */\n      0x22\n        /* \"#utility.yul\":8944:8947   */\n      dup4\n        /* \"#utility.yul\":8885:8952   */\n      tag_238\n      jump\t// in\n    tag_350:\n        /* \"#utility.yul\":8878:8952   */\n      swap2\n      pop\n        /* \"#utility.yul\":8961:9054   */\n      tag_351\n        /* \"#utility.yul\":9050:9053   */\n      dup3\n        /* \"#utility.yul\":8961:9054   */\n      tag_239\n      jump\t// in\n    tag_351:\n        /* \"#utility.yul\":9079:9081   */\n      0x40\n        /* \"#utility.yul\":9074:9077   */\n      dup3\n        /* \"#utility.yul\":9070:9082   */\n      add\n        /* \"#utility.yul\":9063:9082   */\n      swap1\n      pop\n        /* \"#utility.yul\":8722:9088   */\n      swap2\n      swap1\n      pop\n      jump\t// out\n        /* \"#utility.yul\":9094:9513   */\n    tag_90:\n        /* \"#utility.yul\":9260:9264   */\n      0x00\n        /* \"#utility.yul\":9298:9300   */\n      0x20\n        /* \"#utility.yul\":9287:9296   */\n      dup3\n        /* \"#utility.yul\":9283:9301   */\n      add\n        /* \"#utility.yul\":9275:9301   */\n      swap1\n      pop\n        /* \"#utility.yul\":9347:9356   */\n      dup2\n        /* \"#utility.yul\":9341:9345   */\n      dup2\n        /* \"#utility.yul\":9337:9357   */\n      sub\n        /* \"#utility.yul\":9333:9334   */\n      0x00\n        /* \"#utility.yul\":9322:9331   */\n      dup4\n        /* \"#utility.yul\":9318:9335   */\n      add\n        /* \"#utility.yul\":9311:9358   */\n      mstore\n        /* \"#utility.yul\":9375:9506   */\n      tag_353\n        /* \"#utility.yul\":9501:9505   */\n      dup2\n        /* \"#utility.yul\":9375:9506   */\n      tag_240\n      jump\t// in\n    tag_353:\n        /* \"#utility.yul\":9367:9506   */\n      swap1\n      pop\n        /* \"#utility.yul\":9094:9513   */\n      swap2\n      swap1\n      pop\n      jump\t// out\n        /* \"#utility.yul\":9519:9699   */\n    tag_96:\n        /* \"#utility.yul\":9567:9644   */\n      0x4e487b7100000000000000000000000000000000000000000000000000000000\n        /* \"#utility.yul\":9564:9565   */\n      0x00\n        /* \"#utility.yul\":9557:9645   */\n      mstore\n        /* \"#utility.yul\":9664:9668   */\n      0x32\n        /* \"#utility.yul\":9661:9662   */\n      0x04\n        /* \"#utility.yul\":9654:9669   */\n      mstore\n        /* \"#utility.yul\":9688:9692   */\n      0x24\n        /* \"#utility.yul\":9685:9686   */\n      0x00\n        /* \"#utility.yul\":9678:9693   */\n      revert\n        /* \"#utility.yul\":9705:9872   */\n    tag_241:\n        /* \"#utility.yul\":9845:9864   */\n      0x496e76616c696420726f75746572204944000000000000000000000000000000\n        /* \"#utility.yul\":9841:9842   */\n      0x00\n        /* \"#utility.yul\":9833:9839   */\n      dup3\n        /* \"#utility.yul\":9829:9843   */\n      add\n        /* \"#utility.yul\":9822:9865   */\n      mstore\n        /* \"#utility.yul\":9705:9872   */\n      pop\n      jump\t// out\n        /* \"#utility.yul\":9878:10244   */\n    tag_242:\n        /* \"#utility.yul\":10020:10023   */\n      0x00\n        /* \"#utility.yul\":10041:10108   */\n      tag_357\n        /* \"#utility.yul\":10105:10107   */\n      0x11\n        /* \"#utility.yul\":10100:10103   */\n      dup4\n        /* \"#utility.yul\":10041:10108   */\n      tag_238\n      jump\t// in\n    tag_357:\n        /* \"#utility.yul\":10034:10108   */\n      swap2\n      pop\n        /* \"#utility.yul\":10117:10210   */\n      tag_358\n        /* \"#utility.yul\":10206:10209   */\n      dup3\n        /* \"#utility.yul\":10117:10210   */\n      tag_241\n      jump\t// in\n    tag_358:\n        /* \"#utility.yul\":10235:10237   */\n      0x20\n        /* \"#utility.yul\":10230:10233   */\n      dup3\n        /* \"#utility.yul\":10226:10238   */\n      add\n        /* \"#utility.yul\":10219:10238   */\n      swap1\n      pop\n        /* \"#utility.yul\":9878:10244   */\n      swap2\n      swap1\n      pop\n      jump\t// out\n        /* \"#utility.yul\":10250:10669   */\n    tag_106:\n        /* \"#utility.yul\":10416:10420   */\n      0x00\n        /* \"#utility.yul\":10454:10456   */\n      0x20\n        /* \"#utility.yul\":10443:10452   */\n      dup3\n        /* \"#utility.yul\":10439:10457   */\n      add\n        /* \"#utility.yul\":10431:10457   */\n      swap1\n      pop\n        /* \"#utility.yul\":10503:10512   */\n      dup2\n        /* \"#utility.yul\":10497:10501   */\n      dup2\n        /* \"#utility.yul\":10493:10513   */\n      sub\n        /* \"#utility.yul\":10489:10490   */\n      0x00\n        /* \"#utility.yul\":10478:10487   */\n      dup4\n        /* \"#utility.yul\":10474:10491   */\n      add\n        /* \"#utility.yul\":10467:10514   */\n      mstore\n        /* \"#utility.yul\":10531:10662   */\n      tag_360\n        /* \"#utility.yul\":10657:10661   */\n      dup2\n        /* \"#utility.yul\":10531:10662   */\n      tag_242\n      jump\t// in\n    tag_360:\n        /* \"#utility.yul\":10523:10662   */\n      swap1\n      pop\n        /* \"#utility.yul\":10250:10669   */\n      swap2\n      swap1\n      pop\n      jump\t// out\n        /* \"#utility.yul\":10675:11007   */\n    tag_113:\n        /* \"#utility.yul\":10796:10800   */\n      0x00\n        /* \"#utility.yul\":10834:10836   */\n      0x40\n        /* \"#utility.yul\":10823:10832   */\n      dup3\n        /* \"#utility.yul\":10819:10837   */\n      add\n        /* \"#utility.yul\":10811:10837   */\n      swap1\n      pop\n        /* \"#utility.yul\":10847:10918   */\n      tag_362\n        /* \"#utility.yul\":10915:10916   */\n      0x00\n        /* \"#utility.yul\":10904:10913   */\n      dup4\n        /* \"#utility.yul\":10900:10917   */\n      add\n        /* \"#utility.yul\":10891:10897   */\n      dup6\n        /* \"#utility.yul\":10847:10918   */\n      tag_235\n      jump\t// in\n    tag_362:\n        /* \"#utility.yul\":10928:11000   */\n      tag_363\n        /* \"#utility.yul\":10996:10998   */\n      0x20\n        /* \"#utility.yul\":10985:10994   */\n      dup4\n        /* \"#utility.yul\":10981:10999   */\n      add\n        /* \"#utility.yul\":10972:10978   */\n      dup5\n        /* \"#utility.yul\":10928:11000   */\n      tag_235\n      jump\t// in\n    tag_363:\n        /* \"#utility.yul\":10675:11007   */\n      swap4\n      swap3\n      pop\n      pop\n      pop\n      jump\t// out\n        /* \"#utility.yul\":11013:11156   */\n    tag_243:\n        /* \"#utility.yul\":11070:11075   */\n      0x00\n        /* \"#utility.yul\":11101:11107   */\n      dup2\n        /* \"#utility.yul\":11095:11108   */\n      mload\n        /* \"#utility.yul\":11086:11108   */\n      swap1\n      pop\n        /* \"#utility.yul\":11117:11150   */\n      tag_365\n        /* \"#utility.yul\":11144:11149   */\n      dup2\n        /* \"#utility.yul\":11117:11150   */\n      tag_226\n      jump\t// in\n    tag_365:\n        /* \"#utility.yul\":11013:11156   */\n      swap3\n      swap2\n      pop\n      pop\n      jump\t// out\n        /* \"#utility.yul\":11162:11513   */\n    tag_117:\n        /* \"#utility.yul\":11232:11238   */\n      0x00\n        /* \"#utility.yul\":11281:11283   */\n      0x20\n        /* \"#utility.yul\":11269:11278   */\n      dup3\n        /* \"#utility.yul\":11260:11267   */\n      dup5\n        /* \"#utility.yul\":11256:11279   */\n      sub\n        /* \"#utility.yul\":11252:11284   */\n      slt\n        /* \"#utility.yul\":11249:11368   */\n      iszero\n      tag_367\n      jumpi\n        /* \"#utility.yul\":11287:11366   */\n      tag_368\n      tag_213\n      jump\t// in\n    tag_368:\n        /* \"#utility.yul\":11249:11368   */\n    tag_367:\n        /* \"#utility.yul\":11407:11408   */\n      0x00\n        /* \"#utility.yul\":11432:11496   */\n      tag_369\n        /* \"#utility.yul\":11488:11495   */\n      dup5\n        /* \"#utility.yul\":11479:11485   */\n      dup3\n        /* \"#utility.yul\":11468:11477   */\n      dup6\n        /* \"#utility.yul\":11464:11486   */\n      add\n        /* \"#utility.yul\":11432:11496   */\n      tag_243\n      jump\t// in\n    tag_369:\n        /* \"#utility.yul\":11422:11496   */\n      swap2\n      pop\n        /* \"#utility.yul\":11378:11506   */\n      pop\n        /* \"#utility.yul\":11162:11513   */\n      swap3\n      swap2\n      pop\n      pop\n      jump\t// out\n        /* \"#utility.yul\":11519:11744   */\n    tag_244:\n        /* \"#utility.yul\":11659:11693   */\n      0x496e73756666696369656e74205553444320616c6c6f77616e636520666f7220\n        /* \"#utility.yul\":11655:11656   */\n      0x00\n        /* \"#utility.yul\":11647:11653   */\n      dup3\n        /* \"#utility.yul\":11643:11657   */\n      add\n        /* \"#utility.yul\":11636:11694   */\n      mstore\n        /* \"#utility.yul\":11728:11736   */\n      0x726f757465720000000000000000000000000000000000000000000000000000\n        /* \"#utility.yul\":11723:11725   */\n      0x20\n        /* \"#utility.yul\":11715:11721   */\n      dup3\n        /* \"#utility.yul\":11711:11726   */\n      add\n        /* \"#utility.yul\":11704:11737   */\n      mstore\n        /* \"#utility.yul\":11519:11744   */\n      pop\n      jump\t// out\n        /* \"#utility.yul\":11750:12116   */\n    tag_245:\n        /* \"#utility.yul\":11892:11895   */\n      0x00\n        /* \"#utility.yul\":11913:11980   */\n      tag_372\n        /* \"#utility.yul\":11977:11979   */\n      0x26\n        /* \"#utility.yul\":11972:11975   */\n      dup4\n        /* \"#utility.yul\":11913:11980   */\n      tag_238\n      jump\t// in\n    tag_372:\n        /* \"#utility.yul\":11906:11980   */\n      swap2\n      pop\n        /* \"#utility.yul\":11989:12082   */\n      tag_373\n        /* \"#utility.yul\":12078:12081   */\n      dup3\n        /* \"#utility.yul\":11989:12082   */\n      tag_244\n      jump\t// in\n    tag_373:\n        /* \"#utility.yul\":12107:12109   */\n      0x40\n        /* \"#utility.yul\":12102:12105   */\n      dup3\n        /* \"#utility.yul\":12098:12110   */\n      add\n        /* \"#utility.yul\":12091:12110   */\n      swap1\n      pop\n        /* \"#utility.yul\":11750:12116   */\n      swap2\n      swap1\n      pop\n      jump\t// out\n        /* \"#utility.yul\":12122:12541   */\n    tag_120:\n        /* \"#utility.yul\":12288:12292   */\n      0x00\n        /* \"#utility.yul\":12326:12328   */\n      0x20\n        /* \"#utility.yul\":12315:12324   */\n      dup3\n        /* \"#utility.yul\":12311:12329   */\n      add\n        /* \"#utility.yul\":12303:12329   */\n      swap1\n      pop\n        /* \"#utility.yul\":12375:12384   */\n      dup2\n        /* \"#utility.yul\":12369:12373   */\n      dup2\n        /* \"#utility.yul\":12365:12385   */\n      sub\n        /* \"#utility.yul\":12361:12362   */\n      0x00\n        /* \"#utility.yul\":12350:12359   */\n      dup4\n        /* \"#utility.yul\":12346:12363   */\n      add\n        /* \"#utility.yul\":12339:12386   */\n      mstore\n        /* \"#utility.yul\":12403:12534   */\n      tag_375\n        /* \"#utility.yul\":12529:12533   */\n      dup2\n        /* \"#utility.yul\":12403:12534   */\n      tag_245\n      jump\t// in\n    tag_375:\n        /* \"#utility.yul\":12395:12534   */\n      swap1\n      pop\n        /* \"#utility.yul\":12122:12541   */\n      swap2\n      swap1\n      pop\n      jump\t// out\n        /* \"#utility.yul\":12547:12665   */\n    tag_246:\n        /* \"#utility.yul\":12634:12658   */\n      tag_377\n        /* \"#utility.yul\":12652:12657   */\n      dup2\n        /* \"#utility.yul\":12634:12658   */\n      tag_225\n      jump\t// in\n    tag_377:\n        /* \"#utility.yul\":12629:12632   */\n      dup3\n        /* \"#utility.yul\":12622:12659   */\n      mstore\n        /* \"#utility.yul\":12547:12665   */\n      pop\n      pop\n      jump\t// out\n        /* \"#utility.yul\":12671:12893   */\n    tag_127:\n        /* \"#utility.yul\":12764:12768   */\n      0x00\n        /* \"#utility.yul\":12802:12804   */\n      0x20\n        /* \"#utility.yul\":12791:12800   */\n      dup3\n        /* \"#utility.yul\":12787:12805   */\n      add\n        /* \"#utility.yul\":12779:12805   */\n      swap1\n      pop\n        /* \"#utility.yul\":12815:12886   */\n      tag_379\n        /* \"#utility.yul\":12883:12884   */\n      0x00\n        /* \"#utility.yul\":12872:12881   */\n      dup4\n        /* \"#utility.yul\":12868:12885   */\n      add\n        /* \"#utility.yul\":12859:12865   */\n      dup5\n        /* \"#utility.yul\":12815:12886   */\n      tag_246\n      jump\t// in\n    tag_379:\n        /* \"#utility.yul\":12671:12893   */\n      swap3\n      swap2\n      pop\n      pop\n      jump\t// out\n\n    auxdata: 0xa2646970667358221220ac0c2945b15d01c1af4b3d7d30d8c595560236633a5f57d4f7d926a5d63d27ad64736f6c634300081e0033\n}\n",
				"bytecode": {
					"linkReferences": {},
					"object": "60a060405234801561000f575f5ffd5b5060405161163f38038061163f83398181016040528101906100319190610213565b805f73ffffffffffffffffffffffffffffffffffffffff168173ffffffffffffffffffffffffffffffffffffffff16036100a2575f6040517f1e4fbdf70000000000000000000000000000000000000000000000000000000081526004016100999190610260565b60405180910390fd5b6100b1816100f460201b60201c565b50600180819055508173ffffffffffffffffffffffffffffffffffffffff1660808173ffffffffffffffffffffffffffffffffffffffff16815250505050610279565b5f5f5f9054906101000a900473ffffffffffffffffffffffffffffffffffffffff169050815f5f6101000a81548173ffffffffffffffffffffffffffffffffffffffff021916908373ffffffffffffffffffffffffffffffffffffffff1602179055508173ffffffffffffffffffffffffffffffffffffffff168173ffffffffffffffffffffffffffffffffffffffff167f8be0079c531659141344cd1fd0a4f28419497f9722a3daafe3b4186f6b6457e060405160405180910390a35050565b5f5ffd5b5f73ffffffffffffffffffffffffffffffffffffffff82169050919050565b5f6101e2826101b9565b9050919050565b6101f2816101d8565b81146101fc575f5ffd5b50565b5f8151905061020d816101e9565b92915050565b5f5f60408385031215610229576102286101b5565b5b5f610236858286016101ff565b9250506020610247858286016101ff565b9150509250929050565b61025a816101d8565b82525050565b5f6020820190506102735f830184610251565b92915050565b6080516113a061029f5f395f8181610441015281816106b001526107fe01526113a05ff3fe608060405234801561000f575f5ffd5b50600436106100fe575f3560e01c8063612e3146116100955780639f1f61a0116100645780639f1f61a01461022a578063a4518efb14610248578063cac73ed714610266578063f2fde38b14610296576100fe565b8063612e3146146101da578063715018a6146101f85780638456cb59146102025780638da5cb5b1461020c576100fe565b80633f4ba83a116100d15780633f4ba83a1461017657806348fcdc7b1461018057806357df19e61461019e5780635c975abb146101bc576100fe565b806318c786af146101025780631e8bcca5146101205780632b15e47c1461013c5780633e413bee14610158575b5f5ffd5b61010a6102b2565b6040516101179190610d13565b60405180910390f35b61013a60048036038101906101359190610e3f565b6102b6565b005b61015660048036038101906101519190610fa6565b610605565b005b6101606107fc565b60405161016d9190611051565b60405180910390f35b61017e610820565b005b610188610832565b6040516101959190610d13565b60405180910390f35b6101a6610837565b6040516101b39190611079565b60405180910390f35b6101c4610852565b6040516101d191906110ac565b60405180910390f35b6101e2610867565b6040516101ef9190611079565b60405180910390f35b610200610882565b005b61020a610895565b005b6102146108a7565b6040516102219190611079565b60405180910390f35b6102326108ce565b60405161023f9190611079565b60405180910390f35b6102506108e6565b60405161025d9190611079565b60405180910390f35b610280600480360381019061027b91906110c5565b6108fe565b60405161028d9190611079565b60405180910390f35b6102b060048036038101906102ab91906110f0565b610992565b005b5f81565b6102be610a16565b6102c6610a9d565b6102ce610ade565b83839050868690501480156102e857508181905086869050145b80156102f8575060648686905011155b610337576040517f08c379a000000000000000000000000000000000000000000000000000000000815260040161032e9061119b565b60405180910390fd5b5f5f90505b868690508110156105f4575f5f60ff1684848481811061035f5761035e6111b9565b5b905060200201602081019061037491906110c5565b60ff160361039857736352a56caadc4f1e25cd6c75970fa768a3304e649050610425565b600160ff168484848181106103b0576103af6111b9565b5b90506020020160208101906103c591906110c5565b60ff16036103e957736131b5fae19ea4f9d964eac0408e4408b66337b59050610424565b6040517f08c379a000000000000000000000000000000000000000000000000000000000815260040161041b90611230565b60405180910390fd5b5b858583818110610438576104376111b9565b5b905060200201357f000000000000000000000000000000000000000000000000000000000000000073ffffffffffffffffffffffffffffffffffffffff1663dd62ed3e8a8a8681811061048e5761048d6111b9565b5b90506020020160208101906104a391906110f0565b846040518363ffffffff1660e01b81526004016104c192919061124e565b602060405180830381865afa1580156104dc573d5f5f3e3d5ffd5b505050506040513d601f19601f820116820180604052508101906105009190611289565b1015610541576040517f08c379a000000000000000000000000000000000000000000000000000000000815260040161053890611324565b60405180910390fd5b8073ffffffffffffffffffffffffffffffffffffffff1688888481811061056b5761056a6111b9565b5b905060200201602081019061058091906110f0565b73ffffffffffffffffffffffffffffffffffffffff167feab9cd112c05d2451f24acf7702297c9705b2115923d562c663c5272a60fe76f8888868181106105ca576105c96111b9565b5b905060200201356040516105de9190611351565b60405180910390a350808060010191505061033c565b506105fd610b24565b505050505050565b61060d610a16565b610615610a9d565b61061d610ade565b5f5f60ff168260ff160361064757736352a56caadc4f1e25cd6c75970fa768a3304e6490506106ad565b600160ff168260ff160361067157736131b5fae19ea4f9d964eac0408e4408b66337b590506106ac565b6040517f08c379a00000000000000000000000000000000000000000000000000000000081526004016106a390611230565b60405180910390fd5b5b827f000000000000000000000000000000000000000000000000000000000000000073ffffffffffffffffffffffffffffffffffffffff1663dd62ed3e86846040518363ffffffff1660e01b815260040161070992919061124e565b602060405180830381865afa158015610724573d5f5f3e3d5ffd5b505050506040513d601f19601f820116820180604052508101906107489190611289565b1015610789576040517f08c379a000000000000000000000000000000000000000000000000000000000815260040161078090611324565b60405180910390fd5b8073ffffffffffffffffffffffffffffffffffffffff168473ffffffffffffffffffffffffffffffffffffffff167feab9cd112c05d2451f24acf7702297c9705b2115923d562c663c5272a60fe76f856040516107e69190611351565b60405180910390a3506107f7610b24565b505050565b7f000000000000000000000000000000000000000000000000000000000000000081565b610828610a16565b610830610b2d565b565b600181565b5f736131b5fae19ea4f9d964eac0408e4408b66337b5905090565b5f5f60149054906101000a900460ff16905090565b5f736352a56caadc4f1e25cd6c75970fa768a3304e64905090565b61088a610a16565b6108935f610b8e565b565b61089d610a16565b6108a5610c4f565b565b5f5f5f9054906101000a900473ffffffffffffffffffffffffffffffffffffffff16905090565b736131b5fae19ea4f9d964eac0408e4408b66337b581565b736352a56caadc4f1e25cd6c75970fa768a3304e6481565b5f5f60ff168260ff160361092857736352a56caadc4f1e25cd6c75970fa768a3304e64905061098d565b600160ff168260ff160361095257736131b5fae19ea4f9d964eac0408e4408b66337b5905061098d565b6040517f08c379a000000000000000000000000000000000000000000000000000000000815260040161098490611230565b60405180910390fd5b919050565b61099a610a16565b5f73ffffffffffffffffffffffffffffffffffffffff168173ffffffffffffffffffffffffffffffffffffffff1603610a0a575f6040517f1e4fbdf7000000000000000000000000000000000000000000000000000000008152600401610a019190611079565b60405180910390fd5b610a1381610b8e565b50565b610a1e610cb1565b73ffffffffffffffffffffffffffffffffffffffff16610a3c6108a7565b73ffffffffffffffffffffffffffffffffffffffff1614610a9b57610a5f610cb1565b6040517f118cdaa7000000000000000000000000000000000000000000000000000000008152600401610a929190611079565b60405180910390fd5b565b610aa5610852565b15610adc576040517fd93c066500000000000000000000000000000000000000000000000000000000815260040160405180910390fd5b565b600260015403610b1a576040517f3ee5aeb500000000000000000000000000000000000000000000000000000000815260040160405180910390fd5b6002600181905550565b60018081905550565b610b35610cb8565b5f5f60146101000a81548160ff0219169083151502179055507f5db9ee0a495bf2e6ff9c91a7834c1ba4fdd244a5e8aa4e537bd38aeae4b073aa610b77610cb1565b604051610b849190611079565b60405180910390a1565b5f5f5f9054906101000a900473ffffffffffffffffffffffffffffffffffffffff169050815f5f6101000a81548173ffffffffffffffffffffffffffffffffffffffff021916908373ffffffffffffffffffffffffffffffffffffffff1602179055508173ffffffffffffffffffffffffffffffffffffffff168173ffffffffffffffffffffffffffffffffffffffff167f8be0079c531659141344cd1fd0a4f28419497f9722a3daafe3b4186f6b6457e060405160405180910390a35050565b610c57610a9d565b60015f60146101000a81548160ff0219169083151502179055507f62e78cea01bee320cd4e420270b5ea74000d11b0c9f74754ebdbfc544b05a258610c9a610cb1565b604051610ca79190611079565b60405180910390a1565b5f33905090565b610cc0610852565b610cf6576040517f8dfc202b00000000000000000000000000000000000000000000000000000000815260040160405180910390fd5b565b5f60ff82169050919050565b610d0d81610cf8565b82525050565b5f602082019050610d265f830184610d04565b92915050565b5f5ffd5b5f5ffd5b5f5ffd5b5f5ffd5b5f5ffd5b5f5f83601f840112610d5557610d54610d34565b5b8235905067ffffffffffffffff811115610d7257610d71610d38565b5b602083019150836020820283011115610d8e57610d8d610d3c565b5b9250929050565b5f5f83601f840112610daa57610da9610d34565b5b8235905067ffffffffffffffff811115610dc757610dc6610d38565b5b602083019150836020820283011115610de357610de2610d3c565b5b9250929050565b5f5f83601f840112610dff57610dfe610d34565b5b8235905067ffffffffffffffff811115610e1c57610e1b610d38565b5b602083019150836020820283011115610e3857610e37610d3c565b5b9250929050565b5f5f5f5f5f5f60608789031215610e5957610e58610d2c565b5b5f87013567ffffffffffffffff811115610e7657610e75610d30565b5b610e8289828a01610d40565b9650965050602087013567ffffffffffffffff811115610ea557610ea4610d30565b5b610eb189828a01610d95565b9450945050604087013567ffffffffffffffff811115610ed457610ed3610d30565b5b610ee089828a01610dea565b92509250509295509295509295565b5f73ffffffffffffffffffffffffffffffffffffffff82169050919050565b5f610f1882610eef565b9050919050565b610f2881610f0e565b8114610f32575f5ffd5b50565b5f81359050610f4381610f1f565b92915050565b5f819050919050565b610f5b81610f49565b8114610f65575f5ffd5b50565b5f81359050610f7681610f52565b92915050565b610f8581610cf8565b8114610f8f575f5ffd5b50565b5f81359050610fa081610f7c565b92915050565b5f5f5f60608486031215610fbd57610fbc610d2c565b5b5f610fca86828701610f35565b9350506020610fdb86828701610f68565b9250506040610fec86828701610f92565b9150509250925092565b5f819050919050565b5f61101961101461100f84610eef565b610ff6565b610eef565b9050919050565b5f61102a82610fff565b9050919050565b5f61103b82611020565b9050919050565b61104b81611031565b82525050565b5f6020820190506110645f830184611042565b92915050565b61107381610f0e565b82525050565b5f60208201905061108c5f83018461106a565b92915050565b5f8115159050919050565b6110a681611092565b82525050565b5f6020820190506110bf5f83018461109d565b92915050565b5f602082840312156110da576110d9610d2c565b5b5f6110e784828501610f92565b91505092915050565b5f6020828403121561110557611104610d2c565b5b5f61111284828501610f35565b91505092915050565b5f82825260208201905092915050565b7f4172726179206c656e677468206d69736d61746368206f7220746f6f206c61725f8201527f6765000000000000000000000000000000000000000000000000000000000000602082015250565b5f61118560228361111b565b91506111908261112b565b604082019050919050565b5f6020820190508181035f8301526111b281611179565b9050919050565b7f4e487b71000000000000000000000000000000000000000000000000000000005f52603260045260245ffd5b7f496e76616c696420726f757465722049440000000000000000000000000000005f82015250565b5f61121a60118361111b565b9150611225826111e6565b602082019050919050565b5f6020820190508181035f8301526112478161120e565b9050919050565b5f6040820190506112615f83018561106a565b61126e602083018461106a565b9392505050565b5f8151905061128381610f52565b92915050565b5f6020828403121561129e5761129d610d2c565b5b5f6112ab84828501611275565b91505092915050565b7f496e73756666696369656e74205553444320616c6c6f77616e636520666f72205f8201527f726f757465720000000000000000000000000000000000000000000000000000602082015250565b5f61130e60268361111b565b9150611319826112b4565b604082019050919050565b5f6020820190508181035f83015261133b81611302565b9050919050565b61134b81610f49565b82525050565b5f6020820190506113645f830184611342565b9291505056fea2646970667358221220ac0c2945b15d01c1af4b3d7d30d8c595560236633a5f57d4f7d926a5d63d27ad64736f6c634300081e0033",
					"opcodes": "PUSH1 0xA0 PUSH1 0x40 MSTORE CALLVALUE DUP1 ISZERO PUSH2 0xF JUMPI PUSH0 PUSH0 REVERT JUMPDEST POP PUSH1 0x40 MLOAD PUSH2 0x163F CODESIZE SUB DUP1 PUSH2 0x163F DUP4 CODECOPY DUP2 DUP2 ADD PUSH1 0x40 MSTORE DUP2 ADD SWAP1 PUSH2 0x31 SWAP2 SWAP1 PUSH2 0x213 JUMP JUMPDEST DUP1 PUSH0 PUSH20 0xFFFFFFFFFFFFFFFFFFFFFFFFFFFFFFFFFFFFFFFF AND DUP2 PUSH20 0xFFFFFFFFFFFFFFFFFFFFFFFFFFFFFFFFFFFFFFFF AND SUB PUSH2 0xA2 JUMPI PUSH0 PUSH1 0x40 MLOAD PUSH32 0x1E4FBDF700000000000000000000000000000000000000000000000000000000 DUP2 MSTORE PUSH1 0x4 ADD PUSH2 0x99 SWAP2 SWAP1 PUSH2 0x260 JUMP JUMPDEST PUSH1 0x40 MLOAD DUP1 SWAP2 SUB SWAP1 REVERT JUMPDEST PUSH2 0xB1 DUP2 PUSH2 0xF4 PUSH1 0x20 SHL PUSH1 0x20 SHR JUMP JUMPDEST POP PUSH1 0x1 DUP1 DUP2 SWAP1 SSTORE POP DUP2 PUSH20 0xFFFFFFFFFFFFFFFFFFFFFFFFFFFFFFFFFFFFFFFF AND PUSH1 0x80 DUP2 PUSH20 0xFFFFFFFFFFFFFFFFFFFFFFFFFFFFFFFFFFFFFFFF AND DUP2 MSTORE POP POP POP POP PUSH2 0x279 JUMP JUMPDEST PUSH0 PUSH0 PUSH0 SWAP1 SLOAD SWAP1 PUSH2 0x100 EXP SWAP1 DIV PUSH20 0xFFFFFFFFFFFFFFFFFFFFFFFFFFFFFFFFFFFFFFFF AND SWAP1 POP DUP2 PUSH0 PUSH0 PUSH2 0x100 EXP DUP2 SLOAD DUP2 PUSH20 0xFFFFFFFFFFFFFFFFFFFFFFFFFFFFFFFFFFFFFFFF MUL NOT AND SWAP1 DUP4 PUSH20 0xFFFFFFFFFFFFFFFFFFFFFFFFFFFFFFFFFFFFFFFF AND MUL OR SWAP1 SSTORE POP DUP2 PUSH20 0xFFFFFFFFFFFFFFFFFFFFFFFFFFFFFFFFFFFFFFFF AND DUP2 PUSH20 0xFFFFFFFFFFFFFFFFFFFFFFFFFFFFFFFFFFFFFFFF AND PUSH32 0x8BE0079C531659141344CD1FD0A4F28419497F9722A3DAAFE3B4186F6B6457E0 PUSH1 0x40 MLOAD PUSH1 0x40 MLOAD DUP1 SWAP2 SUB SWAP1 LOG3 POP POP JUMP JUMPDEST PUSH0 PUSH0 REVERT JUMPDEST PUSH0 PUSH20 0xFFFFFFFFFFFFFFFFFFFFFFFFFFFFFFFFFFFFFFFF DUP3 AND SWAP1 POP SWAP2 SWAP1 POP JUMP JUMPDEST PUSH0 PUSH2 0x1E2 DUP3 PUSH2 0x1B9 JUMP JUMPDEST SWAP1 POP SWAP2 SWAP1 POP JUMP JUMPDEST PUSH2 0x1F2 DUP2 PUSH2 0x1D8 JUMP JUMPDEST DUP2 EQ PUSH2 0x1FC JUMPI PUSH0 PUSH0 REVERT JUMPDEST POP JUMP JUMPDEST PUSH0 DUP2 MLOAD SWAP1 POP PUSH2 0x20D DUP2 PUSH2 0x1E9 JUMP JUMPDEST SWAP3 SWAP2 POP POP JUMP JUMPDEST PUSH0 PUSH0 PUSH1 0x40 DUP4 DUP6 SUB SLT ISZERO PUSH2 0x229 JUMPI PUSH2 0x228 PUSH2 0x1B5 JUMP JUMPDEST JUMPDEST PUSH0 PUSH2 0x236 DUP6 DUP3 DUP7 ADD PUSH2 0x1FF JUMP JUMPDEST SWAP3 POP POP PUSH1 0x20 PUSH2 0x247 DUP6 DUP3 DUP7 ADD PUSH2 0x1FF JUMP JUMPDEST SWAP2 POP POP SWAP3 POP SWAP3 SWAP1 POP JUMP JUMPDEST PUSH2 0x25A DUP2 PUSH2 0x1D8 JUMP JUMPDEST DUP3 MSTORE POP POP JUMP JUMPDEST PUSH0 PUSH1 0x20 DUP3 ADD SWAP1 POP PUSH2 0x273 PUSH0 DUP4 ADD DUP5 PUSH2 0x251 JUMP JUMPDEST SWAP3 SWAP2 POP POP JUMP JUMPDEST PUSH1 0x80 MLOAD PUSH2 0x13A0 PUSH2 0x29F PUSH0 CODECOPY PUSH0 DUP2 DUP2 PUSH2 0x441 ADD MSTORE DUP2 DUP2 PUSH2 0x6B0 ADD MSTORE PUSH2 0x7FE ADD MSTORE PUSH2 0x13A0 PUSH0 RETURN INVALID PUSH1 0x80 PUSH1 0x40 MSTORE CALLVALUE DUP1 ISZERO PUSH2 0xF JUMPI PUSH0 PUSH0 REVERT JUMPDEST POP PUSH1 0x4 CALLDATASIZE LT PUSH2 0xFE JUMPI PUSH0 CALLDATALOAD PUSH1 0xE0 SHR DUP1 PUSH4 0x612E3146 GT PUSH2 0x95 JUMPI DUP1 PUSH4 0x9F1F61A0 GT PUSH2 0x64 JUMPI DUP1 PUSH4 0x9F1F61A0 EQ PUSH2 0x22A JUMPI DUP1 PUSH4 0xA4518EFB EQ PUSH2 0x248 JUMPI DUP1 PUSH4 0xCAC73ED7 EQ PUSH2 0x266 JUMPI DUP1 PUSH4 0xF2FDE38B EQ PUSH2 0x296 JUMPI PUSH2 0xFE JUMP JUMPDEST DUP1 PUSH4 0x612E3146 EQ PUSH2 0x1DA JUMPI DUP1 PUSH4 0x715018A6 EQ PUSH2 0x1F8 JUMPI DUP1 PUSH4 0x8456CB59 EQ PUSH2 0x202 JUMPI DUP1 PUSH4 0x8DA5CB5B EQ PUSH2 0x20C JUMPI PUSH2 0xFE JUMP JUMPDEST DUP1 PUSH4 0x3F4BA83A GT PUSH2 0xD1 JUMPI DUP1 PUSH4 0x3F4BA83A EQ PUSH2 0x176 JUMPI DUP1 PUSH4 0x48FCDC7B EQ PUSH2 0x180 JUMPI DUP1 PUSH4 0x57DF19E6 EQ PUSH2 0x19E JUMPI DUP1 PUSH4 0x5C975ABB EQ PUSH2 0x1BC JUMPI PUSH2 0xFE JUMP JUMPDEST DUP1 PUSH4 0x18C786AF EQ PUSH2 0x102 JUMPI DUP1 PUSH4 0x1E8BCCA5 EQ PUSH2 0x120 JUMPI DUP1 PUSH4 0x2B15E47C EQ PUSH2 0x13C JUMPI DUP1 PUSH4 0x3E413BEE EQ PUSH2 0x158 JUMPI JUMPDEST PUSH0 PUSH0 REVERT JUMPDEST PUSH2 0x10A PUSH2 0x2B2 JUMP JUMPDEST PUSH1 0x40 MLOAD PUSH2 0x117 SWAP2 SWAP1 PUSH2 0xD13 JUMP JUMPDEST PUSH1 0x40 MLOAD DUP1 SWAP2 SUB SWAP1 RETURN JUMPDEST PUSH2 0x13A PUSH1 0x4 DUP1 CALLDATASIZE SUB DUP2 ADD SWAP1 PUSH2 0x135 SWAP2 SWAP1 PUSH2 0xE3F JUMP JUMPDEST PUSH2 0x2B6 JUMP JUMPDEST STOP JUMPDEST PUSH2 0x156 PUSH1 0x4 DUP1 CALLDATASIZE SUB DUP2 ADD SWAP1 PUSH2 0x151 SWAP2 SWAP1 PUSH2 0xFA6 JUMP JUMPDEST PUSH2 0x605 JUMP JUMPDEST STOP JUMPDEST PUSH2 0x160 PUSH2 0x7FC JUMP JUMPDEST PUSH1 0x40 MLOAD PUSH2 0x16D SWAP2 SWAP1 PUSH2 0x1051 JUMP JUMPDEST PUSH1 0x40 MLOAD DUP1 SWAP2 SUB SWAP1 RETURN JUMPDEST PUSH2 0x17E PUSH2 0x820 JUMP JUMPDEST STOP JUMPDEST PUSH2 0x188 PUSH2 0x832 JUMP JUMPDEST PUSH1 0x40 MLOAD PUSH2 0x195 SWAP2 SWAP1 PUSH2 0xD13 JUMP JUMPDEST PUSH1 0x40 MLOAD DUP1 SWAP2 SUB SWAP1 RETURN JUMPDEST PUSH2 0x1A6 PUSH2 0x837 JUMP JUMPDEST PUSH1 0x40 MLOAD PUSH2 0x1B3 SWAP2 SWAP1 PUSH2 0x1079 JUMP JUMPDEST PUSH1 0x40 MLOAD DUP1 SWAP2 SUB SWAP1 RETURN JUMPDEST PUSH2 0x1C4 PUSH2 0x852 JUMP JUMPDEST PUSH1 0x40 MLOAD PUSH2 0x1D1 SWAP2 SWAP1 PUSH2 0x10AC JUMP JUMPDEST PUSH1 0x40 MLOAD DUP1 SWAP2 SUB SWAP1 RETURN JUMPDEST PUSH2 0x1E2 PUSH2 0x867 JUMP JUMPDEST PUSH1 0x40 MLOAD PUSH2 0x1EF SWAP2 SWAP1 PUSH2 0x1079 JUMP JUMPDEST PUSH1 0x40 MLOAD DUP1 SWAP2 SUB SWAP1 RETURN JUMPDEST PUSH2 0x200 PUSH2 0x882 JUMP JUMPDEST STOP JUMPDEST PUSH2 0x20A PUSH2 0x895 JUMP JUMPDEST STOP JUMPDEST PUSH2 0x214 PUSH2 0x8A7 JUMP JUMPDEST PUSH1 0x40 MLOAD PUSH2 0x221 SWAP2 SWAP1 PUSH2 0x1079 JUMP JUMPDEST PUSH1 0x40 MLOAD DUP1 SWAP2 SUB SWAP1 RETURN JUMPDEST PUSH2 0x232 PUSH2 0x8CE JUMP JUMPDEST PUSH1 0x40 MLOAD PUSH2 0x23F SWAP2 SWAP1 PUSH2 0x1079 JUMP JUMPDEST PUSH1 0x40 MLOAD DUP1 SWAP2 SUB SWAP1 RETURN JUMPDEST PUSH2 0x250 PUSH2 0x8E6 JUMP JUMPDEST PUSH1 0x40 MLOAD PUSH2 0x25D SWAP2 SWAP1 PUSH2 0x1079 JUMP JUMPDEST PUSH1 0x40 MLOAD DUP1 SWAP2 SUB SWAP1 RETURN JUMPDEST PUSH2 0x280 PUSH1 0x4 DUP1 CALLDATASIZE SUB DUP2 ADD SWAP1 PUSH2 0x27B SWAP2 SWAP1 PUSH2 0x10C5 JUMP JUMPDEST PUSH2 0x8FE JUMP JUMPDEST PUSH1 0x40 MLOAD PUSH2 0x28D SWAP2 SWAP1 PUSH2 0x1079 JUMP JUMPDEST PUSH1 0x40 MLOAD DUP1 SWAP2 SUB SWAP1 RETURN JUMPDEST PUSH2 0x2B0 PUSH1 0x4 DUP1 CALLDATASIZE SUB DUP2 ADD SWAP1 PUSH2 0x2AB SWAP2 SWAP1 PUSH2 0x10F0 JUMP JUMPDEST PUSH2 0x992 JUMP JUMPDEST STOP JUMPDEST PUSH0 DUP2 JUMP JUMPDEST PUSH2 0x2BE PUSH2 0xA16 JUMP JUMPDEST PUSH2 0x2C6 PUSH2 0xA9D JUMP JUMPDEST PUSH2 0x2CE PUSH2 0xADE JUMP JUMPDEST DUP4 DUP4 SWAP1 POP DUP7 DUP7 SWAP1 POP EQ DUP1 ISZERO PUSH2 0x2E8 JUMPI POP DUP2 DUP2 SWAP1 POP DUP7 DUP7 SWAP1 POP EQ JUMPDEST DUP1 ISZERO PUSH2 0x2F8 JUMPI POP PUSH1 0x64 DUP7 DUP7 SWAP1 POP GT ISZERO JUMPDEST PUSH2 0x337 JUMPI PUSH1 0x40 MLOAD PUSH32 0x8C379A000000000000000000000000000000000000000000000000000000000 DUP2 MSTORE PUSH1 0x4 ADD PUSH2 0x32E SWAP1 PUSH2 0x119B JUMP JUMPDEST PUSH1 0x40 MLOAD DUP1 SWAP2 SUB SWAP1 REVERT JUMPDEST PUSH0 PUSH0 SWAP1 POP JUMPDEST DUP7 DUP7 SWAP1 POP DUP2 LT ISZERO PUSH2 0x5F4 JUMPI PUSH0 PUSH0 PUSH1 0xFF AND DUP5 DUP5 DUP5 DUP2 DUP2 LT PUSH2 0x35F JUMPI PUSH2 0x35E PUSH2 0x11B9 JUMP JUMPDEST JUMPDEST SWAP1 POP PUSH1 0x20 MUL ADD PUSH1 0x20 DUP2 ADD SWAP1 PUSH2 0x374 SWAP2 SWAP1 PUSH2 0x10C5 JUMP JUMPDEST PUSH1 0xFF AND SUB PUSH2 0x398 JUMPI PUSH20 0x6352A56CAADC4F1E25CD6C75970FA768A3304E64 SWAP1 POP PUSH2 0x425 JUMP JUMPDEST PUSH1 0x1 PUSH1 0xFF AND DUP5 DUP5 DUP5 DUP2 DUP2 LT PUSH2 0x3B0 JUMPI PUSH2 0x3AF PUSH2 0x11B9 JUMP JUMPDEST JUMPDEST SWAP1 POP PUSH1 0x20 MUL ADD PUSH1 0x20 DUP2 ADD SWAP1 PUSH2 0x3C5 SWAP2 SWAP1 PUSH2 0x10C5 JUMP JUMPDEST PUSH1 0xFF AND SUB PUSH2 0x3E9 JUMPI PUSH20 0x6131B5FAE19EA4F9D964EAC0408E4408B66337B5 SWAP1 POP PUSH2 0x424 JUMP JUMPDEST PUSH1 0x40 MLOAD PUSH32 0x8C379A000000000000000000000000000000000000000000000000000000000 DUP2 MSTORE PUSH1 0x4 ADD PUSH2 0x41B SWAP1 PUSH2 0x1230 JUMP JUMPDEST PUSH1 0x40 MLOAD DUP1 SWAP2 SUB SWAP1 REVERT JUMPDEST JUMPDEST DUP6 DUP6 DUP4 DUP2 DUP2 LT PUSH2 0x438 JUMPI PUSH2 0x437 PUSH2 0x11B9 JUMP JUMPDEST JUMPDEST SWAP1 POP PUSH1 0x20 MUL ADD CALLDATALOAD PUSH32 0x0 PUSH20 0xFFFFFFFFFFFFFFFFFFFFFFFFFFFFFFFFFFFFFFFF AND PUSH4 0xDD62ED3E DUP11 DUP11 DUP7 DUP2 DUP2 LT PUSH2 0x48E JUMPI PUSH2 0x48D PUSH2 0x11B9 JUMP JUMPDEST JUMPDEST SWAP1 POP PUSH1 0x20 MUL ADD PUSH1 0x20 DUP2 ADD SWAP1 PUSH2 0x4A3 SWAP2 SWAP1 PUSH2 0x10F0 JUMP JUMPDEST DUP5 PUSH1 0x40 MLOAD DUP4 PUSH4 0xFFFFFFFF AND PUSH1 0xE0 SHL DUP2 MSTORE PUSH1 0x4 ADD PUSH2 0x4C1 SWAP3 SWAP2 SWAP1 PUSH2 0x124E JUMP JUMPDEST PUSH1 0x20 PUSH1 0x40 MLOAD DUP1 DUP4 SUB DUP2 DUP7 GAS STATICCALL ISZERO DUP1 ISZERO PUSH2 0x4DC JUMPI RETURNDATASIZE PUSH0 PUSH0 RETURNDATACOPY RETURNDATASIZE PUSH0 REVERT JUMPDEST POP POP POP POP PUSH1 0x40 MLOAD RETURNDATASIZE PUSH1 0x1F NOT PUSH1 0x1F DUP3 ADD AND DUP3 ADD DUP1 PUSH1 0x40 MSTORE POP DUP2 ADD SWAP1 PUSH2 0x500 SWAP2 SWAP1 PUSH2 0x1289 JUMP JUMPDEST LT ISZERO PUSH2 0x541 JUMPI PUSH1 0x40 MLOAD PUSH32 0x8C379A000000000000000000000000000000000000000000000000000000000 DUP2 MSTORE PUSH1 0x4 ADD PUSH2 0x538 SWAP1 PUSH2 0x1324 JUMP JUMPDEST PUSH1 0x40 MLOAD DUP1 SWAP2 SUB SWAP1 REVERT JUMPDEST DUP1 PUSH20 0xFFFFFFFFFFFFFFFFFFFFFFFFFFFFFFFFFFFFFFFF AND DUP9 DUP9 DUP5 DUP2 DUP2 LT PUSH2 0x56B JUMPI PUSH2 0x56A PUSH2 0x11B9 JUMP JUMPDEST JUMPDEST SWAP1 POP PUSH1 0x20 MUL ADD PUSH1 0x20 DUP2 ADD SWAP1 PUSH2 0x580 SWAP2 SWAP1 PUSH2 0x10F0 JUMP JUMPDEST PUSH20 0xFFFFFFFFFFFFFFFFFFFFFFFFFFFFFFFFFFFFFFFF AND PUSH32 0xEAB9CD112C05D2451F24ACF7702297C9705B2115923D562C663C5272A60FE76F DUP9 DUP9 DUP7 DUP2 DUP2 LT PUSH2 0x5CA JUMPI PUSH2 0x5C9 PUSH2 0x11B9 JUMP JUMPDEST JUMPDEST SWAP1 POP PUSH1 0x20 MUL ADD CALLDATALOAD PUSH1 0x40 MLOAD PUSH2 0x5DE SWAP2 SWAP1 PUSH2 0x1351 JUMP JUMPDEST PUSH1 0x40 MLOAD DUP1 SWAP2 SUB SWAP1 LOG3 POP DUP1 DUP1 PUSH1 0x1 ADD SWAP2 POP POP PUSH2 0x33C JUMP JUMPDEST POP PUSH2 0x5FD PUSH2 0xB24 JUMP JUMPDEST POP POP POP POP POP POP JUMP JUMPDEST PUSH2 0x60D PUSH2 0xA16 JUMP JUMPDEST PUSH2 0x615 PUSH2 0xA9D JUMP JUMPDEST PUSH2 0x61D PUSH2 0xADE JUMP JUMPDEST PUSH0 PUSH0 PUSH1 0xFF AND DUP3 PUSH1 0xFF AND SUB PUSH2 0x647 JUMPI PUSH20 0x6352A56CAADC4F1E25CD6C75970FA768A3304E64 SWAP1 POP PUSH2 0x6AD JUMP JUMPDEST PUSH1 0x1 PUSH1 0xFF AND DUP3 PUSH1 0xFF AND SUB PUSH2 0x671 JUMPI PUSH20 0x6131B5FAE19EA4F9D964EAC0408E4408B66337B5 SWAP1 POP PUSH2 0x6AC JUMP JUMPDEST PUSH1 0x40 MLOAD PUSH32 0x8C379A000000000000000000000000000000000000000000000000000000000 DUP2 MSTORE PUSH1 0x4 ADD PUSH2 0x6A3 SWAP1 PUSH2 0x1230 JUMP JUMPDEST PUSH1 0x40 MLOAD DUP1 SWAP2 SUB SWAP1 REVERT JUMPDEST JUMPDEST DUP3 PUSH32 0x0 PUSH20 0xFFFFFFFFFFFFFFFFFFFFFFFFFFFFFFFFFFFFFFFF AND PUSH4 0xDD62ED3E DUP7 DUP5 PUSH1 0x40 MLOAD DUP4 PUSH4 0xFFFFFFFF AND PUSH1 0xE0 SHL DUP2 MSTORE PUSH1 0x4 ADD PUSH2 0x709 SWAP3 SWAP2 SWAP1 PUSH2 0x124E JUMP JUMPDEST PUSH1 0x20 PUSH1 0x40 MLOAD DUP1 DUP4 SUB DUP2 DUP7 GAS STATICCALL ISZERO DUP1 ISZERO PUSH2 0x724 JUMPI RETURNDATASIZE PUSH0 PUSH0 RETURNDATACOPY RETURNDATASIZE PUSH0 REVERT JUMPDEST POP POP POP POP PUSH1 0x40 MLOAD RETURNDATASIZE PUSH1 0x1F NOT PUSH1 0x1F DUP3 ADD AND DUP3 ADD DUP1 PUSH1 0x40 MSTORE POP DUP2 ADD SWAP1 PUSH2 0x748 SWAP2 SWAP1 PUSH2 0x1289 JUMP JUMPDEST LT ISZERO PUSH2 0x789 JUMPI PUSH1 0x40 MLOAD PUSH32 0x8C379A000000000000000000000000000000000000000000000000000000000 DUP2 MSTORE PUSH1 0x4 ADD PUSH2 0x780 SWAP1 PUSH2 0x1324 JUMP JUMPDEST PUSH1 0x40 MLOAD DUP1 SWAP2 SUB SWAP1 REVERT JUMPDEST DUP1 PUSH20 0xFFFFFFFFFFFFFFFFFFFFFFFFFFFFFFFFFFFFFFFF AND DUP5 PUSH20 0xFFFFFFFFFFFFFFFFFFFFFFFFFFFFFFFFFFFFFFFF AND PUSH32 0xEAB9CD112C05D2451F24ACF7702297C9705B2115923D562C663C5272A60FE76F DUP6 PUSH1 0x40 MLOAD PUSH2 0x7E6 SWAP2 SWAP1 PUSH2 0x1351 JUMP JUMPDEST PUSH1 0x40 MLOAD DUP1 SWAP2 SUB SWAP1 LOG3 POP PUSH2 0x7F7 PUSH2 0xB24 JUMP JUMPDEST POP POP POP JUMP JUMPDEST PUSH32 0x0 DUP2 JUMP JUMPDEST PUSH2 0x828 PUSH2 0xA16 JUMP JUMPDEST PUSH2 0x830 PUSH2 0xB2D JUMP JUMPDEST JUMP JUMPDEST PUSH1 0x1 DUP2 JUMP JUMPDEST PUSH0 PUSH20 0x6131B5FAE19EA4F9D964EAC0408E4408B66337B5 SWAP1 POP SWAP1 JUMP JUMPDEST PUSH0 PUSH0 PUSH1 0x14 SWAP1 SLOAD SWAP1 PUSH2 0x100 EXP SWAP1 DIV PUSH1 0xFF AND SWAP1 POP SWAP1 JUMP JUMPDEST PUSH0 PUSH20 0x6352A56CAADC4F1E25CD6C75970FA768A3304E64 SWAP1 POP SWAP1 JUMP JUMPDEST PUSH2 0x88A PUSH2 0xA16 JUMP JUMPDEST PUSH2 0x893 PUSH0 PUSH2 0xB8E JUMP JUMPDEST JUMP JUMPDEST PUSH2 0x89D PUSH2 0xA16 JUMP JUMPDEST PUSH2 0x8A5 PUSH2 0xC4F JUMP JUMPDEST JUMP JUMPDEST PUSH0 PUSH0 PUSH0 SWAP1 SLOAD SWAP1 PUSH2 0x100 EXP SWAP1 DIV PUSH20 0xFFFFFFFFFFFFFFFFFFFFFFFFFFFFFFFFFFFFFFFF AND SWAP1 POP SWAP1 JUMP JUMPDEST PUSH20 0x6131B5FAE19EA4F9D964EAC0408E4408B66337B5 DUP2 JUMP JUMPDEST PUSH20 0x6352A56CAADC4F1E25CD6C75970FA768A3304E64 DUP2 JUMP JUMPDEST PUSH0 PUSH0 PUSH1 0xFF AND DUP3 PUSH1 0xFF AND SUB PUSH2 0x928 JUMPI PUSH20 0x6352A56CAADC4F1E25CD6C75970FA768A3304E64 SWAP1 POP PUSH2 0x98D JUMP JUMPDEST PUSH1 0x1 PUSH1 0xFF AND DUP3 PUSH1 0xFF AND SUB PUSH2 0x952 JUMPI PUSH20 0x6131B5FAE19EA4F9D964EAC0408E4408B66337B5 SWAP1 POP PUSH2 0x98D JUMP JUMPDEST PUSH1 0x40 MLOAD PUSH32 0x8C379A000000000000000000000000000000000000000000000000000000000 DUP2 MSTORE PUSH1 0x4 ADD PUSH2 0x984 SWAP1 PUSH2 0x1230 JUMP JUMPDEST PUSH1 0x40 MLOAD DUP1 SWAP2 SUB SWAP1 REVERT JUMPDEST SWAP2 SWAP1 POP JUMP JUMPDEST PUSH2 0x99A PUSH2 0xA16 JUMP JUMPDEST PUSH0 PUSH20 0xFFFFFFFFFFFFFFFFFFFFFFFFFFFFFFFFFFFFFFFF AND DUP2 PUSH20 0xFFFFFFFFFFFFFFFFFFFFFFFFFFFFFFFFFFFFFFFF AND SUB PUSH2 0xA0A JUMPI PUSH0 PUSH1 0x40 MLOAD PUSH32 0x1E4FBDF700000000000000000000000000000000000000000000000000000000 DUP2 MSTORE PUSH1 0x4 ADD PUSH2 0xA01 SWAP2 SWAP1 PUSH2 0x1079 JUMP JUMPDEST PUSH1 0x40 MLOAD DUP1 SWAP2 SUB SWAP1 REVERT JUMPDEST PUSH2 0xA13 DUP2 PUSH2 0xB8E JUMP JUMPDEST POP JUMP JUMPDEST PUSH2 0xA1E PUSH2 0xCB1 JUMP JUMPDEST PUSH20 0xFFFFFFFFFFFFFFFFFFFFFFFFFFFFFFFFFFFFFFFF AND PUSH2 0xA3C PUSH2 0x8A7 JUMP JUMPDEST PUSH20 0xFFFFFFFFFFFFFFFFFFFFFFFFFFFFFFFFFFFFFFFF AND EQ PUSH2 0xA9B JUMPI PUSH2 0xA5F PUSH2 0xCB1 JUMP JUMPDEST PUSH1 0x40 MLOAD PUSH32 0x118CDAA700000000000000000000000000000000000000000000000000000000 DUP2 MSTORE PUSH1 0x4 ADD PUSH2 0xA92 SWAP2 SWAP1 PUSH2 0x1079 JUMP JUMPDEST PUSH1 0x40 MLOAD DUP1 SWAP2 SUB SWAP1 REVERT JUMPDEST JUMP JUMPDEST PUSH2 0xAA5 PUSH2 0x852 JUMP JUMPDEST ISZERO PUSH2 0xADC JUMPI PUSH1 0x40 MLOAD PUSH32 0xD93C066500000000000000000000000000000000000000000000000000000000 DUP2 MSTORE PUSH1 0x4 ADD PUSH1 0x40 MLOAD DUP1 SWAP2 SUB SWAP1 REVERT JUMPDEST JUMP JUMPDEST PUSH1 0x2 PUSH1 0x1 SLOAD SUB PUSH2 0xB1A JUMPI PUSH1 0x40 MLOAD PUSH32 0x3EE5AEB500000000000000000000000000000000000000000000000000000000 DUP2 MSTORE PUSH1 0x4 ADD PUSH1 0x40 MLOAD DUP1 SWAP2 SUB SWAP1 REVERT JUMPDEST PUSH1 0x2 PUSH1 0x1 DUP2 SWAP1 SSTORE POP JUMP JUMPDEST PUSH1 0x1 DUP1 DUP2 SWAP1 SSTORE POP JUMP JUMPDEST PUSH2 0xB35 PUSH2 0xCB8 JUMP JUMPDEST PUSH0 PUSH0 PUSH1 0x14 PUSH2 0x100 EXP DUP2 SLOAD DUP2 PUSH1 0xFF MUL NOT AND SWAP1 DUP4 ISZERO ISZERO MUL OR SWAP1 SSTORE POP PUSH32 0x5DB9EE0A495BF2E6FF9C91A7834C1BA4FDD244A5E8AA4E537BD38AEAE4B073AA PUSH2 0xB77 PUSH2 0xCB1 JUMP JUMPDEST PUSH1 0x40 MLOAD PUSH2 0xB84 SWAP2 SWAP1 PUSH2 0x1079 JUMP JUMPDEST PUSH1 0x40 MLOAD DUP1 SWAP2 SUB SWAP1 LOG1 JUMP JUMPDEST PUSH0 PUSH0 PUSH0 SWAP1 SLOAD SWAP1 PUSH2 0x100 EXP SWAP1 DIV PUSH20 0xFFFFFFFFFFFFFFFFFFFFFFFFFFFFFFFFFFFFFFFF AND SWAP1 POP DUP2 PUSH0 PUSH0 PUSH2 0x100 EXP DUP2 SLOAD DUP2 PUSH20 0xFFFFFFFFFFFFFFFFFFFFFFFFFFFFFFFFFFFFFFFF MUL NOT AND SWAP1 DUP4 PUSH20 0xFFFFFFFFFFFFFFFFFFFFFFFFFFFFFFFFFFFFFFFF AND MUL OR SWAP1 SSTORE POP DUP2 PUSH20 0xFFFFFFFFFFFFFFFFFFFFFFFFFFFFFFFFFFFFFFFF AND DUP2 PUSH20 0xFFFFFFFFFFFFFFFFFFFFFFFFFFFFFFFFFFFFFFFF AND PUSH32 0x8BE0079C531659141344CD1FD0A4F28419497F9722A3DAAFE3B4186F6B6457E0 PUSH1 0x40 MLOAD PUSH1 0x40 MLOAD DUP1 SWAP2 SUB SWAP1 LOG3 POP POP JUMP JUMPDEST PUSH2 0xC57 PUSH2 0xA9D JUMP JUMPDEST PUSH1 0x1 PUSH0 PUSH1 0x14 PUSH2 0x100 EXP DUP2 SLOAD DUP2 PUSH1 0xFF MUL NOT AND SWAP1 DUP4 ISZERO ISZERO MUL OR SWAP1 SSTORE POP PUSH32 0x62E78CEA01BEE320CD4E420270B5EA74000D11B0C9F74754EBDBFC544B05A258 PUSH2 0xC9A PUSH2 0xCB1 JUMP JUMPDEST PUSH1 0x40 MLOAD PUSH2 0xCA7 SWAP2 SWAP1 PUSH2 0x1079 JUMP JUMPDEST PUSH1 0x40 MLOAD DUP1 SWAP2 SUB SWAP1 LOG1 JUMP JUMPDEST PUSH0 CALLER SWAP1 POP SWAP1 JUMP JUMPDEST PUSH2 0xCC0 PUSH2 0x852 JUMP JUMPDEST PUSH2 0xCF6 JUMPI PUSH1 0x40 MLOAD PUSH32 0x8DFC202B00000000000000000000000000000000000000000000000000000000 DUP2 MSTORE PUSH1 0x4 ADD PUSH1 0x40 MLOAD DUP1 SWAP2 SUB SWAP1 REVERT JUMPDEST JUMP JUMPDEST PUSH0 PUSH1 0xFF DUP3 AND SWAP1 POP SWAP2 SWAP1 POP JUMP JUMPDEST PUSH2 0xD0D DUP2 PUSH2 0xCF8 JUMP JUMPDEST DUP3 MSTORE POP POP JUMP JUMPDEST PUSH0 PUSH1 0x20 DUP3 ADD SWAP1 POP PUSH2 0xD26 PUSH0 DUP4 ADD DUP5 PUSH2 0xD04 JUMP JUMPDEST SWAP3 SWAP2 POP POP JUMP JUMPDEST PUSH0 PUSH0 REVERT JUMPDEST PUSH0 PUSH0 REVERT JUMPDEST PUSH0 PUSH0 REVERT JUMPDEST PUSH0 PUSH0 REVERT JUMPDEST PUSH0 PUSH0 REVERT JUMPDEST PUSH0 PUSH0 DUP4 PUSH1 0x1F DUP5 ADD SLT PUSH2 0xD55 JUMPI PUSH2 0xD54 PUSH2 0xD34 JUMP JUMPDEST JUMPDEST DUP3 CALLDATALOAD SWAP1 POP PUSH8 0xFFFFFFFFFFFFFFFF DUP2 GT ISZERO PUSH2 0xD72 JUMPI PUSH2 0xD71 PUSH2 0xD38 JUMP JUMPDEST JUMPDEST PUSH1 0x20 DUP4 ADD SWAP2 POP DUP4 PUSH1 0x20 DUP3 MUL DUP4 ADD GT ISZERO PUSH2 0xD8E JUMPI PUSH2 0xD8D PUSH2 0xD3C JUMP JUMPDEST JUMPDEST SWAP3 POP SWAP3 SWAP1 POP JUMP JUMPDEST PUSH0 PUSH0 DUP4 PUSH1 0x1F DUP5 ADD SLT PUSH2 0xDAA JUMPI PUSH2 0xDA9 PUSH2 0xD34 JUMP JUMPDEST JUMPDEST DUP3 CALLDATALOAD SWAP1 POP PUSH8 0xFFFFFFFFFFFFFFFF DUP2 GT ISZERO PUSH2 0xDC7 JUMPI PUSH2 0xDC6 PUSH2 0xD38 JUMP JUMPDEST JUMPDEST PUSH1 0x20 DUP4 ADD SWAP2 POP DUP4 PUSH1 0x20 DUP3 MUL DUP4 ADD GT ISZERO PUSH2 0xDE3 JUMPI PUSH2 0xDE2 PUSH2 0xD3C JUMP JUMPDEST JUMPDEST SWAP3 POP SWAP3 SWAP1 POP JUMP JUMPDEST PUSH0 PUSH0 DUP4 PUSH1 0x1F DUP5 ADD SLT PUSH2 0xDFF JUMPI PUSH2 0xDFE PUSH2 0xD34 JUMP JUMPDEST JUMPDEST DUP3 CALLDATALOAD SWAP1 POP PUSH8 0xFFFFFFFFFFFFFFFF DUP2 GT ISZERO PUSH2 0xE1C JUMPI PUSH2 0xE1B PUSH2 0xD38 JUMP JUMPDEST JUMPDEST PUSH1 0x20 DUP4 ADD SWAP2 POP DUP4 PUSH1 0x20 DUP3 MUL DUP4 ADD GT ISZERO PUSH2 0xE38 JUMPI PUSH2 0xE37 PUSH2 0xD3C JUMP JUMPDEST JUMPDEST SWAP3 POP SWAP3 SWAP1 POP JUMP JUMPDEST PUSH0 PUSH0 PUSH0 PUSH0 PUSH0 PUSH0 PUSH1 0x60 DUP8 DUP10 SUB SLT ISZERO PUSH2 0xE59 JUMPI PUSH2 0xE58 PUSH2 0xD2C JUMP JUMPDEST JUMPDEST PUSH0 DUP8 ADD CALLDATALOAD PUSH8 0xFFFFFFFFFFFFFFFF DUP2 GT ISZERO PUSH2 0xE76 JUMPI PUSH2 0xE75 PUSH2 0xD30 JUMP JUMPDEST JUMPDEST PUSH2 0xE82 DUP10 DUP3 DUP11 ADD PUSH2 0xD40 JUMP JUMPDEST SWAP7 POP SWAP7 POP POP PUSH1 0x20 DUP8 ADD CALLDATALOAD PUSH8 0xFFFFFFFFFFFFFFFF DUP2 GT ISZERO PUSH2 0xEA5 JUMPI PUSH2 0xEA4 PUSH2 0xD30 JUMP JUMPDEST JUMPDEST PUSH2 0xEB1 DUP10 DUP3 DUP11 ADD PUSH2 0xD95 JUMP JUMPDEST SWAP5 POP SWAP5 POP POP PUSH1 0x40 DUP8 ADD CALLDATALOAD PUSH8 0xFFFFFFFFFFFFFFFF DUP2 GT ISZERO PUSH2 0xED4 JUMPI PUSH2 0xED3 PUSH2 0xD30 JUMP JUMPDEST JUMPDEST PUSH2 0xEE0 DUP10 DUP3 DUP11 ADD PUSH2 0xDEA JUMP JUMPDEST SWAP3 POP SWAP3 POP POP SWAP3 SWAP6 POP SWAP3 SWAP6 POP SWAP3 SWAP6 JUMP JUMPDEST PUSH0 PUSH20 0xFFFFFFFFFFFFFFFFFFFFFFFFFFFFFFFFFFFFFFFF DUP3 AND SWAP1 POP SWAP2 SWAP1 POP JUMP JUMPDEST PUSH0 PUSH2 0xF18 DUP3 PUSH2 0xEEF JUMP JUMPDEST SWAP1 POP SWAP2 SWAP1 POP JUMP JUMPDEST PUSH2 0xF28 DUP2 PUSH2 0xF0E JUMP JUMPDEST DUP2 EQ PUSH2 0xF32 JUMPI PUSH0 PUSH0 REVERT JUMPDEST POP JUMP JUMPDEST PUSH0 DUP2 CALLDATALOAD SWAP1 POP PUSH2 0xF43 DUP2 PUSH2 0xF1F JUMP JUMPDEST SWAP3 SWAP2 POP POP JUMP JUMPDEST PUSH0 DUP2 SWAP1 POP SWAP2 SWAP1 POP JUMP JUMPDEST PUSH2 0xF5B DUP2 PUSH2 0xF49 JUMP JUMPDEST DUP2 EQ PUSH2 0xF65 JUMPI PUSH0 PUSH0 REVERT JUMPDEST POP JUMP JUMPDEST PUSH0 DUP2 CALLDATALOAD SWAP1 POP PUSH2 0xF76 DUP2 PUSH2 0xF52 JUMP JUMPDEST SWAP3 SWAP2 POP POP JUMP JUMPDEST PUSH2 0xF85 DUP2 PUSH2 0xCF8 JUMP JUMPDEST DUP2 EQ PUSH2 0xF8F JUMPI PUSH0 PUSH0 REVERT JUMPDEST POP JUMP JUMPDEST PUSH0 DUP2 CALLDATALOAD SWAP1 POP PUSH2 0xFA0 DUP2 PUSH2 0xF7C JUMP JUMPDEST SWAP3 SWAP2 POP POP JUMP JUMPDEST PUSH0 PUSH0 PUSH0 PUSH1 0x60 DUP5 DUP7 SUB SLT ISZERO PUSH2 0xFBD JUMPI PUSH2 0xFBC PUSH2 0xD2C JUMP JUMPDEST JUMPDEST PUSH0 PUSH2 0xFCA DUP7 DUP3 DUP8 ADD PUSH2 0xF35 JUMP JUMPDEST SWAP4 POP POP PUSH1 0x20 PUSH2 0xFDB DUP7 DUP3 DUP8 ADD PUSH2 0xF68 JUMP JUMPDEST SWAP3 POP POP PUSH1 0x40 PUSH2 0xFEC DUP7 DUP3 DUP8 ADD PUSH2 0xF92 JUMP JUMPDEST SWAP2 POP POP SWAP3 POP SWAP3 POP SWAP3 JUMP JUMPDEST PUSH0 DUP2 SWAP1 POP SWAP2 SWAP1 POP JUMP JUMPDEST PUSH0 PUSH2 0x1019 PUSH2 0x1014 PUSH2 0x100F DUP5 PUSH2 0xEEF JUMP JUMPDEST PUSH2 0xFF6 JUMP JUMPDEST PUSH2 0xEEF JUMP JUMPDEST SWAP1 POP SWAP2 SWAP1 POP JUMP JUMPDEST PUSH0 PUSH2 0x102A DUP3 PUSH2 0xFFF JUMP JUMPDEST SWAP1 POP SWAP2 SWAP1 POP JUMP JUMPDEST PUSH0 PUSH2 0x103B DUP3 PUSH2 0x1020 JUMP JUMPDEST SWAP1 POP SWAP2 SWAP1 POP JUMP JUMPDEST PUSH2 0x104B DUP2 PUSH2 0x1031 JUMP JUMPDEST DUP3 MSTORE POP POP JUMP JUMPDEST PUSH0 PUSH1 0x20 DUP3 ADD SWAP1 POP PUSH2 0x1064 PUSH0 DUP4 ADD DUP5 PUSH2 0x1042 JUMP JUMPDEST SWAP3 SWAP2 POP POP JUMP JUMPDEST PUSH2 0x1073 DUP2 PUSH2 0xF0E JUMP JUMPDEST DUP3 MSTORE POP POP JUMP JUMPDEST PUSH0 PUSH1 0x20 DUP3 ADD SWAP1 POP PUSH2 0x108C PUSH0 DUP4 ADD DUP5 PUSH2 0x106A JUMP JUMPDEST SWAP3 SWAP2 POP POP JUMP JUMPDEST PUSH0 DUP2 ISZERO ISZERO SWAP1 POP SWAP2 SWAP1 POP JUMP JUMPDEST PUSH2 0x10A6 DUP2 PUSH2 0x1092 JUMP JUMPDEST DUP3 MSTORE POP POP JUMP JUMPDEST PUSH0 PUSH1 0x20 DUP3 ADD SWAP1 POP PUSH2 0x10BF PUSH0 DUP4 ADD DUP5 PUSH2 0x109D JUMP JUMPDEST SWAP3 SWAP2 POP POP JUMP JUMPDEST PUSH0 PUSH1 0x20 DUP3 DUP5 SUB SLT ISZERO PUSH2 0x10DA JUMPI PUSH2 0x10D9 PUSH2 0xD2C JUMP JUMPDEST JUMPDEST PUSH0 PUSH2 0x10E7 DUP5 DUP3 DUP6 ADD PUSH2 0xF92 JUMP JUMPDEST SWAP2 POP POP SWAP3 SWAP2 POP POP JUMP JUMPDEST PUSH0 PUSH1 0x20 DUP3 DUP5 SUB SLT ISZERO PUSH2 0x1105 JUMPI PUSH2 0x1104 PUSH2 0xD2C JUMP JUMPDEST JUMPDEST PUSH0 PUSH2 0x1112 DUP5 DUP3 DUP6 ADD PUSH2 0xF35 JUMP JUMPDEST SWAP2 POP POP SWAP3 SWAP2 POP POP JUMP JUMPDEST PUSH0 DUP3 DUP3 MSTORE PUSH1 0x20 DUP3 ADD SWAP1 POP SWAP3 SWAP2 POP POP JUMP JUMPDEST PUSH32 0x4172726179206C656E677468206D69736D61746368206F7220746F6F206C6172 PUSH0 DUP3 ADD MSTORE PUSH32 0x6765000000000000000000000000000000000000000000000000000000000000 PUSH1 0x20 DUP3 ADD MSTORE POP JUMP JUMPDEST PUSH0 PUSH2 0x1185 PUSH1 0x22 DUP4 PUSH2 0x111B JUMP JUMPDEST SWAP2 POP PUSH2 0x1190 DUP3 PUSH2 0x112B JUMP JUMPDEST PUSH1 0x40 DUP3 ADD SWAP1 POP SWAP2 SWAP1 POP JUMP JUMPDEST PUSH0 PUSH1 0x20 DUP3 ADD SWAP1 POP DUP2 DUP2 SUB PUSH0 DUP4 ADD MSTORE PUSH2 0x11B2 DUP2 PUSH2 0x1179 JUMP JUMPDEST SWAP1 POP SWAP2 SWAP1 POP JUMP JUMPDEST PUSH32 0x4E487B7100000000000000000000000000000000000000000000000000000000 PUSH0 MSTORE PUSH1 0x32 PUSH1 0x4 MSTORE PUSH1 0x24 PUSH0 REVERT JUMPDEST PUSH32 0x496E76616C696420726F75746572204944000000000000000000000000000000 PUSH0 DUP3 ADD MSTORE POP JUMP JUMPDEST PUSH0 PUSH2 0x121A PUSH1 0x11 DUP4 PUSH2 0x111B JUMP JUMPDEST SWAP2 POP PUSH2 0x1225 DUP3 PUSH2 0x11E6 JUMP JUMPDEST PUSH1 0x20 DUP3 ADD SWAP1 POP SWAP2 SWAP1 POP JUMP JUMPDEST PUSH0 PUSH1 0x20 DUP3 ADD SWAP1 POP DUP2 DUP2 SUB PUSH0 DUP4 ADD MSTORE PUSH2 0x1247 DUP2 PUSH2 0x120E JUMP JUMPDEST SWAP1 POP SWAP2 SWAP1 POP JUMP JUMPDEST PUSH0 PUSH1 0x40 DUP3 ADD SWAP1 POP PUSH2 0x1261 PUSH0 DUP4 ADD DUP6 PUSH2 0x106A JUMP JUMPDEST PUSH2 0x126E PUSH1 0x20 DUP4 ADD DUP5 PUSH2 0x106A JUMP JUMPDEST SWAP4 SWAP3 POP POP POP JUMP JUMPDEST PUSH0 DUP2 MLOAD SWAP1 POP PUSH2 0x1283 DUP2 PUSH2 0xF52 JUMP JUMPDEST SWAP3 SWAP2 POP POP JUMP JUMPDEST PUSH0 PUSH1 0x20 DUP3 DUP5 SUB SLT ISZERO PUSH2 0x129E JUMPI PUSH2 0x129D PUSH2 0xD2C JUMP JUMPDEST JUMPDEST PUSH0 PUSH2 0x12AB DUP5 DUP3 DUP6 ADD PUSH2 0x1275 JUMP JUMPDEST SWAP2 POP POP SWAP3 SWAP2 POP POP JUMP JUMPDEST PUSH32 0x496E73756666696369656E74205553444320616C6C6F77616E636520666F7220 PUSH0 DUP3 ADD MSTORE PUSH32 0x726F757465720000000000000000000000000000000000000000000000000000 PUSH1 0x20 DUP3 ADD MSTORE POP JUMP JUMPDEST PUSH0 PUSH2 0x130E PUSH1 0x26 DUP4 PUSH2 0x111B JUMP JUMPDEST SWAP2 POP PUSH2 0x1319 DUP3 PUSH2 0x12B4 JUMP JUMPDEST PUSH1 0x40 DUP3 ADD SWAP1 POP SWAP2 SWAP1 POP JUMP JUMPDEST PUSH0 PUSH1 0x20 DUP3 ADD SWAP1 POP DUP2 DUP2 SUB PUSH0 DUP4 ADD MSTORE PUSH2 0x133B DUP2 PUSH2 0x1302 JUMP JUMPDEST SWAP1 POP SWAP2 SWAP1 POP JUMP JUMPDEST PUSH2 0x134B DUP2 PUSH2 0xF49 JUMP JUMPDEST DUP3 MSTORE POP POP JUMP JUMPDEST PUSH0 PUSH1 0x20 DUP3 ADD SWAP1 POP PUSH2 0x1364 PUSH0 DUP4 ADD DUP5 PUSH2 0x1342 JUMP JUMPDEST SWAP3 SWAP2 POP POP JUMP INVALID LOG2 PUSH5 0x6970667358 0x22 SLT KECCAK256 0xAC 0xC 0x29 GASLIMIT 0xB1 TSTORE ADD 0xC1 0xAF 0x4B RETURNDATASIZE PUSH30 0x30D8C595560236633A5F57D4F7D926A5D63D27AD64736F6C634300081E00 CALLER "
				},
				"gasEstimates": {
					"creation": {
						"codeDepositCost": "1004800",
						"executionCost": "infinite",
						"totalCost": "infinite"
					},
					"external": {
						"KYBERSWAP_ID()": "376",
						"OPENOCEAN_ID()": "354",
						"_KYBERSWAP_ROUTER()": "395",
						"_OPENOCEAN_ROUTER()": "417",
						"approveAutoBuy(address,uint256,uint8)": "infinite",
						"batchAutoBuy(address[],uint256[],uint8[])": "infinite",
						"getKyberSwapRouter()": "447",
						"getOpenOceanRouter()": "403",
						"getRouterAddress(uint8)": "827",
						"owner()": "2603",
						"pause()": "infinite",
						"paused()": "2612",
						"renounceOwnership()": "infinite",
						"transferOwnership(address)": "infinite",
						"unpause()": "infinite",
						"usdc()": "infinite"
					}
				},
				"methodIdentifiers": {
					"KYBERSWAP_ID()": "48fcdc7b",
					"OPENOCEAN_ID()": "18c786af",
					"_KYBERSWAP_ROUTER()": "9f1f61a0",
					"_OPENOCEAN_ROUTER()": "a4518efb",
					"approveAutoBuy(address,uint256,uint8)": "2b15e47c",
					"batchAutoBuy(address[],uint256[],uint8[])": "1e8bcca5",
					"getKyberSwapRouter()": "57df19e6",
					"getOpenOceanRouter()": "612e3146",
					"getRouterAddress(uint8)": "cac73ed7",
					"owner()": "8da5cb5b",
					"pause()": "8456cb59",
					"paused()": "5c975abb",
					"renounceOwnership()": "715018a6",
					"transferOwnership(address)": "f2fde38b",
					"unpause()": "3f4ba83a",
					"usdc()": "3e413bee"
				}
			},
			"storageLayout": {
				"storage": [
					{
						"astId": 8,
						"contract": "Optimized.sol:investreAutoBuy",
						"label": "_owner",
						"offset": 0,
						"slot": "0",
						"type": "t_address"
					},
					{
						"astId": 264,
						"contract": "Optimized.sol:investreAutoBuy",
						"label": "_paused",
						"offset": 20,
						"slot": "0",
						"type": "t_bool"
					},
					{
						"astId": 374,
						"contract": "Optimized.sol:investreAutoBuy",
						"label": "_status",
						"offset": 0,
						"slot": "1",
						"type": "t_uint256"
					}
				],
				"types": {
					"t_address": {
						"encoding": "inplace",
						"label": "address",
						"numberOfBytes": "20"
					},
					"t_bool": {
						"encoding": "inplace",
						"label": "bool",
						"numberOfBytes": "1"
					},
					"t_uint256": {
						"encoding": "inplace",
						"label": "uint256",
						"numberOfBytes": "32"
					}
				}
			},
			"userdoc": {
				"kind": "user",
				"methods": {},
				"version": 1
			}
		}
	}
}