{
	"data": {
		"bytecode": {
			"linkReferences": {},
			"object": "60a060405234801561000f575f5ffd5b5060405161163f38038061163f83398181016040528101906100319190610213565b805f73ffffffffffffffffffffffffffffffffffffffff168173ffffffffffffffffffffffffffffffffffffffff16036100a2575f6040517f1e4fbdf70000000000000000000000000000000000000000000000000000000081526004016100999190610260565b60405180910390fd5b6100b1816100f460201b60201c565b50600180819055508173ffffffffffffffffffffffffffffffffffffffff1660808173ffffffffffffffffffffffffffffffffffffffff16815250505050610279565b5f5f5f9054906101000a900473ffffffffffffffffffffffffffffffffffffffff169050815f5f6101000a81548173ffffffffffffffffffffffffffffffffffffffff021916908373ffffffffffffffffffffffffffffffffffffffff1602179055508173ffffffffffffffffffffffffffffffffffffffff168173ffffffffffffffffffffffffffffffffffffffff167f8be0079c531659141344cd1fd0a4f28419497f9722a3daafe3b4186f6b6457e060405160405180910390a35050565b5f5ffd5b5f73ffffffffffffffffffffffffffffffffffffffff82169050919050565b5f6101e2826101b9565b9050919050565b6101f2816101d8565b81146101fc575f5ffd5b50565b5f8151905061020d816101e9565b92915050565b5f5f60408385031215610229576102286101b5565b5b5f610236858286016101ff565b9250506020610247858286016101ff565b9150509250929050565b61025a816101d8565b82525050565b5f6020820190506102735f830184610251565b92915050565b6080516113a061029f5f395f8181610441015281816106b001526107fe01526113a05ff3fe608060405234801561000f575f5ffd5b50600436106100fe575f3560e01c8063612e3146116100955780639f1f61a0116100645780639f1f61a01461022a578063a4518efb14610248578063cac73ed714610266578063f2fde38b14610296576100fe565b8063612e3146146101da578063715018a6146101f85780638456cb59146102025780638da5cb5b1461020c576100fe565b80633f4ba83a116100d15780633f4ba83a1461017657806348fcdc7b1461018057806357df19e61461019e5780635c975abb146101bc576100fe565b806318c786af146101025780631e8bcca5146101205780632b15e47c1461013c5780633e413bee14610158575b5f5ffd5b61010a6102b2565b6040516101179190610d13565b60405180910390f35b61013a60048036038101906101359190610e3f565b6102b6565b005b61015660048036038101906101519190610fa6565b610605565b005b6101606107fc565b60405161016d9190611051565b60405180910390f35b61017e610820565b005b610188610832565b6040516101959190610d13565b60405180910390f35b6101a6610837565b6040516101b39190611079565b60405180910390f35b6101c4610852565b6040516101d191906110ac565b60405180910390f35b6101e2610867565b6040516101ef9190611079565b60405180910390f35b610200610882565b005b61020a610895565b005b6102146108a7565b6040516102219190611079565b60405180910390f35b6102326108ce565b60405161023f9190611079565b60405180910390f35b6102506108e6565b60405161025d9190611079565b60405180910390f35b610280600480360381019061027b91906110c5565b6108fe565b60405161028d9190611079565b60405180910390f35b6102b060048036038101906102ab91906110f0565b610992565b005b5f81565b6102be610a16565b6102c6610a9d565b6102ce610ade565b83839050868690501480156102e857508181905086869050145b80156102f8575060648686905011155b610337576040517f08c379a000000000000000000000000000000000000000000000000000000000815260040161032e9061119b565b60405180910390fd5b5f5f90505b868690508110156105f4575f5f60ff1684848481811061035f5761035e6111b9565b5b905060200201602081019061037491906110c5565b60ff160361039857736352a56caadc4f1e25cd6c75970fa768a3304e649050610425565b600160ff168484848181106103b0576103af6111b9565b5b90506020020160208101906103c591906110c5565b60ff16036103e957736131b5fae19ea4f9d964eac0408e4408b66337b59050610424565b6040517f08c379a000000000000000000000000000000000000000000000000000000000815260040161041b90611230565b60405180910390fd5b5b858583818110610438576104376111b9565b5b905060200201357f000000000000000000000000000000000000000000000000000000000000000073ffffffffffffffffffffffffffffffffffffffff1663dd62ed3e8a8a8681811061048e5761048d6111b9565b5b90506020020160208101906104a391906110f0565b846040518363ffffffff1660e01b81526004016104c192919061124e565b602060405180830381865afa1580156104dc573d5f5f3e3d5ffd5b505050506040513d601f19601f820116820180604052508101906105009190611289565b1015610541576040517f08c379a000000000000000000000000000000000000000000000000000000000815260040161053890611324565b60405180910390fd5b8073ffffffffffffffffffffffffffffffffffffffff1688888481811061056b5761056a6111b9565b5b905060200201602081019061058091906110f0565b73ffffffffffffffffffffffffffffffffffffffff167feab9cd112c05d2451f24acf7702297c9705b2115923d562c663c5272a60fe76f8888868181106105ca576105c96111b9565b5b905060200201356040516105de9190611351565b60405180910390a350808060010191505061033c565b506105fd610b24565b505050505050565b61060d610a16565b610615610a9d565b61061d610ade565b5f5f60ff168260ff160361064757736352a56caadc4f1e25cd6c75970fa768a3304e6490506106ad565b600160ff168260ff160361067157736131b5fae19ea4f9d964eac0408e4408b66337b590506106ac565b6040517f08c379a00000000000000000000000000000000000000000000000000000000081526004016106a390611230565b60405180910390fd5b5b827f000000000000000000000000000000000000000000000000000000000000000073ffffffffffffffffffffffffffffffffffffffff1663dd62ed3e86846040518363ffffffff1660e01b815260040161070992919061124e565b602060405180830381865afa158015610724573d5f5f3e3d5ffd5b505050506040513d601f19601f820116820180604052508101906107489190611289565b1015610789576040517f08c379a000000000000000000000000000000000000000000000000000000000815260040161078090611324565b60405180910390fd5b8073ffffffffffffffffffffffffffffffffffffffff168473ffffffffffffffffffffffffffffffffffffffff167feab9cd112c05d2451f24acf7702297c9705b2115923d562c663c5272a60fe76f856040516107e69190611351565b60405180910390a3506107f7610b24565b505050565b7f000000000000000000000000000000000000000000000000000000000000000081565b610828610a16565b610830610b2d565b565b600181565b5f736131b5fae19ea4f9d964eac0408e4408b66337b5905090565b5f5f60149054906101000a900460ff16905090565b5f736352a56caadc4f1e25cd6c75970fa768a3304e64905090565b61088a610a16565b6108935f610b8e565b565b61089d610a16565b6108a5610c4f565b565b5f5f5f9054906101000a900473ffffffffffffffffffffffffffffffffffffffff16905090565b736131b5fae19ea4f9d964eac0408e4408b66337b581565b736352a56caadc4f1e25cd6c75970fa768a3304e6481565b5f5f60ff168260ff160361092857736352a56caadc4f1e25cd6c75970fa768a3304e64905061098d565b600160ff168260ff160361095257736131b5fae19ea4f9d964eac0408e4408b66337b5905061098d565b6040517f08c379a000000000000000000000000000000000000000000000000000000000815260040161098490611230565b60405180910390fd5b919050565b61099a610a16565b5f73ffffffffffffffffffffffffffffffffffffffff168173ffffffffffffffffffffffffffffffffffffffff1603610a0a575f6040517f1e4fbdf7000000000000000000000000000000000000000000000000000000008152600401610a019190611079565b60405180910390fd5b610a1381610b8e565b50565b610a1e610cb1565b73ffffffffffffffffffffffffffffffffffffffff16610a3c6108a7565b73ffffffffffffffffffffffffffffffffffffffff1614610a9b57610a5f610cb1565b6040517f118cdaa7000000000000000000000000000000000000000000000000000000008152600401610a929190611079565b60405180910390fd5b565b610aa5610852565b15610adc576040517fd93c066500000000000000000000000000000000000000000000000000000000815260040160405180910390fd5b565b600260015403610b1a576040517f3ee5aeb500000000000000000000000000000000000000000000000000000000815260040160405180910390fd5b6002600181905550565b60018081905550565b610b35610cb8565b5f5f60146101000a81548160ff0219169083151502179055507f5db9ee0a495bf2e6ff9c91a7834c1ba4fdd244a5e8aa4e537bd38aeae4b073aa610b77610cb1565b604051610b849190611079565b60405180910390a1565b5f5f5f9054906101000a900473ffffffffffffffffffffffffffffffffffffffff169050815f5f6101000a81548173ffffffffffffffffffffffffffffffffffffffff021916908373ffffffffffffffffffffffffffffffffffffffff1602179055508173ffffffffffffffffffffffffffffffffffffffff168173ffffffffffffffffffffffffffffffffffffffff167f8be0079c531659141344cd1fd0a4f28419497f9722a3daafe3b4186f6b6457e060405160405180910390a35050565b610c57610a9d565b60015f60146101000a81548160ff0219169083151502179055507f62e78cea01bee320cd4e420270b5ea74000d11b0c9f74754ebdbfc544b05a258610c9a610cb1565b604051610ca79190611079565b60405180910390a1565b5f33905090565b610cc0610852565b610cf6576040517f8dfc202b00000000000000000000000000000000000000000000000000000000815260040160405180910390fd5b565b5f60ff82169050919050565b610d0d81610cf8565b82525050565b5f602082019050610d265f830184610d04565b92915050565b5f5ffd5b5f5ffd5b5f5ffd5b5f5ffd5b5f5ffd5b5f5f83601f840112610d5557610d54610d34565b5b8235905067ffffffffffffffff811115610d7257610d71610d38565b5b602083019150836020820283011115610d8e57610d8d610d3c565b5b9250929050565b5f5f83601f840112610daa57610da9610d34565b5b8235905067ffffffffffffffff811115610dc757610dc6610d38565b5b602083019150836020820283011115610de357610de2610d3c565b5b9250929050565b5f5f83601f840112610dff57610dfe610d34565b5b8235905067ffffffffffffffff811115610e1c57610e1b610d38565b5b602083019150836020820283011115610e3857610e37610d3c565b5b9250929050565b5f5f5f5f5f5f60608789031215610e5957610e58610d2c565b5b5f87013567ffffffffffffffff811115610e7657610e75610d30565b5b610e8289828a01610d40565b9650965050602087013567ffffffffffffffff811115610ea557610ea4610d30565b5b610eb189828a01610d95565b9450945050604087013567ffffffffffffffff811115610ed457610ed3610d30565b5b610ee089828a01610dea565b92509250509295509295509295565b5f73ffffffffffffffffffffffffffffffffffffffff82169050919050565b5f610f1882610eef565b9050919050565b610f2881610f0e565b8114610f32575f5ffd5b50565b5f81359050610f4381610f1f565b92915050565b5f819050919050565b610f5b81610f49565b8114610f65575f5ffd5b50565b5f81359050610f7681610f52565b92915050565b610f8581610cf8565b8114610f8f575f5ffd5b50565b5f81359050610fa081610f7c565b92915050565b5f5f5f60608486031215610fbd57610fbc610d2c565b5b5f610fca86828701610f35565b9350506020610fdb86828701610f68565b9250506040610fec86828701610f92565b9150509250925092565b5f819050919050565b5f61101961101461100f84610eef565b610ff6565b610eef565b9050919050565b5f61102a82610fff565b9050919050565b5f61103b82611020565b9050919050565b61104b81611031565b82525050565b5f6020820190506110645f830184611042565b92915050565b61107381610f0e565b82525050565b5f60208201905061108c5f83018461106a565b92915050565b5f8115159050919050565b6110a681611092565b82525050565b5f6020820190506110bf5f83018461109d565b92915050565b5f602082840312156110da576110d9610d2c565b5b5f6110e784828501610f92565b91505092915050565b5f6020828403121561110557611104610d2c565b5b5f61111284828501610f35565b91505092915050565b5f82825260208201905092915050565b7f4172726179206c656e677468206d69736d61746368206f7220746f6f206c61725f8201527f6765000000000000000000000000000000000000000000000000000000000000602082015250565b5f61118560228361111b565b91506111908261112b565b604082019050919050565b5f6020820190508181035f8301526111b281611179565b9050919050565b7f4e487b71000000000000000000000000000000000000000000000000000000005f52603260045260245ffd5b7f496e76616c696420726f757465722049440000000000000000000000000000005f82015250565b5f61121a60118361111b565b9150611225826111e6565b602082019050919050565b5f6020820190508181035f8301526112478161120e565b9050919050565b5f6040820190506112615f83018561106a565b61126e602083018461106a565b9392505050565b5f8151905061128381610f52565b92915050565b5f6020828403121561129e5761129d610d2c565b5b5f6112ab84828501611275565b91505092915050565b7f496e73756666696369656e74205553444320616c6c6f77616e636520666f72205f8201527f726f757465720000000000000000000000000000000000000000000000000000602082015250565b5f61130e60268361111b565b9150611319826112b4565b604082019050919050565b5f6020820190508181035f83015261133b81611302565b9050919050565b61134b81610f49565b82525050565b5f6020820190506113645f830184611342565b9291505056fea2646970667358221220ac0c2945b15d01c1af4b3d7d30d8c595560236633a5f57d4f7d926a5d63d27ad64736f6c634300081e0033",
			"opcodes": "PUSH1 0xA0 PUSH1 0x40 MSTORE CALLVALUE DUP1 ISZERO PUSH2 0xF JUMPI PUSH0 PUSH0 REVERT JUMPDEST POP PUSH1 0x40 MLOAD PUSH2 0x163F CODESIZE SUB DUP1 PUSH2 0x163F DUP4 CODECOPY DUP2 DUP2 ADD PUSH1 0x40 MSTORE DUP2 ADD SWAP1 PUSH2 0x31 SWAP2 SWAP1 PUSH2 0x213 JUMP JUMPDEST DUP1 PUSH0 PUSH20 0xFFFFFFFFFFFFFFFFFFFFFFFFFFFFFFFFFFFFFFFF AND DUP2 PUSH20 0xFFFFFFFFFFFFFFFFFFFFFFFFFFFFFFFFFFFFFFFF AND SUB PUSH2 0xA2 JUMPI PUSH0 PUSH1 0x40 MLOAD PUSH32 0x1E4FBDF700000000000000000000000000000000000000000000000000000000 DUP2 MSTORE PUSH1 0x4 ADD PUSH2 0x99 SWAP2 SWAP1 PUSH2 0x260 JUMP JUMPDEST PUSH1 0x40 MLOAD DUP1 SWAP2 SUB SWAP1 REVERT JUMPDEST PUSH2 0xB1 DUP2 PUSH2 0xF4 PUSH1 0x20 SHL PUSH1 0x20 SHR JUMP JUMPDEST POP PUSH1 0x1 DUP1 DUP2 SWAP1 SSTORE POP DUP2 PUSH20 0xFFFFFFFFFFFFFFFFFFFFFFFFFFFFFFFFFFFFFFFF AND PUSH1 0x80 DUP2 PUSH20 0xFFFFFFFFFFFFFFFFFFFFFFFFFFFFFFFFFFFFFFFF AND DUP2 MSTORE POP POP POP POP PUSH2 0x279 JUMP JUMPDEST PUSH0 PUSH0 PUSH0 SWAP1 SLOAD SWAP1 PUSH2 0x100 EXP SWAP1 DIV PUSH20 0xFFFFFFFFFFFFFFFFFFFFFFFFFFFFFFFFFFFFFFFF AND SWAP1 POP DUP2 PUSH0 PUSH0 PUSH2 0x100 EXP DUP2 SLOAD DUP2 PUSH20 0xFFFFFFFFFFFFFFFFFFFFFFFFFFFFFFFFFFFFFFFF MUL NOT AND SWAP1 DUP4 PUSH20 0xFFFFFFFFFFFFFFFFFFFFFFFFFFFFFFFFFFFFFFFF AND MUL OR SWAP1 SSTORE POP DUP2 PUSH20 0xFFFFFFFFFFFFFFFFFFFFFFFFFFFFFFFFFFFFFFFF AND DUP2 PUSH20 0xFFFFFFFFFFFFFFFFFFFFFFFFFFFFFFFFFFFFFFFF AND PUSH32 0x8BE0079C531659141344CD1FD0A4F28419497F9722A3DAAFE3B4186F6B6457E0 PUSH1 0x40 MLOAD PUSH1 0x40 MLOAD DUP1 SWAP2 SUB SWAP1 LOG3 POP POP JUMP JUMPDEST PUSH0 PUSH0 REVERT JUMPDEST PUSH0 PUSH20 0xFFFFFFFFFFFFFFFFFFFFFFFFFFFFFFFFFFFFFFFF DUP3 AND SWAP1 POP SWAP2 SWAP1 POP JUMP JUMPDEST PUSH0 PUSH2 0x1E2 DUP3 PUSH2 0x1B9 JUMP JUMPDEST SWAP1 POP SWAP2 SWAP1 POP JUMP JUMPDEST PUSH2 0x1F2 DUP2 PUSH2 0x1D8 JUMP JUMPDEST DUP2 EQ PUSH2 0x1FC JUMPI PUSH0 PUSH0 REVERT JUMPDEST POP JUMP JUMPDEST PUSH0 DUP2 MLOAD SWAP1 POP PUSH2 0x20D DUP2 PUSH2 0x1E9 JUMP JUMPDEST SWAP3 SWAP2 POP POP JUMP JUMPDEST PUSH0 PUSH0 PUSH1 0x40 DUP4 DUP6 SUB SLT ISZERO PUSH2 0x229 JUMPI PUSH2 0x228 PUSH2 0x1B5 JUMP JUMPDEST JUMPDEST PUSH0 PUSH2 0x236 DUP6 DUP3 DUP7 ADD PUSH2 0x1FF JUMP JUMPDEST SWAP3 POP POP PUSH1 0x20 PUSH2 0x247 DUP6 DUP3 DUP7 ADD PUSH2 0x1FF JUMP JUMPDEST SWAP2 POP POP SWAP3 POP SWAP3 SWAP1 POP JUMP JUMPDEST PUSH2 0x25A DUP2 PUSH2 0x1D8 JUMP JUMPDEST DUP3 MSTORE POP POP JUMP JUMPDEST PUSH0 PUSH1 0x20 DUP3 ADD SWAP1 POP PUSH2 0x273 PUSH0 DUP4 ADD DUP5 PUSH2 0x251 JUMP JUMPDEST SWAP3 SWAP2 POP POP JUMP JUMPDEST PUSH1 0x80 MLOAD PUSH2 0x13A0 PUSH2 0x29F PUSH0 CODECOPY PUSH0 DUP2 DUP2 PUSH2 0x441 ADD MSTORE DUP2 DUP2 PUSH2 0x6B0 ADD MSTORE PUSH2 0x7FE ADD MSTORE PUSH2 0x13A0 PUSH0 RETURN INVALID PUSH1 0x80 PUSH1 0x40 MSTORE CALLVALUE DUP1 ISZERO PUSH2 0xF JUMPI PUSH0 PUSH0 REVERT JUMPDEST POP PUSH1 0x4 CALLDATASIZE LT PUSH2 0xFE JUMPI PUSH0 CALLDATALOAD PUSH1 0xE0 SHR DUP1 PUSH4 0x612E3146 GT PUSH2 0x95 JUMPI DUP1 PUSH4 0x9F1F61A0 GT PUSH2 0x64 JUMPI DUP1 PUSH4 0x9F1F61A0 EQ PUSH2 0x22A JUMPI DUP1 PUSH4 0xA4518EFB EQ PUSH2 0x248 JUMPI DUP1 PUSH4 0xCAC73ED7 EQ PUSH2 0x266 JUMPI DUP1 PUSH4 0xF2FDE38B EQ PUSH2 0x296 JUMPI PUSH2 0xFE JUMP JUMPDEST DUP1 PUSH4 0x612E3146 EQ PUSH2 0x1DA JUMPI DUP1 PUSH4 0x715018A6 EQ PUSH2 0x1F8 JUMPI DUP1 PUSH4 0x8456CB59 EQ PUSH2 0x202 JUMPI DUP1 PUSH4 0x8DA5CB5B EQ PUSH2 0x20C JUMPI PUSH2 0xFE JUMP JUMPDEST DUP1 PUSH4 0x3F4BA83A GT PUSH2 0xD1 JUMPI DUP1 PUSH4 0x3F4BA83A EQ PUSH2 0x176 JUMPI DUP1 PUSH4 0x48FCDC7B EQ PUSH2 0x180 JUMPI DUP1 PUSH4 0x57DF19E6 EQ PUSH2 0x19E JUMPI DUP1 PUSH4 0x5C975ABB EQ PUSH2 0x1BC JUMPI PUSH2 0xFE JUMP JUMPDEST DUP1 PUSH4 0x18C786AF EQ PUSH2 0x102 JUMPI DUP1 PUSH4 0x1E8BCCA5 EQ PUSH2 0x120 JUMPI DUP1 PUSH4 0x2B15E47C EQ PUSH2 0x13C JUMPI DUP1 PUSH4 0x3E413BEE EQ PUSH2 0x158 JUMPI JUMPDEST PUSH0 PUSH0 REVERT JUMPDEST PUSH2 0x10A PUSH2 0x2B2 JUMP JUMPDEST PUSH1 0x40 MLOAD PUSH2 0x117 SWAP2 SWAP1 PUSH2 0xD13 JUMP JUMPDEST PUSH1 0x40 MLOAD DUP1 SWAP2 SUB SWAP1 RETURN JUMPDEST PUSH2 0x13A PUSH1 0x4 DUP1 CALLDATASIZE SUB DUP2 ADD SWAP1 PUSH2 0x135 SWAP2 SWAP1 PUSH2 0xE3F JUMP JUMPDEST PUSH2 0x2B6 JUMP JUMPDEST STOP JUMPDEST PUSH2 0x156 PUSH1 0x4 DUP1 CALLDATASIZE SUB DUP2 ADD SWAP1 PUSH2 0x151 SWAP2 SWAP1 PUSH2 0xFA6 JUMP JUMPDEST PUSH2 0x605 JUMP JUMPDEST STOP JUMPDEST PUSH2 0x160 PUSH2 0x7FC JUMP JUMPDEST PUSH1 0x40 MLOAD PUSH2 0x16D SWAP2 SWAP1 PUSH2 0x1051 JUMP JUMPDEST PUSH1 0x40 MLOAD DUP1 SWAP2 SUB SWAP1 RETURN JUMPDEST PUSH2 0x17E PUSH2 0x820 JUMP JUMPDEST STOP JUMPDEST PUSH2 0x188 PUSH2 0x832 JUMP JUMPDEST PUSH1 0x40 MLOAD PUSH2 0x195 SWAP2 SWAP1 PUSH2 0xD13 JUMP JUMPDEST PUSH1 0x40 MLOAD DUP1 SWAP2 SUB SWAP1 RETURN JUMPDEST PUSH2 0x1A6 PUSH2 0x837 JUMP JUMPDEST PUSH1 0x40 MLOAD PUSH2 0x1B3 SWAP2 SWAP1 PUSH2 0x1079 JUMP JUMPDEST PUSH1 0x40 MLOAD DUP1 SWAP2 SUB SWAP1 RETURN JUMPDEST PUSH2 0x1C4 PUSH2 0x852 JUMP JUMPDEST PUSH1 0x40 MLOAD PUSH2 0x1D1 SWAP2 SWAP1 PUSH2 0x10AC JUMP JUMPDEST PUSH1 0x40 MLOAD DUP1 SWAP2 SUB SWAP1 RETURN JUMPDEST PUSH2 0x1E2 PUSH2 0x867 JUMP JUMPDEST PUSH1 0x40 MLOAD PUSH2 0x1EF SWAP2 SWAP1 PUSH2 0x1079 JUMP JUMPDEST PUSH1 0x40 MLOAD DUP1 SWAP2 SUB SWAP1 RETURN JUMPDEST PUSH2 0x200 PUSH2 0x882 JUMP JUMPDEST STOP JUMPDEST PUSH2 0x20A PUSH2 0x895 JUMP JUMPDEST STOP JUMPDEST PUSH2 0x214 PUSH2 0x8A7 JUMP JUMPDEST PUSH1 0x40 MLOAD PUSH2 0x221 SWAP2 SWAP1 PUSH2 0x1079 JUMP JUMPDEST PUSH1 0x40 MLOAD DUP1 SWAP2 SUB SWAP1 RETURN JUMPDEST PUSH2 0x232 PUSH2 0x8CE JUMP JUMPDEST PUSH1 0x40 MLOAD PUSH2 0x23F SWAP2 SWAP1 PUSH2 0x1079 JUMP JUMPDEST PUSH1 0x40 MLOAD DUP1 SWAP2 SUB SWAP1 RETURN JUMPDEST PUSH2 0x250 PUSH2 0x8E6 JUMP JUMPDEST PUSH1 0x40 MLOAD PUSH2 0x25D SWAP2 SWAP1 PUSH2 0x1079 JUMP JUMPDEST PUSH1 0x40 MLOAD DUP1 SWAP2 SUB SWAP1 RETURN JUMPDEST PUSH2 0x280 PUSH1 0x4 DUP1 CALLDATASIZE SUB DUP2 ADD SWAP1 PUSH2 0x27B SWAP2 SWAP1 PUSH2 0x10C5 JUMP JUMPDEST PUSH2 0x8FE JUMP JUMPDEST PUSH1 0x40 MLOAD PUSH2 0x28D SWAP2 SWAP1 PUSH2 0x1079 JUMP JUMPDEST PUSH1 0x40 MLOAD DUP1 SWAP2 SUB SWAP1 RETURN JUMPDEST PUSH2 0x2B0 PUSH1 0x4 DUP1 CALLDATASIZE SUB DUP2 ADD SWAP1 PUSH2 0x2AB SWAP2 SWAP1 PUSH2 0x10F0 JUMP JUMPDEST PUSH2 0x992 JUMP JUMPDEST STOP JUMPDEST PUSH0 DUP2 JUMP JUMPDEST PUSH2 0x2BE PUSH2 0xA16 JUMP JUMPDEST PUSH2 0x2C6 PUSH2 0xA9D JUMP JUMPDEST PUSH2 0x2CE PUSH2 0xADE JUMP JUMPDEST DUP4 DUP4 SWAP1 POP DUP7 DUP7 SWAP1 POP EQ DUP1 ISZERO PUSH2 0x2E8 JUMPI POP DUP2 DUP2 SWAP1 POP DUP7 DUP7 SWAP1 POP EQ JUMPDEST DUP1 ISZERO PUSH2 0x2F8 JUMPI POP PUSH1 0x64 DUP7 DUP7 SWAP1 POP GT ISZERO JUMPDEST PUSH2 0x337 JUMPI PUSH1 0x40 MLOAD PUSH32 0x8C379A000000000000000000000000000000000000000000000000000000000 DUP2 MSTORE PUSH1 0x4 ADD PUSH2 0x32E SWAP1 PUSH2 0x119B JUMP JUMPDEST PUSH1 0x40 MLOAD DUP1 SWAP2 SUB SWAP1 REVERT JUMPDEST PUSH0 PUSH0 SWAP1 POP JUMPDEST DUP7 DUP7 SWAP1 POP DUP2 LT ISZERO PUSH2 0x5F4 JUMPI PUSH0 PUSH0 PUSH1 0xFF AND DUP5 DUP5 DUP5 DUP2 DUP2 LT PUSH2 0x35F JUMPI PUSH2 0x35E PUSH2 0x11B9 JUMP JUMPDEST JUMPDEST SWAP1 POP PUSH1 0x20 MUL ADD PUSH1 0x20 DUP2 ADD SWAP1 PUSH2 0x374 SWAP2 SWAP1 PUSH2 0x10C5 JUMP JUMPDEST PUSH1 0xFF AND SUB PUSH2 0x398 JUMPI PUSH20 0x6352A56CAADC4F1E25CD6C75970FA768A3304E64 SWAP1 POP PUSH2 0x425 JUMP JUMPDEST PUSH1 0x1 PUSH1 0xFF AND DUP5 DUP5 DUP5 DUP2 DUP2 LT PUSH2 0x3B0 JUMPI PUSH2 0x3AF PUSH2 0x11B9 JUMP JUMPDEST JUMPDEST SWAP1 POP PUSH1 0x20 MUL ADD PUSH1 0x20 DUP2 ADD SWAP1 PUSH2 0x3C5 SWAP2 SWAP1 PUSH2 0x10C5 JUMP JUMPDEST PUSH1 0xFF AND SUB PUSH2 0x3E9 JUMPI PUSH20 0x6131B5FAE19EA4F9D964EAC0408E4408B66337B5 SWAP1 POP PUSH2 0x424 JUMP JUMPDEST PUSH1 0x40 MLOAD PUSH32 0x8C379A000000000000000000000000000000000000000000000000000000000 DUP2 MSTORE PUSH1 0x4 ADD PUSH2 0x41B SWAP1 PUSH2 0x1230 JUMP JUMPDEST PUSH1 0x40 MLOAD DUP1 SWAP2 SUB SWAP1 REVERT JUMPDEST JUMPDEST DUP6 DUP6 DUP4 DUP2 DUP2 LT PUSH2 0x438 JUMPI PUSH2 0x437 PUSH2 0x11B9 JUMP JUMPDEST JUMPDEST SWAP1 POP PUSH1 0x20 MUL ADD CALLDATALOAD PUSH32 0x0 PUSH20 0xFFFFFFFFFFFFFFFFFFFFFFFFFFFFFFFFFFFFFFFF AND PUSH4 0xDD62ED3E DUP11 DUP11 DUP7 DUP2 DUP2 LT PUSH2 0x48E JUMPI PUSH2 0x48D PUSH2 0x11B9 JUMP JUMPDEST JUMPDEST SWAP1 POP PUSH1 0x20 MUL ADD PUSH1 0x20 DUP2 ADD SWAP1 PUSH2 0x4A3 SWAP2 SWAP1 PUSH2 0x10F0 JUMP JUMPDEST DUP5 PUSH1 0x40 MLOAD DUP4 PUSH4 0xFFFFFFFF AND PUSH1 0xE0 SHL DUP2 MSTORE PUSH1 0x4 ADD PUSH2 0x4C1 SWAP3 SWAP2 SWAP1 PUSH2 0x124E JUMP JUMPDEST PUSH1 0x20 PUSH1 0x40 MLOAD DUP1 DUP4 SUB DUP2 DUP7 GAS STATICCALL ISZERO DUP1 ISZERO PUSH2 0x4DC JUMPI RETURNDATASIZE PUSH0 PUSH0 RETURNDATACOPY RETURNDATASIZE PUSH0 REVERT JUMPDEST POP POP POP POP PUSH1 0x40 MLOAD RETURNDATASIZE PUSH1 0x1F NOT PUSH1 0x1F DUP3 ADD AND DUP3 ADD DUP1 PUSH1 0x40 MSTORE POP DUP2 ADD SWAP1 PUSH2 0x500 SWAP2 SWAP1 PUSH2 0x1289 JUMP JUMPDEST LT ISZERO PUSH2 0x541 JUMPI PUSH1 0x40 MLOAD PUSH32 0x8C379A000000000000000000000000000000000000000000000000000000000 DUP2 MSTORE PUSH1 0x4 ADD PUSH2 0x538 SWAP1 PUSH2 0x1324 JUMP JUMPDEST PUSH1 0x40 MLOAD DUP1 SWAP2 SUB SWAP1 REVERT JUMPDEST DUP1 PUSH20 0xFFFFFFFFFFFFFFFFFFFFFFFFFFFFFFFFFFFFFFFF AND DUP9 DUP9 DUP5 DUP2 DUP2 LT PUSH2 0x56B JUMPI PUSH2 0x56A PUSH2 0x11B9 JUMP JUMPDEST JUMPDEST SWAP1 POP PUSH1 0x20 MUL ADD PUSH1 0x20 DUP2 ADD SWAP1 PUSH2 0x580 SWAP2 SWAP1 PUSH2 0x10F0 JUMP JUMPDEST PUSH20 0xFFFFFFFFFFFFFFFFFFFFFFFFFFFFFFFFFFFFFFFF AND PUSH32 0xEAB9CD112C05D2451F24ACF7702297C9705B2115923D562C663C5272A60FE76F DUP9 DUP9 DUP7 DUP2 DUP2 LT PUSH2 0x5CA JUMPI PUSH2 0x5C9 PUSH2 0x11B9 JUMP JUMPDEST JUMPDEST SWAP1 POP PUSH1 0x20 MUL ADD CALLDATALOAD PUSH1 0x40 MLOAD PUSH2 0x5DE SWAP2 SWAP1 PUSH2 0x1351 JUMP JUMPDEST PUSH1 0x40 MLOAD DUP1 SWAP2 SUB SWAP1 LOG3 POP DUP1 DUP1 PUSH1 0x1 ADD SWAP2 POP POP PUSH2 0x33C JUMP JUMPDEST POP PUSH2 0x5FD PUSH2 0xB24 JUMP JUMPDEST POP POP POP POP POP POP JUMP JUMPDEST PUSH2 0x60D PUSH2 0xA16 JUMP JUMPDEST PUSH2 0x615 PUSH2 0xA9D JUMP JUMPDEST PUSH2 0x61D PUSH2 0xADE JUMP JUMPDEST PUSH0 PUSH0 PUSH1 0xFF AND DUP3 PUSH1 0xFF AND SUB PUSH2 0x647 JUMPI PUSH20 0x6352A56CAADC4F1E25CD6C75970FA768A3304E64 SWAP1 POP PUSH2 0x6AD JUMP JUMPDEST PUSH1 0x1 PUSH1 0xFF AND DUP3 PUSH1 0xFF AND SUB PUSH2 0x671 JUMPI PUSH20 0x6131B5FAE19EA4F9D964EAC0408E4408B66337B5 SWAP1 POP PUSH2 0x6AC JUMP JUMPDEST PUSH1 0x40 MLOAD PUSH32 0x8C379A000000000000000000000000000000000000000000000000000000000 DUP2 MSTORE PUSH1 0x4 ADD PUSH2 0x6A3 SWAP1 PUSH2 0x1230 JUMP JUMPDEST PUSH1 0x40 MLOAD DUP1 SWAP2 SUB SWAP1 REVERT JUMPDEST JUMPDEST DUP3 PUSH32 0x0 PUSH20 0xFFFFFFFFFFFFFFFFFFFFFFFFFFFFFFFFFFFFFFFF AND PUSH4 0xDD62ED3E DUP7 DUP5 PUSH1 0x40 MLOAD DUP4 PUSH4 0xFFFFFFFF AND PUSH1 0xE0 SHL DUP2 MSTORE PUSH1 0x4 ADD PUSH2 0x709 SWAP3 SWAP2 SWAP1 PUSH2 0x124E JUMP JUMPDEST PUSH1 0x20 PUSH1 0x40 MLOAD DUP1 DUP4 SUB DUP2 DUP7 GAS STATICCALL ISZERO DUP1 ISZERO PUSH2 0x724 JUMPI RETURNDATASIZE PUSH0 PUSH0 RETURNDATACOPY RETURNDATASIZE PUSH0 REVERT JUMPDEST POP POP POP POP PUSH1 0x40 MLOAD RETURNDATASIZE PUSH1 0x1F NOT PUSH1 0x1F DUP3 ADD AND DUP3 ADD DUP1 PUSH1 0x40 MSTORE POP DUP2 ADD SWAP1 PUSH2 0x748 SWAP2 SWAP1 PUSH2 0x1289 JUMP JUMPDEST LT ISZERO PUSH2 0x789 JUMPI PUSH1 0x40 MLOAD PUSH32 0x8C379A000000000000000000000000000000000000000000000000000000000 DUP2 MSTORE PUSH1 0x4 ADD PUSH2 0x780 SWAP1 PUSH2 0x1324 JUMP JUMPDEST PUSH1 0x40 MLOAD DUP1 SWAP2 SUB SWAP1 REVERT JUMPDEST DUP1 PUSH20 0xFFFFFFFFFFFFFFFFFFFFFFFFFFFFFFFFFFFFFFFF AND DUP5 PUSH20 0xFFFFFFFFFFFFFFFFFFFFFFFFFFFFFFFFFFFFFFFF AND PUSH32 0xEAB9CD112C05D2451F24ACF7702297C9705B2115923D562C663C5272A60FE76F DUP6 PUSH1 0x40 MLOAD PUSH2 0x7E6 SWAP2 SWAP1 PUSH2 0x1351 JUMP JUMPDEST PUSH1 0x40 MLOAD DUP1 SWAP2 SUB SWAP1 LOG3 POP PUSH2 0x7F7 PUSH2 0xB24 JUMP JUMPDEST POP POP POP JUMP JUMPDEST PUSH32 0x0 DUP2 JUMP JUMPDEST PUSH2 0x828 PUSH2 0xA16 JUMP JUMPDEST PUSH2 0x830 PUSH2 0xB2D JUMP JUMPDEST JUMP JUMPDEST PUSH1 0x1 DUP2 JUMP JUMPDEST PUSH0 PUSH20 0x6131B5FAE19EA4F9D964EAC0408E4408B66337B5 SWAP1 POP SWAP1 JUMP JUMPDEST PUSH0 PUSH0 PUSH1 0x14 SWAP1 SLOAD SWAP1 PUSH2 0x100 EXP SWAP1 DIV PUSH1 0xFF AND SWAP1 POP SWAP1 JUMP JUMPDEST PUSH0 PUSH20 0x6352A56CAADC4F1E25CD6C75970FA768A3304E64 SWAP1 POP SWAP1 JUMP JUMPDEST PUSH2 0x88A PUSH2 0xA16 JUMP JUMPDEST PUSH2 0x893 PUSH0 PUSH2 0xB8E JUMP JUMPDEST JUMP JUMPDEST PUSH2 0x89D PUSH2 0xA16 JUMP JUMPDEST PUSH2 0x8A5 PUSH2 0xC4F JUMP JUMPDEST JUMP JUMPDEST PUSH0 PUSH0 PUSH0 SWAP1 SLOAD SWAP1 PUSH2 0x100 EXP SWAP1 DIV PUSH20 0xFFFFFFFFFFFFFFFFFFFFFFFFFFFFFFFFFFFFFFFF AND SWAP1 POP SWAP1 JUMP JUMPDEST PUSH20 0x6131B5FAE19EA4F9D964EAC0408E4408B66337B5 DUP2 JUMP JUMPDEST PUSH20 0x6352A56CAADC4F1E25CD6C75970FA768A3304E64 DUP2 JUMP JUMPDEST PUSH0 PUSH0 PUSH1 0xFF AND DUP3 PUSH1 0xFF AND SUB PUSH2 0x928 JUMPI PUSH20 0x6352A56CAADC4F1E25CD6C75970FA768A3304E64 SWAP1 POP PUSH2 0x98D JUMP JUMPDEST PUSH1 0x1 PUSH1 0xFF AND DUP3 PUSH1 0xFF AND SUB PUSH2 0x952 JUMPI PUSH20 0x6131B5FAE19EA4F9D964EAC0408E4408B66337B5 SWAP1 POP PUSH2 0x98D JUMP JUMPDEST PUSH1 0x40 MLOAD PUSH32 0x8C379A000000000000000000000000000000000000000000000000000000000 DUP2 MSTORE PUSH1 0x4 ADD PUSH2 0x984 SWAP1 PUSH2 0x1230 JUMP JUMPDEST PUSH1 0x40 MLOAD DUP1 SWAP2 SUB SWAP1 REVERT JUMPDEST SWAP2 SWAP1 POP JUMP JUMPDEST PUSH2 0x99A PUSH2 0xA16 JUMP JUMPDEST PUSH0 PUSH20 0xFFFFFFFFFFFFFFFFFFFFFFFFFFFFFFFFFFFFFFFF AND DUP2 PUSH20 0xFFFFFFFFFFFFFFFFFFFFFFFFFFFFFFFFFFFFFFFF AND SUB PUSH2 0xA0A JUMPI PUSH0 PUSH1 0x40 MLOAD PUSH32 0x1E4FBDF700000000000000000000000000000000000000000000000000000000 DUP2 MSTORE PUSH1 0x4 ADD PUSH2 0xA01 SWAP2 SWAP1 PUSH2 0x1079 JUMP JUMPDEST PUSH1 0x40 MLOAD DUP1 SWAP2 SUB SWAP1 REVERT JUMPDEST PUSH2 0xA13 DUP2 PUSH2 0xB8E JUMP JUMPDEST POP JUMP JUMPDEST PUSH2 0xA1E PUSH2 0xCB1 JUMP JUMPDEST PUSH20 0xFFFFFFFFFFFFFFFFFFFFFFFFFFFFFFFFFFFFFFFF AND PUSH2 0xA3C PUSH2 0x8A7 JUMP JUMPDEST PUSH20 0xFFFFFFFFFFFFFFFFFFFFFFFFFFFFFFFFFFFFFFFF AND EQ PUSH2 0xA9B JUMPI PUSH2 0xA5F PUSH2 0xCB1 JUMP JUMPDEST PUSH1 0x40 MLOAD PUSH32 0x118CDAA700000000000000000000000000000000000000000000000000000000 DUP2 MSTORE PUSH1 0x4 ADD PUSH2 0xA92 SWAP2 SWAP1 PUSH2 0x1079 JUMP JUMPDEST PUSH1 0x40 MLOAD DUP1 SWAP2 SUB SWAP1 REVERT JUMPDEST JUMP JUMPDEST PUSH2 0xAA5 PUSH2 0x852 JUMP JUMPDEST ISZERO PUSH2 0xADC JUMPI PUSH1 0x40 MLOAD PUSH32 0xD93C066500000000000000000000000000000000000000000000000000000000 DUP2 MSTORE PUSH1 0x4 ADD PUSH1 0x40 MLOAD DUP1 SWAP2 SUB SWAP1 REVERT JUMPDEST JUMP JUMPDEST PUSH1 0x2 PUSH1 0x1 SLOAD SUB PUSH2 0xB1A JUMPI PUSH1 0x40 MLOAD PUSH32 0x3EE5AEB500000000000000000000000000000000000000000000000000000000 DUP2 MSTORE PUSH1 0x4 ADD PUSH1 0x40 MLOAD DUP1 SWAP2 SUB SWAP1 REVERT JUMPDEST PUSH1 0x2 PUSH1 0x1 DUP2 SWAP1 SSTORE POP JUMP JUMPDEST PUSH1 0x1 DUP1 DUP2 SWAP1 SSTORE POP JUMP JUMPDEST PUSH2 0xB35 PUSH2 0xCB8 JUMP JUMPDEST PUSH0 PUSH0 PUSH1 0x14 PUSH2 0x100 EXP DUP2 SLOAD DUP2 PUSH1 0xFF MUL NOT AND SWAP1 DUP4 ISZERO ISZERO MUL OR SWAP1 SSTORE POP PUSH32 0x5DB9EE0A495BF2E6FF9C91A7834C1BA4FDD244A5E8AA4E537BD38AEAE4B073AA PUSH2 0xB77 PUSH2 0xCB1 JUMP JUMPDEST PUSH1 0x40 MLOAD PUSH2 0xB84 SWAP2 SWAP1 PUSH2 0x1079 JUMP JUMPDEST PUSH1 0x40 MLOAD DUP1 SWAP2 SUB SWAP1 LOG1 JUMP JUMPDEST PUSH0 PUSH0 PUSH0 SWAP1 SLOAD SWAP1 PUSH2 0x100 EXP SWAP1 DIV PUSH20 0xFFFFFFFFFFFFFFFFFFFFFFFFFFFFFFFFFFFFFFFF AND SWAP1 POP DUP2 PUSH0 PUSH0 PUSH2 0x100 EXP DUP2 SLOAD DUP2 PUSH20 0xFFFFFFFFFFFFFFFFFFFFFFFFFFFFFFFFFFFFFFFF MUL NOT AND SWAP1 DUP4 PUSH20 0xFFFFFFFFFFFFFFFFFFFFFFFFFFFFFFFFFFFFFFFF AND MUL OR SWAP1 SSTORE POP DUP2 PUSH20 0xFFFFFFFFFFFFFFFFFFFFFFFFFFFFFFFFFFFFFFFF AND DUP2 PUSH20 0xFFFFFFFFFFFFFFFFFFFFFFFFFFFFFFFFFFFFFFFF AND PUSH32 0x8BE0079C531659141344CD1FD0A4F28419497F9722A3DAAFE3B4186F6B6457E0 PUSH1 0x40 MLOAD PUSH1 0x40 MLOAD DUP1 SWAP2 SUB SWAP1 LOG3 POP POP JUMP JUMPDEST PUSH2 0xC57 PUSH2 0xA9D JUMP JUMPDEST PUSH1 0x1 PUSH0 PUSH1 0x14 PUSH2 0x100 EXP DUP2 SLOAD DUP2 PUSH1 0xFF MUL NOT AND SWAP1 DUP4 ISZERO ISZERO MUL OR SWAP1 SSTORE POP PUSH32 0x62E78CEA01BEE320CD4E420270B5EA74000D11B0C9F74754EBDBFC544B05A258 PUSH2 0xC9A PUSH2 0xCB1 JUMP JUMPDEST PUSH1 0x40 MLOAD PUSH2 0xCA7 SWAP2 SWAP1 PUSH2 0x1079 JUMP JUMPDEST PUSH1 0x40 MLOAD DUP1 SWAP2 SUB SWAP1 LOG1 JUMP JUMPDEST PUSH0 CALLER SWAP1 POP SWAP1 JUMP JUMPDEST PUSH2 0xCC0 PUSH2 0x852 JUMP JUMPDEST PUSH2 0xCF6 JUMPI PUSH1 0x40 MLOAD PUSH32 0x8DFC202B00000000000000000000000000000000000000000000000000000000 DUP2 MSTORE PUSH1 0x4 ADD PUSH1 0x40 MLOAD DUP1 SWAP2 SUB SWAP1 REVERT JUMPDEST JUMP JUMPDEST PUSH0 PUSH1 0xFF DUP3 AND SWAP1 POP SWAP2 SWAP1 POP JUMP JUMPDEST PUSH2 0xD0D DUP2 PUSH2 0xCF8 JUMP JUMPDEST DUP3 MSTORE POP POP JUMP JUMPDEST PUSH0 PUSH1 0x20 DUP3 ADD SWAP1 POP PUSH2 0xD26 PUSH0 DUP4 ADD DUP5 PUSH2 0xD04 JUMP JUMPDEST SWAP3 SWAP2 POP POP JUMP JUMPDEST PUSH0 PUSH0 REVERT JUMPDEST PUSH0 PUSH0 REVERT JUMPDEST PUSH0 PUSH0 REVERT JUMPDEST PUSH0 PUSH0 REVERT JUMPDEST PUSH0 PUSH0 REVERT JUMPDEST PUSH0 PUSH0 DUP4 PUSH1 0x1F DUP5 ADD SLT PUSH2 0xD55 JUMPI PUSH2 0xD54 PUSH2 0xD34 JUMP JUMPDEST JUMPDEST DUP3 CALLDATALOAD SWAP1 POP PUSH8 0xFFFFFFFFFFFFFFFF DUP2 GT ISZERO PUSH2 0xD72 JUMPI PUSH2 0xD71 PUSH2 0xD38 JUMP JUMPDEST JUMPDEST PUSH1 0x20 DUP4 ADD SWAP2 POP DUP4 PUSH1 0x20 DUP3 MUL DUP4 ADD GT ISZERO PUSH2 0xD8E JUMPI PUSH2 0xD8D PUSH2 0xD3C JUMP JUMPDEST JUMPDEST SWAP3 POP SWAP3 SWAP1 POP JUMP JUMPDEST PUSH0 PUSH0 DUP4 PUSH1 0x1F DUP5 ADD SLT PUSH2 0xDAA JUMPI PUSH2 0xDA9 PUSH2 0xD34 JUMP JUMPDEST JUMPDEST DUP3 CALLDATALOAD SWAP1 POP PUSH8 0xFFFFFFFFFFFFFFFF DUP2 GT ISZERO PUSH2 0xDC7 JUMPI PUSH2 0xDC6 PUSH2 0xD38 JUMP JUMPDEST JUMPDEST PUSH1 0x20 DUP4 ADD SWAP2 POP DUP4 PUSH1 0x20 DUP3 MUL DUP4 ADD GT ISZERO PUSH2 0xDE3 JUMPI PUSH2 0xDE2 PUSH2 0xD3C JUMP JUMPDEST JUMPDEST SWAP3 POP SWAP3 SWAP1 POP JUMP JUMPDEST PUSH0 PUSH0 DUP4 PUSH1 0x1F DUP5 ADD SLT PUSH2 0xDFF JUMPI PUSH2 0xDFE PUSH2 0xD34 JUMP JUMPDEST JUMPDEST DUP3 CALLDATALOAD SWAP1 POP PUSH8 0xFFFFFFFFFFFFFFFF DUP2 GT ISZERO PUSH2 0xE1C JUMPI PUSH2 0xE1B PUSH2 0xD38 JUMP JUMPDEST JUMPDEST PUSH1 0x20 DUP4 ADD SWAP2 POP DUP4 PUSH1 0x20 DUP3 MUL DUP4 ADD GT ISZERO PUSH2 0xE38 JUMPI PUSH2 0xE37 PUSH2 0xD3C JUMP JUMPDEST JUMPDEST SWAP3 POP SWAP3 SWAP1 POP JUMP JUMPDEST PUSH0 PUSH0 PUSH0 PUSH0 PUSH0 PUSH0 PUSH1 0x60 DUP8 DUP10 SUB SLT ISZERO PUSH2 0xE59 JUMPI PUSH2 0xE58 PUSH2 0xD2C JUMP JUMPDEST JUMPDEST PUSH0 DUP8 ADD CALLDATALOAD PUSH8 0xFFFFFFFFFFFFFFFF DUP2 GT ISZERO PUSH2 0xE76 JUMPI PUSH2 0xE75 PUSH2 0xD30 JUMP JUMPDEST JUMPDEST PUSH2 0xE82 DUP10 DUP3 DUP11 ADD PUSH2 0xD40 JUMP JUMPDEST SWAP7 POP SWAP7 POP POP PUSH1 0x20 DUP8 ADD CALLDATALOAD PUSH8 0xFFFFFFFFFFFFFFFF DUP2 GT ISZERO PUSH2 0xEA5 JUMPI PUSH2 0xEA4 PUSH2 0xD30 JUMP JUMPDEST JUMPDEST PUSH2 0xEB1 DUP10 DUP3 DUP11 ADD PUSH2 0xD95 JUMP JUMPDEST SWAP5 POP SWAP5 POP POP PUSH1 0x40 DUP8 ADD CALLDATALOAD PUSH8 0xFFFFFFFFFFFFFFFF DUP2 GT ISZERO PUSH2 0xED4 JUMPI PUSH2 0xED3 PUSH2 0xD30 JUMP JUMPDEST JUMPDEST PUSH2 0xEE0 DUP10 DUP3 DUP11 ADD PUSH2 0xDEA JUMP JUMPDEST SWAP3 POP SWAP3 POP POP SWAP3 SWAP6 POP SWAP3 SWAP6 POP SWAP3 SWAP6 JUMP JUMPDEST PUSH0 PUSH20 0xFFFFFFFFFFFFFFFFFFFFFFFFFFFFFFFFFFFFFFFF DUP3 AND SWAP1 POP SWAP2 SWAP1 POP JUMP JUMPDEST PUSH0 PUSH2 0xF18 DUP3 PUSH2 0xEEF JUMP JUMPDEST SWAP1 POP SWAP2 SWAP1 POP JUMP JUMPDEST PUSH2 0xF28 DUP2 PUSH2 0xF0E JUMP JUMPDEST DUP2 EQ PUSH2 0xF32 JUMPI PUSH0 PUSH0 REVERT JUMPDEST POP JUMP JUMPDEST PUSH0 DUP2 CALLDATALOAD SWAP1 POP PUSH2 0xF43 DUP2 PUSH2 0xF1F JUMP JUMPDEST SWAP3 SWAP2 POP POP JUMP JUMPDEST PUSH0 DUP2 SWAP1 POP SWAP2 SWAP1 POP JUMP JUMPDEST PUSH2 0xF5B DUP2 PUSH2 0xF49 JUMP JUMPDEST DUP2 EQ PUSH2 0xF65 JUMPI PUSH0 PUSH0 REVERT JUMPDEST POP JUMP JUMPDEST PUSH0 DUP2 CALLDATALOAD SWAP1 POP PUSH2 0xF76 DUP2 PUSH2 0xF52 JUMP JUMPDEST SWAP3 SWAP2 POP POP JUMP JUMPDEST PUSH2 0xF85 DUP2 PUSH2 0xCF8 JUMP JUMPDEST DUP2 EQ PUSH2 0xF8F JUMPI PUSH0 PUSH0 REVERT JUMPDEST POP JUMP JUMPDEST PUSH0 DUP2 CALLDATALOAD SWAP1 POP PUSH2 0xFA0 DUP2 PUSH2 0xF7C JUMP JUMPDEST SWAP3 SWAP2 POP POP JUMP JUMPDEST PUSH0 PUSH0 PUSH0 PUSH1 0x60 DUP5 DUP7 SUB SLT ISZERO PUSH2 0xFBD JUMPI PUSH2 0xFBC PUSH2 0xD2C JUMP JUMPDEST JUMPDEST PUSH0 PUSH2 0xFCA DUP7 DUP3 DUP8 ADD PUSH2 0xF35 JUMP JUMPDEST SWAP4 POP POP PUSH1 0x20 PUSH2 0xFDB DUP7 DUP3 DUP8 ADD PUSH2 0xF68 JUMP JUMPDEST SWAP3 POP POP PUSH1 0x40 PUSH2 0xFEC DUP7 DUP3 DUP8 ADD PUSH2 0xF92 JUMP JUMPDEST SWAP2 POP POP SWAP3 POP SWAP3 POP SWAP3 JUMP JUMPDEST PUSH0 DUP2 SWAP1 POP SWAP2 SWAP1 POP JUMP JUMPDEST PUSH0 PUSH2 0x1019 PUSH2 0x1014 PUSH2 0x100F DUP5 PUSH2 0xEEF JUMP JUMPDEST PUSH2 0xFF6 JUMP JUMPDEST PUSH2 0xEEF JUMP JUMPDEST SWAP1 POP SWAP2 SWAP1 POP JUMP JUMPDEST PUSH0 PUSH2 0x102A DUP3 PUSH2 0xFFF JUMP JUMPDEST SWAP1 POP SWAP2 SWAP1 POP JUMP JUMPDEST PUSH0 PUSH2 0x103B DUP3 PUSH2 0x1020 JUMP JUMPDEST SWAP1 POP SWAP2 SWAP1 POP JUMP JUMPDEST PUSH2 0x104B DUP2 PUSH2 0x1031 JUMP JUMPDEST DUP3 MSTORE POP POP JUMP JUMPDEST PUSH0 PUSH1 0x20 DUP3 ADD SWAP1 POP PUSH2 0x1064 PUSH0 DUP4 ADD DUP5 PUSH2 0x1042 JUMP JUMPDEST SWAP3 SWAP2 POP POP JUMP JUMPDEST PUSH2 0x1073 DUP2 PUSH2 0xF0E JUMP JUMPDEST DUP3 MSTORE POP POP JUMP JUMPDEST PUSH0 PUSH1 0x20 DUP3 ADD SWAP1 POP PUSH2 0x108C PUSH0 DUP4 ADD DUP5 PUSH2 0x106A JUMP JUMPDEST SWAP3 SWAP2 POP POP JUMP JUMPDEST PUSH0 DUP2 ISZERO ISZERO SWAP1 POP SWAP2 SWAP1 POP JUMP JUMPDEST PUSH2 0x10A6 DUP2 PUSH2 0x1092 JUMP JUMPDEST DUP3 MSTORE POP POP JUMP JUMPDEST PUSH0 PUSH1 0x20 DUP3 ADD SWAP1 POP PUSH2 0x10BF PUSH0 DUP4 ADD DUP5 PUSH2 0x109D JUMP JUMPDEST SWAP3 SWAP2 POP POP JUMP JUMPDEST PUSH0 PUSH1 0x20 DUP3 DUP5 SUB SLT ISZERO PUSH2 0x10DA JUMPI PUSH2 0x10D9 PUSH2 0xD2C JUMP JUMPDEST JUMPDEST PUSH0 PUSH2 0x10E7 DUP5 DUP3 DUP6 ADD PUSH2 0xF92 JUMP JUMPDEST SWAP2 POP POP SWAP3 SWAP2 POP POP JUMP JUMPDEST PUSH0 PUSH1 0x20 DUP3 DUP5 SUB SLT ISZERO PUSH2 0x1105 JUMPI PUSH2 0x1104 PUSH2 0xD2C JUMP JUMPDEST JUMPDEST PUSH0 PUSH2 0x1112 DUP5 DUP3 DUP6 ADD PUSH2 0xF35 JUMP JUMPDEST SWAP2 POP POP SWAP3 SWAP2 POP POP JUMP JUMPDEST PUSH0 DUP3 DUP3 MSTORE PUSH1 0x20 DUP3 ADD SWAP1 POP SWAP3 SWAP2 POP POP JUMP JUMPDEST PUSH32 0x4172726179206C656E677468206D69736D61746368206F7220746F6F206C6172 PUSH0 DUP3 ADD MSTORE PUSH32 0x6765000000000000000000000000000000000000000000000000000000000000 PUSH1 0x20 DUP3 ADD MSTORE POP JUMP JUMPDEST PUSH0 PUSH2 0x1185 PUSH1 0x22 DUP4 PUSH2 0x111B JUMP JUMPDEST SWAP2 POP PUSH2 0x1190 DUP3 PUSH2 0x112B JUMP JUMPDEST PUSH1 0x40 DUP3 ADD SWAP1 POP SWAP2 SWAP1 POP JUMP JUMPDEST PUSH0 PUSH1 0x20 DUP3 ADD SWAP1 POP DUP2 DUP2 SUB PUSH0 DUP4 ADD MSTORE PUSH2 0x11B2 DUP2 PUSH2 0x1179 JUMP JUMPDEST SWAP1 POP SWAP2 SWAP1 POP JUMP JUMPDEST PUSH32 0x4E487B7100000000000000000000000000000000000000000000000000000000 PUSH0 MSTORE PUSH1 0x32 PUSH1 0x4 MSTORE PUSH1 0x24 PUSH0 REVERT JUMPDEST PUSH32 0x496E76616C696420726F75746572204944000000000000000000000000000000 PUSH0 DUP3 ADD MSTORE POP JUMP JUMPDEST PUSH0 PUSH2 0x121A PUSH1 0x11 DUP4 PUSH2 0x111B JUMP JUMPDEST SWAP2 POP PUSH2 0x1225 DUP3 PUSH2 0x11E6 JUMP JUMPDEST PUSH1 0x20 DUP3 ADD SWAP1 POP SWAP2 SWAP1 POP JUMP JUMPDEST PUSH0 PUSH1 0x20 DUP3 ADD SWAP1 POP DUP2 DUP2 SUB PUSH0 DUP4 ADD MSTORE PUSH2 0x1247 DUP2 PUSH2 0x120E JUMP JUMPDEST SWAP1 POP SWAP2 SWAP1 POP JUMP JUMPDEST PUSH0 PUSH1 0x40 DUP3 ADD SWAP1 POP PUSH2 0x1261 PUSH0 DUP4 ADD DUP6 PUSH2 0x106A JUMP JUMPDEST PUSH2 0x126E PUSH1 0x20 DUP4 ADD DUP5 PUSH2 0x106A JUMP JUMPDEST SWAP4 SWAP3 POP POP POP JUMP JUMPDEST PUSH0 DUP2 MLOAD SWAP1 POP PUSH2 0x1283 DUP2 PUSH2 0xF52 JUMP JUMPDEST SWAP3 SWAP2 POP POP JUMP JUMPDEST PUSH0 PUSH1 0x20 DUP3 DUP5 SUB SLT ISZERO PUSH2 0x129E JUMPI PUSH2 0x129D PUSH2 0xD2C JUMP JUMPDEST JUMPDEST PUSH0 PUSH2 0x12AB DUP5 DUP3 DUP6 ADD PUSH2 0x1275 JUMP JUMPDEST SWAP2 POP POP SWAP3 SWAP2 POP POP JUMP JUMPDEST PUSH32 0x496E73756666696369656E74205553444320616C6C6F77616E636520666F7220 PUSH0 DUP3 ADD MSTORE PUSH32 0x726F757465720000000000000000000000000000000000000000000000000000 PUSH1 0x20 DUP3 ADD MSTORE POP JUMP JUMPDEST PUSH0 PUSH2 0x130E PUSH1 0x26 DUP4 PUSH2 0x111B JUMP JUMPDEST SWAP2 POP PUSH2 0x1319 DUP3 PUSH2 0x12B4 JUMP JUMPDEST PUSH1 0x40 DUP3 ADD SWAP1 POP SWAP2 SWAP1 POP JUMP JUMPDEST PUSH0 PUSH1 0x20 DUP3 ADD SWAP1 POP DUP2 DUP2 SUB PUSH0 DUP4 ADD MSTORE PUSH2 0x133B DUP2 PUSH2 0x1302 JUMP JUMPDEST SWAP1 POP SWAP2 SWAP1 POP JUMP JUMPDEST PUSH2 0x134B DUP2 PUSH2 0xF49 JUMP JUMPDEST DUP3 MSTORE POP POP JUMP JUMPDEST PUSH0 PUSH1 0x20 DUP3 ADD SWAP1 POP PUSH2 0x1364 PUSH0 DUP4 ADD DUP5 PUSH2 0x1342 JUMP JUMPDEST SWAP3 SWAP2 POP POP JUMP INVALID LOG2 PUSH5 0x6970667358 0x22 SLT KECCAK256 0xAC 0xC 0x29 GASLIMIT 0xB1 TSTORE ADD 0xC1 0xAF 0x4B RETURNDATASIZE PUSH30 0x30D8C595560236633A5F57D4F7D926A5D63D27AD64736F6C634300081E00 CALLER "
		},
		"gasEstimates": {
			"creation": {
				"codeDepositCost": "1004800",
				"executionCost": "infinite",
				"totalCost": "infinite"
			},
			"external": {
				"KYBERSWAP_ID()": "376",
				"OPENOCEAN_ID()": "354",
				"_KYBERSWAP_ROUTER()": "395",
				"_OPENOCEAN_ROUTER()": "417",
				"approveAutoBuy(address,uint256,uint8)": "infinite",
				"batchAutoBuy(address[],uint256[],uint8[])": "infinite",
				"getKyberSwapRouter()": "447",
				"getOpenOceanRouter()": "403",
				"getRouterAddress(uint8)": "827",
				"owner()": "2603",
				"pause()": "infinite",
				"paused()": "2612",
				"renounceOwnership()": "infinite",
				"transferOwnership(address)": "infinite",
				"unpause()": "infinite",
				"usdc()": "infinite"
			}
		},
		"methodIdentifiers": {
			"KYBERSWAP_ID()": "48fcdc7b",
			"OPENOCEAN_ID()": "18c786af",
			"_KYBERSWAP_ROUTER()": "9f1f61a0",
			"_OPENOCEAN_ROUTER()": "a4518efb",
			"approveAutoBuy(address,uint256,uint8)": "2b15e47c",
			"batchAutoBuy(address[],uint256[],uint8[])": "1e8bcca5",
			"getKyberSwapRouter()": "57df19e6",
			"getOpenOceanRouter()": "612e3146",
			"getRouterAddress(uint8)": "cac73ed7",
			"owner()": "8da5cb5b",
			"pause()": "8456cb59",
			"paused()": "5c975abb",
			"renounceOwnership()": "715018a6",
			"transferOwnership(address)": "f2fde38b",
			"unpause()": "3f4ba83a",
			"usdc()": "3e413bee"
		}
	},
	"abi": [
		{
			"inputs": [
				{
					"internalType": "address",
					"name": "_usdc",
					"type": "address"
				},
				{
					"internalType": "address",
					"name": "initialOwner",
					"type": "address"
				}
			],
			"stateMutability": "nonpayable",
			"type": "constructor"
		},
		{
			"inputs": [],
			"name": "EnforcedPause",
			"type": "error"
		},
		{
			"inputs": [],
			"name": "ExpectedPause",
			"type": "error"
		},
		{
			"inputs": [
				{
					"internalType": "address",
					"name": "owner",
					"type": "address"
				}
			],
			"name": "OwnableInvalidOwner",
			"type": "error"
		},
		{
			"inputs": [
				{
					"internalType": "address",
					"name": "account",
					"type": "address"
				}
			],
			"name": "OwnableUnauthorizedAccount",
			"type": "error"
		},
		{
			"inputs": [],
			"name": "ReentrancyGuardReentrantCall",
			"type": "error"
		},
		{
			"anonymous": false,
			"inputs": [
				{
					"indexed": true,
					"internalType": "address",
					"name": "user",
					"type": "address"
				},
				{
					"indexed": false,
					"internalType": "uint256",
					"name": "usdcAmount",
					"type": "uint256"
				},
				{
					"indexed": true,
					"internalType": "address",
					"name": "router",
					"type": "address"
				}
			],
			"name": "AutoBuyApproved",
			"type": "event"
		},
		{
			"anonymous": false,
			"inputs": [
				{
					"indexed": true,
					"internalType": "address",
					"name": "previousOwner",
					"type": "address"
				},
				{
					"indexed": true,
					"internalType": "address",
					"name": "newOwner",
					"type": "address"
				}
			],
			"name": "OwnershipTransferred",
			"type": "event"
		},
		{
			"anonymous": false,
			"inputs": [
				{
					"indexed": false,
					"internalType": "address",
					"name": "account",
					"type": "address"
				}
			],
			"name": "Paused",
			"type": "event"
		},
		{
			"anonymous": false,
			"inputs": [
				{
					"indexed": false,
					"internalType": "address",
					"name": "account",
					"type": "address"
				}
			],
			"name": "Unpaused",
			"type": "event"
		},
		{
			"inputs": [],
			"name": "KYBERSWAP_ID",
			"outputs": [
				{
					"internalType": "uint8",
					"name": "",
					"type": "uint8"
				}
			],
			"stateMutability": "view",
			"type": "function"
		},
		{
			"inputs": [],
			"name": "OPENOCEAN_ID",
			"outputs": [
				{
					"internalType": "uint8",
					"name": "",
					"type": "uint8"
				}
			],
			"stateMutability": "view",
			"type": "function"
		},
		{
			"inputs": [],
			"name": "_KYBERSWAP_ROUTER",
			"outputs": [
				{
					"internalType": "address",
					"name": "",
					"type": "address"
				}
			],
			"stateMutability": "view",
			"type": "function"
		},
		{
			"inputs": [],
			"name": "_OPENOCEAN_ROUTER",
			"outputs": [
				{
					"internalType": "address",
					"name": "",
					"type": "address"
				}
			],
			"stateMutability": "view",
			"type": "function"
		},
		{
			"inputs": [
				{
					"internalType": "address",
					"name": "user",
					"type": "address"
				},
				{
					"internalType": "uint256",
					"name": "usdcAmount",
					"type": "uint256"
				},
				{
					"internalType": "uint8",
					"name": "routerId",
					"type": "uint8"
				}
			],
			"name": "approveAutoBuy",
			"outputs": [],
			"stateMutability": "nonpayable",
			"type": "function"
		},
		{
			"inputs": [
				{
					"internalType": "address[]",
					"name": "users",
					"type": "address[]"
				},
				{
					"internalType": "uint256[]",
					"name": "usdcAmounts",
					"type": "uint256[]"
				},
				{
					"internalType": "uint8[]",
					"name": "routerIds",
					"type": "uint8[]"
				}
			],
			"name": "batchAutoBuy",
			"outputs": [],
			"stateMutability": "nonpayable",
			"type": "function"
		},
		{
			"inputs": [],
			"name": "getKyberSwapRouter",
			"outputs": [
				{
					"internalType": "address",
					"name": "",
					"type": "address"
				}
			],
			"stateMutability": "pure",
			"type": "function"
		},
		{
			"inputs": [],
			"name": "getOpenOceanRouter",
			"outputs": [
				{
					"internalType": "address",
					"name": "",
					"type": "address"
				}
			],
			"stateMutability": "pure",
			"type": "function"
		},
		{
			"inputs": [
				{
					"internalType": "uint8",
					"name": "routerId",
					"type": "uint8"
				}
			],
			"name": "getRouterAddress",
			"outputs": [
				{
					"internalType": "address",
					"name": "",
					"type": "address"
				}
			],
			"stateMutability": "pure",
			"type": "function"
		},
		{
			"inputs": [],
			"name": "owner",
			"outputs": [
				{
					"internalType": "address",
					"name": "",
					"type": "address"
				}
			],
			"stateMutability": "view",
			"type": "function"
		},
		{
			"inputs": [],
			"name": "pause",
			"outputs": [],
			"stateMutability": "nonpayable",
			"type": "function"
		},
		{
			"inputs": [],
			"name": "paused",
			"outputs": [
				{
					"internalType": "bool",
					"name": "",
					"type": "bool"
				}
			],
			"stateMutability": "view",
			"type": "function"
		},
		{
			"inputs": [],
			"name": "renounceOwnership",
			"outputs": [],
			"stateMutability": "nonpayable",
			"type": "function"
		},
		{
			"inputs": [
				{
					"internalType": "address",
					"name": "newOwner",
					"type": "address"
				}
			],
			"name": "transferOwnership",
			"outputs": [],
			"stateMutability": "nonpayable",
			"type": "function"
		},
		{
			"inputs": [],
			"name": "unpause",
			"outputs": [],
			"stateMutability": "nonpayable",
			"type": "function"
		},
		{
			"inputs": [],
			"name": "usdc",
			"outputs": [
				{
					"internalType": "contract IERC20",
					"name": "",
					"type": "address"
				}
			],
			"stateMutability": "view",
			"type": "function"
		}
	]
}