{
	"data": {
		"bytecode": {
			"linkReferences": {},
			"object": "60a060405234801561000f575f5ffd5b50604051610c8a380380610c8a83398101604081905261002e916100e6565b806001600160a01b03811661005c57604051631e4fbdf760e01b81525f600482015260240160405180910390fd5b6100658161007c565b5050600180556001600160a01b0316608052610117565b5f80546001600160a01b038381166001600160a01b0319831681178455604051919092169283917f8be0079c531659141344cd1fd0a4f28419497f9722a3daafe3b4186f6b6457e09190a35050565b80516001600160a01b03811681146100e1575f5ffd5b919050565b5f5f604083850312156100f7575f5ffd5b610100836100cb565b915061010e602084016100cb565b90509250929050565b608051610b4d61013d5f395f818161014a015281816103e801526105f50152610b4d5ff3fe608060405234801561000f575f5ffd5b50600436106100fb575f3560e01c8063612e3146116100935780639f1f61a0116100635780639f1f61a014610204578063a4518efb1461021f578063cac73ed71461023a578063f2fde38b1461024d575f5ffd5b8063612e3146146101ca578063715018a6146101e45780638456cb59146101ec5780638da5cb5b146101f4575f5ffd5b80633f4ba83a116100ce5780633f4ba83a1461018457806348fcdc7b1461018c57806357df19e6146101945780635c975abb146101ae575f5ffd5b806318c786af146100ff5780631e8bcca51461011d5780632b15e47c146101325780633e413bee14610145575b5f5ffd5b6101065f81565b60405160ff90911681526020015b60405180910390f35b61013061012b36600461096f565b610260565b005b610130610140366004610a34565b61056e565b61016c7f000000000000000000000000000000000000000000000000000000000000000081565b6040516001600160a01b039091168152602001610114565b6101306106da565b610106600181565b736131b5fae19ea4f9d964eac0408e4408b66337b561016c565b5f54600160a01b900460ff166040519015158152602001610114565b736352a56caadc4f1e25cd6c75970fa768a3304e6461016c565b6101306106ec565b6101306106fd565b5f546001600160a01b031661016c565b61016c736131b5fae19ea4f9d964eac0408e4408b66337b581565b61016c736352a56caadc4f1e25cd6c75970fa768a3304e6481565b61016c610248366004610a6d565b61070d565b61013061025b366004610a8d565b61075c565b610268610799565b6102706107c5565b6102786107ef565b848314801561028657508481145b8015610293575060648511155b6102ef5760405162461bcd60e51b815260206004820152602260248201527f4172726179206c656e677468206d69736d61746368206f7220746f6f206c6172604482015261676560f01b60648201526084015b60405180910390fd5b5f5b8581101561055c575f8084848481811061030d5761030d610aa6565b90506020020160208101906103229190610a6d565b60ff16036103455750736352a56caadc4f1e25cd6c75970fa768a3304e646103cd565b600184848481811061035957610359610aa6565b905060200201602081019061036e9190610a6d565b60ff16036103915750736131b5fae19ea4f9d964eac0408e4408b66337b56103cd565b60405162461bcd60e51b8152602060048201526011602482015270125b9d985b1a59081c9bdd5d195c881251607a1b60448201526064016102e6565b8585838181106103df576103df610aa6565b905060200201357f00000000000000000000000000000000000000000000000000000000000000006001600160a01b031663dd62ed3e8a8a8681811061042757610427610aa6565b905060200201602081019061043c9190610a8d565b6040516001600160e01b031960e084901b1681526001600160a01b0391821660048201529085166024820152604401602060405180830381865afa158015610486573d5f5f3e3d5ffd5b505050506040513d601f19601f820116820180604052508101906104aa9190610aba565b10156104c85760405162461bcd60e51b81526004016102e690610ad1565b806001600160a01b03168888848181106104e4576104e4610aa6565b90506020020160208101906104f99190610a8d565b6001600160a01b03167feab9cd112c05d2451f24acf7702297c9705b2115923d562c663c5272a60fe76f88888681811061053557610535610aa6565b9050602002013560405161054b91815260200190565b60405180910390a3506001016102f1565b5061056660018055565b505050505050565b610576610799565b61057e6107c5565b6105866107ef565b5f60ff82166105aa5750736352a56caadc4f1e25cd6c75970fa768a3304e646105cc565b5f1960ff8316016103915750736131b5fae19ea4f9d964eac0408e4408b66337b55b604051636eb1769f60e11b81526001600160a01b038581166004830152828116602483015284917f00000000000000000000000000000000000000000000000000000000000000009091169063dd62ed3e90604401602060405180830381865afa15801561063c573d5f5f3e3d5ffd5b505050506040513d601f19601f820116820180604052508101906106609190610aba565b101561067e5760405162461bcd60e51b81526004016102e690610ad1565b806001600160a01b0316846001600160a01b03167feab9cd112c05d2451f24acf7702297c9705b2115923d562c663c5272a60fe76f856040516106c391815260200190565b60405180910390a3506106d560018055565b505050565b6106e2610799565b6106ea610819565b565b6106f4610799565b6106ea5f61086d565b610705610799565b6106ea6108bc565b5f60ff82166107315750736352a56caadc4f1e25cd6c75970fa768a3304e64919050565b5f1960ff8316016103915750736131b5fae19ea4f9d964eac0408e4408b66337b5919050565b919050565b610764610799565b6001600160a01b03811661078d57604051631e4fbdf760e01b81525f60048201526024016102e6565b6107968161086d565b50565b5f546001600160a01b031633146106ea5760405163118cdaa760e01b81523360048201526024016102e6565b5f54600160a01b900460ff16156106ea5760405163d93c066560e01b815260040160405180910390fd5b60026001540361081257604051633ee5aeb560e01b815260040160405180910390fd5b6002600155565b6108216108fe565b5f805460ff60a01b191690557f5db9ee0a495bf2e6ff9c91a7834c1ba4fdd244a5e8aa4e537bd38aeae4b073aa335b6040516001600160a01b03909116815260200160405180910390a1565b5f80546001600160a01b038381166001600160a01b0319831681178455604051919092169283917f8be0079c531659141344cd1fd0a4f28419497f9722a3daafe3b4186f6b6457e09190a35050565b6108c46107c5565b5f805460ff60a01b1916600160a01b1790557f62e78cea01bee320cd4e420270b5ea74000d11b0c9f74754ebdbfc544b05a2586108503390565b5f54600160a01b900460ff166106ea57604051638dfc202b60e01b815260040160405180910390fd5b5f5f83601f840112610937575f5ffd5b50813567ffffffffffffffff81111561094e575f5ffd5b6020830191508360208260051b8501011115610968575f5ffd5b9250929050565b5f5f5f5f5f5f60608789031215610984575f5ffd5b863567ffffffffffffffff81111561099a575f5ffd5b6109a689828a01610927565b909750955050602087013567ffffffffffffffff8111156109c5575f5ffd5b6109d189828a01610927565b909550935050604087013567ffffffffffffffff8111156109f0575f5ffd5b6109fc89828a01610927565b979a9699509497509295939492505050565b80356001600160a01b0381168114610757575f5ffd5b803560ff81168114610757575f5ffd5b5f5f5f60608486031215610a46575f5ffd5b610a4f84610a0e565b925060208401359150610a6460408501610a24565b90509250925092565b5f60208284031215610a7d575f5ffd5b610a8682610a24565b9392505050565b5f60208284031215610a9d575f5ffd5b610a8682610a0e565b634e487b7160e01b5f52603260045260245ffd5b5f60208284031215610aca575f5ffd5b5051919050565b60208082526026908201527f496e73756666696369656e74205553444320616c6c6f77616e636520666f72206040820152653937baba32b960d11b60608201526080019056fea264697066735822122089f237209e6ad3ca9806ba376e34d32d0c72334504c1e194b152b86188c53ac264736f6c634300081e0033",
			"opcodes": "PUSH1 0xA0 PUSH1 0x40 MSTORE CALLVALUE DUP1 ISZERO PUSH2 0xF JUMPI PUSH0 PUSH0 REVERT JUMPDEST POP PUSH1 0x40 MLOAD PUSH2 0xC8A CODESIZE SUB DUP1 PUSH2 0xC8A DUP4 CODECOPY DUP2 ADD PUSH1 0x40 DUP2 SWAP1 MSTORE PUSH2 0x2E SWAP2 PUSH2 0xE6 JUMP JUMPDEST DUP1 PUSH1 0x1 PUSH1 0x1 PUSH1 0xA0 SHL SUB DUP2 AND PUSH2 0x5C JUMPI PUSH1 0x40 MLOAD PUSH4 0x1E4FBDF7 PUSH1 0xE0 SHL DUP2 MSTORE PUSH0 PUSH1 0x4 DUP3 ADD MSTORE PUSH1 0x24 ADD PUSH1 0x40 MLOAD DUP1 SWAP2 SUB SWAP1 REVERT JUMPDEST PUSH2 0x65 DUP2 PUSH2 0x7C JUMP JUMPDEST POP POP PUSH1 0x1 DUP1 SSTORE PUSH1 0x1 PUSH1 0x1 PUSH1 0xA0 SHL SUB AND PUSH1 0x80 MSTORE PUSH2 0x117 JUMP JUMPDEST PUSH0 DUP1 SLOAD PUSH1 0x1 PUSH1 0x1 PUSH1 0xA0 SHL SUB DUP4 DUP2 AND PUSH1 0x1 PUSH1 0x1 PUSH1 0xA0 SHL SUB NOT DUP4 AND DUP2 OR DUP5 SSTORE PUSH1 0x40 MLOAD SWAP2 SWAP1 SWAP3 AND SWAP3 DUP4 SWAP2 PUSH32 0x8BE0079C531659141344CD1FD0A4F28419497F9722A3DAAFE3B4186F6B6457E0 SWAP2 SWAP1 LOG3 POP POP JUMP JUMPDEST DUP1 MLOAD PUSH1 0x1 PUSH1 0x1 PUSH1 0xA0 SHL SUB DUP2 AND DUP2 EQ PUSH2 0xE1 JUMPI PUSH0 PUSH0 REVERT JUMPDEST SWAP2 SWAP1 POP JUMP JUMPDEST PUSH0 PUSH0 PUSH1 0x40 DUP4 DUP6 SUB SLT ISZERO PUSH2 0xF7 JUMPI PUSH0 PUSH0 REVERT JUMPDEST PUSH2 0x100 DUP4 PUSH2 0xCB JUMP JUMPDEST SWAP2 POP PUSH2 0x10E PUSH1 0x20 DUP5 ADD PUSH2 0xCB JUMP JUMPDEST SWAP1 POP SWAP3 POP SWAP3 SWAP1 POP JUMP JUMPDEST PUSH1 0x80 MLOAD PUSH2 0xB4D PUSH2 0x13D PUSH0 CODECOPY PUSH0 DUP2 DUP2 PUSH2 0x14A ADD MSTORE DUP2 DUP2 PUSH2 0x3E8 ADD MSTORE PUSH2 0x5F5 ADD MSTORE PUSH2 0xB4D PUSH0 RETURN INVALID PUSH1 0x80 PUSH1 0x40 MSTORE CALLVALUE DUP1 ISZERO PUSH2 0xF JUMPI PUSH0 PUSH0 REVERT JUMPDEST POP PUSH1 0x4 CALLDATASIZE LT PUSH2 0xFB JUMPI PUSH0 CALLDATALOAD PUSH1 0xE0 SHR DUP1 PUSH4 0x612E3146 GT PUSH2 0x93 JUMPI DUP1 PUSH4 0x9F1F61A0 GT PUSH2 0x63 JUMPI DUP1 PUSH4 0x9F1F61A0 EQ PUSH2 0x204 JUMPI DUP1 PUSH4 0xA4518EFB EQ PUSH2 0x21F JUMPI DUP1 PUSH4 0xCAC73ED7 EQ PUSH2 0x23A JUMPI DUP1 PUSH4 0xF2FDE38B EQ PUSH2 0x24D JUMPI PUSH0 PUSH0 REVERT JUMPDEST DUP1 PUSH4 0x612E3146 EQ PUSH2 0x1CA JUMPI DUP1 PUSH4 0x715018A6 EQ PUSH2 0x1E4 JUMPI DUP1 PUSH4 0x8456CB59 EQ PUSH2 0x1EC JUMPI DUP1 PUSH4 0x8DA5CB5B EQ PUSH2 0x1F4 JUMPI PUSH0 PUSH0 REVERT JUMPDEST DUP1 PUSH4 0x3F4BA83A GT PUSH2 0xCE JUMPI DUP1 PUSH4 0x3F4BA83A EQ PUSH2 0x184 JUMPI DUP1 PUSH4 0x48FCDC7B EQ PUSH2 0x18C JUMPI DUP1 PUSH4 0x57DF19E6 EQ PUSH2 0x194 JUMPI DUP1 PUSH4 0x5C975ABB EQ PUSH2 0x1AE JUMPI PUSH0 PUSH0 REVERT JUMPDEST DUP1 PUSH4 0x18C786AF EQ PUSH2 0xFF JUMPI DUP1 PUSH4 0x1E8BCCA5 EQ PUSH2 0x11D JUMPI DUP1 PUSH4 0x2B15E47C EQ PUSH2 0x132 JUMPI DUP1 PUSH4 0x3E413BEE EQ PUSH2 0x145 JUMPI JUMPDEST PUSH0 PUSH0 REVERT JUMPDEST PUSH2 0x106 PUSH0 DUP2 JUMP JUMPDEST PUSH1 0x40 MLOAD PUSH1 0xFF SWAP1 SWAP2 AND DUP2 MSTORE PUSH1 0x20 ADD JUMPDEST PUSH1 0x40 MLOAD DUP1 SWAP2 SUB SWAP1 RETURN JUMPDEST PUSH2 0x130 PUSH2 0x12B CALLDATASIZE PUSH1 0x4 PUSH2 0x96F JUMP JUMPDEST PUSH2 0x260 JUMP JUMPDEST STOP JUMPDEST PUSH2 0x130 PUSH2 0x140 CALLDATASIZE PUSH1 0x4 PUSH2 0xA34 JUMP JUMPDEST PUSH2 0x56E JUMP JUMPDEST PUSH2 0x16C PUSH32 0x0 DUP2 JUMP JUMPDEST PUSH1 0x40 MLOAD PUSH1 0x1 PUSH1 0x1 PUSH1 0xA0 SHL SUB SWAP1 SWAP2 AND DUP2 MSTORE PUSH1 0x20 ADD PUSH2 0x114 JUMP JUMPDEST PUSH2 0x130 PUSH2 0x6DA JUMP JUMPDEST PUSH2 0x106 PUSH1 0x1 DUP2 JUMP JUMPDEST PUSH20 0x6131B5FAE19EA4F9D964EAC0408E4408B66337B5 PUSH2 0x16C JUMP JUMPDEST PUSH0 SLOAD PUSH1 0x1 PUSH1 0xA0 SHL SWAP1 DIV PUSH1 0xFF AND PUSH1 0x40 MLOAD SWAP1 ISZERO ISZERO DUP2 MSTORE PUSH1 0x20 ADD PUSH2 0x114 JUMP JUMPDEST PUSH20 0x6352A56CAADC4F1E25CD6C75970FA768A3304E64 PUSH2 0x16C JUMP JUMPDEST PUSH2 0x130 PUSH2 0x6EC JUMP JUMPDEST PUSH2 0x130 PUSH2 0x6FD JUMP JUMPDEST PUSH0 SLOAD PUSH1 0x1 PUSH1 0x1 PUSH1 0xA0 SHL SUB AND PUSH2 0x16C JUMP JUMPDEST PUSH2 0x16C PUSH20 0x6131B5FAE19EA4F9D964EAC0408E4408B66337B5 DUP2 JUMP JUMPDEST PUSH2 0x16C PUSH20 0x6352A56CAADC4F1E25CD6C75970FA768A3304E64 DUP2 JUMP JUMPDEST PUSH2 0x16C PUSH2 0x248 CALLDATASIZE PUSH1 0x4 PUSH2 0xA6D JUMP JUMPDEST PUSH2 0x70D JUMP JUMPDEST PUSH2 0x130 PUSH2 0x25B CALLDATASIZE PUSH1 0x4 PUSH2 0xA8D JUMP JUMPDEST PUSH2 0x75C JUMP JUMPDEST PUSH2 0x268 PUSH2 0x799 JUMP JUMPDEST PUSH2 0x270 PUSH2 0x7C5 JUMP JUMPDEST PUSH2 0x278 PUSH2 0x7EF JUMP JUMPDEST DUP5 DUP4 EQ DUP1 ISZERO PUSH2 0x286 JUMPI POP DUP5 DUP2 EQ JUMPDEST DUP1 ISZERO PUSH2 0x293 JUMPI POP PUSH1 0x64 DUP6 GT ISZERO JUMPDEST PUSH2 0x2EF JUMPI PUSH1 0x40 MLOAD PUSH3 0x461BCD PUSH1 0xE5 SHL DUP2 MSTORE PUSH1 0x20 PUSH1 0x4 DUP3 ADD MSTORE PUSH1 0x22 PUSH1 0x24 DUP3 ADD MSTORE PUSH32 0x4172726179206C656E677468206D69736D61746368206F7220746F6F206C6172 PUSH1 0x44 DUP3 ADD MSTORE PUSH2 0x6765 PUSH1 0xF0 SHL PUSH1 0x64 DUP3 ADD MSTORE PUSH1 0x84 ADD JUMPDEST PUSH1 0x40 MLOAD DUP1 SWAP2 SUB SWAP1 REVERT JUMPDEST PUSH0 JUMPDEST DUP6 DUP2 LT ISZERO PUSH2 0x55C JUMPI PUSH0 DUP1 DUP5 DUP5 DUP5 DUP2 DUP2 LT PUSH2 0x30D JUMPI PUSH2 0x30D PUSH2 0xAA6 JUMP JUMPDEST SWAP1 POP PUSH1 0x20 MUL ADD PUSH1 0x20 DUP2 ADD SWAP1 PUSH2 0x322 SWAP2 SWAP1 PUSH2 0xA6D JUMP JUMPDEST PUSH1 0xFF AND SUB PUSH2 0x345 JUMPI POP PUSH20 0x6352A56CAADC4F1E25CD6C75970FA768A3304E64 PUSH2 0x3CD JUMP JUMPDEST PUSH1 0x1 DUP5 DUP5 DUP5 DUP2 DUP2 LT PUSH2 0x359 JUMPI PUSH2 0x359 PUSH2 0xAA6 JUMP JUMPDEST SWAP1 POP PUSH1 0x20 MUL ADD PUSH1 0x20 DUP2 ADD SWAP1 PUSH2 0x36E SWAP2 SWAP1 PUSH2 0xA6D JUMP JUMPDEST PUSH1 0xFF AND SUB PUSH2 0x391 JUMPI POP PUSH20 0x6131B5FAE19EA4F9D964EAC0408E4408B66337B5 PUSH2 0x3CD JUMP JUMPDEST PUSH1 0x40 MLOAD PUSH3 0x461BCD PUSH1 0xE5 SHL DUP2 MSTORE PUSH1 0x20 PUSH1 0x4 DUP3 ADD MSTORE PUSH1 0x11 PUSH1 0x24 DUP3 ADD MSTORE PUSH17 0x125B9D985B1A59081C9BDD5D195C881251 PUSH1 0x7A SHL PUSH1 0x44 DUP3 ADD MSTORE PUSH1 0x64 ADD PUSH2 0x2E6 JUMP JUMPDEST DUP6 DUP6 DUP4 DUP2 DUP2 LT PUSH2 0x3DF JUMPI PUSH2 0x3DF PUSH2 0xAA6 JUMP JUMPDEST SWAP1 POP PUSH1 0x20 MUL ADD CALLDATALOAD PUSH32 0x0 PUSH1 0x1 PUSH1 0x1 PUSH1 0xA0 SHL SUB AND PUSH4 0xDD62ED3E DUP11 DUP11 DUP7 DUP2 DUP2 LT PUSH2 0x427 JUMPI PUSH2 0x427 PUSH2 0xAA6 JUMP JUMPDEST SWAP1 POP PUSH1 0x20 MUL ADD PUSH1 0x20 DUP2 ADD SWAP1 PUSH2 0x43C SWAP2 SWAP1 PUSH2 0xA8D JUMP JUMPDEST PUSH1 0x40 MLOAD PUSH1 0x1 PUSH1 0x1 PUSH1 0xE0 SHL SUB NOT PUSH1 0xE0 DUP5 SWAP1 SHL AND DUP2 MSTORE PUSH1 0x1 PUSH1 0x1 PUSH1 0xA0 SHL SUB SWAP2 DUP3 AND PUSH1 0x4 DUP3 ADD MSTORE SWAP1 DUP6 AND PUSH1 0x24 DUP3 ADD MSTORE PUSH1 0x44 ADD PUSH1 0x20 PUSH1 0x40 MLOAD DUP1 DUP4 SUB DUP2 DUP7 GAS STATICCALL ISZERO DUP1 ISZERO PUSH2 0x486 JUMPI RETURNDATASIZE PUSH0 PUSH0 RETURNDATACOPY RETURNDATASIZE PUSH0 REVERT JUMPDEST POP POP POP POP PUSH1 0x40 MLOAD RETURNDATASIZE PUSH1 0x1F NOT PUSH1 0x1F DUP3 ADD AND DUP3 ADD DUP1 PUSH1 0x40 MSTORE POP DUP2 ADD SWAP1 PUSH2 0x4AA SWAP2 SWAP1 PUSH2 0xABA JUMP JUMPDEST LT ISZERO PUSH2 0x4C8 JUMPI PUSH1 0x40 MLOAD PUSH3 0x461BCD PUSH1 0xE5 SHL DUP2 MSTORE PUSH1 0x4 ADD PUSH2 0x2E6 SWAP1 PUSH2 0xAD1 JUMP JUMPDEST DUP1 PUSH1 0x1 PUSH1 0x1 PUSH1 0xA0 SHL SUB AND DUP9 DUP9 DUP5 DUP2 DUP2 LT PUSH2 0x4E4 JUMPI PUSH2 0x4E4 PUSH2 0xAA6 JUMP JUMPDEST SWAP1 POP PUSH1 0x20 MUL ADD PUSH1 0x20 DUP2 ADD SWAP1 PUSH2 0x4F9 SWAP2 SWAP1 PUSH2 0xA8D JUMP JUMPDEST PUSH1 0x1 PUSH1 0x1 PUSH1 0xA0 SHL SUB AND PUSH32 0xEAB9CD112C05D2451F24ACF7702297C9705B2115923D562C663C5272A60FE76F DUP9 DUP9 DUP7 DUP2 DUP2 LT PUSH2 0x535 JUMPI PUSH2 0x535 PUSH2 0xAA6 JUMP JUMPDEST SWAP1 POP PUSH1 0x20 MUL ADD CALLDATALOAD PUSH1 0x40 MLOAD PUSH2 0x54B SWAP2 DUP2 MSTORE PUSH1 0x20 ADD SWAP1 JUMP JUMPDEST PUSH1 0x40 MLOAD DUP1 SWAP2 SUB SWAP1 LOG3 POP PUSH1 0x1 ADD PUSH2 0x2F1 JUMP JUMPDEST POP PUSH2 0x566 PUSH1 0x1 DUP1 SSTORE JUMP JUMPDEST POP POP POP POP POP POP JUMP JUMPDEST PUSH2 0x576 PUSH2 0x799 JUMP JUMPDEST PUSH2 0x57E PUSH2 0x7C5 JUMP JUMPDEST PUSH2 0x586 PUSH2 0x7EF JUMP JUMPDEST PUSH0 PUSH1 0xFF DUP3 AND PUSH2 0x5AA JUMPI POP PUSH20 0x6352A56CAADC4F1E25CD6C75970FA768A3304E64 PUSH2 0x5CC JUMP JUMPDEST PUSH0 NOT PUSH1 0xFF DUP4 AND ADD PUSH2 0x391 JUMPI POP PUSH20 0x6131B5FAE19EA4F9D964EAC0408E4408B66337B5 JUMPDEST PUSH1 0x40 MLOAD PUSH4 0x6EB1769F PUSH1 0xE1 SHL DUP2 MSTORE PUSH1 0x1 PUSH1 0x1 PUSH1 0xA0 SHL SUB DUP6 DUP2 AND PUSH1 0x4 DUP4 ADD MSTORE DUP3 DUP2 AND PUSH1 0x24 DUP4 ADD MSTORE DUP5 SWAP2 PUSH32 0x0 SWAP1 SWAP2 AND SWAP1 PUSH4 0xDD62ED3E SWAP1 PUSH1 0x44 ADD PUSH1 0x20 PUSH1 0x40 MLOAD DUP1 DUP4 SUB DUP2 DUP7 GAS STATICCALL ISZERO DUP1 ISZERO PUSH2 0x63C JUMPI RETURNDATASIZE PUSH0 PUSH0 RETURNDATACOPY RETURNDATASIZE PUSH0 REVERT JUMPDEST POP POP POP POP PUSH1 0x40 MLOAD RETURNDATASIZE PUSH1 0x1F NOT PUSH1 0x1F DUP3 ADD AND DUP3 ADD DUP1 PUSH1 0x40 MSTORE POP DUP2 ADD SWAP1 PUSH2 0x660 SWAP2 SWAP1 PUSH2 0xABA JUMP JUMPDEST LT ISZERO PUSH2 0x67E JUMPI PUSH1 0x40 MLOAD PUSH3 0x461BCD PUSH1 0xE5 SHL DUP2 MSTORE PUSH1 0x4 ADD PUSH2 0x2E6 SWAP1 PUSH2 0xAD1 JUMP JUMPDEST DUP1 PUSH1 0x1 PUSH1 0x1 PUSH1 0xA0 SHL SUB AND DUP5 PUSH1 0x1 PUSH1 0x1 PUSH1 0xA0 SHL SUB AND PUSH32 0xEAB9CD112C05D2451F24ACF7702297C9705B2115923D562C663C5272A60FE76F DUP6 PUSH1 0x40 MLOAD PUSH2 0x6C3 SWAP2 DUP2 MSTORE PUSH1 0x20 ADD SWAP1 JUMP JUMPDEST PUSH1 0x40 MLOAD DUP1 SWAP2 SUB SWAP1 LOG3 POP PUSH2 0x6D5 PUSH1 0x1 DUP1 SSTORE JUMP JUMPDEST POP POP POP JUMP JUMPDEST PUSH2 0x6E2 PUSH2 0x799 JUMP JUMPDEST PUSH2 0x6EA PUSH2 0x819 JUMP JUMPDEST JUMP JUMPDEST PUSH2 0x6F4 PUSH2 0x799 JUMP JUMPDEST PUSH2 0x6EA PUSH0 PUSH2 0x86D JUMP JUMPDEST PUSH2 0x705 PUSH2 0x799 JUMP JUMPDEST PUSH2 0x6EA PUSH2 0x8BC JUMP JUMPDEST PUSH0 PUSH1 0xFF DUP3 AND PUSH2 0x731 JUMPI POP PUSH20 0x6352A56CAADC4F1E25CD6C75970FA768A3304E64 SWAP2 SWAP1 POP JUMP JUMPDEST PUSH0 NOT PUSH1 0xFF DUP4 AND ADD PUSH2 0x391 JUMPI POP PUSH20 0x6131B5FAE19EA4F9D964EAC0408E4408B66337B5 SWAP2 SWAP1 POP JUMP JUMPDEST SWAP2 SWAP1 POP JUMP JUMPDEST PUSH2 0x764 PUSH2 0x799 JUMP JUMPDEST PUSH1 0x1 PUSH1 0x1 PUSH1 0xA0 SHL SUB DUP2 AND PUSH2 0x78D JUMPI PUSH1 0x40 MLOAD PUSH4 0x1E4FBDF7 PUSH1 0xE0 SHL DUP2 MSTORE PUSH0 PUSH1 0x4 DUP3 ADD MSTORE PUSH1 0x24 ADD PUSH2 0x2E6 JUMP JUMPDEST PUSH2 0x796 DUP2 PUSH2 0x86D JUMP JUMPDEST POP JUMP JUMPDEST PUSH0 SLOAD PUSH1 0x1 PUSH1 0x1 PUSH1 0xA0 SHL SUB AND CALLER EQ PUSH2 0x6EA JUMPI PUSH1 0x40 MLOAD PUSH4 0x118CDAA7 PUSH1 0xE0 SHL DUP2 MSTORE CALLER PUSH1 0x4 DUP3 ADD MSTORE PUSH1 0x24 ADD PUSH2 0x2E6 JUMP JUMPDEST PUSH0 SLOAD PUSH1 0x1 PUSH1 0xA0 SHL SWAP1 DIV PUSH1 0xFF AND ISZERO PUSH2 0x6EA JUMPI PUSH1 0x40 MLOAD PUSH4 0xD93C0665 PUSH1 0xE0 SHL DUP2 MSTORE PUSH1 0x4 ADD PUSH1 0x40 MLOAD DUP1 SWAP2 SUB SWAP1 REVERT JUMPDEST PUSH1 0x2 PUSH1 0x1 SLOAD SUB PUSH2 0x812 JUMPI PUSH1 0x40 MLOAD PUSH4 0x3EE5AEB5 PUSH1 0xE0 SHL DUP2 MSTORE PUSH1 0x4 ADD PUSH1 0x40 MLOAD DUP1 SWAP2 SUB SWAP1 REVERT JUMPDEST PUSH1 0x2 PUSH1 0x1 SSTORE JUMP JUMPDEST PUSH2 0x821 PUSH2 0x8FE JUMP JUMPDEST PUSH0 DUP1 SLOAD PUSH1 0xFF PUSH1 0xA0 SHL NOT AND SWAP1 SSTORE PUSH32 0x5DB9EE0A495BF2E6FF9C91A7834C1BA4FDD244A5E8AA4E537BD38AEAE4B073AA CALLER JUMPDEST PUSH1 0x40 MLOAD PUSH1 0x1 PUSH1 0x1 PUSH1 0xA0 SHL SUB SWAP1 SWAP2 AND DUP2 MSTORE PUSH1 0x20 ADD PUSH1 0x40 MLOAD DUP1 SWAP2 SUB SWAP1 LOG1 JUMP JUMPDEST PUSH0 DUP1 SLOAD PUSH1 0x1 PUSH1 0x1 PUSH1 0xA0 SHL SUB DUP4 DUP2 AND PUSH1 0x1 PUSH1 0x1 PUSH1 0xA0 SHL SUB NOT DUP4 AND DUP2 OR DUP5 SSTORE PUSH1 0x40 MLOAD SWAP2 SWAP1 SWAP3 AND SWAP3 DUP4 SWAP2 PUSH32 0x8BE0079C531659141344CD1FD0A4F28419497F9722A3DAAFE3B4186F6B6457E0 SWAP2 SWAP1 LOG3 POP POP JUMP JUMPDEST PUSH2 0x8C4 PUSH2 0x7C5 JUMP JUMPDEST PUSH0 DUP1 SLOAD PUSH1 0xFF PUSH1 0xA0 SHL NOT AND PUSH1 0x1 PUSH1 0xA0 SHL OR SWAP1 SSTORE PUSH32 0x62E78CEA01BEE320CD4E420270B5EA74000D11B0C9F74754EBDBFC544B05A258 PUSH2 0x850 CALLER SWAP1 JUMP JUMPDEST PUSH0 SLOAD PUSH1 0x1 PUSH1 0xA0 SHL SWAP1 DIV PUSH1 0xFF AND PUSH2 0x6EA JUMPI PUSH1 0x40 MLOAD PUSH4 0x8DFC202B PUSH1 0xE0 SHL DUP2 MSTORE PUSH1 0x4 ADD PUSH1 0x40 MLOAD DUP1 SWAP2 SUB SWAP1 REVERT JUMPDEST PUSH0 PUSH0 DUP4 PUSH1 0x1F DUP5 ADD SLT PUSH2 0x937 JUMPI PUSH0 PUSH0 REVERT JUMPDEST POP DUP2 CALLDATALOAD PUSH8 0xFFFFFFFFFFFFFFFF DUP2 GT ISZERO PUSH2 0x94E JUMPI PUSH0 PUSH0 REVERT JUMPDEST PUSH1 0x20 DUP4 ADD SWAP2 POP DUP4 PUSH1 0x20 DUP3 PUSH1 0x5 SHL DUP6 ADD ADD GT ISZERO PUSH2 0x968 JUMPI PUSH0 PUSH0 REVERT JUMPDEST SWAP3 POP SWAP3 SWAP1 POP JUMP JUMPDEST PUSH0 PUSH0 PUSH0 PUSH0 PUSH0 PUSH0 PUSH1 0x60 DUP8 DUP10 SUB SLT ISZERO PUSH2 0x984 JUMPI PUSH0 PUSH0 REVERT JUMPDEST DUP7 CALLDATALOAD PUSH8 0xFFFFFFFFFFFFFFFF DUP2 GT ISZERO PUSH2 0x99A JUMPI PUSH0 PUSH0 REVERT JUMPDEST PUSH2 0x9A6 DUP10 DUP3 DUP11 ADD PUSH2 0x927 JUMP JUMPDEST SWAP1 SWAP8 POP SWAP6 POP POP PUSH1 0x20 DUP8 ADD CALLDATALOAD PUSH8 0xFFFFFFFFFFFFFFFF DUP2 GT ISZERO PUSH2 0x9C5 JUMPI PUSH0 PUSH0 REVERT JUMPDEST PUSH2 0x9D1 DUP10 DUP3 DUP11 ADD PUSH2 0x927 JUMP JUMPDEST SWAP1 SWAP6 POP SWAP4 POP POP PUSH1 0x40 DUP8 ADD CALLDATALOAD PUSH8 0xFFFFFFFFFFFFFFFF DUP2 GT ISZERO PUSH2 0x9F0 JUMPI PUSH0 PUSH0 REVERT JUMPDEST PUSH2 0x9FC DUP10 DUP3 DUP11 ADD PUSH2 0x927 JUMP JUMPDEST SWAP8 SWAP11 SWAP7 SWAP10 POP SWAP5 SWAP8 POP SWAP3 SWAP6 SWAP4 SWAP5 SWAP3 POP POP POP JUMP JUMPDEST DUP1 CALLDATALOAD PUSH1 0x1 PUSH1 0x1 PUSH1 0xA0 SHL SUB DUP2 AND DUP2 EQ PUSH2 0x757 JUMPI PUSH0 PUSH0 REVERT JUMPDEST DUP1 CALLDATALOAD PUSH1 0xFF DUP2 AND DUP2 EQ PUSH2 0x757 JUMPI PUSH0 PUSH0 REVERT JUMPDEST PUSH0 PUSH0 PUSH0 PUSH1 0x60 DUP5 DUP7 SUB SLT ISZERO PUSH2 0xA46 JUMPI PUSH0 PUSH0 REVERT JUMPDEST PUSH2 0xA4F DUP5 PUSH2 0xA0E JUMP JUMPDEST SWAP3 POP PUSH1 0x20 DUP5 ADD CALLDATALOAD SWAP2 POP PUSH2 0xA64 PUSH1 0x40 DUP6 ADD PUSH2 0xA24 JUMP JUMPDEST SWAP1 POP SWAP3 POP SWAP3 POP SWAP3 JUMP JUMPDEST PUSH0 PUSH1 0x20 DUP3 DUP5 SUB SLT ISZERO PUSH2 0xA7D JUMPI PUSH0 PUSH0 REVERT JUMPDEST PUSH2 0xA86 DUP3 PUSH2 0xA24 JUMP JUMPDEST SWAP4 SWAP3 POP POP POP JUMP JUMPDEST PUSH0 PUSH1 0x20 DUP3 DUP5 SUB SLT ISZERO PUSH2 0xA9D JUMPI PUSH0 PUSH0 REVERT JUMPDEST PUSH2 0xA86 DUP3 PUSH2 0xA0E JUMP JUMPDEST PUSH4 0x4E487B71 PUSH1 0xE0 SHL PUSH0 MSTORE PUSH1 0x32 PUSH1 0x4 MSTORE PUSH1 0x24 PUSH0 REVERT JUMPDEST PUSH0 PUSH1 0x20 DUP3 DUP5 SUB SLT ISZERO PUSH2 0xACA JUMPI PUSH0 PUSH0 REVERT JUMPDEST POP MLOAD SWAP2 SWAP1 POP JUMP JUMPDEST PUSH1 0x20 DUP1 DUP3 MSTORE PUSH1 0x26 SWAP1 DUP3 ADD MSTORE PUSH32 0x496E73756666696369656E74205553444320616C6C6F77616E636520666F7220 PUSH1 0x40 DUP3 ADD MSTORE PUSH6 0x3937BABA32B9 PUSH1 0xD1 SHL PUSH1 0x60 DUP3 ADD MSTORE PUSH1 0x80 ADD SWAP1 JUMP INVALID LOG2 PUSH5 0x6970667358 0x22 SLT KECCAK256 DUP10 CALLCODE CALLDATACOPY KECCAK256 SWAP15 PUSH11 0xD3CA9806BA376E34D32D0C PUSH19 0x334504C1E194B152B86188C53AC264736F6C63 NUMBER STOP ADDMOD 0x1E STOP CALLER "
		},
		"gasEstimates": {
			"creation": {
				"codeDepositCost": "578600",
				"executionCost": "infinite",
				"totalCost": "infinite"
			},
			"external": {
				"KYBERSWAP_ID()": "237",
				"OPENOCEAN_ID()": "215",
				"_KYBERSWAP_ROUTER()": "237",
				"_OPENOCEAN_ROUTER()": "259",
				"approveAutoBuy(address,uint256,uint8)": "infinite",
				"batchAutoBuy(address[],uint256[],uint8[])": "infinite",
				"getKyberSwapRouter()": "279",
				"getOpenOceanRouter()": "235",
				"getRouterAddress(uint8)": "524",
				"owner()": "2418",
				"pause()": "infinite",
				"paused()": "2396",
				"renounceOwnership()": "infinite",
				"transferOwnership(address)": "28417",
				"unpause()": "infinite",
				"usdc()": "infinite"
			}
		},
		"methodIdentifiers": {
			"KYBERSWAP_ID()": "48fcdc7b",
			"OPENOCEAN_ID()": "18c786af",
			"_KYBERSWAP_ROUTER()": "9f1f61a0",
			"_OPENOCEAN_ROUTER()": "a4518efb",
			"approveAutoBuy(address,uint256,uint8)": "2b15e47c",
			"batchAutoBuy(address[],uint256[],uint8[])": "1e8bcca5",
			"getKyberSwapRouter()": "57df19e6",
			"getOpenOceanRouter()": "612e3146",
			"getRouterAddress(uint8)": "cac73ed7",
			"owner()": "8da5cb5b",
			"pause()": "8456cb59",
			"paused()": "5c975abb",
			"renounceOwnership()": "715018a6",
			"transferOwnership(address)": "f2fde38b",
			"unpause()": "3f4ba83a",
			"usdc()": "3e413bee"
		}
	},
	"abi": [
		{
			"inputs": [
				{
					"internalType": "address",
					"name": "_usdc",
					"type": "address"
				},
				{
					"internalType": "address",
					"name": "initialOwner",
					"type": "address"
				}
			],
			"stateMutability": "nonpayable",
			"type": "constructor"
		},
		{
			"inputs": [],
			"name": "EnforcedPause",
			"type": "error"
		},
		{
			"inputs": [],
			"name": "ExpectedPause",
			"type": "error"
		},
		{
			"inputs": [
				{
					"internalType": "address",
					"name": "owner",
					"type": "address"
				}
			],
			"name": "OwnableInvalidOwner",
			"type": "error"
		},
		{
			"inputs": [
				{
					"internalType": "address",
					"name": "account",
					"type": "address"
				}
			],
			"name": "OwnableUnauthorizedAccount",
			"type": "error"
		},
		{
			"inputs": [],
			"name": "ReentrancyGuardReentrantCall",
			"type": "error"
		},
		{
			"anonymous": false,
			"inputs": [
				{
					"indexed": true,
					"internalType": "address",
					"name": "user",
					"type": "address"
				},
				{
					"indexed": false,
					"internalType": "uint256",
					"name": "usdcAmount",
					"type": "uint256"
				},
				{
					"indexed": true,
					"internalType": "address",
					"name": "router",
					"type": "address"
				}
			],
			"name": "AutoBuyApproved",
			"type": "event"
		},
		{
			"anonymous": false,
			"inputs": [
				{
					"indexed": true,
					"internalType": "address",
					"name": "previousOwner",
					"type": "address"
				},
				{
					"indexed": true,
					"internalType": "address",
					"name": "newOwner",
					"type": "address"
				}
			],
			"name": "OwnershipTransferred",
			"type": "event"
		},
		{
			"anonymous": false,
			"inputs": [
				{
					"indexed": false,
					"internalType": "address",
					"name": "account",
					"type": "address"
				}
			],
			"name": "Paused",
			"type": "event"
		},
		{
			"anonymous": false,
			"inputs": [
				{
					"indexed": false,
					"internalType": "address",
					"name": "account",
					"type": "address"
				}
			],
			"name": "Unpaused",
			"type": "event"
		},
		{
			"inputs": [],
			"name": "KYBERSWAP_ID",
			"outputs": [
				{
					"internalType": "uint8",
					"name": "",
					"type": "uint8"
				}
			],
			"stateMutability": "view",
			"type": "function"
		},
		{
			"inputs": [],
			"name": "OPENOCEAN_ID",
			"outputs": [
				{
					"internalType": "uint8",
					"name": "",
					"type": "uint8"
				}
			],
			"stateMutability": "view",
			"type": "function"
		},
		{
			"inputs": [],
			"name": "_KYBERSWAP_ROUTER",
			"outputs": [
				{
					"internalType": "address",
					"name": "",
					"type": "address"
				}
			],
			"stateMutability": "view",
			"type": "function"
		},
		{
			"inputs": [],
			"name": "_OPENOCEAN_ROUTER",
			"outputs": [
				{
					"internalType": "address",
					"name": "",
					"type": "address"
				}
			],
			"stateMutability": "view",
			"type": "function"
		},
		{
			"inputs": [
				{
					"internalType": "address",
					"name": "user",
					"type": "address"
				},
				{
					"internalType": "uint256",
					"name": "usdcAmount",
					"type": "uint256"
				},
				{
					"internalType": "uint8",
					"name": "routerId",
					"type": "uint8"
				}
			],
			"name": "approveAutoBuy",
			"outputs": [],
			"stateMutability": "nonpayable",
			"type": "function"
		},
		{
			"inputs": [
				{
					"internalType": "address[]",
					"name": "users",
					"type": "address[]"
				},
				{
					"internalType": "uint256[]",
					"name": "usdcAmounts",
					"type": "uint256[]"
				},
				{
					"internalType": "uint8[]",
					"name": "routerIds",
					"type": "uint8[]"
				}
			],
			"name": "batchAutoBuy",
			"outputs": [],
			"stateMutability": "nonpayable",
			"type": "function"
		},
		{
			"inputs": [],
			"name": "getKyberSwapRouter",
			"outputs": [
				{
					"internalType": "address",
					"name": "",
					"type": "address"
				}
			],
			"stateMutability": "pure",
			"type": "function"
		},
		{
			"inputs": [],
			"name": "getOpenOceanRouter",
			"outputs": [
				{
					"internalType": "address",
					"name": "",
					"type": "address"
				}
			],
			"stateMutability": "pure",
			"type": "function"
		},
		{
			"inputs": [
				{
					"internalType": "uint8",
					"name": "routerId",
					"type": "uint8"
				}
			],
			"name": "getRouterAddress",
			"outputs": [
				{
					"internalType": "address",
					"name": "",
					"type": "address"
				}
			],
			"stateMutability": "pure",
			"type": "function"
		},
		{
			"inputs": [],
			"name": "owner",
			"outputs": [
				{
					"internalType": "address",
					"name": "",
					"type": "address"
				}
			],
			"stateMutability": "view",
			"type": "function"
		},
		{
			"inputs": [],
			"name": "pause",
			"outputs": [],
			"stateMutability": "nonpayable",
			"type": "function"
		},
		{
			"inputs": [],
			"name": "paused",
			"outputs": [
				{
					"internalType": "bool",
					"name": "",
					"type": "bool"
				}
			],
			"stateMutability": "view",
			"type": "function"
		},
		{
			"inputs": [],
			"name": "renounceOwnership",
			"outputs": [],
			"stateMutability": "nonpayable",
			"type": "function"
		},
		{
			"inputs": [
				{
					"internalType": "address",
					"name": "newOwner",
					"type": "address"
				}
			],
			"name": "transferOwnership",
			"outputs": [],
			"stateMutability": "nonpayable",
			"type": "function"
		},
		{
			"inputs": [],
			"name": "unpause",
			"outputs": [],
			"stateMutability": "nonpayable",
			"type": "function"
		},
		{
			"inputs": [],
			"name": "usdc",
			"outputs": [
				{
					"internalType": "contract IERC20",
					"name": "",
					"type": "address"
				}
			],
			"stateMutability": "view",
			"type": "function"
		}
	]
}